:100000000C942F010C9457010C9457010C94DB0AAB
:100010000C94DB0A0C94DB0A0C9457010C945701E6
:100020000C9457010C9457010C9457010C945701F0
:100030000C9457010C9457010C9457010C945701E0
:100040000C94F6210C9457010C94EA240C941C2572
:100050000C9457010C9457010C9457010C945701C0
:100060000C9457010C945701084AD73B3BCE016EC4
:1000700084BCBFFDC12F3D6C74319ABD56833DDAFF
:100080003D00C77F11BED9E4BB4C3E916BAAAABE0E
:10009000000000803F05A84CCDB2D44EB93836A937
:1000A000020C50B9918688083CA6AAAA2ABE000074
:1000B00000803F007C3C3E5E2B3D3F2F5B5D3B2C38
:1000C0002A225C000000000800020100000304076F
:1000D0000000000000000000010204081020408021
:1000E0000102040810200102040810200404040482
:1000F00004040404020202020202030303030303D2
:100100000000000023002600290000000000250058
:1001100028002B0000000000240027002A004E4188
:100120004E494E495459494E46CDCCCC3D0AD72371
:100130003C17B7D13877CC2B329595E6241FB14FB9
:100140000A000020410000C84200401C4620BCBEFE
:100150004CCA1B0E5AAEC59D7400407A10F35A006B
:10016000A0724E18090010A5D4E80000E8764817E0
:100170000000E40B54020000CA9A3B000000E1F5C5
:1001800005000080969800000040420F000000A08B
:100190008601000000102700000000E803000000B6
:1001A000006400000000000A0000000000010000E0
:1001B0000000002C76D888DC674F0823DFC1DFAE53
:1001C00059E1B1B796E5E3E453C63AE6519976961C
:1001D000E8E6C28426EB898C9B62ED407C6FFCEFE5
:1001E000BC9C9F40F2BAA56FA5F490055A2AF75C13
:1001F000936B6CF9676DC11BFCE0E40D47FEF520C5
:10020000E6B500D0ED902E0300943577050080848C
:100210001E080000204E0A000000C80C33333333A0
:100220000F986E12831141EF8D2114893BE655160C
:10023000CFFEE6DB18D1844B381BF77C1D901DA444
:10024000BBE424203284725E228100C9F124ECA137
:10025000E53D27004707A50FEA124C255B0711244F
:100260001FBECFEFD8E0DEBFCDBF12E0A0E0B1E00F
:10027000EEE9FBE602C005900D92AC36B107D9F766
:1002800026E0ACE6B2E001C01D92A03DB207E1F766
:1002900012E0CCE5D2E004C02297FE010E94DF2DDF
:1002A000C435D107C9F70E9490250C94C2350C942F
:1002B00000008F929F92AF92BF92CF92DF92EF9207
:1002C000FF920F931F93CF93DF93EC01CB010E941A
:1002D00038316B017C010E94E72ACB0164E670E0B3
:1002E0000E947D2D8B0184E6809FB001819F700D5F
:1002F0001124882777FD8095982F0E941A2B9B0147
:10030000AC01C701B6010E94B12920E030E040E70E
:1003100052E40E947F2A6B017C01B801882777FD97
:100320008095982F0E941A2BA70196010E94B2294E
:100330004B015C0120E030E041E655E4C701B60125
:100340000E947F2A9B01AC01C501B4010E94B22921
:1003500028812B7F233509F49058DF91CF911F918D
:100360000F91FF90EF90DF90CF90BF90AF909F9054
:100370008F9008954F925F926F927F928F929F928B
:10038000AF92BF92CF92DF92EF92FF920F931F93A3
:10039000CF93DF93CDB7DEB760970FB6F894DEBF8B
:1003A0000FBECDBF2B013C0129873A874B875C8765
:1003B000E982FA820B831C839B01AC01C801B7015F
:1003C0000E94B12925E33AEF4EE85CE30E948F2CAE
:1003D00020E030E040E05FE30E948F2C0E94F22C8E
:1003E0006D837E838F83988725E33AEF4EE85CE345
:1003F000C301B2010E948F2C0E947C2A2B013C0178
:1004000025E33AEF4EE85CE3C801B7010E948F2C68
:100410000E947C2A69837A838B839C8329853A8511
:100420004B855C85C601B5010E94B12925E33AEFF1
:100430004EE85CE30E948F2C20E030E040E05FE378
:100440000E948F2C0E94F22C4B015C012D813E8179
:100450004F815885CA01B9010E948F2C6B017C0124
:1004600029813A814B815C81C301B2010E948F2CAA
:10047000A50194010E948F2CA50194010E948F2C4C
:100480009B01AC01C701B6010E94B2296B017C013E
:1004900022E030E0AB01BC018DE296E00E94CC2767
:1004A000A701960160E070E080E89FE30E94B12917
:1004B0000E94FC2C9B01AC01C701B6012D873E8731
:1004C0004F87588B0E94FC2C2D853E854F8558897F
:1004D0000E94252A9B01AC010E94B2296B017C017C
:1004E00022E030E0AB01BC018DE296E00E94CC2717
:1004F0002CEA38E74FE95BE4C701B6010E948F2C74
:1005000060960FB6F894DEBF0FBECDBFDF91CF91DE
:100510001F910F91FF90EF90DF90CF90BF90AF9021
:100520009F908F907F906F905F904F9008954F9223
:100530005F926F927F928F929F92AF92BF92CF9273
:10054000DF92EF92FF920F931F93CF93DF93CDB77C
:10055000DEB760970FB6F894DEBF0FBECDBF6983DC
:100560007A838B839C83C601B5010E94B12925E360
:100570003AEF4EE85CE30E948F2C4B015C010E9435
:10058000F22C6D837E838F83988725E33AEF4EE8C4
:100590005CE3C801B7010E948F2C2B013C010E9433
:1005A0007C2A6B017C0125E33AEF4EE85CE369812C
:1005B0007A818B819C810E948F2C69837A838B83C3
:1005C0009C830E947C2A69877A878B879C87C301DA
:1005D000B2010E94F22C9B01AC0169817A818B816E
:1005E0009C812D873E874F87588B0E94F22C2B01D0
:1005F0003C01C501B4010E947C2A69837A838B8304
:100600009C832D853E854F85588969857A858B85A4
:100610009C850E948F2C4B015C01A7019601C301B0
:10062000B2010E948F2CA70196010E948F2C298174
:100630003A814B815C810E948F2C9B01AC01C501EA
:10064000B4010E94B1294B015C01A70196016D81A3
:100650007E818F8198850E948F2CA50194010E9434
:10066000252A21EE3EE245E652E40E948F2C6B01E2
:100670007C0120E030E0A9010E94782A87FF24C095
:1006800020E030E044EB53E4C701B6010E94B229F8
:1006900020E030E044EB53E460960FB6F894DEBF00
:1006A0000FBECDBFDF91CF911F910F91FF90EF90C3
:1006B000DF90CF90BF90AF909F908F907F906F9082
:1006C0005F904F900C945C2BC701B60160960FB6FB
:1006D000F894DEBF0FBECDBFDF91CF911F910F9178
:1006E000FF90EF90DF90CF90BF90AF909F908F9052
:1006F0007F906F905F904F9008958F929F92AF92EE
:10070000BF92CF92DF92EF92FF920F931F93CF93FE
:10071000C82F4A015B01680179016EE071E08DE24A
:1007200096E00E940A268BE892E00E942921C130BF
:10073000C9F030F0C230C9F0C330D9F44FEF1AC05D
:1007400040E063E585EE0E94DF209B01AC0160E0A4
:1007500070E08BE892E00E947A208BE892E00E94A1
:100760005E1F14C040E06FEF02C04FEF60E080E01A
:1007700003C040E060E08FEF0E94DF209B01AC01EE
:1007800060E070E08BE892E00E947A2020E030E0A8
:1007900040E751E4C701B6010E94842C87FD0DC0DB
:1007A00040E060E08FEF0E94DF209B01AC0160E23F
:1007B00070E08BE892E00E947A2020E030E048E48C
:1007C00052E4C701B6010E94842C87FD0DC040E0B1
:1007D00060E08FEF0E94DF209B01AC0161E270E0DE
:1007E0008BE892E00E947A2020E030E048E453E475
:1007F000C701B6010E94842C87FD0DC040E060E077
:100800008FEF0E94DF209B01AC0162E270E08BE879
:1008100092E00E947A2020E030E048EC53E4C701E7
:10082000B6010E94842C87FD0DC040E060E08FEF90
:100830000E94DF209B01AC0163E270E08BE892E054
:100840000E947A2020E030E04AE754E4C701B60174
:100850000E94842C87FD0DC040E060E08FEF0E9475
:10086000DF209B01AC0164E270E08BE892E00E9423
:100870007A2020E030E04AEF54E4C701B6010E943C
:10088000842C87FD0DC040E060E08FEF0E94DF20E8
:100890009B01AC0165E270E08BE892E00E947A2057
:1008A00020E030E04AE755E4C701B6010E94842CFD
:1008B00087FD0DC040E060E08FEF0E94DF209B01CC
:1008C000AC0166E270E08BE892E00E947A2020E0C2
:1008D00030E045EA55E4C701B6010E94842C87FD4B
:1008E0000DC040E060E08FEF0E94DF209B01AC0173
:1008F00067E270E08BE892E00E947A2020916C021F
:1009000030916D0240916E0250916F02C501B401A9
:100910000E94B2290E94E72A7B0177FF05C028E9DF
:10092000E21A2EEFF20A09C0693621E072072CF0B4
:100930007B0128E6E21A21E0F20A4AE050E0B70122
:100940008DE296E00E94B526C70106978E3521E01C
:100950009207A8F487339105A8F0C7978C339105C7
:10096000A0F0CC978238910598F08BEFE81AF10847
:1009700022E3E216F10478F484E090E00EC080E017
:1009800090E00BC081E090E008C082E090E005C0FC
:1009900083E090E002C085E090E08330910509F4A7
:1009A000BDC044F48130910509F463C0029709F495
:1009B000ABC007C08430910509F4FBC0059709F46A
:1009C0001CC14FEF6FEF80E00E94DF209B01AC0164
:1009D00063E070E08BE892E00E947A204FEF6FEFC7
:1009E00080E00E94DF209B01AC0164E070E08BE8B6
:1009F00092E00E947A204FEF6FEF80E00E94DF20AC
:100A00009B01AC016BE070E08BE892E00E947A20E1
:100A10004FEF6FEF80E00E94DF209B01AC016CE0A4
:100A200070E08BE892E00E947A204FEF6FEF80E059
:100A30000E94DF209B01AC0163E170E08BE892E053
:100A40000E947A204FEF6FEF80E00E94DF209B0131
:100A5000AC0164E170E08BE892E00E947A204FEFF5
:100A60006FEF80E00E94DF209B01AC016BE170E042
:100A70003DC04FEF6FEF80E00E94DF209B01AC0193
:100A800066E070E08BE892E00E947A204FEF6FEF13
:100A900080E00E94DF209B01AC0167E070E08BE802
:100AA00092E00E947A204FEF6FEF80E00E94DF20FB
:100AB0009B01AC016EE070E08BE892E00E947A202E
:100AC0004FEF6FEF80E00E94DF209B01AC016FE0F1
:100AD00070E08BE892E00E947A204FEF6FEF80E0A9
:100AE0000E94DF209B01AC0165E170E08BE892E0A1
:100AF0000E947A204FEF6FEF80E00E94DF209B0181
:100B0000AC016CE170E0B6C04FEF6FEF80E00E9487
:100B1000DF209B01AC016CE170E023C04FEF6FEF71
:100B200080E00E94DF209B01AC0168E170E08BE86F
:100B300092E00E947A204FEF6FEF80E00E94DF206A
:100B40009B01AC0169E170E08BE892E00E947A20A1
:100B50004FEF6FEF80E00E94DF209B01AC016AE164
:100B600070E08BE892E00E947A204FEF6FEF80E018
:100B70000E94DF209B01AC016DE170E08BE892E008
:100B80000E947A204FEF6FEF80E00E94DF209B01F0
:100B9000AC016EE170E08BE892E00E947A204FEFAA
:100BA0006FEF80E00E94DF209B01AC016FE170E0FD
:100BB00061C04FEF6FEF80E00E94DF209B01AC012E
:100BC00068E170E08BE892E00E947A204FEF6FEFCF
:100BD00080E00E94DF209B01AC0169E170E08BE8BE
:100BE00092E00E947A204FEF6FEF80E00E94DF20BA
:100BF0009B01AC016AE170E030C04FEF6FEF80E025
:100C00000E94DF209B01AC0169E070E08BE892E07C
:100C10000E947A204FEF6FEF80E00E94DF209B015F
:100C2000AC016AE070E08BE892E00E947A204FEF1E
:100C30006FEF80E00E94DF209B01AC0161E170E07A
:100C40008BE892E00E947A204FEF6FEF80E00E94E5
:100C5000DF209B01AC0162E170E08BE892E00E9432
:100C60007A204FEF6FEF80E00E94DF209B01AC0104
:100C70006BE170E08BE892E00E947A208BE892E0D2
:100C8000CF911F910F91FF90EF90DF90CF90BF9089
:100C9000AF909F908F900C945E1F0F931F93CF93F4
:100CA000DF93CDB7DEB7A7970FB6F894DEBF0FBEC0
:100CB000CDBF40ED57E060E070E08DEE95E00E9422
:100CC0005D2120E032EC41E050E06DE276E08DEE17
:100CD00095E00E9470218DEE95E00E945A2167E117
:100CE00071E080911E0690911F060E94EB256AE03C
:100CF00070E080E090E00E946F2241E060E08DEEC5
:100D000095E00E94DB2126E040E052EC61E070E0DB
:100D10008DE296E00E9488248BE892E00E94DA1E21
:100D20006AE08BE892E00E94E8208BE892E00E9463
:100D30005E1F6091080188E993E00E94F30D811124
:100D400006C069E271E08DE296E00E940A2665E441
:100D500071E08DE296E00E940A2666E072E0CE0124
:100D600082960E944C2800E010E04AE0B801CE01D3
:100D70004C960A30110528F40E949A2867E571E024
:100D800004C00E949A2864E671E0CE0101960E9498
:100D90004C28BE01645E7F4FCE0101960E946729F8
:100DA0006FE571E00E947A29BC01CE0182960E9413
:100DB0006228CE0101960E94DE27CE014C960E9449
:100DC000DE276AA17BA188E993E00E949A0F88231D
:100DD00029F00F5F1F4F0436110539F64AA15BA1B8
:100DE00023E168E973E0CE0101960E940C0F8B812C
:100DF0009C8190937302809372028D819E81AF815A
:100E0000B8858093740290937502A0937602B09394
:100E1000770289859A85AB85BC858093780290930B
:100E20007902A0937A02B0937B028DE0FE013D9699
:100E3000ACE7B2E001900D928A95E1F78A8D9B8D27
:100E400090938A0280938902CE0182960E94DE27C7
:100E5000A7960FB6F894DEBF0FBECDBFDF91CF913E
:100E60001F910F9108951F93CF93DF93182FC8EE12
:100E7000D3E0812F0E947C23892B21F42197C9F78D
:100E800081E001C080E0DF91CF911F91089520E0C3
:100E900047E068E080EA92E00E94AE0B22E530E095
:100EA00046E068E270E08BE892E00E94522080E722
:100EB00092E00C949C0C8BE892E00E94C61E80EAA3
:100EC00092E00C94550BCF93DF936BE671E08DE2CB
:100ED00096E00E940A2680E8E8ECF2E0DF011D922D
:100EE0008A95E9F7C0E080EA92E00E94950A4AE01C
:100EF00050E0BC018DE296E00E94B52680EA92E0C7
:100F00000E94950A019679F380EA92E00E94210AF4
:100F1000AC2FB0E0A853BD4F8C93CC2329F0843282
:100F200019F48093C802C0E08091C8028432D9F6D7
:100F300081E08C0FEC2FF0E0E853FD4F90819A3068
:100F400011F0C82FD0CF90E0FC01EA53FD4F108282
:100F5000EC012597FE01E853FD4F20812A3219F05C
:100F600063E771E019C040E150E060E070E08C534D
:100F70009D4F0E94043021E0822F90E08C179D0746
:100F80003CF4FC01E853FD4F808168272F5FF4CFCC
:100F9000662339F06DE771E08DE296E00E940A2643
:100FA000A1CF65E871E08DE296E0DF91CF910C94DE
:100FB0000A262F923F924F925F926F927F928F926A
:100FC0009F92AF92BF92CF92DF92EF92FF920F93D8
:100FD0001F93CF93DF93CDB7DEB7E0970FB6F894AA
:100FE000DEBF0FBECDBF0E944022672B682B692B4E
:100FF00041F40E944022623071058105910508F498
:1010000076C00E9440226093480370934903809306
:101010004A0390934B03C0904C03D0904D03E09053
:101020004E03F0904F036C157D058E059F0540F42F
:1010300060934C0370934D0380934E0390934F0342
:1010400000914C0310914D0320914E0330914F03BA
:101050006B017C01C01AD10AE20AF30A97018601EA
:101060000A3F11052105310508F441C060934C0386
:1010700070934D0380934E0390934F038DEE95E054
:101080000E945A216CE871E080911E0690911F0623
:101090000E94EB2564E971E080911E0690911F0685
:1010A0000E94EB250E944022AB01BC012AE030E007
:1010B00080911E0690911F060E94CD2666E971E080
:1010C00080911E0690911F060E94EB2565E070E05E
:1010D00080E090E00E946F226AE070E080E090E0A3
:1010E0000E946F2261E08DEE95E00E949D2180912B
:1010F0000601909107010E943307882379F020911F
:10110000C702822F90E003971CF42F5F2093C70241
:101110006FE971E08DE296E00E940A260E94630763
:101120008091CB02823509F023C18BE03E012CE097
:10113000620E711CF301C82E1192CA94E9F71CA625
:101140001BA69E012F5F3F4F4901F90111928A951D
:10115000E9F71AA619A6E8ECF2E0CF01885C924004
:1011600021912C32D1F70196FC01E853FD4F2081EB
:1011700001962C32C9F7FC01E853FD4F20810196FE
:101180002C32C9F7F301DC01A853BD4F2C91019615
:101190002C3211F02193F7CFFE01BB962F01DC0119
:1011A000A853BD4F2C9101962C3211F02193F7CF0B
:1011B000F401DC01A853BD4F2C9101962C3211F0A3
:1011C0002193F7CFFE01B9961F01DC01A853BD4F53
:1011D0002C912C3219F021930196F7CF6AEA71E035
:1011E0008DE296E00E940A26B401C1010E945901D5
:1011F0009B01AC01B301C2012DA73EA74FA758AB7D
:101200000E9459012FEDA22E2BE9B22E22EAC22E06
:1012100022ECD22E1AE9E12E11ECF12E04EE11E4AB
:101220002DA53EA54FA558A90E9497026093BF0225
:101230007093C0028093C1029093C202B401C101B5
:101240000E9459019B01AC01B301C2012DA73EA729
:101250004FA758AB0E9459012DA53EA54FA558A9EF
:101260000E94BA016093C3027093C4028093C502C6
:101270009093C60262EB71E08DE296E00E940A262E
:101280004091BF025091C0026091C1027091C202B0
:1012900022E0CE0147960E94C6284091C302509199
:1012A000C4026091C5027091C60222E0CE0183960D
:1012B0000E94C628BE016D5D7F4FCE014D960E94F3
:1012C00079286BEC71E0CE014D960E947A29BE011F
:1012D000695E7F4F0E946729BC018DE296E00E9403
:1012E000F825CE014D960E94DE27CE0183960E94FE
:1012F000DE27CE0147960E94DE27C090C302D09021
:10130000C402E090C502F090C602B301CE01479638
:101310000E944C28B401CE0183960E944C28BE0145
:101320006D5D7F4FCE014D960E9479286CE2CE0113
:101330004D960E949429BE01695E7F4F0E946729E5
:101340006CE20E949429B701A6010E94A229BC0167
:1013500080E792E00E94F825CE014D960E94DE279C
:10136000CE0183960E94DE27CE0147960E94DE279B
:101370000091C3021091C4022091C5023091C602AF
:101380004091BF025091C0026091C1027091C202AF
:101390008091C7020E947D0368EC72E08DE296E0C6
:1013A0000E940A26E0960FB6F894DEBF0FBECDBFAE
:1013B000DF91CF911F910F91FF90EF90DF90CF9031
:1013C000BF90AF909F908F907F906F905F904F9065
:1013D0003F902F900895CF93CFB7F8948091530307
:1013E000811127C0E6EFF0E08491E2EEF0E0949105
:1013F000E82FF0E0EE0FFF1FEC5EFE4FA591B491D9
:101400008C91892321F461E08AE00E94462361E007
:101410008AE00E940D238CB580618CBD8CB5806400
:101420008CBD61E08DE00E940D2361E08BE00E94A5
:101430000D23809153038F5F80935303CFBFCF91D0
:101440000895209196033091970328173907B9F42E
:101450009091540380915503981789F0E0915403BB
:10146000F0E0EA5AFC4F80812091540330E02F5F76
:101470003F4F2F7333272093540390E008958FEF4D
:101480009FEF08951F93CF93DF93DC015C968D91BE
:101490009C915D97009749F481E090E013969C93AE
:1014A0008E93129780E090E03BC05196ED91FC91B5
:1014B000529750962C915097322F30951FB75E96C9
:1014C0004C915E9741FB772770F941FD6095F89448
:1014D0004081772311F0422B01C043234083EC016C
:1014E0002197F1F748E0508160FF02C0522B01C004
:1014F00053235083EC012197F1F76695415099F7FA
:101500008081772311F0832301C0822B80831FBF4A
:101510005C968D919C915D970197F1F781E090E049
:10152000DF91CF911F9108950895209196033091F6
:1015300097032817390771F490915403809155034C
:10154000981741F0E0915403F0E0EA5AFC4F808193
:1015500090E008958FEF9FEF0895209196033091CA
:1015600097032817390771F480915503209154038C
:1015700090E0805C9F4F821B910960E470E00E94C4
:101580007D2D089580E090E00895E0919603F0911C
:101590009703E817F90769F4A389B4899C918589B1
:1015A000809589238C93109297031092960381E083
:1015B000089580E008951F920F920FB60F921124A4
:1015C0002F933F934F935F936F937F938F939F934B
:1015D000AF93BF93EF93FF93E0919603F09197033E
:1015E000309709F451C0868DA685B785958581FF12
:1015F00004C08C91892329F447C08C91892309F078
:1016000043C0A389B4899C918589809589238C9353
:10161000868997890197F1F7208D318DA685B78549
:10162000758558E040E0C9010197F1F7842F90E0FB
:1016300095958795482F6C91672309F04068515024
:1016400091F7868D81FD40958091550390E001963C
:101650008F73992720915403281749F0A0915503BF
:10166000B0E0AA5ABC4F4C938093550303C0868DBB
:101670008160868F828D938D0197F1F7A389B4895C
:101680008C919589892B8C93FF91EF91BF91AF91AC
:101690009F918F917F916F915F914F913F912F918A
:1016A0000F900FBE0F901F90189521ED31E0FC01B7
:1016B000318320830C94C50A1F93CF93DF93EC01F1
:1016C000162F6E8D6695617081E06827812F0E94CC
:1016D000462361E0812F0E940D23812F90E0FC01C1
:1016E000E852FF4FE491E88BFC01E451FF4FE49195
:1016F000F0E0EE0FFF1FE65FFE4F859194919A8B0D
:10170000898BDF91CF911F9108951F93CF93DF9322
:10171000EC01162F60E0812F0E940D238E8D81FD3C
:1017200004C061E0812F0E9446231C87812F90E036
:10173000FC01E852FF4FE491ED87FC01E451FF4FBB
:10174000E491F0E0EE0FFF1FE050FF4F8591949180
:101750009F878E87DF91CF911F910895FF920F93FE
:101760001F93CF93DF93EC01F62E522F1B821A8228
:1017700008EE13E020E030E00C831D832E833F83CE
:1017800081ED91E0998388831F8A1E8A198E188EB5
:101790001B8E1A8E1D8E1C8E8E8D8E7F50FB81F9B6
:1017A0008E8F642FCE010E945C0B6F2DCE01DF91D6
:1017B000CF911F910F91FF900C94850BCF93DF93E6
:1017C0001F92CDB7DEB76983DC01ED91FC910280F9
:1017D000F381E02D41E050E0BE016F5F7F4F09953E
:1017E0000F90DF91CF910895CF93DF93EC01898D16
:1017F0009A8D009759F0FC01138212820E946B1897
:10180000E98DFA8D22813381232B31F081E090E044
:101810009B838A8380E090E0DF91CF910895FC0163
:10182000818D928D009711F00C940B160895CF9333
:10183000DF931F92CDB7DEB741E050E0BE016F5F8E
:101840007F4F0E941C14019719F4898190E002C017
:101850008FEF9FEF0F90DF91CF910895FC01818D65
:10186000928D009711F00C94170C8FEF9FEF089555
:101870000F931F93CF93DF938C01FC01818D928D89
:101880000097B9F00E94170CEC018F3FFFEF9F0704
:1018900099F0F801818D928DFC0142855385648514
:1018A000758541505109610971090E946F15CE017A
:1018B00005C080E090E002C08FEF9FEFDF91CF91F5
:1018C0001F910F910895CF92DF92EF92FF920F93A5
:1018D0001F93CF93DF93EC017B016A011B821A8275
:1018E00008EE13E020E030E00C831D832E833F835D
:1018F00081EE91E0998388838DE190E00E94132E20
:101900009A8F898F009779F02DE1F701DC01019022
:101910000D922A95E1F74CE050E0B601CE010C960D
:101920000E947331188EDF91CF911F910F91FF901C
:10193000EF90DF90CF900895FC011382128248EE61
:1019400053E060E070E0448355836683778381EEE3
:1019500091E091838083128E118E14860895DC01AC
:101960005996ED91FC915A97309729F062857385CD
:101970008485958508956FEF7FEFCB010895DC0195
:101980005996ED91FC915A97309729F063897489A3
:1019900085899689089560E070E0CB010895CF9223
:1019A000DF92EF92FF92CF93DF93EC01898D9A8DB6
:1019B000892BD9F0CE010E94BF0C6B017C01CE01B6
:1019C0000E94AF0CA7019601261B370B480B590B41
:1019D000DA01C901811530E89307A105B10538F096
:1019E0008FEF9FE7A0E0B0E002C080E090E0DF91E1
:1019F000CF91FF90EF90DF90CF9008951F93CF93FA
:101A0000DF93CDB7DEB76D970FB6F894DEBF0FBE8C
:101A1000CDBFAB011C821B8223EF31E03A832983C7
:101A20001E8221E0BC01CE0101960E94861711E0C2
:101A3000811102C010E004C0CE0101960E9452162E
:101A4000812F6D960FB6F894DEBF0FBECDBFDF912C
:101A5000CF911F910895CF93DF93FB0120813181B6
:101A6000FC01E20FF31FE081EF3211F42F5F3F4FD3
:101A7000DA01E0E0F0E0EC01C20FD31FC881CF3201
:101A800049F0CC2339F031962F5F3F4FCD93EC30A6
:101A9000F10589F7E40FF51F1082FC01E20FF31F37
:101AA00040814F3211F42F5F3F4FFB013183208380
:101AB000FC01E20FF31F81E09081911101C080E0F1
:101AC000DF91CF9108954F925F926F927F928F92A4
:101AD0009F92AF92BF92CF92DF92EF92FF920F93BD
:101AE0001F93CF93DF93CDB7DEB7C954D1090FB69B
:101AF000F894DEBF0FBECDBF5C016B013A01490116
:101B000019A218A283EF91E09F8F8E8F1BA21C82D7
:101B10001B829A8389831E822A961FAE1EAE2A9745
:101B20008B017E018EE1E80EF11C44244394AE014A
:101B3000455C5F4FBE01685B7F4FC5010E942B0D66
:101B4000582E482F44259401BE01655C7F4FC80183
:101B5000F3010995811108C00C151D0519F0C80184
:101B60000E94521680E027C05520B9F021E0AE0156
:101B7000455C5F4FB801C7010E948617582E0C15AF
:101B80001D0599F0C8010E945216552059F3902F57
:101B9000812F8701E92EF82ECACF0C151D0519F0EB
:101BA000C8010E94521681E006C08823D9F28E0136
:101BB0000F5F1F4FECCFC75BDF4F0FB6F894DEBF50
:101BC0000FBECDBFDF91CF911F910F91FF90EF908E
:101BD000DF90CF90BF90AF909F908F907F906F904D
:101BE0005F904F9008950F931F93CF93DF93EC0175
:101BF000462F61E00E94E210811102C080E01DC00A
:101C00008E01045F1F4F41E0BE01C8010E94B21D5A
:101C1000882359F0B801CE018A960E94CC1391E036
:101C2000811101C090E0892F08C040E0BE01C801C9
:101C30000E94B21D882311F3EDCFDF91CF911F9148
:101C40000F910895FC01DB0112968D919C911397E1
:101C50009383828383EF91E09183808314968C91A8
:101C60001497848315968C911597858316964D91BC
:101C70005D916D917C911997468357836087718739
:101C80001A964D915D916D917C911D974287538776
:101C9000648775871E964D915D916D917C915197EA
:101CA00046875787608B718B52968C915297828BA7
:101CB00053964D915D916D917C915697438B548BCA
:101CC000658B768B57964D915D916D917C915A976E
:101CD000478B508F618F728F5B968D919C915C9733
:101CE000948F838F08954F925F926F927F928F921D
:101CF0009F92AF92BF92CF92DF92EF92FF920F939B
:101D00001F93CF93DF93CDB7DEB7C754D1090FB67A
:101D1000F894DEBF0FBECDBF6C014A013901665D8C
:101D20007F4F5E018EE1A80EB11CC5010E94220EFC
:101D30001C821B8283EF91E09A8389831E82840137
:101D4000FE0131967F015A2C4B2C6FE270E0C801E6
:101D50000E9461310097E9F1F80120812F3219F4D6
:101D60000F5F1F4FF2CF801B8D3008F08CE0A82E44
:101D7000B12CA501B801CE01CB960E947331EBE3E3
:101D8000F0E0EC0FFD1FEA0DFB1D1082C7010E9461
:101D9000521621E0AE01455C5F4F652D742DC701E1
:101DA0000E948617811109C0F6011382128283EF07
:101DB00091E091838083158216C00A0D1B1D852D2D
:101DC000942D0E945216C2015E2C4F2CE92EF82E43
:101DD000BCCF08191909F30111830083652D742DF7
:101DE000C6010E94220EC601C95BDF4F0FB6F894F0
:101DF000DEBF0FBECDBFDF91CF911F910F91FF903E
:101E0000EF90DF90CF90BF90AF909F908F907F909A
:101E10006F905F904F9008959F92AF92BF92CF9234
:101E2000DF92EF92FF920F931F93CF93DF93CDB783
:101E3000DEB7C955D1090FB6F894DEBF0FBECDBFCE
:101E40007C016B015A01922E9E01285A3F4FCE0110
:101E5000CB960E94730E6A960EAD1FAD6A970A0D5F
:101E60001B1DF801808181110AC0BE01655C7F4F96
:101E7000CE0101960E94220E4DEE51E041C019A202
:101E800018A283EF91E09F8F8E8F1BA221968FADBA
:101E90002197811104C0C7010E949C0C37C0825059
:101EA000823060F4B601665D7F4F292DA801CE0116
:101EB0004E960E948617811110C0EDCF292DA801E2
:101EC000BE01655C7F4FCE014E960E948617882327
:101ED00011F3CE01CB960E945216892D867041F0E7
:101EE00049A95AA96BA97CA9CE014E960E946F15EB
:101EF000BE01625E7F4FCE0101960E94220EA801B4
:101F0000BE016F5F7F4FC7010E94630CC701C75AB4
:101F1000DF4F0FB6F894DEBF0FBECDBFDF91CF917C
:101F20001F910F91FF90EF90DF90CF90BF90AF90F7
:101F30009F900895FB01BC01665D7F4F20E030E07B
:101F40004EEF5CE0CF010C94630D10929D03109254
:101F50009E031092A1031092A30382E090E0A0E000
:101F6000B0E08093A4039093A503A093A603B0933D
:101F7000A7031092BB031092C5031092C40383EF12
:101F800091E09093C3038093C2031092C703089516
:101F90009FB7F8942091520380915003213019F497
:101FA0008DBB9FBF08958FBF0895209152032223B8
:101FB00099F03FB7F89420915203213059F42DB392
:101FC000209350034DB320915103209524232DBB22
:101FD0003FBF02C0309350038CBD9DBD08958EBDA0
:101FE00000000DB407FEFDCF8EB508958FEF0C9461
:101FF000EF0F61E0FC0184810E9446238091E103A0
:10200000882339F01092E1038091520381110C94DE
:10201000C80F0895CF93DF93EC018091E103811104
:1020200009C081E08093E1038091E2039091E30392
:102030000E94D50F60E08C81DF91CF910C944623F4
:10204000CF93DF93EC018E81882389F08F8198856F
:102050009C012F5F3F4F38872F838230924018F4C6
:102060000E94F60FF3CFCE010E94F90F1E82DF917E
:10207000CF910895673028F026E1FC01258380E0A8
:102080000895623081F030F4662359F06130B1F484
:1020900080E515C0643059F040F0653079F482E590
:1020A0000EC080E505C081E503C081E508C082E57A
:1020B0008093E20381E08093E303089583E58093B6
:1020C000E2031092E30381E008950F931F93CF93EF
:1020D000DF93EB010E9440228B010E94F60F8F3F9D
:1020E00049F00E944022601B710B6C177D07A8F31A
:1020F00080E001C081E0DF91CF911F910F910895A1
:10210000CF92DF92FF920F931F93CF93DF9300D074
:1021100000D0CDB7DEB76C01F62E29833A834B830E
:102120005C830E942010C6010E940A106CE271E0DC
:10213000C6010E9465108F2D80640E94EF0F08E198
:1021400010E05C814B813A812981DA01C901002EBE
:1021500004C0B695A795979587950A94D2F72983D9
:102160003A834B835C830E94EF0F08501109298149
:102170003A814B815C81083F8FEF180731F7FF20D0
:1021800029F0E8E0FE1621F08FEF03C085E901C0D9
:1021900087E80E94EF0F10E00E94F60FF601828799
:1021A00087FF04C01F3F11F01F5FF6CF0F900F9005
:1021B0000F900F90DF91CF911F910F91FF90DF90C3
:1021C000CF900895BF92CF92DF92EF92FF920F933C
:1021D0001F93CF93DF93EC01B62E1B8619861E82C8
:1021E0001D824C830E9440228B0161E08C810E9401
:1021F0000D2361E08C810E9446230E94EB0982E559
:102200008093E2031092E3038091E2039091E30351
:102210000E94D50F2AE0F22E8FEF0E94EF0FFA9462
:10222000D9F78091520381110E94C80FCE010E94FC
:102230000A1020E030E0A90160E0CE010E94801089
:10224000F82E8A8781E0F81649F00E944022601B30
:10225000710B613D774068F381E04BC02AEA31E0C1
:1022600040E050E068E0CE010E94801082FF02C092
:10227000FB860DC094E0F92E0E94F60F8A87FA942F
:10228000D9F78A3A11F082E034C082E08B878B85DF
:10229000823031F4C12CD12CE12C80E4F82E03C023
:1022A000C12CD12C760120E030E0A90167E3CE01FA
:1022B0000E948010A701960169E2CE010E94801061
:1022C0008A87882349F00E944022601B710B613D80
:1022D000774048F388E00DC08B85823031F520E0EF
:1022E00030E0A9016AE3CE010E948010882381F0CA
:1022F00086E08D83CE010E94F90F80E0DF91CF91BF
:102300001F910F91FF90EF90DF90CF90BF900895B5
:102310000E94F60F807C803C11F483E08B870E9442
:10232000F60F0E94F60F0E94F60FCE010E94F90FE1
:102330006B2DCE01DF91CF911F910F91FF90EF9008
:10234000DF90CF90BF900C943A100F931F93CF93D0
:10235000DF93EC010E9440228B010E94F60F8A87D6
:102360008F3F49F40E944022601B710B6D32714017
:10237000A0F38FE003C08E3F39F08DE08D83CE0156
:102380000E94F90F80E001C081E0DF91CF911F91A1
:102390000F910895CF92DF92EF92FF920F931F93C8
:1023A000CF93DF93EC0169010115110509F462C0B7
:1023B000C801820F931F8130924008F05DC08E816A
:1023C000882371F088819981AA81BB8148175907B8
:1023D0006A077B0729F48F819885C816D90610F5FE
:1023E000488359836A837B838B85833039F039E056
:1023F000440F551F661F771F3A95D1F79A01AB011D
:1024000061E1CE010E948010882319F083E08D8362
:1024100033C0CE010E94A511882371F118861F8256
:1024200081E08E838F8198858C159D0540F40E94F4
:10243000F60F8F819885019698878F83F3CF670178
:10244000E00EF11ECE14DF0431F00E94F60FF6010B
:1024500081936F01F7CF8F819885800F911F9887A7
:102460008F832985222319F08115924018F0CE011F
:102470000E94201081E004C0CE010E94F90F80E08C
:10248000DF91CF911F910F91FF90EF90DF90CF9050
:102490000895EF92FF920F931F93790100E012E0ED
:1024A00020E030E00E94CA111F910F91FF90EF9041
:1024B0000895CF92DF92EF92FF920F931F93CF93E5
:1024C000DF9300D0CDB7DEB78C01862F49835A83C6
:1024D0000E94EF0F4981C42E5A81D52EE12CF12C98
:1024E000F60181916F010E94EF0FFFEFEF1AFF0AD3
:1024F000E11482E0F806A1F78FEF0E94EF0F8FEF53
:102500000E94EF0F0E94F60FF80182878F718530CD
:1025100039F081E18583C8010E94F90F80E001C094
:1025200081E00F900F90DF91CF911F910F91FF905D
:10253000EF90DF90CF9008950F931F93CF93DF9389
:10254000EC018901411551056105710511F482E124
:1025500032C08B85833039F089E0440F551F661FE8
:10256000771F8A95D1F79A01AB0168E1CE010E94ED
:102570008010882311F084E01EC0A8016EEFCE0108
:102580000E9459128823C1F068E572E0CE010E94D2
:102590006510811102C085E10EC020E030E0A90184
:1025A0006DE0CE010E948010811104C00E94F60FE0
:1025B000882339F084E18D83CE010E94F90F80E0F9
:1025C00004C0CE010E94F90F81E0DF91CF911F91ED
:1025D0000F91089580E58093E2031092E30308953C
:1025E000CF93DF93EC019C012A5F3F4F41E050E025
:1025F00060E070E08B8D9C8D0E94471C8823A1F0C9
:102600004F89588D698D7A8D452B462B472B71F458
:102610004E815F81688579854F8B588F698F7A8F5E
:102620008C8180688C8302C080E001C081E0DF91F2
:10263000CF910895CF92DF92EF92FF921F93CF93A5
:10264000DF93EC010E94F012811102C080E04BC0C8
:10265000EB8DFC8DCE80DF80E884F98482E0C81A9F
:10266000D108E108F108058404C0CC0CDD1CEE1C87
:10267000FF1C0A94D2F74685578560897189C40E7C
:10268000D51EE61EF71E148181E0C81AD108E108A4
:10269000F108112361F0C701B601610F711D811DA1
:1026A000911D0E94911A882389F21150F2CFEB8D6F
:1026B000FC8DC12C82E0D82EE12CF12C058404C0C5
:1026C000CC0CDD1CEE1CFF1C0A94D2F74B895C89F4
:1026D0006D897E894C0D5D1D6E1D7F1D4B8B5C8B46
:1026E0006D8B7E8B81E0DF91CF911F91FF90EF90FA
:1026F000DF90CF900895CF93DF93EC01462F6E8546
:102700007F85888999890E94561A882341F08A8991
:1027100020E2829FC001112483519C4F02C080E0BF
:1027200090E0DF91CF910895282FFB018BE030E2FC
:1027300031938150E9F7A22FB92F20E037E09D9126
:10274000992319F19E3219F0E4EBF0E008C03A3019
:1027500011F128E03AE0F3CF31964917E1F04491C6
:102760004111FACF3217B8F04FED490F4E3598F4BA
:1027700041E0420FFB01E20FF11D2FE9290F2A3141
:1027800008F490529083242FDACF81E0FB019081EE
:10279000903209F480E008950F931F93CF93DF9355
:1027A000EC018B018D81882311F080E040C0FB019A
:1027B00087898031B1F482E08D831F8A188E198E4B
:1027C0001A8E408D518D60E070E095E0440F551FEA
:1027D000661F771F9A95D1F74B8B5C8B6D8B7E8B29
:1027E00015C0803211F783E08D83FB01428D538D3C
:1027F000648D758D4F8B588F698F7A8F9E012D5EFA
:102800003F4FC8010E943B1B882379F21C8F0B8F1E
:1028100081E08C831E821F82188619861A861B8689
:102820001C861D861E861F86188A198A1A8ADF91C1
:10283000CF911F910F9108952F923F924F925F92E7
:102840006F927F928F929F92AF92BF92CF92DF92C0
:10285000EF92FF920F931F93CF93DF93EC016B01E5
:102860005A018D81811103C08FEF9FEFDAC08C81F7
:1028700080FFFACF4B895C896D897E898A859B852B
:10288000AC85BD852501612C712C8A019B01081B3B
:10289000190B2A0B3B0B041515052605370518F4F3
:1028A0005A01A81AB90A25011E0126E0220E311C80
:1028B0004114510409F47BC04A855B856C857D8594
:1028C0004A0181E09822ED818A019B01F9E0369569
:1028D000279517950795FA95D1F78B8D9C8DE2304A
:1028E00051F4FC01628D738D848D958D600F711F85
:1028F000821F931F3EC0FC0174807A947022811461
:102900009104C9F4711017C0452B462B472B49F48D
:102910008F89988DA98DBA8D8E839F83A887B9875B
:102920000AC04E815F816885798591010E94B71A3E
:10293000882309F499CFEB8DFC8D6E817F8188858A
:1029400099856250710981099109058404C0660F57
:10295000771F881F991F0A94D2F70685178520894B
:102960003189600F711F821F931F670D711D811DBB
:10297000911D20E032E0281939093201241535056E
:1029800008F439012C8126FD04C06114F2E07F06B1
:10299000A1F500910A0110910B0120910C013091D9
:1029A0000D01601771078207930719F426C0C5014E
:1029B00038C0760183019401AB01BC018091EB0327
:1029C0009091EC030E94CA11882309F44DCFC60CE4
:1029D000D71C04C0E81BF90BCE0EDF1E8A859B8531
:1029E000AC85BD85860D971DA11DB11D8A879B876E
:1029F000AC87BD87461857085BCF40E00E94561A47
:102A0000882309F431CFC40183519C4FD6019C0126
:102A1000260D371DFC01E217F307E1F241914D93BA
:102A2000FACFDF91CF911F910F91FF90EF90DF9040
:102A3000CF90BF90AF909F908F907F906F905F905E
:102A40004F903F902F900895FF920F931F93CF9335
:102A5000DF931F92CDB7DEB78C01FC0185818230F8
:102A600018F480E090E034C0F80142855385648515
:102A70007585A5E07695679557954795AA95D1F701
:102A8000F42FFF70FF2E41E050E0BE016F5F7F4FDB
:102A9000C8010E941C14019719F4298130E002C07A
:102AA0002FEF3FEF2F3F3F4FE1F2F8014285538573
:102AB00064857585415E5F4F6F4F7F4F42875387B7
:102AC00064877587F0E2FF9EC001112483519C4FFB
:102AD0000F90DF91CF911F910F91FF9008954F922A
:102AE0005F926F927F92AF92BF92CF92DF92EF92FE
:102AF000FF920F931F93CF93DF93EC016A017B0149
:102B00002D81222309F457C08B899C89AD89BE8908
:102B100084179507A607B70708F44DC04EC08A85ED
:102B20009B85AC85BD85EB8DFC8DE585F0E0399608
:102B3000AC01BD0141505109610971090E2E04C05B
:102B400076956795579547950A94D2F79701860130
:102B5000015011092109310904C0369527951795AF
:102B60000795EA95D2F70417150726073707B0F53A
:102B70008F89988DA98DBA8D8E839F83A887B987F9
:102B8000280139015E0186E0A80EB11C41145104F0
:102B90006104710461F14E815F81688579859501D9
:102BA0008B8D9C8D0E94B71A91E0491A51086108DB
:102BB00071088111EBCF80E01FC02230C1F0C11439
:102BC000D104E104F10409F0AACF1E821F82188605
:102BD00019861A861B861C861D860DC0892B8A2B9A
:102BE0008B2B31F2041B150B260B370BC9CFCA8672
:102BF000DB86EC86FD8681E0DF91CF911F910F91FE
:102C0000FF90EF90DF90CF90BF90AF907F906F904C
:102C10005F904F9008950F931F93CF93DF93EC0134
:102C20008D818823C9F18C8187FF30C061E0CE019E
:102C30000E947B138C01009779F18D81823048F4DA
:102C40004B895C896D897E89F801448F558F668F29
:102C5000778F4F89588D698D7A8DF801538F428F08
:102C6000758B648BE091E403F091E503309759F0A4
:102C7000B8016A5E7F4FC80148960995F801808DBA
:102C8000918D938B828B8C818F778C83DF91CF9109
:102C90001F910F910C941B1A80E0DF91CF911F912F
:102CA0000F910895CF93DF93EC010E940B168823B8
:102CB00019F01D8281E001C080E0DF91CF9108957D
:102CC0004F925F926F927F92AF92BF92CF92DF92BC
:102CD000EF92FF920F931F93CF93DF9300D000D01A
:102CE000CDB7DEB75C016A017B01FC0185818130D3
:102CF000F1F4848181FF1BC0F50183899489A58942
:102D0000B68984179507A607B70788F0892B8A2B01
:102D10008B2B09F479C0F501428453846484758453
:102D2000B701A601C5010E946F15811102C080E0A4
:102D30006CC0F501838D948DC114D104E104F104BC
:102D400071F44789508D618D728D0E945C1D8823BE
:102D500071F3F501178A108E118E128E3AC0F501AB
:102D600046815781608571859E012F5F3F4F0E948C
:102D7000B71A8823E1F249815A816B817C81F50180
:102D8000838D948DFC012789203129F408EF1FEFF2
:102D900020E030E004C008EF1FEF2FEF3FE04017C6
:102DA000510762077307A8F40E945C1D882309F489
:102DB000BECFF50146815781608571850FEF1FEF0A
:102DC0002FEF3FE0838D948D0E94A61B882309F48A
:102DD000AECFF501C38AD48AE58AF68A84818068F9
:102DE0008483C5010E940B16882309F4A0CFB70184
:102DF000A6014C145D046E047F0410F4B301A2011B
:102E0000C5010E946F1501C081E00F900F900F90D7
:102E10000F90DF91CF911F910F91FF90EF90DF9076
:102E2000CF90BF90AF907F906F905F904F9008953C
:102E3000FF920F931F93CF93DF93EC01F42E80E268
:102E4000689FF0011124E351FC4F8385817129F0C3
:102E5000842F827411F080E053C06A8B80910A0144
:102E600090910B01A0910C01B0910D018E879F876D
:102E7000A88BB98B4489558960E070E0BA01552769
:102E80004427028D138D20E030E0402B512B622B24
:102E9000732B4F8B588F698F7A8F8385887151F48C
:102EA000048D158D268D378D0B8B1C8B2D8B3E8BBA
:102EB00081E00CC0803179F69E012D5E3F4F8B8DF5
:102EC0009C8D0E943B1B882331F284E08D838F2DE3
:102ED0008F708C831E821F82188619861A861B8625
:102EE0001C861D86F6FE0BC040E050E0BA01CE0104
:102EF000DF91CF911F910F91FF900C94601681E0AC
:102F0000DF91CF911F910F91FF900895AF92BF92E3
:102F1000CF92DF92EF92FF920F931F93CF93DF93A5
:102F2000CDB7DEB72B970FB6F894DEBF0FBECDBF7F
:102F30007C016B01CA01B22EF70125812111B9C0B4
:102F4000BE016F5F7F4F0E949413882309F4B1C0C4
:102F5000F601838D948DF701948F838FF60116828D
:102F60001782108611861286138614861586A12C68
:102F7000F601028513852485358583899489A58981
:102F8000B689081719072A073B07E8F545E0369583
:102F90002795179507954A95D1F70F70C6010E949E
:102FA0002415009709F485C0FC012081222311F02B
:102FB000253EB9F4A1100EC0F701028B40910A0121
:102FC00050910B0160910C0170910D01468757875C
:102FD000608B718BFC018081AA24A3948111C8CFDE
:102FE00012C04BE050E0BC01CE0101960E9444317A
:102FF000892B09F0BDCF8B2D8073803309F459C024
:103000004B2D602F52C08B2D8271823109F051C03F
:10301000AA2041F061E0C7010E947B138C01009758
:1030200079F447C0F6018581823009F442C0C601B7
:103030000E941A138823E9F1F701128A0DEE13E0BA
:1030400080E2F80111928A95E9F78BE0FE01319652
:10305000D80101900D928A95E1F7E091E403F09197
:10306000E503309739F0B801625F7F4FC8014096A1
:10307000099509C081E298E2F801918B808B80E08C
:1030800098E097878687F80180899189938B828B56
:10309000918F808F86859785978B868B0E941B1AD0
:1030A000882339F04B2DF7016289C7010E94181758
:1030B00001C080E02B960FB6F894DEBF0FBECDBFE7
:1030C000DF91CF911F910F91FF90EF90DF90CF9004
:1030D000BF90AF9008952F923F924F925F926F9260
:1030E0007F928F929F92AF92BF92CF92DF92EF9298
:1030F000FF920F931F93CF93DF9300D000D01F92C6
:10310000CDB7DEB78C017B013A01DC0115968C91BD
:1031100015978130C9F414968C9181FF15C082FFF8
:103120001BC0F80143895489658976898285938516
:10313000A485B58584179507A607B70769F0C80168
:103140000E946F15811108C081E090E0F80193831F
:10315000828380E090E046C1630180C0D8015B9625
:103160008D919C915C97FC01F481F150B501A40113
:1031700029E076956795579547952A95D1F7F423D9
:10318000FD8321E09222FF2309F474C080E092E0E5
:103190008819990956018C159D0508F45C01D80120
:1031A0005B96ED91FC915C9716962D903D904D901D
:1031B0005C901997B2E02B1A310841085108058438
:1031C00004C0220C331C441C551C0A94D2F786857B
:1031D0009785A089B189280E391E4A1E5B1EED8194
:1031E0002E0E311C411C511CA114F2E0BF0609F047
:1031F00088C080910A0190910B01A0910C01B091BF
:103200000D0182159305A405B50559F48FEF9FEFC5
:10321000DC0180930A0190930B01A0930C01B09301
:103220000D019701B201A1018091EB039091EC0394
:103230000E949C12882309F487CF9EEFF91ACA18BE
:10324000DB08F80182859385A485B5858A0D9B1DD1
:10325000A11DB11D82879387A487B587D8011A96CF
:103260008D909D90AD90BC901D97C114D10409F034
:1032700075CF8AC08114910409F088CF16964D91BC
:103280005D916D917C91199741155105610571050D
:1032900059F457968D919D910D90BC91A02D00975A
:1032A000A105B10541F521C09E012F5F3F4F0E944E
:1032B000B71A882309F44ECF89819A81AB81BC81EA
:1032C000F801238D348DF9012789203129F448EF45
:1032D0005FEF60E070E004C048EF5FEF6FEF7FE00A
:1032E00084179507A607B70730F0C8010E94F012AF
:1032F00081114CCF29CFF80186839783A087B187AE
:1033000045CF8114910429F5D8011A964D915D910C
:103310006D917C911D9753968D919D910D90BC91CF
:10332000A02D481759076A077B0798F00E941B1ABF
:10333000882309F409CF20920A0130920B014092B0
:103340000C0150920D018091EA0381608093EA03A1
:1033500008C041E0C201B1010E94561A882309F455
:10336000F3CEC40183519C4FD7019C012A0D3B1D14
:10337000FC01E217F30719F04D914193FACFE81BD6
:10338000F90BEE0EFF1E5BCF53968D919D910D9024
:10339000BC91A02DF801248188159905AA05BB05CB
:1033A00038F4838A948AA58AB68A206824830CC05C
:1033B0008091E4039091E503892B31F0611471044D
:1033C00019F02068F8012483D80114968C9183FDAC
:1033D00002C0C30107C0C8010E940B16882309F46C
:1033E000B3CEF7CF0F900F900F900F900F90DF910B
:1033F000CF911F910F91FF90EF90DF90CF90BF90F2
:10340000AF909F908F907F906F905F904F903F9084
:103410002F900895CF93DF931F92CDB7DEB76983C6
:1034200041E050E0BE016F5F7F4F0E946B180F902C
:10343000DF91CF9108958091EA03882399F140911B
:103440000A0150910B0160910C0170910D012DEE5C
:1034500033E08091EB039091EC030E949C1288234F
:1034600019F14091E6035091E7036091E8037091F0
:10347000E903411551056105710591F02DEE33E029
:103480008091EB039091EC030E949C12882361F0E1
:103490001092E6031092E7031092E8031092E903FA
:1034A0001092EA0381E0089580E00895CF92DF92C0
:1034B000EF92FF92CF936B017C01C42F80910A01A0
:1034C00090910B01A0910C01B0910D018C159D05FF
:1034D000AE05BF05D1F00E941B1A811102C080E029
:1034E0001AC02DEE33E0B701A6018091EB03909155
:1034F000EC030E944912882391F3C0920A01D092F2
:103500000B01E0920C01F0920D018091EA038C2BEB
:103510008093EA0381E0CF91FF90EF90DF90CF900E
:103520000895CF92DF92EF92FF926B017C010E948F
:103530001B1A8823B1F0EDEEF3E0119285E0ED3E29
:10354000F807D9F7C0920A01D0920B01E0920C0162
:10355000F0920D018091EA0381608093EA0381E09B
:1035600001C080E0FF90EF90DF90CF9008958F92A0
:103570009F92AF92BF92CF92DF92EF92FF920F9302
:103580001F93CF93DF938C016A017B01E901FC015A
:1035900081859285A385B4850196A11DB11D8417EF
:1035A0009507A607B70710F480E058C0F8014389D3
:1035B0005489658976898789803129F4BB27AF2DA5
:1035C0009E2D8D2D09C0D701C60127E0B695A79580
:1035D000979587952A95D1F74C015D01840E951E2C
:1035E000A61EB71EC501B40180900A0190900B0180
:1035F000A0900C01B0900D01681579058A059B0516
:1036000089F4F8018789803199F4DD24EE24FF24C0
:10361000F601EE0FFF1FE351FC4F80819181A0E086
:10362000B0E017C040E00E94561A8111EACFBCCF2B
:10363000E894C7F8DD24EE24FF24F601EE0FFF1F07
:10364000EE0FFF1FE351FC4F80819181A281B38176
:10365000BF7088839983AA83BB8381E0DF91CF9178
:103660001F910F91FF90EF90DF90CF90BF90AF90A0
:103670009F908F9008954F925F926F927F92AF923A
:10368000BF92CF92DF92EF92FF920F931F93CF934F
:10369000DF9300D000D0CDB7DEB78C0149835A83C9
:1036A0006B837C835901C12CD12C7601412C42E0E3
:1036B000542E612C712C49815A816B817C819E0131
:1036C0002F5F3F4FC8010E94B71A882359F1D301D9
:1036D000C201F801058404C0880F991FAA1FBB1FEF
:1036E0000A94D2F7C80ED91EEA1EFB1E49815A81E0
:1036F0006B817C818789803129F488EF9FEFA0E07E
:10370000B0E004C088EF9FEFAFEFBFE04817590764
:103710006A077B0780F2F501C082D182E282F382E0
:1037200081E001C080E00F900F900F900F90DF912B
:10373000CF911F910F91FF90EF90DF90CF90BF90AE
:10374000AF907F906F905F904F9008954F925F92EF
:103750006F927F928F929F92AF92BF92CF92DF92A1
:10376000EF92FF920F931F93CF93DF93EC016A01C7
:103770007B0128013901423051056105710508F4CA
:1037800074C049855A856B857C854F5F5F4F6F4F4D
:103790007F4F4C155D056E057F0508F466C08B886C
:1037A0009C88AD88BE888F89803129F477276F2D5A
:1037B0005E2D4D2D09C0B701A601E7E0769567950E
:1037C00057954795EA95D1F7840E951EA61EB71E0C
:1037D00040910A0150910B0160910C0170910D0113
:1037E00084169506A606B70671F48F89803199F480
:1037F000DD24EE24FF24F601EE0FFF1FE351FC4F02
:103800005182408218C040E0C501B4010E94561A9E
:103810008111EBCF2AC0E894C7F8DD24EE24FF2401
:10382000F601EE0FFF1FEE0FFF1FE351FC4F40822A
:103830005182628273828091EA0381608093EA03FD
:103840008A89823080F08D819E81AF81B885880D14
:10385000991DAA1DBB1D8093E6039093E703A093D7
:10386000E803B093E90381E001C080E0DF91CF91EC
:103870001F910F91FF90EF90DF90CF90BF90AF908E
:103880009F908F907F906F905F904F9008952F92B0
:103890003F924F925F926F927F929F92AF92BF92B0
:1038A000CF92DF92EF92FF920F931F93CF93DF930C
:1038B000CDB7DEB760970FB6F894DEBF0FBECDBFB1
:1038C0005C014D875E876F87788B1901D9014D9018
:1038D0005D906D907C90411451046104710431F04D
:1038E000BFEF4B1A5B0A6B0A7B0A10C0FC014080D9
:1038F000518062807380992493940D851E852F8555
:103900003889013011052105310509F0912CD501C7
:1039100019962D913D914D915C911C972F5F3F4FD2
:103920004F4F5F4F29873A874B875C87730162014E
:103930001D821E821F821886F50181859285A385CE
:10394000B4850D811E812F813885081719072A0734
:103950003B0708F056C029853A854B855C852C15B8
:103960003D054E055F0550F4A2E0CA2ED12CE12C96
:10397000F12CB2E04B2E512C612C712C9E012F5F4B
:103980003F4FB701A601C5010E94B71A8823C9F1AC
:1039900049815A816B817C81D701C6010196A11DA5
:1039A000B11D452B462B472B19F02C013D010FC0B3
:1039B000AC01BD0144195509660977090D851E85BD
:1039C0002F853889401751076207730779F02D81D9
:1039D0003E814F8158852F5F3F4F4F4F5F4F2D8363
:1039E0003E834F8358876C017D01A6CF0FEF1FEFF9
:1039F0002FEF3FE0B701A601C5010E94A61B811170
:103A000018C080E041C0D701C6010197A109B109E2
:103A10008D839E83AF83B88797018601AC01BD017A
:103A2000C5010E94A61B882361F3CD80DE80EF8054
:103A3000F8844C145D046E047F0428F3D1014D9189
:103A40005D916D917C91411551056105710599F468
:103A5000F10140825182628273829920A1F0FFEFCE
:103A60004F1A5F0A6F0A7F0AD5014D925D926D92DF
:103A70007C92139708C093018201C5010E94A61B86
:103A80008111E6CFBECF81E060960FB6F894DEBF1D
:103A90000FBECDBFDF91CF911F910F91FF90EF909F
:103AA000DF90CF90BF90AF909F907F906F905F908E
:103AB0004F903F902F900895AF92BF92CF92DF9298
:103AC000EF92FF920F931F93CF93DF9300D000D01C
:103AD000CDB7DEB75C016A017B0182E090E0A0E037
:103AE000B0E0F50180839183A283B3839E012F5FB1
:103AF0003F4FB701A601C5010E94B71A882311F1F3
:103B000000E010E09801B701A601C5010E94A61BC4
:103B10008823C1F0C980DA80EB80FC80F5018789B9
:103B2000803129F488EF9FEFA0E0B0E004C088EF77
:103B30009FEFAFEFBFE0C816D906EA06FB06B0F26A
:103B400081E001C080E00F900F900F900F90DF9107
:103B5000CF911F910F91FF90EF90DF90CF90BF908A
:103B6000AF9008958F929F92AF92BF92CF92DF92C3
:103B7000EF92FF920F931F93CF93DF93EC01142FDB
:103B80007093EC036093EB03442341F1453010F054
:103B900080E0EFC040E060E070E0CB010E94561A88
:103BA0008823B1F320E1129FF0011124E556FA4F6A
:103BB00080818F7769F784859585A685B78584365A
:103BC0009105A105B10520F3C084D184E284F3847A
:103BD000C114D104E104F10421F4DACFC12CD12CB9
:103BE000760140E0C701B6010E94561A882381F28F
:103BF0008091F8039091F9038115924049F6309134
:103C0000FD03332329F28091FB039091FC03892B60
:103C100009F4BECF2091FA03222309F4B9CF3A8BDD
:103C20002C831D8630E041E050E06D85062FCA01EF
:103C3000062E02C0880F991F0A94E2F72817390749
:103C400031F081E0860F8D87683078F3A1CF209125
:103C50000304309104042115310519F040E050E0CF
:103C600008C0209111043091120440911304509126
:103C700014042D833E834F8358878091FB039091DA
:103C8000FC0346015701880E991EA11CB11C8B8AAA
:103C90009C8AAD8ABE8AE091FE03F091FF03F98F02
:103CA000E88FA091FD03B0E00E94D22D680D791D30
:103CB0008A1D9B1D6A8F7B8F8C8F9D8F15E0EE0F69
:103CC000FF1F1A95E1F7E150FE4FEF2FFF27E69512
:103CD000DC01CB018E0F9F1FA11DB11D8E879F8719
:103CE000A88BB98B809000049090010481149104FA
:103CF00019F0A12CB12C08C080900D0490900E04F6
:103D0000A0900F04B0901004A7019601281B390B56
:103D10004A0B5B0BDA01C901880D991DAA1DBB1D59
:103D200004C0B695A795979587950A95D2F7898788
:103D30009A87AB87BC87853F3FE09307A105B10514
:103D400010F48CE014C0853F9F4FA105B10510F41D
:103D500080E10DC08091190490911A04A0911B0478
:103D6000B0911C048A8F9B8FAC8FBD8F80E28F8BAC
:103D700081E0DF91CF911F910F91FF90EF90DF9045
:103D8000CF90BF90AF909F908F900895CF93DF9387
:103D9000EC0188859985009711F00E94AB2E8E81E9
:103DA00087FD05C060E0DF91CF910C940D23DF917A
:103DB000CF910895CF93DF93EC018E8187FD07C0EB
:103DC00061E00E940D2360E08E810E94462381E025
:103DD0008983DF91CF910895EF92FF920F931F9304
:103DE000CF93DF93EC017B0188859985009711F0D3
:103DF0000E94AB2E9D858A85981303C083E090E0D6
:103E000002C084E090E08E9D80018F9D100D9E9DEC
:103E1000100D11241D830C83C8010E94132E998755
:103E20008887009741F0A80160E070E00E945A3155
:103E3000FB82EA8204C01D821C821B821A82DF91EF
:103E4000CF911F910F91FF90EF900895FC0121E019
:103E500095858285981320E0CB0136E0969587956D
:103E60003A95E1F7482F43704587CB0154E096958A
:103E700087955A95E1F7382F33703287CB019695A5
:103E800087959695879583708387862F837084871F
:103E900081E06F3F710511F008F080E0808380853C
:103EA0009185892B51F091E0431390E0921729F00E
:103EB00062817381CF010C94EC1E0895CF92DF9242
:103EC000EF92FF920F931F93CF93DF93CDB7DEB79F
:103ED00029970FB6F894DEBF0FBECDBF8C01DC0171
:103EE00018968D919C911997892B09F49AC00E947C
:103EF0004C22F801C684D784E088F1886C197D09CA
:103F00008E099F09623371058105910580F3F8944C
:103F1000848195819A838983A085B1857D01EFEFA6
:103F2000EE1AFE0A8C918987D8019C9152960D90C9
:103F3000BC91A02DF8018489992309F42EC09C918D
:103F4000982B98879C91809589238F838F818E836E
:103F500088E08D8358856F8149853D812E818981D7
:103F60009A81F7015C9347FD252F3A952C93262FD4
:103F700039F0441F00C000006C93000000C0F2CF75
:103F800038E041916C930000019761F7F801B38B21
:103F9000A28B49873D832E8338C09C91982B9887AC
:103FA0009C91809589238F838F818C8388E08B837C
:103FB00058856F8149853B812C8189819A81F701E0
:103FC0005C9347FD252F00C000C02C9300C000C0AB
:103FD00000C000C000C06C930000262F3A9541F04D
:103FE000441F000000C000C000C000C000C0E8CFF7
:103FF00038E0419100C06C9300C0019709F7F801C7
:10400000B38BA28B49873B832C839A8389837894D3
:104010000E944C22D8011E966D937D938D939C93A4
:10402000519729960FB6F894DEBF0FBECDBFDF9132
:10403000CF911F910F91FF90EF90DF90CF90089557
:104040001F93CF93DF93EC01162F8981882331F0E2
:104050008E8187FD03C060E00E940D231E8389814D
:10406000882341F061E0812F0E940D2360E0812FC1
:104070000E944623812F90E0FC01E451FF4FE49120
:10408000F0E0EE0FFF1FE65FFE4F259134913B8B72
:104090002A8BFC01E852FF4F84918C8BDF91CF91EA
:1040A0001F910895EF92FF920F931F93CF93DF9389
:1040B0001F92CDB7DEB77C018B01FC011182178204
:1040C0001186108616861786108A118AB9014983CF
:1040D0000E94261FB801C7010E94EC1E4981642F6F
:1040E000C7010F90DF91CF911F910F91FF90EF903B
:1040F0000C942020CF92DF92EF92FF920F931F93A8
:10410000CF93DF93FC01828193816817790708F0D0
:104110004DC0CA01AA27BB27182FC32ED42EE52EC7
:10412000FF24DC2DC22F0781002361F0809FC00196
:104130001124192FC09E60011124DD2D209FC00184
:104140001124C92FF5848285A085B185F81208C095
:10415000CB01880F991F860F971F8A0F9B1F17C0CF
:10416000CB01880F991F880F991F8A0F9B1F452F1E
:10417000552766277727DC01AF0DB11D002329F0F5
:10418000409F90011124232F01C0242F2C932285BE
:10419000DC01A20FB11D1C932385DC01A20FB11D10
:1041A000DC932485FC01E20FF11DC083DF91CF91E8
:1041B0001F910F91FF90EF90DF90CF900895962F71
:1041C00050E060E070E0592B682BCB01BA010895F4
:1041D000FF920F931F93CF93DF93EC01FF24F3948F
:1041E000F60E2F81F21679F1088519852150B9F064
:1041F0006F3F59F430E040E050E06FEF7FEF80E038
:1042000090E00E94B32DB9010CC08F2D90E0982F43
:1042100088270197622F70E00E94692D02C060E03C
:1042200070E0F8018C819D81AF01401B510B481754
:10423000590740F44081469FC001479F900D1124CB
:104240009193F0CFFF82DF91CF911F910F91FF905B
:104250000895FC014481558160E070E0808591857E
:104260000C945A310F931F93CF93DF93EC01662385
:1042700059F00E94402269837A838B839C83DF916B
:10428000CF911F910F9108950E94402209811A81B8
:104290002B813C81601B710B820B930B6436710583
:1042A0008105910530F763E070E080E090E00E94C6
:1042B0006F22EACF60E00C943221FC0113AA14AA09
:1042C00015AA16AA11821282138214824115510571
:1042D0006105710521F0CB01BA010C946F2208959C
:1042E000FB01BA01A901DC01D296FC93EE93D197B0
:1042F00026E0CF010C9488241F93CF93DF93EC0129
:10430000162F67EF71E089A99AA90E94EB254AE070
:1043100050E0612F89A99AA90E94DA266EEF71E018
:1043200089A99AA90E94EB2562E370E080E090E001
:10433000DF91CF911F910C946F221F93CF93DF9346
:10434000EC01162F8D81882389F189A99AA9DC01B6
:10435000ED91FC910480F581E02D0995892BA9F35D
:1043600007C02637310519F12835310509F41D82BA
:1043700089A99AA9DC01ED91FC910480F581E02DD9
:1043800009951816190694F489A99AA9DC01ED91EA
:10439000FC910680F781E02D09959C013327233697
:1043A0003105F9F6612FCE010E947C2183E6DF9171
:1043B000CF911F9108950F931F93CF93DF931F9277
:1043C000CDB7DEB78C01662349F081E0F801858323
:1043D00060E0C80149830E949D214981F80145831D
:1043E0000F90DF91CF911F910F9108951F920F921F
:1043F0000FB60F9211242F933F938F939F93AF93F8
:10440000BF938091250690912606A0912706B09132
:1044100028063091240623E0230F2D3720F401963F
:10442000A11DB11D05C026E8230F0296A11DB11DD7
:10443000209324068093250690932606A0932706B2
:10444000B09328068091290690912A06A0912B0608
:10445000B0912C060196A11DB11D80932906909361
:104460002A06A0932B06B0932C06BF91AF919F9183
:104470008F913F912F910F900FBE0F901F90189525
:104480002FB7F89460912506709126068091270633
:10449000909128062FBF08953FB7F8948091290680
:1044A00090912A06A0912B06B0912C0626B5A89BC8
:1044B00005C02F3F19F00196A11DB11D3FBF662712
:1044C000782F892F9A2F620F711D811D911D42E057
:1044D000660F771F881F991F4A95D1F708958F920D
:1044E0009F92AF92BF92CF92DF92EF92FF926B01B9
:1044F0007C010E944C224B015C01C114D104E104F7
:10450000F104F1F00E94B0290E944C226819790947
:104510008A099B09683E73408105910570F321E08B
:10452000C21AD108E108F10888EE880E83E0981ECF
:10453000A11CB11CC114D104E104F10429F7DDCFA1
:10454000FF90EF90DF90CF90BF90AF909F908F90B3
:104550000895789484B5826084BD84B5816084BDFB
:1045600085B5826085BD85B5816085BDEEE6F0E0EC
:10457000808181608083E1E8F0E010828081826048
:104580008083808181608083E0E8F0E080818160C9
:104590008083E1EBF0E0808184608083E0EBF0E0F9
:1045A000808181608083EAE7F0E08081846080839D
:1045B0008081826080838081816080838081806847
:1045C00080831092C1000895833081F028F48130F7
:1045D00099F08230A1F008958730A9F08830B9F0C1
:1045E0008430D1F4809180008F7D03C08091800061
:1045F0008F7780938000089584B58F7702C084B54B
:104600008F7D84BD08958091B0008F7703C0809125
:10461000B0008F7D8093B0000895CF93DF9390E03A
:10462000FC01E852FF4F2491FC01E451FF4F8491BB
:10463000882349F190E0880F991FFC01EC5EFE4F42
:10464000A591B491865F9E4FFC01C591D4919FB70F
:10465000611108C0F8948C91209582238C938881F5
:1046600082230AC0623051F4F8948C91322F309535
:1046700083238C938881822B888304C0F8948C9147
:10468000822B8C939FBFDF91CF9108950F931F933F
:10469000CF93DF931F92CDB7DEB7282F30E0F9011B
:1046A000EC53FF4F8491F901E852FF4F1491F90147
:1046B000E451FF4F04910023C9F0882321F069835E
:1046C0000E94E4226981E02FF0E0EE0FFF1FE65F19
:1046D000FE4FA591B4919FB7F8948C91611103C0DE
:1046E0001095812301C0812B8C939FBF0F90DF9188
:1046F000CF911F910F910895CF93DF93282F30E032
:10470000F901EC53FF4F8491F901E852FF4FD49126
:10471000F901E451FF4FC491CC2391F081110E9423
:10472000E422EC2FF0E0EE0FFF1FE050FF4FA591C9
:10473000B4912C912D2381E090E021F480E002C01F
:1047400080E090E0DF91CF910895FC01818D228D72
:1047500090E0805C9F4F821B91098F739927089589
:10476000FC01918D828D981731F0828DE80FF11D3B
:10477000858D90E008958FEF9FEF0895FC01918D56
:10478000828D981761F0828DDF01A80FB11D5D96B3
:104790008C91928D9F5F9F73928F90E008958FEF21
:1047A0009FEF089582E495E2892B49F080E090E044
:1047B000892B29F00E94422581110C940000089554
:1047C000FC01848DDF01A80FB11DA35ABF4F2C91AE
:1047D000848D90E001968F739927848FA689B7897D
:1047E0002C93A089B1898C9180648C93938D848D56
:1047F000981306C00288F389E02D80818F7D808325
:104800000895CF93DF93EC01888D8823C9F0EA895E
:10481000FB89808185FD05C0A889B9898C9186FDB9
:104820000FC00FB607FCF5CF808185FFF2CFA889B6
:10483000B9898C9185FFEDCFCE010E94E023E7CFAF
:10484000DF91CF910895CF92DF92FF920F931F9344
:10485000CF93DF931F92CDB7DEB76C0181E0D60115
:1048600058968C9358975B969C915B975C968C912D
:104870005C97981307C05096ED91FC9151978081F9
:1048800085FD2EC0F601038D10E00F5F1F4F0F73E3
:104890001127F02EF601848DF81211C00FB607FC17
:1048A000F9CFD6015096ED91FC915197808185FF0B
:1048B000F1CFC60169830E94E0236981EBCF838D2C
:1048C000E80FF11DE35AFF4F6083D6015B960C930E
:1048D0005B975296ED91FC915397808180620CC05A
:1048E000D6015696ED91FC91579760835096ED91C5
:1048F000FC91519780818064808381E090E00F90EB
:10490000DF91CF911F910F91FF90DF90CF9008958D
:10491000BF92CF92DF92EF92FF92CF93DF93EC01A1
:104920006A017B01B22EE889F98982E08083411512
:1049300081EE580761057105A1F060E079E08DE333
:1049400090E0A70196010E94912D21503109410963
:1049500051095695479537952795211580E13807D8
:1049600098F0E889F989108260E874E88EE190E0B7
:10497000A70196010E94912D215031094109510949
:104980005695479537952795EC85FD853083EE85BF
:10499000FF852083188EEC89FD89B082EA89FB8926
:1049A000808180618083EA89FB898081886080833F
:1049B000EA89FB89808180688083EA89FB8980811C
:1049C0008F7D8083DF91CF91FF90EF90DF90CF902C
:1049D000BF9008951F920F920FB60F9211242F933C
:1049E0008F939F93EF93FF93E0913D06F0913E06E6
:1049F0008081E0914306F091440682FD12C09081CF
:104A0000809146068F5F8F7320914706821751F081
:104A1000E0914606F0E0E35DF94F958F80934606FE
:104A200001C08081FF91EF919F918F912F910F9005
:104A30000FBE0F901F9018951F920F920FB60F92F6
:104A400011242F933F934F935F936F937F938F9393
:104A50009F93AF93BF93EF93FF938DE296E00E94F5
:104A6000E023FF91EF91BF91AF919F918F917F9143
:104A70006F915F914F913F912F910F900FBE0F90CB
:104A80001F9018958DE296E00E94A52321E0892BC6
:104A900009F420E0822F08951092300610922F061C
:104AA00088EE93E0A0E0B0E0809331069093320668
:104AB000A0933306B093340683E592E090932E06DC
:104AC00080932D0685EC90E090933A06809339060A
:104AD00084EC90E090933C0680933B0680EC90E061
:104AE00090933E0680933D0681EC90E090934006C3
:104AF00080933F0682EC90E09093420680934106BB
:104B000086EC90E09093440680934306109246060C
:104B1000109247061092480610924906089508958B
:104B20000E94A9220E948F250E944D06C2EDD3E269
:104B30000E94D9072097E1F30E94D223F9CFCF92A8
:104B4000DF92EF92FF920F931F93CF93DF937C013D
:104B50006A01EB0100E010E00C151D0571F0699190
:104B6000D701ED91FC910190F081E02DC7010995ED
:104B7000892B19F00F5F1F4FEFCFC801DF91CF9145
:104B80001F910F91FF90EF90DF90CF9008956115E6
:104B9000710581F0DB010D900020E9F7AD01415076
:104BA0005109461B570BDC01ED91FC910280F3810A
:104BB000E02D099480E090E00895DC01ED91FC91F6
:104BC000DB0114964D915C9115976D917C9102805B
:104BD000F381E02D09940C94C725DC01ED91FC9143
:104BE0000190F081E02D099464E072E00C94C725F7
:104BF0000F931F93CF93DF93EC010E94DD258C016F
:104C0000CE010E94F425800F911FDF91CF911F915B
:104C10000F9108950F931F93CF93DF93EC010E94A0
:104C2000C7258C01CE010E94F425800F911FDF91D2
:104C3000CF911F910F9108958F929F92AF92BF9243
:104C4000DF92EF92FF920F931F93CF93DF93CDB735
:104C5000DEB7A1970FB6F894DEBF0FBECDBF7C01C3
:104C6000F42FD52ECB0119A2223008F42AE08E01B0
:104C70000F5D1F4F822E912CA12CB12C6F2F7D2DFB
:104C8000A50194010E94912DF22FD32ECA0101504B
:104C900011096A3014F4E0E301C0E7E3E60FD8013C
:104CA000EC93232B242B252B49F7B801C7010E9435
:104CB000C725A1960FB6F894DEBF0FBECDBFDF911A
:104CC000CF911F910F91FF90EF90DF90BF90AF9029
:104CD0009F908F900895CF92DF92EF92FF920F9363
:104CE0001F93CF93DF93EC016A017B0121153105FE
:104CF00079F4E881F9810190F081E02D642FDF9152
:104D0000CF911F910F91FF90EF90DF90CF9009947A
:104D10002A303105E9F477FF1AC06DE20E94ED25D3
:104D20008C0144275527BA014C195D096E097F098A
:104D30002AE0CE010E941C26800F911FDF91CF91A7
:104D40001F910F91FF90EF90DF90CF9008952AE090
:104D5000B701A601CE01DF91CF911F910F91FF9076
:104D6000EF90DF90CF900C941C260F931F93CF935E
:104D7000DF93EC019A01AB01662757FD6095762F12
:104D80000E946B268C01CE010E94F425800F911F9A
:104D9000DF91CF911F910F9108952115310541F4B5
:104DA000DC01ED91FC910190F081E02D642F0994DC
:104DB0000C941C269A01462F50E060E070E00C94A1
:104DC000CD264F925F926F927F928F929F92AF9279
:104DD000BF92CF92DF92EF92FF920F931F93CF93E8
:104DE000DF93EC016A017B01B22E9A01AB01C7018E
:104DF000B6010E943D2D882319F06FE572E027C0AF
:104E000026013701E89477F82FEF3FEF4FE75FE790
:104E1000C301B2010E943D2D81110DC02FEF3FEF64
:104E20004FE75FE7C301B2010E94782A18161CF40D
:104E300063E672E00CC02FEF3FEF4FE75FE4C7017E
:104E4000B6010E94842C1816ACF467E672E0CE011D
:104E5000DF91CF911F910F91FF90EF90DF90CF9056
:104E6000BF90AF909F908F907F906F905F904F908A
:104E70000C94C7252FEF3FEF4FE75FECC701B6015A
:104E80000E94782A87FDE1CF20E030E0A901C70128
:104E9000B6010E94782A87FF0AC06DE2CE010E9407
:104EA000ED258C01F7FAF094F7F8F09402C000E0D9
:104EB00010E0A12C60E070E080E09FE3AB1441F0D3
:104EC00020E030E040E251E40E947F2AA394F6CF34
:104ED0009B01AC01C701B6010E94B2296B017C01A4
:104EE0000E94EC2A2B013C010E94182B9B01AC0173
:104EF000C701B6010E94B1296B017C012AE0B30110
:104F0000A201CE010E941C26080F191FBB2039F0F8
:104F100065E571E0CE010E94C725080F191F7B2CA3
:104F2000772041F120E030E040E251E4C701B601D2
:104F30000E948F2C6B017C010E94E72A4B01AA245E
:104F400097FCA094BA2C2AE030E0B501A401CE0170
:104F50000E946B26080F191FC501B4010E941A2B6D
:104F60009B01AC01C701B6010E94B1296B017C0114
:104F70007A94D6CFC801DF91CF911F910F91FF9006
:104F8000EF90DF90CF90BF90AF909F908F907F90E9
:104F90006F905F904F9008950F931F93CF93DF937F
:104FA000EC010E94E1268C01CE010E94F425800FC5
:104FB000911FDF91CF911F910F910895FC01808186
:104FC00091810C94AB2ECF93DF93EC018881998172
:104FD000009711F00E94AB2E198218821D821C824C
:104FE0001B821A82DF91CF9108950F931F93CF9365
:104FF000DF93EC018B016F5F7F4F888199810E9465
:105000003A2F009731F0998388831B830A8381E0CC
:1050100001C080E0DF91CF911F910F910895CF9350
:10502000DF93EC0188819981892B29F08A819B810A
:105030008617970760F4CE010E94F527882341F078
:105040008C819D81892B19F4E881F981108281E09E
:10505000DF91CF910895EF92FF920F931F93CF931B
:10506000DF93EC017B018A01BA010E940F288111B4
:1050700004C0CE010E94E32707C01D830C83B70143
:10508000888199810E946C31CE01DF91CF911F916F
:105090000F91FF90EF900895FC011182108213820E
:1050A0001282158214826115710559F0FB0101907D
:1050B0000020E9F7AF0141505109461B570B0C94F2
:1050C0002B280895CF93DF93EC01FB0186179707F8
:1050D00061F0608171816115710529F0448155810C
:1050E0000E942B2802C00E94E327CE01DF91CF91BE
:1050F0000895FC011182108213821282158214829B
:105100000C946228CF93DF93EC016115710561F077
:10511000FB0101900020E9F7AF0141505109461B06
:10512000570B0E942B2802C00E94E327CE01DF917B
:10513000CF9108950F931F93CF93DF93CDB7DEB731
:1051400061970FB6F894DEBF0FBECDBF8C01CB01C7
:10515000F80111821082138212821582148250E0AB
:10516000BE016F5F7F4F0E948231BE016F5F7F4F34
:10517000C8010E94822861960FB6F894DEBF0FBE68
:10518000CDBFDF91CF911F910F910895EF92FF92C4
:105190000F931F93CF93DF93CDB7DEB7A1970FB6D1
:1051A000F894DEBF0FBECDBF7C01CB01BA01F70181
:1051B00011821082138212821582148242E0420F01
:1051C0008E010F5F1F4F0E94F22DBC01C7010E948C
:1051D0008228A1960FB6F894DEBF0FBECDBFDF9137
:1051E000CF911F910F91FF90EF900895EF92FF9252
:1051F0000F931F93CF93DF93EC017B010C811D81F3
:105200006115710511F480E016C04115510591F04A
:10521000040F151FB8010E940F288823A1F32881CD
:1052200039818C819D81B701820F931F0E946C315F
:105230001D830C8381E0DF91CF911F910F91FF902F
:10524000EF900895CF93DF9300D0CDB7DEB7698399
:105250001A8241E050E0BE016F5F7F4F0E94F62846
:105260000F900F90DF91CF910895EF92FF920F93DF
:105270001F93CF93DF93CDB7DEB764970FB6F89443
:10528000DEBF0FBECDBF7C01CB01BA018E010F5F27
:105290001F4F22E044E00E94F22DFC01019000200B
:1052A000E9F7AF0141505109481B590BBC01C70137
:1052B0000E94F62864960FB6F894DEBF0FBECDBFED
:1052C000DF91CF911F910F91FF90EF900895CF93B1
:1052D000DF93EC01FB0144815581608171810E9463
:1052E000F628811103C0CE010E94E327CE01DF9191
:1052F000CF910895CF93DF93EC016115710569F0AB
:10530000FB0101900020E9F7AF0141505109461B14
:10531000570B0E94F628811103C0CE010E94E3279B
:10532000CE01DF91CF910895CF93DF93EC010E94DE
:105330002229811103C0CE010E94E327CE01DF9113
:10534000CF910895CF93DF93EC010E94352981110D
:1053500003C0CE010E94E327CE01DF91CF910895D3
:1053600008955058BB27AA270ED083C24CD230F0E4
:1053700051D220F031F49F3F11F41EF41CC20EF400
:10538000E095E7FB04C2E92F96D280F3BA176207D3
:1053900073078407950718F071F49EF5AEC20EF4FA
:1053A000E0950B2EBA2FA02D0B01B90190010C0135
:1053B000CA01A0011124FF27591B99F0593F50F44D
:1053C000503E68F11A16F040A22F232F342F4427A5
:1053D000585FF3CF469537952795A795F04053959D
:1053E000C9F77EF41F16BA0B620B730B840BBAF06D
:1053F0009150A1F0FF0FBB1F661F771F881FC2F7D8
:105400000EC0BA0F621F731F841F48F487957795EB
:105410006795B795F7959E3F08F0B3CF9395880FA2
:1054200008F09927EE0F979587950895ECD158F0DD
:1054300080E891E009F49EEFEDD128F040E851E0DA
:1054400059F45EEF09C0B7C158C2E92FE07833D2F2
:1054500068F3092E052AC1F32617370748075907AD
:1054600038F00E2E07F8E02569F0E025E0640AC068
:10547000EF6307F8009407FADB01B9019D01DC0135
:10548000CA01AD01EF934AD0F4D10AD05F91552300
:1054900031F02BED3FE049E450FD49EC63CF089536
:1054A000DF93DD27B92FBF7740E85FE316161706B5
:1054B00048075B0710F4D92F2BD29F938F937F93CC
:1054C0006F93D8D2E8E6F0E079D1D3D12F913F9114
:1054D0004F915F9130D2DD2349F09058A2EA2AED36
:1054E0003FE049EC5FE3D0785D274DDFDF91C1C13C
:1054F0002AD108F481E0089595D1E395CBC10CD071
:10550000B8C188D140F07FD130F021F45F3F19F06D
:105510003EC15111F3C14FC1CED198F39923C9F3C4
:105520005523B1F3951B550BBB27AA2762177307A9
:10553000840738F09F5F5F4F220F331F441FAA1F5D
:10554000A9F333D00E2E3AF0E0E830D0915050401D
:10555000E695001CCAF729D0FE2F27D0660F771FCB
:10556000881FBB1F261737074807AB07B0E809F0AD
:10557000BB0B802DBF01FF2793585F4F2AF09E3F42
:10558000510568F004C1BAC15F3FECF3983EDCF30B
:10559000869577956795B795F7959F5FC9F7880FBB
:1055A000911D9695879597F90895E1E0660F771F0D
:1055B000881FBB1F621773078407BA0720F0621B9E
:1055C000730B840BBA0BEE1F88F7E095089504D097
:1055D0006894B11193C1089576D188F09F5790F0E7
:1055E000B92F9927B751A0F0D1F0660F771F881F08
:1055F000991F1AF0BA95C9F712C0B13081F07DD168
:10560000B1E008957AC1672F782F8827B85F39F005
:10561000B93FCCF3869577956795B395D9F73EF466
:1056200090958095709561957F4F8F4F9F4F08950E
:10563000E89409C097FB3EF490958095709561952C
:105640007F4F8F4F9F4F9923A9F0F92F96E9BB27E2
:105650009395F695879577956795B795F111F8CF5E
:10566000FAF4BB0F11F460FF1BC06F5F7F4F8F4FC9
:105670009F4F16C0882311F096E911C0772321F0BF
:105680009EE8872F762F05C0662371F096E8862F57
:1056900070E060E02AF09A95660F771F881FDAF7AE
:1056A000880F9695879597F90895ADD018F011F069
:1056B000B1D038F480C022C1E92FFDD0B0F355231A
:1056C000C9F3E7FB6217730784079507A8F199F3FD
:1056D000E92FFF2788232AF03197660F771F881F4D
:1056E000DAF7952F5527442332F091505040220F7E
:1056F000331F441FD2F7BB27E91BF50B621B730B4B
:10570000840BB109C1F222F4620F731F841FB11D13
:1057100031972AF0660F771F881FBB1FEFCF91507C
:1057200050405AF041F0882332F0660F771F881FEF
:1057300091505040C1F7939530C086957795679505
:105740009F5FD9F7F8CF990F0008550FAA0BE0E833
:10575000FEEF16161706E807F907C0F01216130633
:10576000E407F50798F0621B730B840B950B39F473
:105770000A2661F0232B242B252B21F408950A26D9
:1057800009F4A140A6958FEF811D811D089597F919
:105790009F6780E870E060E008959F3F31F091508E
:1057A00020F4879577956795B795880F911D969505
:1057B000879597F908959FEF80EC0895DF93CF9335
:1057C0001F930F93FF92EF92DF927B018C016894FD
:1057D00005C0DA2EEF01AFD0FE01E894A591259126
:1057E000359145915591AEF3EF01CDDDFE01970165
:1057F000A801DA9479F7DF90EF90FF900F911F9155
:10580000CF91DF91089500240A9416161706180602
:105810000906089500240A941216130614060506B4
:105820000895C9CF50D0E8F3E894E0E0BB279F5734
:10583000F0F02AED3FE049EC06C0EE0FBB0F661F0B
:10584000771F881F28F0B23A62077307840728F091
:10585000B25A620B730B840BE3959A9572F78038FA
:1058600030F49A95BB0F661F771F881FD2F79048B8
:1058700096CF092E0394000C11F4882352F0BB0F2D
:1058800040F4BF2B11F460FF04C06F5F7F4F8F4F58
:105890009F4F0895EF93E0FF06C0A2EA2AED3FE094
:1058A00049EC5FEB70DDE5DF0F90039401FC90584D
:1058B000E5E9F0E0EDC057FD9058440F551F59F051
:1058C0005F3F71F04795880F97FB991F61F09F3FED
:1058D00079F087950895121613061406551FF2CF16
:1058E0004695F1DF08C0161617061806991FF1CF66
:1058F00086957105610508940895E894BB2766278D
:105900007727CB0197F908951EDF08F48FEF0895EC
:105910009B01AC0160E070E080E89FE3F0CD0BD02C
:10592000A8CF71DF28F076DF18F0952309F02FCF8C
:1059300042CF1124E3CFBFDFA0F3959FD1F3950FA2
:1059400050E0551F629FF001729FBB27F00DB11D03
:10595000639FAA27F00DB11DAA1F649F6627B00D93
:10596000A11D661F829F2227B00DA11D621F739F7C
:10597000B00DA11D621F839FA00D611D221F749F8A
:105980003327A00D611D231F849F600D211D822FD1
:10599000762F6A2F11249F5750408AF0E1F0882318
:1059A0004AF0EE0FFF1FBB1F661F771F881F915025
:1059B0005040A9F79E3F510570F0E9CE9FCF5F3F61
:1059C000ECF3983EDCF3869577956795B795F79558
:1059D000E7959F5FC1F7FE2B880F911D96958795E0
:1059E00097F908959F931EDF0F9007FCEE5F52CF4B
:1059F00011F40EF4E0CED1CE66DFD0F39923D9F3C3
:105A0000CEF39F57550B87FF3CD00024A0E640EA19
:105A1000900180585695979528F4805C660F771F03
:105A2000881F20F026173707480730F4621B730BD6
:105A3000840B202931294A2BA695179407942025F9
:105A400031254A2758F7660F771F881F20F0261741
:105A50003707480730F4620B730B840B200D311DA0
:105A6000411DA09581F7B901842F9158880F969513
:105A7000879508959B01AC0152CF65DE880B990B89
:105A8000089591505040660F771F881FD2F70895F0
:105A90009F938F937F936F93FF93EF939B01AC0141
:105AA0003EDFEF91FF918ADE2F913F914F915F9101
:105AB00036CFDB018F939F930E94D22DBF91AF9180
:105AC000A29F800D911DA39F900DB29F900D112458
:105AD0000895AA1BBB1B51E107C0AA1FBB1FA61735
