:100000000C94AA000C94D2000C94D2000C943A09DF
:100010000C943A090C943A090C94D2000C94D20036
:100020000C94D2000C94D2000C94D2000C94D20008
:100030000C94D2000C94D2000C94D2000C94D200F8
:100040000C94CD170C94D2000C94DE1A0C94101B57
:100050000C94D2000C94D2000C94D2000C94D200D8
:100060000C94D2000C94D200084AD73B3BCE016ED0
:1000700084BCBFFDC12F3D6C74319ABD56833DDAFF
:100080003D00C77F11BED9E4BB4C3E916BAAAABE0E
:10009000000000803F05A84CCDB2D44EB93836A937
:1000A000020C50B9918688083CA6AAAA2ABE000074
:1000B00000803F0000000008000201000003040768
:1000C0000000000000000000010204081020408031
:1000D0000102040810200102040810200404040492
:1000E00004040404020202020202030303030303E2
:1000F0000000000023002600290000000000250069
:1001000028002B0000000000240027002A004E4198
:100110004E494E495459494E46CDCCCC3D0AD72381
:100120003C17B7D13877CC2B329595E6241FB14FC9
:100130000A000020410000C84200401C4620BCBE0E
:100140004CCA1B0E5AAEC59D7400A006B20B090E18
:10015000401BB40611241FBECFEFD8E0DEBFCDBFD9
:1001600012E0A0E0B1E0E2E0FAE402C005900D92F6
:10017000A433B107D9F726E0A4E3B2E001C01D9291
:10018000A73BB207E1F711E0C2E5D1E004C0229736
:10019000FE010E94BE20CA34D107C9F70E94841B09
:1001A0000C94F4240C9400008F929F92AF92BF9213
:1001B000CF92DF92EF92FF920F931F93CF93DF9333
:1001C000EC01CB010E942C236B017C010E94CA1D13
:1001D000CB0164E670E00E945C208B0184E6809F86
:1001E000B001819F700D1124882777FD8095982F8D
:1001F0000E94FD1D9B01AC01C701B6010E94941C29
:1002000020E030E040E752E40E94621D6B017C0177
:10021000B801882777FD8095982F0E94FD1DA701C2
:1002200096010E94951C4B015C0120E030E041E604
:1002300055E4C701B6010E94621D9B01AC01C501D6
:10024000B4010E94951C21E0C131D20719F0C351BD
:10025000D14009F49058DF91CF911F910F91FF90F9
:10026000EF90DF90CF90BF90AF909F908F900895C8
:100270004F925F926F927F928F929F92AF92BF92B6
:10028000CF92DF92EF92FF920F931F93CF93DF9362
:10029000CDB7DEB760970FB6F894DEBF0FBECDBF07
:1002A0002B013C0129873A874B875C87E982FA82D8
:1002B0000B831C839B01AC01C801B7010E94941CF5
:1002C00020E030E040E05FE30E94721F25E33AEF58
:1002D0004EE85CE30E94721F0E94D51F6D837E83EF
:1002E0008F83988725E33AEF4EE85CE3C301B201C0
:1002F0000E94721F0E945F1D2B013C0125E33AEF13
:100300004EE85CE3C801B7010E94721F0E945F1DA6
:1003100069837A838B839C8329853A854B855C85A9
:10032000C601B5010E94941C20E030E040E05FE38C
:100330000E94721F25E33AEF4EE85CE30E94721FB1
:100340000E94D51F4B015C012D813E814F81588554
:10035000CA01B9010E94721F6B017C0129813A8197
:100360004B815C81C301B2010E94721FA5019401FF
:100370000E94721FA50194010E94721F9B01AC0193
:10038000C701B6010E94951C6B017C019B01AC0169
:1003900060E070E080E89FE30E94941C0E94DF1FF1
:1003A0009B01AC01C701B6012D873E874F87588B53
:1003B0000E94DF1F2D853E854F8558890E94081DAC
:1003C0009B01AC010E94951C20E030E04AE155EC15
:1003D0000E94721F60960FB6F894DEBF0FBECDBFAD
:1003E000DF91CF911F910F91FF90EF90DF90CF9011
:1003F000BF90AF909F908F907F906F905F904F9045
:1004000008954F925F926F927F928F929F92AF92D8
:10041000BF92CF92DF92EF92FF920F931F93CF93F1
:10042000DF93CDB7DEB760970FB6F894DEBF0FBE8F
:10043000CDBF2B013C01CA01B901E982FA820B83CD
:100440001C83A60195010E94941C25E33AEF4EE817
:100450005CE30E94721F4B015C010E94D51F6D83FB
:100460007E838F83988725E33AEF4EE85CE3C301F0
:10047000B2010E94721F2B013C010E945F1D6B01A3
:100480007C0125E33AEF4EE85CE369817A818B8158
:100490009C810E94721F69837A838B839C830E9454
:1004A0005F1D69877A878B879C87C301B2010E9491
:1004B000D51F9B01AC0169817A818B819C812D873D
:1004C0003E874F87588B0E94D51F2B013C01C501E9
:1004D000B4010E945F1D69837A838B839C832D8581
:1004E0003E854F85588969857A858B859C850E94D4
:1004F000721F4B015C01A7019601C301B2010E946A
:10050000721FA70196010E94721F29813A814B81B7
:100510005C810E94721F9B01AC01C501B4010E9465
:10052000941C4B015C01A70196016D817E818F8136
:1005300098850E94721FA50194010E94081D21EE5A
:100540003EE245E652E40E94721F20E030E044E3C0
:1005500053E40E94951C20E030E044EB53E46096A5
:100560000FB6F894DEBF0FBECDBFDF91CF911F91C4
:100570000F91FF90EF90DF90CF90BF90AF909F9042
:100580008F907F906F905F904F900C943F1E8F9252
:100590009F92AF92BF92CF92DF92EF92FF920F9312
:1005A0001F93CF93C82F4A015B016801790188E34B
:1005B00092E00E940017C130C9F030F0C230C9F09B
:1005C000C330D9F44FEF1AC040E063E585EE0E94D6
:1005D000B6169B01AC0160E070E088E392E00E94F7
:1005E000511688E392E00E94351514C040E06FEF89
:1005F00002C04FEF60E080E003C040E060E08FEFBA
:100600000E94B6169B01AC0160E070E088E392E0C6
:100610000E94511620E030E040E751E4C701B601E6
:100620000E94671F87FD0DC040E060E08FEF0E94D1
:10063000B6169B01AC0160E270E088E392E00E9494
:10064000511620E030E048E452E4C701B6010E94B0
:10065000671F87FD0DC040E060E08FEF0E94B61677
:100660009B01AC0161E270E088E392E00E945116C8
:1006700020E030E048E453E4C701B6010E94671F60
:1006800087FD0DC040E060E08FEF0E94B6169B0131
:10069000AC0162E270E088E392E00E94511620E033
:1006A00030E048EC53E4C701B6010E94671F87FDA4
:1006B0000DC040E060E08FEF0E94B6169B01AC01D8
:1006C00063E270E088E392E00E94511620E030E09F
:1006D0004AE754E4C701B6010E94671F87FD0DC0B9
:1006E00040E060E08FEF0E94B6169B01AC0164E22F
:1006F00070E088E392E00E94511620E030E04AEF7B
:1007000054E4C701B6010E94671F87FD0DC040E099
:1007100060E08FEF0E94B6169B01AC0165E270E0CD
:1007200088E392E00E94511620E030E04AE755E469
:10073000C701B6010E94671F87FD0DC040E060E061
:100740008FEF0E94B6169B01AC0166E270E088E371
:1007500092E00E94511620E030E045EA55E4C701DE
:10076000B6010E94671F87FD0DC040E060E08FEF7B
:100770000E94B6169B01AC0167E270E088E392E04C
:100780000E94511620913402309135024091360278
:1007900050913702C501B4010E94951C0E94CA1DE8
:1007A0009B0177FF03C028593E4F07C0693641E0DF
:1007B00074071CF09B0128563140C90106978E35FD
:1007C00041E0940798F48733910598F0C7978C33EC
:1007D000910590F0CC978238910588F02B5F310914
:1007E0002233310578F484E090E00EC080E090E0A0
:1007F0000BC081E090E008C082E090E005C083E09B
:1008000090E002C085E090E08330910509F4BDC01E
:1008100044F48130910509F463C0029709F4ABC038
:1008200007C08430910509F4FBC0059709F41CC189
:100830004FEF6FEF80E00E94B6169B01AC0163E0C2
:1008400070E088E392E00E9451164FEF6FEF80E076
:100850000E94B6169B01AC0164E070E088E392E070
:100860000E9451164FEF6FEF80E00E94B6169B0179
:10087000AC016BE070E088E392E00E9451164FEF0C
:100880006FEF80E00E94B6169B01AC016CE070E057
:1008900088E392E00E9451164FEF6FEF80E00E94D4
:1008A000B6169B01AC0163E170E088E392E00E9420
:1008B00051164FEF6FEF80E00E94B6169B01AC011E
:1008C00064E170E088E392E00E9451164FEF6FEF11
:1008D00080E00E94B6169B01AC016BE170E03DC068
:1008E0004FEF6FEF80E00E94B6169B01AC0166E00F
:1008F00070E088E392E00E9451164FEF6FEF80E0C6
:100900000E94B6169B01AC0167E070E088E392E0BC
:100910000E9451164FEF6FEF80E00E94B6169B01C8
:10092000AC016EE070E088E392E00E9451164FEF58
:100930006FEF80E00E94B6169B01AC016FE070E0A3
:1009400088E392E00E9451164FEF6FEF80E00E9423
:10095000B6169B01AC0165E170E088E392E00E946D
:1009600051164FEF6FEF80E00E94B6169B01AC016D
:100970006CE170E0B6C04FEF6FEF80E00E94B616FA
:100980009B01AC016CE170E023C04FEF6FEF80E0A2
:100990000E94B6169B01AC0168E170E088E392E02A
:1009A0000E9451164FEF6FEF80E00E94B6169B0138
:1009B000AC0169E170E088E392E00E9451164FEFCC
:1009C0006FEF80E00E94B6169B01AC016AE170E017
:1009D00088E392E00E9451164FEF6FEF80E00E9493
:1009E000B6169B01AC016DE170E088E392E00E94D5
:1009F00051164FEF6FEF80E00E94B6169B01AC01DD
:100A00006EE170E088E392E00E9451164FEF6FEFC5
:100A100080E00E94B6169B01AC016FE170E061C0FE
:100A20004FEF6FEF80E00E94B6169B01AC0168E1CA
:100A300070E088E392E00E9451164FEF6FEF80E084
:100A40000E94B6169B01AC0169E170E088E392E078
:100A50000E9451164FEF6FEF80E00E94B6169B0187
:100A6000AC016AE170E030C04FEF6FEF80E00E94B0
:100A7000B6169B01AC0169E070E088E392E00E9449
:100A800051164FEF6FEF80E00E94B6169B01AC014C
:100A90006AE070E088E392E00E9451164FEF6FEF3A
:100AA00080E00E94B6169B01AC0161E170E088E332
:100AB00092E00E9451164FEF6FEF80E00E94B61651
:100AC0009B01AC0162E170E088E392E00E94511664
:100AD0004FEF6FEF80E00E94B6169B01AC016BE117
:100AE00070E088E392E00E94511688E392E0CF9193
:100AF0001F910F91FF90EF90DF90CF90BF90AF903C
:100B00009F908F900C943515CF92DF92EF92FF92C9
:100B10000F931F9340ED57E060E070E084ED95E0A7
:100B20000E94341720E032EC41E050E064E176E0CE
:100B300084ED95E00E94471784ED95E00E943117FF
:100B400065E171E080910506909106060E94D11B37
:100B50006AE070E080E090E00E94461841E060E0CA
:100B600084ED95E00E94B21726E040E052EC61E08F
:100B700070E084E196E00E947C1A88E392E00E9493
:100B8000B1146AE088E392E00E94BF1688E392E025
:100B90000E9435150E941718672B682B692B41F4AA
:100BA0000E941718623071058105910508F476C01E
:100BB0000E941718609330037093310380933203BF
:100BC0009093330300913403109135032091360341
:100BD00030913703601771078207930740F46093E1
:100BE0003403709335038093360390933703009159
:100BF00034031091350320913603309137036B0194
:100C00007C01C01AD10AE20AF30A970186010A3F61
:100C100011052105310508F441C060933403709338
:100C20003503809336039093370384ED95E00E945B
:100C3000311767E271E080910506909106060E94E7
:100C4000D11B6FE271E080910506909106060E942B
:100C5000D11B0E941718AB01BC012AE030E0809143
:100C60000506909106060E94381C61E371E08091B0
:100C70000506909106060E94D11B65E070E080E0B9
:100C800090E00E9446186AE070E080E090E00E94E8
:100C9000461861E084ED95E00E94741740E855E243
:100CA00060E070E08DE492E00E943D0A6AE371E04A
:100CB0008DE492E00E94D71B6BE471E08DE492E03A
:100CC0000E94D71B64E671E08DE492E00E94D71B7E
:100CD00062E080910A010E9401198FED9BE9A2EA6E
:100CE000B2EC80936C0290936D02A0936E02B0936D
:100CF0006F028AE991ECA4EEB1E4809378029093BC
:100D00007902A0937A02B0937B021F910F91FF901A
:100D1000EF90DF90CF9008951F93CF93DF93182F1C
:100D2000C8EED3E0812F0E947019892B21F42197FE
:100D3000C9F781E001C080E0DF91CF911F91089554
:100D40008CE892E00E94500B20E047E068E08DE4E0
:100D500092E00E940D0A22E530E046E068E270E091
:100D600088E392E00C94291688E392E00E949D1497
:100D70008DE492E00C94B409CF93DF9380E8E0EB2C
:100D8000F2E0DF011D928A95E9F7C0E08DE492E080
:100D90000E94CB080196D1F38DE492E00E9457089F
:100DA000AC2FB0E0A055BD4F8C93CC2329F08432FA
:100DB00019F48093B002C0E08091B002843231F720
:100DC00081E08C0FEC2FF0E0E055FD4F90819A30E0
:100DD00011F0C82FDBCF90E0FC01E255FD4F1082EF
:100DE000EC012597FE01E055FD4F20812A3269F67E
:100DF00040E150E060E070E084559D4F0E94F82192
:100E000021E0822F90E08C179D073CF4FC01E05517
:100E1000FD4F808168272F5FF4CF6111B6CFDF913E
:100E2000CF9108952F923F924F925F926F927F924F
:100E30008F929F92AF92BF92CF92DF92EF92FF92EA
:100E40000F931F93CF93DF93CDB7DEB7A9970FB65C
:100E5000F894DEBF0FBECDBF86E090E00E948C0606
:100E6000882359F08091AF0291E0980F9093AF02E0
:100E7000843018F48E5F8093AF028EE00E94BB181E
:100E8000BC01882777FD8095982F1F921F921F9293
:100E90002FEF2F93A12CB12C6501EE24EA9413E0DF
:100EA000F12E00E010E020E030E0A9010E944C1C8F
:100EB00088E392E00E94BF160E94BC060F900F903C
:100EC0000F900F908091B302823509F0BDC08BE086
:100ED0004E0127E1820E911CF401282F11922A95D0
:100EE000E9F71BA21AA21E013CE0230E311CF101FE
:100EF000282F11922A95E9F7FE013196FDA3ECA364
:100F000011928A95E9F7E0EBF2E0CF01805B924025
:100F100021912C32D1F70196FC01E055FD4F208143
:100F200001962C32C9F7FC01E055FD4F2081019656
:100F30002C32C9F7F401DC01A055BD4F2C9101966C
:100F40002C3211F02193F7CFFE01B296DC01A055AF
:100F5000BD4F2C9101962C3211F02193F7CFF10166
:100F6000DC01A055BD4F2C9101962C3211F021933C
:100F7000F7CFFE013196DC01A055BD4F2C912C32EC
:100F800019F021930196F7CFE091AF0228E0E29F9C
:100F9000F0011124E459FD4FA480B580C680D780AC
:100FA0004080518062807380B401CE0182960E949D
:100FB000D4009B01AC01B101CE0101962EA33FA349
:100FC00048A759A70E94D400830172012EA13FA116
:100FD00048A559A50E9401026093A7027093A80238
:100FE0008093A9029093AA02E091AF0238E0E39FB8
:100FF000F0011124E459FD4FA480B580C680D7804C
:101000004080518062807380B401CE0182960E943C
:10101000D4009B01AC01B101CE0101962EA33FA3E8
:1010200048A759A70E94D400830172012EA13FA1B5
:1010300048A559A50E9438016093AB027093AC0299
:101040008093AD029093AE020091AB021091AC027E
:101050002091AD023091AE024091A7025091A802BA
:101060006091A9027091AA028091AF020E94C7020A
:1010700060EB72E084E196E00E94D71BA9960FB660
:10108000F894DEBF0FBECDBFDF91CF911F910F91BE
:10109000FF90EF90DF90CF90BF90AF909F908F9098
:1010A0007F906F905F904F903F902F900895209188
:1010B0007D0330917E0328173907B9F490913B03E3
:1010C00080913C03981789F0E0913B03F0E0E35CEA
:1010D000FC4F808120913B0330E02F5F3F4F2F7307
:1010E000332720933B0390E008958FEF9FEF0895FF
:1010F0001F93CF93DF93DC015C968D919C915D975C
:10110000009749F481E090E013969C938E93129798
:1011100080E090E03BC05196ED91FC915297509643
:101120002C915097322F30951FB75E964C915E9759
:1011300041FB772770F941FD6095F8944081772352
:1011400011F0422B01C043234083EC012197F1F7BA
:1011500048E0508160FF02C0522B01C053235083EE
:10116000EC012197F1F76695415099F7808177233B
:1011700011F0832301C0822B80831FBF5C968D9169
:101180009C915D970197F1F781E090E0DF91CF911D
:101190001F910895089520917D0330917E032817B3
:1011A000390771F490913B0380913C03981741F00B
:1011B000E0913B03F0E0E35CFC4F808190E0089518
:1011C0008FEF9FEF089520917D0330917E032817C4
:1011D000390771F480913C0320913B0390E0805CDF
:1011E0009F4F821B910960E470E00E945C2008958B
:1011F00080E090E00895E0917D03F0917E03E81790
:10120000F90769F4A389B4899C918589809589231C
:101210008C9310927E0310927D0381E0089580E00C
:101220000895CF93DF93EC018A8D9B8D892BF1F08C
:1012300080917D0390917E038C179D07B9F00097F4
:1012400011F00E94FB088E8D8E7F8E8F10923C03D2
:1012500010923B03D0937E03C0937D03EB89FC89FE
:1012600080819D89892B808381E001C080E0DF91AE
:10127000CF9108951F920F920FB60F9211242F93C2
:101280003F934F935F936F937F938F939F93AF930E
:10129000BF93EF93FF93E0917D03F0917E0330972E
:1012A00009F451C0868DA685B785958581FF04C058
:1012B0008C91892329F447C08C91892309F043C07C
:1012C000A389B4899C918589809589238C9386898B
:1012D00097890197F1F7208D318DA685B7857585A2
:1012E00058E040E0C9010197F1F7842F90E095950F
:1012F0008795482F6C91672309F04068515091F70A
:10130000868D81FD409580913C0390E001968F731E
:10131000992720913B03281749F0A0913C03B0E0A6
:10132000A35CBC4F4C9380933C0303C0868D8160CB
:10133000868F828D938D0197F1F7A389B4898C9163
:101340009589892B8C93FF91EF91BF91AF919F91DC
:101350008F917F916F915F914F913F912F910F905E
:101360000FBE0F901F9018952AE931E0FC013183E0
:1013700020830C94FB081F93CF93DF93EC01162F6F
:101380006E8D6695617081E06827812F0E943A1901
:1013900061E0812F0E940119812F90E0FC01E85348
:1013A000FF4FE491E88BFC01E452FF4FE491F0E041
:1013B000EE0FFF1FE650FF4F859194919A8B898B1A
:1013C000DF91CF911F9108951F93CF93DF93EC018D
:1013D000162F60E0812F0E9401198E8D81FD04C0BF
:1013E00061E0812F0E943A191C87812F90E0FC0157
:1013F000E853FF4FE491ED87FC01E452FF4FE49185
:10140000F0E0EE0FFF1FE051FF4F859194919F8711
:101410008E87DF91CF911F910895FF920F931F93B5
:10142000CF93DF93EC01F62E522F1B821A8208EE27
:1014300013E020E030E00C831D832E833F838AE994
:1014400091E0998388831F8A1E8A198E188E1B8EBD
:101450001A8E1D8E1C8E8E8D8E7F50FB81F98E8F85
:10146000642FCE010E94BB096F2DCE01DF91CF9179
:101470001F910F91FF900C94E409CF93DF93EC013F
:101480009A01AB011B8E1A8E198E188E1F8A1E8A26
:1014900060E079E08DE390E00E949220C901243061
:1014A000310520F0B9016350710902C061E070E0BC
:1014B0007D8F6C8FEC85E63108F068C0B9017695B8
:1014C00067956431710518F06351710902C061E0DC
:1014D00070E07F8B6E8B069718F0C901059702C0EC
:1014E00081E090E0998F888FC901880F991F820F42
:1014F000931F96958795969587958D30910510F059
:101500000C9702C081E090E09B8F8A8F2091680049
:10151000E83050F091E0EE3008F490E081E001C056
:10152000880F9A95EAF701C084E0822B80936800C7
:101530002C85283038F02E3040F0263148F48CE6E7
:1015400090E008C08DE690E005C08BE690E002C018
:1015500080E090E09C8B8B8B283030F481E001C0E0
:10156000880F2A95EAF70DC0822F90E02E3010F4F4
:10157000089701C00E9791E001C0990F8A95EAF78C
:10158000892F8D8B8C8D9D8D0197F1F7CE01DF9189
:10159000CF910C941109CF93DF931F92CDB7DEB793
:1015A0006983DC01ED91FC910280F381E02D41E043
:1015B00050E0BE016F5F7F4F09950F90DF91CF9193
:1015C0000895CF93DF93EC01898D9A8D009759F0A0
:1015D000FC01138212820E943D10E98DFA8D228156
:1015E0003381232B31F081E090E09B838A8380E07C
:1015F00090E0DF91CF910895FC01818D928D00974D
:1016000011F00C94F60F0895CF93DF931F92CDB78E
:10161000DEB741E050E0BE016F5F7F4F0E94520E87
:10162000019719F4898190E002C08FEF9FEF0F902E
:10163000DF91CF910895FC01818D928D009711F07B
:101640000C94040B8FEF9FEF08950F931F93CF938C
:10165000DF938C01FC01818D928D0097B9F00E947F
:10166000040BEC018F3FFFEF9F0799F0F801818D8C
:10167000928DFC01428553856485758541505109E1
:10168000610971090E945A0FCE0105C080E090E007
:1016900002C08FEF9FEFDF91CF911F910F910895BF
:1016A000FC011382128248EE53E060E070E0448354
:1016B0005583668377838AEA91E091838083128ED3
:1016C000118E14860895DC015996ED91FC915A977C
:1016D000309729F0628573858485958508956FEF2D
:1016E0007FEFCB010895DC015996ED91FC915A975B
:1016F000309729F06389748985899689089560E017
:1017000070E0CB010895CF92DF92EF92FF92CF93DA
:10171000DF93EC01898D9A8D892BD9F0CE010E943F
:10172000730B6B017C01CE010E94630BA701960134
:10173000261B370B480B590BDA01C901811530E81C
:101740009307A105B10538F08FEF9FE7A0E0B0E067
:1017500002C080E090E0DF91CF91FF90EF90DF90AA
:10176000CF900895109284031092850310928803FD
:1017700010928A0382E090E0A0E0B0E080938B03B7
:1017800090938C03A0938D03B0938E031092A203C9
:101790001092AC031092AB038AEB91E09093AA03F2
:1017A0008093A9031092AE0308959FB7F8942091F7
:1017B0003A0380913803213019F48DBB9FBF0895FF
:1017C0008FBF089520913A03222399F03FB7F894F0
:1017D00020913A03213059F42DB3209338034DB3AF
:1017E00020913903209524232DBB3FBF02C03093A5
:1017F00038038CBD9DBD08958EBD00000DB407FE5D
:10180000FDCF8EB508958FEF0C94FC0B61E0FC01C9
:1018100084810E943A198091C803882339F010927C
:10182000C80380913A0381110C94D50B0895CF938E
:10183000DF93EC018091C803811109C081E080939E
:10184000C8038091C9039091CA030E94E20B60E033
:101850008C81DF91CF910C943A19CF93DF93EC01F7
:101860008E81882389F08F8198859C012F5F3F4F5F
:1018700038872F838230924018F40E94030CF3CFF4
:10188000CE010E94060C1E82DF91CF9108950F9326
:101890001F93CF93DF93EB010E9417188B010E94D7
:1018A000030C8F3F49F00E941718601B710B6C17D7
:1018B0007D07A8F380E001C081E0DF91CF911F9107
:1018C0000F910895CF92DF92FF920F931F93CF93C2
:1018D000DF9300D000D0CDB7DEB76C01F62E2983A0
:1018E0003A834B835C830E942D0CC6010E94170C27
:1018F0006CE271E0C6010E94470C8F2D80640E944B
:10190000FC0B08E110E05C814B813A812981DA010E
:10191000C901002E04C0B695A795979587950A949E
:10192000D2F729833A834B835C830E94FC0B0850D7
:10193000110929813A814B815C81083F8FEF18079B
:1019400031F7FF2029F0E8E0FE1621F08FEF03C009
:1019500085E901C087E80E94FC0B10E00E94030C9F
:10196000F601828787FF04C01F3F11F01F5FF6CF8B
:101970000F900F900F900F90DF91CF911F910F91CB
:10198000FF90DF90CF9008950F931F93CF93DF9335
:10199000EC010E9417188B010E94030C8A878F3F6D
:1019A00049F40E941718601B710B6D327140A0F34F
:1019B0008FE003C08E3F39F08DE08D83CE010E9411
:1019C000060C80E001C081E0DF91CF911F910F9163
:1019D0000895CF92DF92EF92FF920F931F93CF93D0
:1019E000DF93EC0169010115110509F462C0C8011A
:1019F000820F931F8130924008F05DC08E81882352
:101A000071F088819981AA81BB81481759076A07BB
:101A10007B0729F48F819885C816D90610F548836D
:101A200059836A837B838B85833039F039E0440F97
:101A3000551F661F771F3A95D1F79A01AB0161E1F7
:101A4000CE010E94620C882319F083E08D8333C09D
:101A5000CE010E94C40C882371F118861F8281E098
:101A60008E838F8198858C159D0540F40E94030C10
:101A70008F819885019698878F83F3CF6701E00E59
:101A8000F11ECE14DF0431F00E94030CF6018193A5
:101A90006F01F7CF8F819885800F911F98878F8373
:101AA0002985222319F08115924018F0CE010E9459
:101AB0002D0C81E004C0CE010E94060C80E0DF9175
:101AC000CF911F910F91FF90EF90DF90CF900895ED
:101AD000EF92FF920F931F93790100E012E020E054
:101AE00030E00E94E90C1F910F91FF90EF90089554
:101AF000CF92DF92EF92FF920F931F93CF93DF93DA
:101B000000D0CDB7DEB78C01862F49835A830E945F
:101B1000FC0B4981C42E5A81D52EE12CF12CF60103
:101B200081916F010E94FC0BFFEFEF1AFF0AE11495
:101B300082E0F806A1F78FEF0E94FC0B8FEF0E9466
:101B4000FC0B0E94030CF80182878F71853039F0FD
:101B500081E18583C8010E94060C80E001C081E01C
:101B60000F900F90DF91CF911F910F91FF90EF9009
:101B7000DF90CF9008950F931F93CF93DF93EC01E5
:101B80008901411551056105710511F482E132C0E9
:101B90008B85833039F089E0440F551F661F771F0E
:101BA0008A95D1F79A01AB0168E1CE010E94620CDF
:101BB000882311F084E01EC0A8016EEFCE010E94C0
:101BC000780D8823C1F068E572E0CE010E94470CD1
:101BD000811102C085E10EC020E030E0A9016DE076
:101BE000CE010E94620C811104C00E94030C882364
:101BF00039F084E18D83CE010E94060C80E004C0A0
:101C0000CE010E94060C81E0DF91CF911F910F91D0
:101C1000089580E58093C9031092CA030895CF9375
:101C2000DF93EC019C012A5F3F4F41E050E060E010
:101C300070E08B8D9C8D0E9488138823A1F04F89C2
:101C4000588D698D7A8D452B462B472B71F44E812B
:101C50005F81688579854F8B588F698F7A8F8C81EA
:101C600080688C8302C080E001C081E0DF91CF9169
:101C70000895CF93DF93EC01462F6E857F85888989
:101C800099890E942812882341F08A8920E2829F44
:101C9000C00111248C529C4F02C080E090E0DF9183
:101CA000CF9108952F923F924F925F926F927F92C1
:101CB0008F929F92AF92BF92CF92DF92EF92FF925C
:101CC0000F931F93CF93DF93EC016B015A018D812A
:101CD000811103C08FEF9FEFDAC08C8180FFFACFB4
:101CE0004B895C896D897E898A859B85AC85BD859C
:101CF0002501612C712C8A019B01081B190B2A0BF1
:101D00003B0B041515052605370518F45A01A81ACA
:101D1000B90A25011E0126E0220E311C411451048E
:101D200009F47BC04A855B856C857D854A0181E02D
:101D30009822ED818A019B01F9E036952795179548
:101D40000795FA95D1F78B8D9C8DE23051F4FC010B
:101D5000628D738D848D958D600F711F821F931F0F
:101D60003EC0FC0174807A94702281149104C9F4FD
:101D7000711017C0452B462B472B49F48F89988D3E
:101D8000A98DBA8D8E839F83A887B9870AC04E819B
:101D90005F816885798591010E946312882309F427
:101DA00099CFEB8DFC8D6E817F81888599856250FE
:101DB000710981099109058404C0660F771F881F86
:101DC000991F0A94D2F70685178520893189600FFB
:101DD000711F821F931F670D711D811D911D20E0D2
:101DE00032E02819390932012415350508F4390182
:101DF0002C8126FD04C06114F2E07F06A1F500915C
:101E00000C0110910D0120910E0130910F0160170E
:101E100071078207930719F426C0C50138C07601FF
:101E200083019401AB01BC018091D2039091D30353
:101E30000E94E90C882309F44DCFC60CD71C04C0BE
:101E4000E81BF90BCE0EDF1E8A859B85AC85BD8510
:101E5000860D971DA11DB11D8A879B87AC87BD8705
:101E6000461857085BCF40E00E942812882309F4E7
:101E700031CFC4018C529C4FD6019C01260D371DD9
:101E8000FC01E217F307E1F241914D93FACFDF91A4
:101E9000CF911F910F91FF90EF90DF90CF90BF9067
:101EA000AF909F908F907F906F905F904F903F90FA
:101EB0002F9008954F925F926F927F92AF92BF9250
:101EC000CF92DF92EF92FF920F931F93CF93DF9306
:101ED000EC016A017B012D81222309F457C08B8913
:101EE0009C89AD89BE8984179507A607B70708F4B2
:101EF0004DC04EC08A859B85AC85BD85EB8DFC8D24
:101F0000E585F0E03996AC01BD0141505109610908
:101F100071090E2E04C076956795579547950A94DA
:101F2000D2F797018601015011092109310904C036
:101F30003695279517950795EA95D2F70417150753
:101F400026073707B0F58F89988DA98DBA8D8E83B6
:101F50009F83A887B987280139015E0186E0A80E12
:101F6000B11C411451046104710461F14E815F811F
:101F70006885798595018B8D9C8D0E94631291E017
:101F8000491A5108610871088111EBCF80E01FC028
:101F90002230C1F0C114D104E104F10409F0AACF48
:101FA0001E821F82188619861A861B861C861D862D
:101FB0000DC0892B8A2B8B2B31F2041B150B260BA2
:101FC000370BC9CFCA86DB86EC86FD8681E0DF91C0
:101FD000CF911F910F91FF90EF90DF90CF90BF9026
:101FE000AF907F906F905F904F9008950F931F93E5
:101FF000CF93DF93EC018D818823C9F18C8187FF1A
:1020000030C061E0CE010E94390E8C01009779F159
:102010008D81823048F44B895C896D897E89F80115
:10202000448F558F668F778F4F89588D698D7A8D44
:10203000F801538F428F758B648BE091CB03F09145
:10204000CC03309759F0B8016A5E7F4FC8014896BB
:102050000995F801808D918D938B828B8C818F7780
:102060008C83DF91CF911F910F910C94ED1180E043
:10207000DF91CF911F910F9108952F923F924F9230
:102080005F926F927F928F929F92AF92BF92CF9208
:10209000DF92EF92FF920F931F93CF93DF9300D0C5
:1020A00000D01F92CDB7DEB78C017B013A01DC0175
:1020B00015968C9115978130C9F414968C9181FFF7
:1020C00015C082FF1BC0F801438954896589768950
:1020D00082859385A485B58584179507A607B707DC
:1020E00069F0C8010E945A0F811108C081E090E098
:1020F000F8019383828380E090E046C1630180C051
:10210000D8015B968D919C915C97FC01F481F15014
:10211000B501A40129E076956795579547952A95CD
:10212000D1F7F423FD8321E09222FF2309F474C048
:1021300080E092E08819990956018C159D0508F4F4
:102140005C01D8015B96ED91FC915C9716962D9001
:102150003D904D905C901997B2E02B1A31084108E0
:102160005108058404C0220C331C441C551C0A94DD
:10217000D2F786859785A089B189280E391E4A1E17
:102180005B1EED812E0E311C411C511CA114F2E08E
:10219000BF0609F088C080910C0190910D01A091BB
:1021A0000E01B0910F0182159305A405B50559F4F0
:1021B0008FEF9FEFDC0180930C0190930D01A093B2
:1021C0000E01B0930F019701B201A1018091D203DA
:1021D0009091D3030E94BB0D882309F487CF9EEF13
:1021E000F91ACA18DB08F80182859385A485B5859C
:1021F0008A0D9B1DA11DB11D82879387A487B5877A
:10220000D8011A968D909D90AD90BC901D97C114E9
:10221000D10409F075CF8AC08114910409F088CFE8
:1022200016964D915D916D917C91199741155105CF
:102230006105710559F457968D919D910D90BC9152
:10224000A02D0097A105B10541F521C09E012F5F8A
:102250003F4F0E946312882309F44ECF89819A81EF
:10226000AB81BC81F801238D348DF90127892031A0
:1022700029F448EF5FEF60E070E004C048EF5FEFE3
:102280006FEF7FE084179507A607B70730F0C80106
:102290000E940F0E81114CCF29CFF80186839783BE
:1022A000A087B18745CF8114910429F5D8011A96EA
:1022B0004D915D916D917C911D9753968D919D915E
:1022C0000D90BC91A02D481759076A077B0798F01D
:1022D0000E94ED11882309F409CF20920C0130925D
:1022E0000D0140920E0150920F018091D103816047
:1022F0008093D10308C041E0C201B1010E942812BD
:10230000882309F4F3CEC4018C529C4FD7019C0161
:102310002A0D3B1DFC01E217F30719F04D91419383
:10232000FACFE81BF90BEE0EFF1E5BCF53968D9193
:102330009D910D90BC91A02DF801248188159905DF
:10234000AA05BB0538F4838A948AA58AB68A2068D0
:1023500024830CC08091CB039091CC03892B31F066
:102360006114710419F02068F8012483D8011496CF
:102370008C9183FD02C0C30107C0C8010E94F60F03
:10238000882309F4B3CEF7CF0F900F900F900F90E2
:102390000F90DF91CF911F910F91FF90EF90DF9001
:1023A000CF90BF90AF909F908F907F906F905F90F5
:1023B0004F903F902F900895CF93DF931F92CDB70A
:1023C000DEB7698341E050E0BE016F5F7F4F0E943E
:1023D0003D100F90DF91CF9108958091D103882314
:1023E00099F140910C0150910D0160910E01709195
:1023F0000F0124ED33E08091D2039091D3030E942A
:10240000BB0D882319F14091CD035091CE0360910B
:10241000CF037091D003411551056105710591F00D
:1024200024ED33E08091D2039091D3030E94BB0D41
:10243000882361F01092CD031092CE031092CF0347
:102440001092D0031092D10381E0089580E00895A6
:10245000CF92DF92EF92FF92CF936B017C01C42F5A
:1024600080910C0190910D01A0910E01B0910F018E
:102470008C159D05AE05BF05D1F00E94ED118111AF
:1024800002C080E01AC024ED33E0B701A6018091BC
:10249000D2039091D3030E94680D882391F3C092D8
:1024A0000C01D0920D01E0920E01F0920F0180918B
:1024B000D1038C2B8093D10381E0CF91FF90EF90DB
:1024C000DF90CF9008958F929F92AF92BF92CF925C
:1024D000DF92EF92FF920F931F93CF93DF938C01C4
:1024E0006A017B01E901FC0181859285A385B485A0
:1024F0000196A11DB11D84179507A607B70710F413
:1025000080E058C0F80143895489658976898789B4
:10251000803129F4BB27AF2D9E2D8D2D09C0D70109
:10252000C60127E0B695A795979587952A95D1F787
:102530004C015D01840E951EA61EB71EC501B40197
:1025400080900C0190900D01A0900E01B0900F01B1
:10255000681579058A059B0589F4F801878980311A
:1025600099F4DD24EE24FF24F601EE0FFF1FEC5258
:10257000FC4F80819181A0E0B0E017C040E00E9454
:1025800028128111EACFBCCFE894C7F8DD24EE24ED
:10259000FF24F601EE0FFF1FEE0FFF1FEC52FC4F62
:1025A00080819181A281B381BF7088839983AA833E
:1025B000BB8381E0DF91CF911F910F91FF90EF904E
:1025C000DF90CF90BF90AF909F908F9008954F92E3
:1025D0005F926F927F928F929F92AF92BF92CF92B3
:1025E000DF92EF92FF920F931F93CF93DF93EC0153
:1025F0006A017B01280139014230510561057105ED
:1026000008F474C049855A856B857C854F5F5F4FA0
:102610006F4F7F4F4C155D056E057F0508F466C052
:102620008B889C88AD88BE888F89803129F4772774
:102630006F2D5E2D4D2D09C0B701A601E7E07695FF
:10264000679557954795EA95D1F7840E951EA61E76
:10265000B71E40910C0150910D0160910E017091D7
:102660000F0184169506A606B70671F48F8980318E
:1026700099F4DD24EE24FF24F601EE0FFF1FEC5247
:10268000FC4F5182408218C040E0C501B4010E9455
:1026900028128111EBCF2AC0E894C7F8DD24EE247C
:1026A000FF24F601EE0FFF1FEE0FFF1FEC52FC4F51
:1026B00040825182628273828091D10381608093D3
:1026C000D1038A89823080F08D819E81AF81B88567
:1026D000880D991DAA1DBB1D8093CD039093CE0339
:1026E000A093CF03B093D00381E001C080E0DF91DD
:1026F000CF911F910F91FF90EF90DF90CF90BF90FF
:10270000AF909F908F907F906F905F904F900895C3
:102710002F923F924F925F926F927F929F92AF92D1
:10272000BF92CF92DF92EF92FF920F931F93CF93BE
:10273000DF93CDB7DEB760970FB6F894DEBF0FBE5C
:10274000CDBF5C014D875E876F87788B1901D901FA
:102750004D905D906D907C90411451046104710422
:1027600031F0BFEF4B1A5B0A6B0A7B0A10C0FC0109
:102770004080518062807380992493940D851E85DA
:102780002F853889013011052105310509F0912C7B
:10279000D50119962D913D914D915C911C972F5F1C
:1027A0003F4F4F4F5F4F29873A874B875C877301B5
:1027B00062011D821E821F821886F5018185928525
:1027C000A385B4850D811E812F81388508171907CF
:1027D0002A073B0708F056C029853A854B855C855A
:1027E0002C153D054E055F0550F4A2E0CA2ED12CF4
:1027F000E12CF12CB2E04B2E512C612C712C9E015E
:102800002F5F3F4FB701A601C5010E9463128823C5
:10281000C9F149815A816B817C81D701C60101963A
:10282000A11DB11D452B462B472B19F02C013D0155
:102830000FC0AC01BD0144195509660977090D8522
:102840001E852F853889401751076207730779F075
:102850002D813E814F8158852F5F3F4F4F4F5F4FF6
:102860002D833E834F8358876C017D01A6CF0FEFE8
:102870001FEF2FEF3FE0B701A601C5010E94E7124D
:10288000811118C080E041C0D701C6010197A1099C
:10289000B1098D839E83AF83B88797018601AC0110
:1028A000BD01C5010E94E712882361F3CD80DE805F
:1028B000EF80F8844C145D046E047F0428F3D1018A
:1028C0004D915D916D917C914115510561057105A9
:1028D00099F4F10140825182628273829920A1F0C1
:1028E000FFEF4F1A5F0A6F0A7F0AD5014D925D9282
:1028F0006D927C92139708C093018201C5010E94DA
:10290000E7128111E6CFBECF81E060960FB6F89452
:10291000DEBF0FBECDBFDF91CF911F910F91FF9012
:10292000EF90DF90CF90BF90AF909F907F906F908F
:102930005F904F903F902F900895CF93DF93EC01DD
:1029400088859985009711F00E9469218E8187FD05
:1029500005C060E0DF91CF910C940119DF91CF9118
:102960000895CF93DF93EC018E8187FD07C061E06E
:102970000E94011960E08E810E943A1981E08983EA
:10298000DF91CF910895EF92FF920F931F93CF9312
:10299000DF93EC017B0188859985009711F00E94F7
:1029A00069219D858A85981303C083E090E002C069
:1029B00084E090E08E9D80018F9D100D9E9D100DF6
:1029C00011241D830C83C8010E94D1209987888718
:1029D000009741F0A80160E070E00E943823FB827C
:1029E000EA8204C01D821C821B821A82DF91CF9171
:1029F0001F910F91FF90EF900895FC0121E09585C4
:102A00008285981320E0CB0136E0969587953A951C
:102A1000E1F7482F43704587CB0154E096958795A1
:102A20005A95E1F7382F33703287CB019695879509
:102A30009695879583708387862F8370848781E03E
:102A40006F3F710511F008F080E0808380859185EB
:102A5000892B51F091E0431390E0921729F06281A5
:102A60007381CF010C94C3140895CF92DF92EF923B
:102A7000FF920F931F93CF93DF93CDB7DEB72997C4
:102A80000FB6F894DEBF0FBECDBF8C01DC011896E7
:102A90008D919C911997892B09F49AC00E94231853
:102AA000F801C684D784E088F1886C197D098E0905
:102AB0009F09623371058105910580F3F894848143
:102AC00095819A838983A085B1857D01EFEFEE1A08
:102AD000FE0A8C918987D8019C9152960D90BC91E9
:102AE000A02DF8018489992309F42EC09C91982B7C
:102AF00098879C91809589238F838F818E8388E02E
:102B00008D8358856F8149853D812E8189819A8188
:102B1000F7015C9347FD252F3A952C93262F39F02A
:102B2000441F00C000006C93000000C0F2CF38E0EA
:102B300041916C930000019761F7F801B38BA28B70
:102B400049873D832E8338C09C91982B98879C9110
:102B5000809589238F838F818C8388E08B83588530
:102B60006F8149853B812C8189819A81F7015C9332
:102B700047FD252F00C000C02C9300C000C000C03E
:102B800000C000C06C930000262F3A9541F0441F0E
:102B9000000000C000C000C000C000C0E8CF38E0A6
:102BA000419100C06C9300C0019709F7F801B38B05
:102BB000A28B49873B832C839A83898378940E94D4
:102BC0002318D8011E966D937D938D939C935197F6
:102BD00029960FB6F894DEBF0FBECDBFDF91CF911F
:102BE0001F910F91FF90EF90DF90CF9008951F936A
:102BF000CF93DF93EC01162F8981882331F08E81EA
:102C000087FD03C060E00E9401191E83898188232B
:102C100041F061E0812F0E94011960E0812F0E9444
:102C20003A19812F90E0FC01E452FF4FE491F0E06B
:102C3000EE0FFF1FE650FF4F259134913B8B2A8BFF
:102C4000FC01E853FF4F84918C8BDF91CF911F9152
:102C50000895EF92FF920F931F93CF93DF931F92EC
:102C6000CDB7DEB77C018B01FC0111821782118682
:102C7000108616861786108A118AB90149830E9428
:102C8000FD14B801C7010E94C3144981642FC70114
:102C90000F90DF91CF911F910F91FF90EF900C94C7
:102CA000F715CF92DF92EF92FF920F931F93CF937E
:102CB000DF93FC01828193816817790708F04DC08A
:102CC000CA01AA27BB27182FC32ED42EE52EFF2416
:102CD000DC2DC22F0781002361F0809FC0011124E9
:102CE000192FC09E60011124DD2D209FC0011124E9
:102CF000C92FF5848285A085B185F81208C0CB0163
:102D0000880F991F860F971F8A0F9B1F17C0CB0133
:102D1000880F991F880F991F8A0F9B1F452F5527D2
:102D200066277727DC01AF0DB11D002329F0409FF6
:102D300090011124232F01C0242F2C932285DC0124
:102D4000A20FB11D1C932385DC01A20FB11DDC93E2
:102D50002485FC01E20FF11DC083DF91CF911F910B
:102D60000F91FF90EF90DF90CF900895962F50E055
:102D700060E070E0592B682BCB01BA010895FF92F7
:102D80000F931F93CF93DF93EC01FF24F394F60E80
:102D90002F81F21679F1088519852150B9F06F3F1E
:102DA00059F430E040E050E06FEF7FEF80E090E0DA
:102DB0000E949220B9010CC08F2D90E0982F882797
:102DC0000197622F70E00E94482002C060E070E02E
:102DD000F8018C819D81AF01401B510B48175907A9
:102DE00040F44081469FC001479F900D112491936C
:102DF000F0CFFF82DF91CF911F910F91FF90089547
:102E0000FC014481558160E070E0808591850C94DF
:102E100038230F931F93CF93DF93EC01662359F070
:102E20000E94171869837A838B839C83DF91CF91EB
:102E30001F910F9108950E94171809811A812B8103
:102E40003C81601B710B820B930B6436710581050D
:102E5000910530F763E070E080E090E00E94461852
:102E6000EACF60E00C940917FC0113AA14AA15AA72
:102E700016AA11821282138214824115510561052E
:102E8000710521F0CB01BA010C9446180895FB019D
:102E9000BA01A901DC01D296FC93EE93D19726E00A
:102EA000CF010C947C1A1F93CF93DF93EC01162F64
:102EB0006EEB71E089A99AA90E94D11B4AE050E00B
:102EC000612F89A99AA90E94451C65EC71E089A926
:102ED0009AA90E94D11B62E370E080E090E0DF914C
:102EE000CF911F910C9446181F93CF93DF93EC0161
:102EF000162F8D81882389F189A99AA9DC01ED918A
:102F0000FC910480F581E02D0995892BA9F307C078
:102F10002637310519F12835310509F41D8289A9B3
:102F20009AA9DC01ED91FC910480F581E02D0995D1
:102F30001816190694F489A99AA9DC01ED91FC915F
:102F40000680F781E02D09959C0133272336310552
:102F5000F9F6612FCE010E94531783E6DF91CF91DE
:102F60001F9108950F931F93CF93DF931F92CDB7B7
:102F7000DEB78C01662349F081E0F801858360E0CB
:102F8000C80149830E9474174981F80145830F9055
:102F9000DF91CF911F910F9108951F920F920FB65D
:102FA0000F9211242F933F938F939F93AF93BF93CF
:102FB00080910C0690910D06A0910E06B0910F061F
:102FC00030910B0623E0230F2D3720F40196A11D2D
:102FD000B11D05C026E8230F0296A11DB11D209347
:102FE0000B0680930C0690930D06A0930E06B093EB
:102FF0000F068091100690911106A0911206B091D3
:1030000013060196A11DB11D809310069093110621
:10301000A0931206B0931306BF91AF919F918F9129
:103020003F912F910F900FBE0F901F9018952FB7C3
:10303000F89460910C0670910D0680910E069091A7
:103040000F062FBF08953FB7F89480911006909116
:103050001106A0911206B091130626B5A89B05C0D3
:103060002F3F19F00196A11DB11D3FBF6627782F94
:10307000892F9A2F620F711D811D911D42E0660FED
:10308000771F881F991F4A95D1F708958F929F92B5
:10309000AF92BF92CF92DF92EF92FF926B017C01D1
:1030A0000E9423184B015C01C114D104E104F10416
:1030B000F1F00E94931C0E942318681979098A096B
:1030C0009B09683E73408105910570F321E0C21AA7
:1030D000D108E108F10888EE880E83E0981EA11C53
:1030E000B11CC114D104E104F10429F7DDCFFF9034
:1030F000EF90DF90CF90BF90AF909F908F9008950A
:10310000789484B5826084BD84B5816084BD85B5C2
:10311000826085BD85B5816085BDEEE6F0E0808189
:1031200081608083E1E8F0E01082808182608083AA
:10313000808181608083E0E8F0E08081816080832D
:10314000E1EBF0E0808184608083E0EBF0E080815F
:1031500081608083EAE7F0E0808184608083808101
:1031600082608083808181608083808180688083A9
:103170001092C10008958E3008F08E508770209113
:10318000100190E4299F90011124822B80937C00F0
:1031900080917A00806480937A0080917A0086FD25
:1031A000FCCF809178002091790090E0922B0895D7
:1031B000833081F028F4813099F08230A1F00895B5
:1031C0008730A9F08830B9F08430D1F48091800044
:1031D0008F7D03C0809180008F7780938000089559
:1031E00084B58F7702C084B58F7D84BD08958091AA
:1031F000B0008F7703C08091B0008F7D8093B000C6
:103200000895CF93DF9390E0FC01E853FF4F2491A2
:10321000FC01E452FF4F8491882349F190E0880F2C
:10322000991FFC01EC5FFE4FA591B49186509F4F12
:10323000FC01C591D4919FB7611108C0F8948C919D
:10324000209582238C93888182230AC0623051F4B6
:10325000F8948C91322F309583238C938881822B24
:10326000888304C0F8948C91822B8C939FBFDF914C
:10327000CF9108950F931F93CF93DF931F92CDB7F4
:10328000DEB7282F30E0F901EC54FF4F8491F901AB
:10329000E853FF4F1491F901E452FF4F04910023CA
:1032A000C9F0882321F069830E94D8186981E02F32
:1032B000F0E0EE0FFF1FE650FF4FA591B4919FB7CE
:1032C000F8948C91611103C01095812301C0812B6A
:1032D0008C939FBF0F90DF91CF911F910F91089515
:1032E000CF93DF93282F30E0F901EC54FF4F849106
:1032F000F901E853FF4FD491F901E452FF4FC49113
:10330000CC2391F081110E94D818EC2FF0E0EE0F41
:10331000FF1FE051FF4FA591B4912C912D2381E027
:1033200090E021F480E002C080E090E0DF91CF9156
:103330000895FC01818D228D90E0805C9F4F821B5F
:1033400091098F7399270895FC01918D828D9817AB
:1033500031F0828DE80FF11D858D90E008958FEF9B
:103360009FEF0895FC01918D828D981761F0828DF9
:10337000DF01A80FB11D5D968C91928D9F5F9F73A9
:10338000928F90E008958FEF9FEF089586E39BE181
:10339000892B49F080E090E0892B29F00E94361BB0
:1033A00081110C9400000895FC01848DDF01A80FA9
:1033B000B11DA35ABF4F2C91848D90E001968F735D
:1033C0009927848FA689B7892C93A089B1898C917C
:1033D00080648C93938D848D981306C00288F38942
:1033E000E02D80818F7D80830895CF93DF93EC0162
:1033F000888D8823C9F0EA89FB89808185FD05C015
:10340000A889B9898C9186FD0FC00FB607FCF5CF4E
:10341000808185FFF2CFA889B9898C9185FFEDCF96
:10342000CE010E94D419E7CFDF91CF910895CF92BA
:10343000DF92FF920F931F93CF93DF931F92CDB72D
:10344000DEB76C0181E0D60158968C9358975B9655
:103450009C915B975C968C915C97981307C05096F3
:10346000ED91FC915197808185FD2EC0F601038D71
:1034700010E00F5F1F4F0F731127F02EF601848DA0
:10348000F81211C00FB607FCF9CFD6015096ED9196
:10349000FC915197808185FFF1CFC60169830E941D
:1034A000D4196981EBCF838DE80FF11DE35AFF4FEB
:1034B0006083D6015B960C935B975296ED91FC91DD
:1034C0005397808180620CC0D6015696ED91FC9195
:1034D000579760835096ED91FC915197808180645D
:1034E000808381E090E00F90DF91CF911F910F9149
:1034F000FF90DF90CF900895BF92CF92DF92EF922E
:10350000FF92CF93DF93EC016A017B01B22EE88931
:10351000F98982E08083411581EE580761057105C4
:10352000A1F060E079E08DE390E0A70196010E94B0
:103530007020215031094109510956954795379519
:103540002795211580E1380798F0E889F9891082DC
:1035500060E874E88EE190E0A70196010E94702077
:1035600021503109410951095695479537952795BD
:10357000EC85FD853083EE85FF852083188EEC89F0
:10358000FD89B082EA89FB89808180618083EA8934
:10359000FB89808188608083EA89FB8980818068DB
:1035A0008083EA89FB8980818F7D8083DF91CF9141
:1035B000FF90EF90DF90CF90BF9008951F920F92F1
:1035C0000FB60F9211242F938F939F93EF93FF9336
:1035D000E0912406F09125068081E0912A06F09181
:1035E0002B0682FD12C0908180912D068F5F8F7314
:1035F00020912E06821751F0E0912D06F0E0EC5E4E
:10360000F94F958F80932D0601C08081FF91EF9136
:103610009F918F912F910F900FBE0F901F90189533
:103620001F920F920FB60F9211242F933F934F9337
:103630005F936F937F938F939F93AF93BF93EF931A
:10364000FF9384E196E00E94D419FF91EF91BF911E
:10365000AF919F918F917F916F915F914F913F912A
:103660002F910F900FBE0F901F90189584E196E058
:103670000E94991921E0892B09F420E0822F0895F6
:10368000109217061092160688EE93E0A0E0B0E0C4
:103690008093180690931906A0931A06B0931B0600
:1036A0008AE192E0909315068093140685EC90E0F1
:1036B000909321068093200684EC90E0909323065B
:1036C0008093220680EC90E0909325068093240658
:1036D00081EC90E0909327068093260682EC90E0A0
:1036E000909329068093280686EC90E090932B0611
:1036F00080932A0610922D0610922E0610922F0605
:1037000010923006089508950E9480180E94831B2D
:103710000E948405C6ECD9E10E9412072097E1F3CC
:103720000E94C619F9CFCF92DF92EF92FF920F93CA
:103730001F93CF93DF937C016A01EB0100E010E05F
:103740000C151D0571F06991D701ED91FC91019067
:10375000F081E02DC7010995892B19F00F5F1F4FEC
:10376000EFCFC801DF91CF911F910F91FF90EF90A4
:10377000DF90CF9008956115710581F0DB010D9008
:103780000020E9F7AD0141505109461B570BDC0100
:10379000ED91FC910280F381E02D099480E090E0AE
:1037A00008950C94BB1B6BEC71E00C94BB1B0F9346
:1037B0001F93CF93DF93EC010E94BB1B8C01CE01C2
:1037C0000E94D31B800F911FDF91CF911F910F910A
:1037D00008958F929F92AF92BF92DF92EF92FF92E5
:1037E0000F931F93CF93DF93CDB7DEB7A1970FB69B
:1037F000F894DEBF0FBECDBF7C01F42FD52ECB01D8
:1038000019A2223008F42AE08E010F5D1F4F822E8C
:10381000912CA12CB12C6F2F7D2DA50194010E941C
:103820007020F22FD32ECA01015011096A3014F40E
:10383000E0E301C0E7E3E60FD801EC93232B242B50
:10384000252B49F7B801C7010E94BB1BA1960FB6F3
:10385000F894DEBF0FBECDBFDF91CF911F910F91C6
:10386000FF90EF90DF90BF90AF909F908F90089562
:103870002115310541F4DC01ED91FC910190F081BD
:10388000E02D642F09940C94E91B9A01462F50E017
:1038900060E070E00C94381C4F925F926F927F92C0
:1038A000AF92BF92CF92DF92EF92FF920F931F934E
:1038B000CF93DF93CDB7DEB729013A01621B730BBB
:1038C000840B950B29893A894B895C892A193B0914
:1038D0004C095D09298B3A8B4B8B5C8B9B01AC01AE
:1038E00069897A898B899C890E943820E418F508B7
:1038F00006091709A80197010E9492202A0D3B1D75
:103900004C1D5D1DCA01B901DF91CF911F910F912F
:10391000FF90EF90DF90CF90BF90AF907F906F902F
:103920005F904F90089508955058BB27AA270ED056
:1039300083C24CD230F051D220F031F49F3F11F4C9
:103940001EF41CC20EF4E095E7FB04C2E92F96D2E8
:1039500080F3BA17620773078407950718F071F4AC
:103960009EF5AEC20EF4E0950B2EBA2FA02D0B01E2
:10397000B90190010C01CA01A0011124FF27591BB4
:1039800099F0593F50F4503E68F11A16F040A22FBA
:10399000232F342F4427585FF3CF4695379527952B
:1039A000A795F0405395C9F77EF41F16BA0B620B2A
:1039B000730B840BBAF09150A1F0FF0FBB1F661F71
:1039C000771F881FC2F70EC0BA0F621F731F841FB4
:1039D00048F4879577956795B795F7959E3F08F0DA
:1039E000B3CF9395880F08F09927EE0F9795879599
:1039F0000895ECD158F080E891E009F49EEFEDD104
:103A000028F040E851E059F45EEF09C0B7C158C250
:103A1000E92FE07833D268F3092E052AC1F326177F
:103A200037074807590738F00E2E07F8E02569F0E8
:103A3000E025E0640AC0EF6307F8009407FADB01B1
:103A4000B9019D01DC01CA01AD01EF934AD0F4D167
:103A50000AD05F91552331F02BED3FE049E450FD52
:103A600049EC63CF0895DF93DD27B92FBF7740E896
:103A70005FE31616170648075B0710F4D92F2BD201
:103A80009F938F937F936F93D8D2E8E6F0E079D13C
:103A9000D3D12F913F914F915F9130D2DD2349F0E7
:103AA0009058A2EA2AED3FE049EC5FE3D0785D2729
:103AB0004DDFDF91C1C12AD108F481E0089595D18D
:103AC000E395CBC10CD0B8C188D140F07FD130F0A4
:103AD00021F45F3F19F03EC15111F3C14FC1CED166
:103AE00098F39923C9F35523B1F3951B550BBB27C5
:103AF000AA2762177307840738F09F5F5F4F220F72
:103B0000331F441FAA1FA9F333D00E2E3AF0E0E86A
:103B100030D091505040E695001CCAF729D0FE2FB6
:103B200027D0660F771F881FBB1F26173707480748
:103B3000AB07B0E809F0BB0B802DBF01FF279358FE
:103B40005F4F2AF09E3F510568F004C1BAC15F3F44
:103B5000ECF3983EDCF3869577956795B795F795E6
:103B60009F5FC9F7880F911D9695879597F90895DE
:103B7000E1E0660F771F881FBB1F6217730784077A
:103B8000BA0720F0621B730B840BBA0BEE1F88F789
:103B9000E095089504D06894B11193C1089576D149
:103BA00088F09F5790F0B92F9927B751A0F0D1F026
:103BB000660F771F881F991F1AF0BA95C9F712C0B0
:103BC000B13081F07DD1B1E008957AC1672F782FAF
:103BD0008827B85F39F0B93FCCF38695779567951C
:103BE000B395D9F73EF490958095709561957F4F88
:103BF0008F4F9F4F0895E89409C097FB3EF490952E
:103C00008095709561957F4F8F4F9F4F9923A9F0B5
:103C1000F92F96E9BB279395F69587957795679544
:103C2000B795F111F8CFFAF4BB0F11F460FF1BC088
:103C30006F5F7F4F8F4F9F4F16C0882311F096E91B
:103C400011C0772321F09EE8872F762F05C06623C9
:103C500071F096E8862F70E060E02AF09A95660F82
:103C6000771F881FDAF7880F9695879597F908953B
:103C7000ADD018F011F0B1D038F480C022C1E92FD6
:103C8000FDD0B0F35523C9F3E7FB62177307840730
:103C90009507A8F199F3E92FFF2788232AF0319798
:103CA000660F771F881FDAF7952F5527442332F0C8
:103CB00091505040220F331F441FD2F7BB27E91BFE
:103CC000F50B621B730B840BB109C1F222F4620F76
:103CD000731F841FB11D31972AF0660F771F881F4D
:103CE000BB1FEFCF915050405AF041F0882332F083
:103CF000660F771F881F91505040C1F7939530C0D1
:103D00008695779567959F5FD9F7F8CF990F00084B
:103D1000550FAA0BE0E8FEEF16161706E807F9079D
:103D2000C0F012161306E407F50798F0621B730B38
:103D3000840B950B39F40A2661F0232B242B252BB9
:103D400021F408950A2609F4A140A6958FEF811D5C
:103D5000811D089597F99F6780E870E060E00895FD
:103D60009F3F31F0915020F4879577956795B795EF
:103D7000880F911D9695879597F908959FEF80EC90
:103D80000895DF93CF931F930F93FF92EF92DF92EB
:103D90007B018C01689405C0DA2EEF01AFD0FE01E3
:103DA000E894A5912591359145915591AEF3EF0198
:103DB000CDDDFE019701A801DA9479F7DF90EF904D
:103DC000FF900F911F91CF91DF91089500240A94E5
:103DD0001616170618060906089500240A941216E6
:103DE0001306140605060895C9CF50D0E8F3E894E9
:103DF000E0E0BB279F57F0F02AED3FE049EC06C01A
:103E0000EE0FBB0F661F771F881F28F0B23A6207BC
:103E10007307840728F0B25A620B730B840BE39587
:103E20009A9572F7803830F49A95BB0F661F771F0A
:103E3000881FD2F7904896CF092E0394000C11F4F6
:103E4000882352F0BB0F40F4BF2B11F460FF04C075
:103E50006F5F7F4F8F4F9F4F0895EF93E0FF06C036
:103E6000A2EA2AED3FE049EC5FEB70DDE5DF0F9061
:103E7000039401FC9058E5E9F0E0E9C057FD905843
:103E8000440F551F59F05F3F71F04795880F97FB1E
:103E9000991F61F09F3F79F08795089512161306D8
:103EA0001406551FF2CF4695F1DF08C01616170607
:103EB0001806991FF1CF869571056105089408953C
:103EC000E894BB2766277727CB0197F908951EDF73
:103ED00008F48FEF08959B01AC0160E070E080E88A
:103EE0009FE3F0CD0BD0A8CF71DF28F076DF18F07C
:103EF000952309F02FCF42CF1124E3CFBFDFA0F3EA
:103F0000959FD1F3950F50E0551F629FF001729F6E
:103F1000BB27F00DB11D639FAA27F00DB11DAA1F8D
:103F2000649F6627B00DA11D661F829F2227B00DDA
:103F3000A11D621F739FB00DA11D621F839FA00D65
:103F4000611D221F749F3327A00D611D231F849FB5
:103F5000600D211D822F762F6A2F11249F5750400C
:103F60008AF0E1F088234AF0EE0FFF1FBB1F661FA7
:103F7000771F881F91505040A9F79E3F510570F060
:103F8000E9CE9FCF5F3FECF3983EDCF386957795C3
:103F90006795B795F795E7959F5FC1F7FE2B880F5B
:103FA000911D9695879597F908959F931EDF0F9021
:103FB00007FCEE5F52CF11F40EF4E0CED1CE66DFF7
:103FC000D0F39923D9F3CEF39F57550B87FF38D001
:103FD0000024A0E640EA900180585695979528F471
:103FE000805C660F771F881F20F026173707480769
:103FF00030F4621B730B840B202931294A2BA695C0
:1040000017940794202531254A2758F7660F771F04
:10401000881F20F026173707480730F4620B730B10
:10402000840B200D311D411DA09581F7B901842F0E
:104030009158880F9695879508959B01AC0152CFB2
:1040400091505040660F771F881FD2F708959F93B5
:104050008F937F936F93FF93EF939B01AC0142DFAC
:10406000EF91FF918EDE2F913F914F915F913ACF6B
:10407000DB018F939F930E94B120BF91AF91A29FCC
:10408000800D911DA39F900DB29F900D1124089556
:10409000AA1BBB1B51E107C0AA1FBB1FA617B7076E
:1040A00010F0A61BB70B881F991F5A95A9F780958A
:1040B0009095BC01CD01089597FB072E16F400944E
:1040C00007D077FD09D00E94482007FC05D03EF4B8
:1040D000909581959F4F0895709561957F4F0895B4
:1040E000A1E21A2EAA1BBB1BFD010DC0AA1FBB1FFC
:1040F000EE1FFF1FA217B307E407F50720F0A21B6E
:10410000B30BE40BF50B661F771F881F991F1A94DA
:1041100069F760957095809590959B01AC01BD0104
:10412000CF010895052E97FB1EF400940E94A9204C
:1041300057FD07D00E94702007FC03D04EF40C946A
:10414000A92050954095309521953F4F4F4F5F4F97
:10415000089590958095709561957F4F8F4F9F4FF3
:1041600008950E94C220A59F900DB49F900DA49F1A
:10417000800D911D11240895EE0FFF1F0590F491FD
:10418000E02D0994A29FB001B39FC001A39F700DC1
:10419000811D1124911DB29F700D811D1124911D4F
:1041A0000895CF93DF938230910510F482E090E080
:1041B000E091B306F091B40620E030E0A0E0B0E07A
:1041C000309739F14081518148175907B8F04817A5
:1041D000590771F482819381109729F013969C936B
:1041E0008E9312972CC09093B4068093B30627C089
:1041F0002115310531F04217530718F0A901DB01F1
:1042000001C0EF019A01BD01DF010280F381E02DC1
:10421000D7CF21153105F9F0281B390B2430310592
:1042200080F48A819B816115710521F0FB019383E4
:10423000828304C09093B4068093B306FE01329645
:1042400044C0FE01E20FF31F819391932250310984
:10425000398328833AC02091B1063091B206232BCE
:1042600041F420910201309103013093B206209372
:10427000B10620910001309101012115310541F471
:104280002DB73EB74091040150910501241B350B19
:10429000E091B106F091B206E217F307A0F42E1BED
:1042A0003F0B2817390778F0AC014E5F5F4F24179A
:1042B000350748F04E0F5F1F5093B2064093B1068A
:1042C0008193919302C0E0E0F0E0CF01DF91CF91C4
:1042D0000895CF93DF93009709F487C0FC013297CC
:1042E00013821282C091B306D091B406209781F454
:1042F00020813181280F391F8091B1069091B2063B
:104300008217930779F5F093B206E093B1066DC07A
:10431000DE0120E030E0AE17BF0750F412964D9159
:104320005C9113979D014115510509F1DA01F3CF15
:10433000B383A28340815181840F951F8A179B0705
:1043400071F48D919C911197840F951F0296918322
:10435000808312968D919C9113979383828321156C
:10436000310529F4F093B406E093B3063EC0D901B9
:104370001396FC93EE9312974D915D91A40FB51F88
:10438000EA17FB0779F480819181840F951F0296CB
:10439000D90111969C938E938281938113969C935D
:1043A0008E931297E0E0F0E08A819B81009719F0EC
:1043B000FE01EC01F9CFCE01029628813981820FEE
:1043C000931F2091B1063091B2062817390769F47E
:1043D000309729F41092B4061092B30602C01382EB
:1043E0001282D093B206C093B106DF91CF910895A7
:1043F0002F923F925F926F927F928F929F92AF9295
:10440000BF92CF92DF92EF92FF920F931F93CF93C1
:10441000DF938B01EA016115710521F0DB018C93BB
:1044200011969C93209739F09E0122503109233236
:10443000310508F0FBC07C016701BFEFCB1ADB0A36
:104440005601F7016080862D90E00E943023892B71
:1044500011F07601F1CFFDE26F120AC0570182E040
:10446000A80EB11CD70111966C90772473940BC0E1
:10447000BBE26B1207C05701E2E0AE0EB11CD701E0
:1044800011966C90712CCE018F7E892B89F4B0E34C
:104490006B1222C0F50180818F7D883541F56180E6
:1044A000F2E0AF0EB11C872D8260782EC0E1D0E023
:1044B000C830D105F1F04CF4C230D10511F5C12C52
:1044C000D12CE12CB0E4FB2E2FC0CA30D10531F045
:1044D000C031D10521F115C0209751F7CAE0D0E0D5
:1044E000ACECCA2EDC2CEC2CACE0FA2E1DC02097D4
:1044F000F9F6C8E0D0E0C12CD12CE12CF0E1FF2E80
:1045000013C060E070E080E090E89E01442737FD32
:104510004095542F0E94702069017A0105C0C12C7A
:10452000D12CE12CE8E0FE2EF50160E020E030E047
:10453000A9014E01AA2497FCA094BA2C1F0170ED8A
:10454000572E560CA9E0A51570F48FEB860D8A3115
:1045500018F499EC592E06C08FE9860D8A3130F592
:1045600089EA582E560C852D90E08C179D07F4F49F
:1045700067FD18C0C216D306E406F50680F0C50133
:10458000B4010E9438209B01AC01250D311D411D55
:10459000511D213031054105B0E85B0710F06FEF88
:1045A00001C061E03196D1016C90C8CF872D817038
:1045B0000115110571F0662329F03197D801ED93AB
:1045C000FC9307C071FE19C03297D801ED93FC939C
:1045D00014C067FF12C0882329F020E030E040E0DB
:1045E00050E804C02FEF3FEF4FEF5FE782E290E02B
:1045F0009093B6068093B50616C0882341F0509577
:104600004095309521953F4F4F4F5F4F0CC057FF5E
:104610000AC082E290E09093B6068093B5062FEF31
:104620003FEF4FEF5FE7B901CA0104C060E070E0FF
:1046300080E090E0DF91CF911F910F91FF90EF907C
:10464000DF90CF90BF90AF909F908F907F906F90B2
:104650005F903F902F900895662777270C943F2313
:10466000911170C1803219F089508550D0F70895AA
:10467000DC0101C06D9341505040E0F70895A0E087
:10468000B0E0E5E4F3E20C94C3248B0161157105FD
:1046900021F0DB018C9311969C93EC015E01BFEF3E
:1046A000AB1ABB0A7501C8808C2D90E00E943023A4
:1046B000892B11F0E501F2CFEDE2CE1208C07E01A8
:1046C000F2E0EF0EF11CC980DD24D39409C02BE287
:1046D000C21205C07E0142E0E40EF11CC980D12C5B
:1046E000E701219743E050E066E171E0CE010E94CE
:1046F000A524892BC1F4239645E050E061E171E0E7
:10470000CE010E94A524892B09F4259601151105D7
:1047100019F0D801CD93DC93D11006C160E070E0B0
:1047200080E89FE70AC143E050E06EE071E0CE010F
:104730000E94A524892B59F40115110509F4F9C02B
:10474000B2E0EB0EF11CF801F182E082F2C0F70159
:1047500060E070E0CB01C0E0D0E07F01A0EDAA2EC8
:10476000AC0C29E02A1530F14D2D4260B42E2D2DD0
:104770002870D2FE04C0211125C0219623C021112A
:104780002197A5E0B0E09B01AC010E94B120660F2B
:10479000771F881F991F6A0D711D811D911D683932
:1047A000A9E97A078A07A9E19A0760F0BD2DB660EA
:1047B000BB2E08C02EEFA2120AC0D3FC50C04D2D54
:1047C0004860B42E3196D701CC90DB2CC6CF2C2D6F
:1047D0002F7D253409F043C0A081AD3241F4BD2DB9
:1047E000B061DB2E7F0122E0E20EF11C0CC07F01E4
:1047F000AB3231F04FEFE41AF40A21E030E006C0AA
:10480000A2E0EA0EF11CA18122E030E0A053AA3020
:1048100018F0E21AF30A23C0F70120E030E0203854
:10482000BCE03B075CF4A901440F551F440F551F22
:10483000240F351F220F331F2A0F311DAF014F5F89
:104840005F4F7A01A081A053AA3010F4FA01E7CF9C
:10485000D4FE03C0319521953109C20FD31FD1FE7B
:1048600009C00115110531F0E1E0EE1AF108D80197
:10487000ED92FC920E94FB1D2D2D2370233019F028
:104880004B015C0106C04B015C01B7FAB094B7F86C
:10489000B09420E030E0A901C501B4010E945B1D85
:1048A000882309F43EC0D7FF06C0D195C195D10930
:1048B0000DE211E002C005E411E06801B8E1CB1A95
:1048C000D10890E2E92EF12CCE15DF0574F0F80145
:1048D0002591359145915491C501B4010E94721FF3
:1048E0004B015C01CE19DF09EFCF04501109F5949B
:1048F000E7940C151D0541F78A2D880F8B2D881F15
:104900008F3F49F020E030E0A901C501B4010E94C9
:104910005B1D811106C082E290E09093B606809301
:10492000B506C501B40109C060E070E080E89FEF02
:1049300004C060E070E080EC9FE7CDB7DEB7ECE04C
:104940000C94DF24992788270895FB01DC0141504E
:10495000504088F08D9181341CF08B350CF4805ED2
:10496000659161341CF06B350CF4605E861B61113F
:1049700071F3990B0895881BFCCF2F923F924F92B1
:104980005F926F927F928F929F92AF92BF92CF92DF
:10499000DF92EF92FF920F931F93CF93DF93CDB7E8
:1049A000DEB7CA1BDB0B0FB6F894DEBF0FBECDBF60
:1049B00009942A88398848885F846E847D848C8431
:1049C0009B84AA84B984C884DF80EE80FD800C813A
:1049D0001B81AA81B981CE0FD11D0FB6F894DEBF1D
:1049E0000FBECDBFED01089511E0C2E5D1E004C0D6
:1049F000FE010E94BE202296C435D107C9F7F89463
:024A0000FFCFE6
:104A02000000B7068000010000000300FFFFFFFF67
:104A12000157005300564D4450565F317C315F566A
:104A22004D4450560D0A00564D4450455F31007CAE
:104A3200005F564D4450450D0A0024504D544B32F0
:104A420032302C313030302A31460024504D544B14
:104A52003330302C313030302C302C302C302C3064
:104A62002A31430024504D544B3331342C302C31F5
:104A72002C302C302C302C302C302C302C302C3054
:104A82002C302C302C302C302C302C302C302C3044
:104A92002C302A323900000000007808931BE3080A
:104AA2005708CB08CA0800000000CB0AE10A830BB2
:104AB2001B0B250BFC0A00000000DC11931B564D5A
:104AC2004450435F005F564D4450430D0A00457207
:104AD200726F723A20417474656D707420746F2025
:104AE200736574206120726561642D6F6E6C79202C
:104AF2007661726961626C65206F722064617461B3
:104B02002074797065206E6F7420737570706F7287
:104B12007465640D0A0000000000171A931B9919AE
:104B2200B219A419F5196E616E00696E66006F768E
:044B320066002E00EB
:00000001FF
