:100000000C942C010C9454010C9454010C94B308DE
:100010000C94B3080C94B3080C9454010C94540140
:100020000C9454010C9454010C9454010C945401FC
:100030000C9454010C9454010C9454010C945401EC
:100040000C947A0B0C9454010C94820A0C945C0A64
:100050000C9454010C9454010C9454010C945401CC
:100060000C9454010C945401084AD73B3BCE016ECA
:1000700084BCBFFDC12F3D6C74319ABD56833DDAFF
:100080003D00C77F11BED9E4BB4C3E916BAAAABE0E
:10009000000000803F05A84CCDB2D44EB93836A937
:1000A000020C50B9918688083CA6AAAA2ABE000074
:1000B00000803F0000000000240027002A0000000C
:1000C0000008000201000003040700000000000017
:1000D00000007C3C3E5E2B3D3F2F5B5D3B2C2A228B
:1000E0005C0000000000250028002B00000000003C
:1000F000230026002900040404040404040402026A
:100100000202020203030303030301020408102096
:1001100040800102040810200102040810204E4112
:100120004E494E495459494E46CDCCCC3D0AD72371
:100130003C17B7D13877CC2B329595E6241FB14FB9
:100140000A000020410000C84200401C4620BCBEFE
:100150004CCA1B0E5AAEC59D7400407A10F35A006B
:10016000A0724E18090010A5D4E80000E8764817E0
:100170000000E40B54020000CA9A3B000000E1F5C5
:1001800005000080969800000040420F000000A08B
:100190008601000000102700000000E803000000B6
:1001A000006400000000000A0000000000010000E0
:1001B0000000002C76D888DC674F0823DFC1DFAE53
:1001C00059E1B1B796E5E3E453C63AE6519976961C
:1001D000E8E6C28426EB898C9B62ED407C6FFCEFE5
:1001E000BC9C9F40F2BAA56FA5F490055A2AF75C13
:1001F000936B6CF9676DC11BFCE0E40D47FEF520C5
:10020000E6B500D0ED902E0300943577050080848C
:100210001E080000204E0A000000C80C33333333A0
:100220000F986E12831141EF8D2114893BE655160C
:10023000CFFEE6DB18D1844B381BF77C1D901DA444
:10024000BBE424203284725E228100C9F124ECA137
:10025000E53D27008320582011241FBECFEFD8E0B2
:10026000DEBFCDBF12E0A0E0B1E0ECEFFBE502C0E5
:1002700005900D92A630B107D9F726E0A6E0B2E0CE
:1002800001C01D92A332B207E1F711E0CBE2D1E049
:1002900004C02197FE010E94F121CA32D107C9F79B
:1002A0000E9494160C94F12D0C940000DC015996D8
:1002B000ED91FC915A973097B9F083899489A5897B
:1002C000B6894285538564857585841B950BA60B7D
:1002D000B70B811520E89207A105B10538F08FEF23
:1002E0009FE7A0E0B0E0089580E090E00895CF930C
:1002F000DF931F92CDB7DEB76983DC01ED91FC91EE
:100300000280F381E02D41E050E0BE016F5F7F4F3E
:1003100009950F90DF91CF9108952091D2023091ED
:10032000D3022817390771F49091D1028091D0023D
:10033000981741F0E091D102F0E0E057FD4F808145
:1003400090E008958FEF9FEF089508951F93CF9346
:10035000DF93DC015C962D913C915D972115310571
:1003600039F481E090E013969C938E9312973DC0F0
:100370005196ED91FC91529750969C915097892FF0
:1003800080951FB75E964C915E9741FB772770F979
:1003900041FD6095F8944081772311F0492B01C00D
:1003A00048234083E9012197F1F748E0508160FF3D
:1003B00002C0592B01C058235083E9012197F1F75E
:1003C0006695415099F7772321F0908189238083A6
:1003D00003C08081982B90831FBF5C968D919C9168
:1003E0005D970197F1F721E030E0C901DF91CF91EE
:1003F0001F9108952091D2023091D3022817390716
:1004000071F48091D0022091D10290E0805C9F4FE6
:10041000821B910960E470E00E94DD21089580E074
:1004200090E008952091D2023091D3022817390725
:10043000B9F49091D1028091D002981789F0E0919F
:10044000D102F0E0E057FD4F80812091D10230E0F1
:100450002F5F3F4F2F7333272093D10290E00895F1
:100460008FEF9FEF0895FC01818D928D009711F021
:100470000C94D50D0895CF93DF93EC01898D9A8D5F
:10048000009739F481E090E09B838A8380E090E0DC
:100490000BC0FC01138212820E94A90EE98DFA8D15
:1004A00022813381232B71F7DF91CF910895CF9370
:1004B000DF93EC010E94D50D882311F01D8281E0AD
:1004C000DF91CF9108953F924F925F926F927F920A
:1004D0008F929F92AF92BF92CF92DF92EF92FF9254
:1004E0000F931F93CF93DF93CDB7DEB72C970FB643
:1004F000F894DEBF0FBECDBF5C01DC015B968D9032
:100500009C905C971696CD90DD90ED90FC9019979D
:10051000C114D104E104F10439F0BFEFCB1ADB0AB6
:10052000EB0AFB0A312C07C0F401C080D180E280C5
:10053000F38033243394F40181859285A385B485B7
:100540009C01AD012F5F3F4F4F4F5F4F29873A8787
:100550004B875C87260137011D821E821F82188609
:10056000F40181859285A385B4852D813E814F81DB
:100570005885281739074A075B0708F063C0898543
:100580009A85AB85BC858C159D05AE05BF0550F4DD
:1005900082E0C82ED12CE12CF12C92E0492E512C76
:1005A000612C712C9E012F5F3F4FB701A601C40142
:1005B0000E94E80C882309F445C089819A81AB81A7
:1005C000BC81892B8A2B8B2B41F0260137019FEFB1
:1005D000491A590A690A790A05C0C414D504E604FF
:1005E000F70491F02D813E814F8158852F5F3F4F59
:1005F0004F4F5F4F2D833E834F8358873FEFC31A82
:10060000D30AE30AF30AACCF0FEF1FEF2FEF3FE05F
:10061000B301A201C4010E94480C882399F0D501BE
:1006200016964D915D916D917C91199741155105EB
:100630006105710549F093018201C4010E94480CD3
:10064000811102C080E02AC0D50116964D925D92BC
:100650006D927C921997332051F0D301C20101961B
:10066000A11DB11DF40180839183A283B383F501A1
:100670008789908DA18DB28D892B8A2B8B2B69F464
:10068000D50157964D925D926D927C925A97149631
:100690008C911497806814968C9381E02C960FB6F9
:1006A000F894DEBF0FBECDBFDF91CF911F910F91A8
:1006B000FF90EF90DF90CF90BF90AF909F908F9082
:1006C0007F906F905F904F903F9008958FB7F89410
:1006D0008091D5028FBF089561E0FC0184810E9462
:1006E000DD0A8091D40281111092D40208958EBD4A
:1006F00000000DB407FEFDCF8EB508958FEF0C946A
:1007000077030F931F93CF93DF93EB010E946E0B40
:100710008B010E947E038F3F49F00E946E0B601B8D
:10072000710B6C177D07A8F380E001C081E0DF91B9
:10073000CF911F910F910895CF93DF93EC018E819C
:10074000882389F08F8198859C012F5F3F4F3887E0
:100750002F838230924018F40E947E03F3CFCE01A3
:100760000E946C031E82DF91CF9108958CBD9DBDC8
:100770000895CF93DF93EC018091D402811109C0D9
:1007800081E08093D40280918305909184050E943A
:10079000B60360E08C81DF91CF910C94DD0ACF929B
:1007A000DF92FF920F931F93CF93DF9300D000D07F
:1007B000CDB7DEB76C01F62E29833A834B835C8379
:1007C0000E949C03C6010E94B9036CE271E0C6015D
:1007D0000E9481038F2D80640E94770308E110E05E
:1007E0005C814B813A812981DA01C901002E04C064
:1007F000B695A795979587950A94D2F729833A835A
:100800004B835C830E9477030850110929813A8148
:100810004B815C81083F8FEF180731F7FF2029F0EB
:10082000E8E0FE1204C087E803C085E901C08FEF4D
:100830000E94770310E00E947E03F601828787FF03
:1008400004C01F3F11F01F5FF6CF0F900F900F9065
:100850000F90DF91CF911F910F91FF90DF90CF907C
:100860000895AF92BF92CF92DF92EF92FF920F93D3
:100870001F93CF93DF93EC016901C801820F931F8F
:100880008130924008F070C08E81882371F0888199
:100890009981AA81BB81481759076A077B0729F408
:1008A0008F819885C816D906B0F5488359836A8325
:1008B0007B838B85833039F089E0440F551F661F99
:1008C000771F8A95D1F79A01AB0161E1CE010E94B1
:1008D000CF03882319F083E08D8346C00E946E0BFE
:1008E0005B010E947E038A878F3F49F40E946E0B52
:1008F0006A197B096D327140A0F38FE003C08E3F0F
:1009000031F08DE08D83CE010E946C032DC01886DE
:100910001F8281E08E838F8198858C159D0540F420
:100920000E947E038F819885019698878F83F3CFED
:100930006701E00EF11ECE14DF0431F00E947E0349
:10094000F60181936F01F7CF8F819885080F191FEA
:1009500018870F838985882319F00115124048F004
:10096000CE010E949C0305C0CE010E946C0380E072
:1009700001C081E0DF91CF911F910F91FF90EF9027
:10098000DF90CF90BF90AF9008952F923F924F92FB
:100990005F926F927F928F929F92AF92BF92CF920F
:1009A000DF92EF92FF920F931F93CF93DF9300D0CC
:1009B000CDB7DEB7FC018581882309F4D9C08481D5
:1009C00080FFD6C021E02A834389548965897689CE
:1009D00082859385A485B585481759076A077B07E3
:1009E00009F41A826F013A81832F90E0DE0111969B
:1009F0004D013F01B6E06B0E711C892B09F47DC0DF
:100A0000D6011A964D915D916D917C911D975A0179
:100A1000B1E0BB22F60125811A012B0189E0569431
:100A20004794379427948A95D1F7838D948D2230FB
:100A300061F4FC01828D938DA48DB58DBC01CD0137
:100A4000620D731D841D951D45C0DC0114961C911B
:100A500011501221A114B104D1F4111118C0452B69
:100A6000462B472B51F4F6018789908DA18DB28DCD
:100A700086839783A087B1870AC0468157816085A6
:100A8000718593010E94E80C882309F471C0F60176
:100A9000238D348D86819781A085B1850297A10928
:100AA000B109AC01BD01F901058404C0440F551F13
:100AB000661F771F0A94D2F786859785A089B1892A
:100AC000840F951FA61FB71FBC01CD01610F711DBB
:100AD000811D911DD60114962C9126FF14C0009102
:100AE0000001109101012091020130910301601772
:100AF00071078207930751F506C0FA81FF23C1F100
:100B0000898190E037C040E00E94FF0B882381F18B
:100B1000F501EC51FD4FD401CF010196E817F9071B
:100B200019F021912D93FACFEFEF8E1A9E0AF6015C
:100B300082859385A485B5850196A11DB11D828707
:100B40009387A487B58780E090E057CF740101E0D8
:100B500010E09501AB01BC018091E4049091E504A3
:100B60000E943104882321F0BFEF8B1A9B0ADFCF4C
:100B70008FEF9FEF0F900F90DF91CF911F910F910B
:100B8000FF90EF90DF90CF90BF90AF909F908F90AD
:100B90007F906F905F904F903F902F9008954F926D
:100BA0005F926F927F929F92AF92BF92CF92DF92AD
:100BB000EF92FF920F931F93CF93DF93CDB7DEB7E2
:100BC0002B970FB6F894DEBF0FBECDBF7C01DC01C2
:100BD0001596AC90A1108AC1FE0131966F0190E28A
:100BE0008BE08E0F91938E13FDCFDA0130E087E01A
:100BF0009D91992339F19E3219F0E2EDF0E00AC09F
:100C00008A3009F474C138E08AE0F2CF319649178E
:100C100009F46DC144914111F9CF831708F467C1FC
:100C20004FED490F4E3508F062C141E0430FF60128
:100C3000E30FF11D3FE9390F3A3108F490529083E8
:100C4000342FD6CF8981803209F451C1B22E8B0165
:100C5000DB015B968D919C915C97F701948F838F5C
:100C600016961D921D921D921C921997FB011286D9
:100C7000138614861586712CF80182859385A485C8
:100C8000B585438954896589768984179507A607B0
:100C9000B70708F061C025E0B695A79597958795A9
:100CA0002A95D1F7F82FFF706F2ED80115968C91E9
:100CB000823008F41CC1C8010E94C50497FD17C109
:100CC000F80182859385A485B5854F96A11DB11D38
:100CD00082879387A487B587F0E26F9EC0011124B5
:100CE000BC016C517D4F6115710509F400C1DB0138
:100CF0002C91222319F0253EC1F427C071100EC09B
:100D0000F701628A40910001509101016091020156
:100D10007091030146875787608B718BFC01EC5102
:100D2000FD4F8081811113C015C04BE050E0C6011A
:100D30000E94C626892B09F09FCF8B2D80738033AC
:100D400009F4D5C04B2D662DCCC07720C9F277248D
:100D5000739492CF772473948B2D8271823109F032
:100D6000C6C07720D1F0D7011E966D917D918D91EF
:100D70009C91519741E00E94FF0B882309F4B7C072
:100D8000F7016289F0E26F9FB00111246C517D4F31
:100D90006115710509F079C0AAC0D80115968C912A
:100DA000823009F4A4C0C8010E946302882309F4B8
:100DB0009EC0D8015B96ED91FC915C9716964D9084
:100DC0005D906D907C901997B2E04B1A51086108C4
:100DD0007108058404C0440C551C661C771C0A94D9
:100DE000D2F786859785A089B189480E591E6A1E5B
:100DF0007B1E9480E1E04E1A510861087108992029
:100E000009F10E94C40B882309F471C0E4EEF2E0FA
:100E1000119224E0E43EF207D9F7D301C201890D13
:100E2000911DA11DB11D8093000190930101A0931C
:100E30000201B09303018091D60281608093D602B3
:100E40009A94DDCFD8015B96ED91FC915C9780E0A0
:100E500092E0A0E0B0E0058404C0880F991FAA1FAB
:100E6000BB1F0A94D2F7F8014389548965897689B2
:100E7000840F951FA61FB71F838B948BA58BB68BF2
:100E8000D70152961C9264EE72E080E2FB0111924F
:100E90008A95E9F78BE0F601DB0101900D928A95C6
:100EA000E1F781E298E2DB0151969C938E93509793
:100EB00020E038E01F963C932E931E9753969C9308
:100EC0008E93529759969C938E93589757963C932E
:100ED0002E9356970E94C40B882349F04B2DF7019F
:100EE0006289C7010E944A10A82E01C0A12C8A2D38
:100EF0002B960FB6F894DEBF0FBECDBFDF91CF911A
:100F00001F910F91FF90EF90DF90CF90BF90AF9027
:100F10009F907F906F905F904F900895FC01818D1E
:100F2000928D009711F00C94C5048FEF9FEF0895F8
:100F30000F931F93CF93DF93FC01818D928D0097C8
:100F4000B9F0EF010E94C5048C010F3F8FEF180725
:100F500091F0898D9A8DFC01428553856485758554
:100F600041505109610971090E94130EC80105C061
:100F700080E090E002C08FEF9FEFDF91CF911F9153
:100F80000F910895EF92FF920F931F93CF93DF93EA
:100F9000EC017901411551056105710511F482E1FA
:100FA0003CC08B85833039F089E0440F551F661FA4
:100FB000771F8A95D1F79A01AB0168E1CE010E94B3
:100FC000CF03882311F084E028C08EEF0E947703BE
:100FD00087018EEFF81AF80181918F010E94770343
:100FE0000E151F05C1F78FEF0E9477038FEF0E9448
:100FF00077030E947E038A878F71853031F081E10B
:101000008D83CE010E946C0309C068E572E0CE01B9
:101010000E948103811107C085E18D83CE010E946A
:101020006C0380E013C020E030E0A9016DE0CE0148
:101030000E94CF03811104C00E947E03882311F017
:1010400084E1EBCFCE010E946C0381E0DF91CF9170
:101050001F910F91FF90EF900895FC01DB01129614
:101060008D919C911397938382838EE191E091837C
:10107000808314968C911497848315968C91159780
:10108000858316964D915D916D917C91199746835C
:101090005783608771871A964D915D916D917C9110
:1010A0001D9742875387648775871E964D915D9182
:1010B0006D917C91519746875787608B718B5296C3
:1010C0008C915297828B53964D915D916D917C914D
:1010D0005697438B548B658B768B57964D915D91CC
:1010E0006D917C915A97478B508F618F728F5B9671
:1010F0008D919C915C97948F838F0895EF92FF92CE
:101100000F931F93CF93DF93EC017B018A011B8226
:101110001A8288EE93E0A0E0B0E08C839D83AE83DA
:10112000BF8386E391E0998388838DE190E00E94FC
:10113000CA249A8F898F009779F02DE1F701DC019D
:1011400001900D922A95E1F74CE050E0B801CE01F4
:101150000C960E94F526188EDF91CF911F910F916A
:10116000FF90EF9008951F920F920FB60F921124E7
:101170002F933F934F935F936F937F938F939F939F
:10118000AF93BF93EF93FF93E091D202F091D3021C
:10119000309709F451C0968DA685B785858591FF56
:1011A00004C09C91892329F447C09C91892309F0AC
:1011B00043C0A389B4899C918589809589238C93A8
:1011C000868997890197F1F7608D718DA685B7851E
:1011D000558538E020E0CB010197F1F7822F90E0B0
:1011E00095958795282F4C91452309F0206831501B
:1011F00091F7868D81FD20958091D00290E0019637
:101200008F7399273091D102381749F0A091D002FD
:10121000B0E0A057BD4F2C938093D00203C0868DC1
:101220008160868F828D938D0197F1F7A389B489B0
:101230009C918589892B8C93FF91EF91BF91AF9100
:101240009F918F917F916F915F914F913F912F91DE
:101250000F900FBE0F901F9018958F929F92AF9294
:10126000BF92CF92DF92EF92FF920F931F93CF9393
:10127000DF938C01CB010E9435286B017C010E9419
:101280004D23CB0164E670E00E94DD21EB0124E6F2
:10129000269FC001279F900D1124BC01990F880B38
:1012A000990B0E94512C9B01AC01C701B6010E9411
:1012B000F72120E030E040E752E40E94DB226B019E
:1012C0007C01BE01DD0F880B990B0E94512CA701F8
:1012D00096010E94F8214B015C0120E030E041E6DC
:1012E00055E4C701B6010E94DB229B01AC01C50198
:1012F000B4010E94F821F80120812B7F233509F4E5
:101300009058DF91CF911F910F91FF90EF90DF9058
:10131000CF90BF90AF909F908F900895FC01918DDA
:10132000828D981761F0828DDF01A80FB11D5D9647
:101330008C91928D9F5F9F73928F90E008958FEFB5
:101340009FEF0895FC01918D828D981731F0828D69
:10135000E80FF11D858D90E008958FEF9FEF0895C0
:10136000FC01918D228D892F90E0805C9F4F821B24
:1013700091098F739927089586EE94E00E94B00931
:1013800021E0892B09F420E0822F0895FC01848D4F
:10139000DF01A80FB11DA35ABF4F2C91848D90E09F
:1013A00001968F739927848FA689B7892C93A0897A
:1013B000B1898C9180648C93938D848D981306C031
:1013C0000288F389E02D80818F7D80830895EF92DC
:1013D000FF920F931F93CF93DF93EC0181E0888FEF
:1013E0009B8D8C8D981305C0E889F989808185FDD6
:1013F00024C0F62E0B8D10E00F5F1F4F0F731127C7
:10140000E02E8C8DE8120CC00FB607FCFACFE889ED
:10141000F989808185FFF5CFCE010E94C609F1CF01
:101420008B8DFE01E80FF11DE35AFF4FF0820B8F09
:10143000EA89FB898081806207C0EE89FF89608329
:10144000E889F98980818064808381E090E0DF9180
:10145000CF911F910F91FF90EF900895CF93DF935D
:10146000EC01888D8823C9F0EA89FB89808185FD9C
:1014700005C0A889B9898C9186FD0FC00FB607FCFD
:10148000F5CF808185FFF2CFA889B9898C9185FF3E
:10149000EDCFCE010E94C609E7CFDF91CF9108952D
:1014A00080E090E0892B29F00E94BC0981110C9406
:1014B000000008950E94C1261F920F920FB60F924E
:1014C00011242F933F934F935F936F937F938F9349
:1014D0009F93AF93BF93EF93FF9386EE94E00E94A8
:1014E000C609FF91EF91BF91AF919F918F917F912D
:1014F0006F915F914F913F912F910F900FBE0F9081
:101500001F9018951F920F920FB60F9211242F93D0
:101510008F939F93EF93FF93E091F604F091F7047C
:101520008081E091FC04F091FD0482FD12C0908165
:101530008091FF048F5F8F7320910005821751F017
:10154000E091FF04F0E0EA51FB4F958F8093FF0498
:1015500001C08081FF91EF919F918F912F910F900A
:101560000FBE0F901F901895833081F028F48130C2
:1015700099F08230A1F008958730A9F08830B9F051
:101580008430D1F4809180008F7D03C080918000F1
:101590008F7780938000089584B58F7702C084B5DB
:1015A0008F7D84BD08958091B0008F7703C08091B6
:1015B000B0008F7D8093B00008951F93CF93DF9389
:1015C000282F30E0F901E254FF4F8491F901E65FE2
:1015D000FE4FD491F901EA50FF4FC491CC23C9F0DA
:1015E000162F81110E94B40AEC2FF0E0EE0FFF1FBE
:1015F000EE51FF4FA591B4918FB7F894111105C02A
:101600009C91ED2FE095E92302C0EC91ED2BEC933A
:101610008FBFDF91CF911F910895CF93DF9390E01B
:10162000FC01E65FFE4F2491FC01EA50FF4F8491DC
:10163000882361F190E0880F991FFC01EC54FF4F63
:10164000C591D491FC01EE51FF4FA591B491611168
:1016500009C09FB7F8948881209582238883EC91F4
:101660002E230BC0623061F49FB7F8943881822F2B
:10167000809583238883EC912E2B2C939FBF06C0EB
:101680008FB7F894E8812E2B28838FBFDF91CF91FD
:1016900008953FB7F8948091E0029091E102A09103
:1016A000E202B091E30226B5A89B05C02F3F19F0D6
:1016B0000196A11DB11D3FBFBA2FA92F982F8827D2
:1016C000820F911DA11DB11DBC01CD0142E0660F2D
:1016D000771F881F991F4A95D1F708952FB7F8945F
:1016E0006091DC027091DD028091DE029091DF0258
:1016F0002FBF08951F920F920FB60F9211242F93B0
:101700003F938F939F93AF93BF938091DC0290910F
:10171000DD02A091DE02B091DF023091DB0223E016
:10172000230F2D3720F40196A11DB11D05C026E819
:10173000230F0296A11DB11D2093DB028093DC02D2
:101740009093DD02A093DE02B093DF028091E0026D
:101750009091E102A091E202B091E3020196A11DF5
:10176000B11D8093E0029093E102A093E202B09356
:10177000E302BF91AF919F918F913F912F910F9075
:101780000FBE0F901F9018958091D6028823A9F163
:10179000409100015091010160910201709103019B
:1017A00024EE32E08091E4049091E5040E94C207A7
:1017B000811102C080E008954091D7025091D80273
:1017C0006091D9027091DA024115510561057105E8
:1017D00091F024EE32E08091E4049091E5040E94BF
:1017E000C207882339F31092D7021092D8021092C0
:1017F000D9021092DA021092D60281E008958F92F7
:101800009F92AF92BF92EF92FF920F931F93CF934D
:101810004B015C01C42F8091000190910101A091C6
:101820000201B091030188159905AA05BB0501F1D4
:101830000E94C40B811102C080E020C084EEE82E1B
:1018400082E0F82E00E012E020E030E0B501A401D3
:101850008091E4049091E5040E943104882361F3AF
:101860008092000190920101A0920201B0920301C6
:101870008091D602C82BC093D60281E0CF911F91F0
:101880000F91FF90EF90BF90AF909F908F90089531
:101890004F925F926F927F928F929F92AF92BF9280
:1018A000CF92DF92EF92FF920F931F93CF93DF932C
:1018B000EC016A017B0128013901423051056105C3
:1018C000710510F480E073C089859A85AB85BC856D
:1018D0000196A11DB11D84179507A607B70790F3C0
:1018E0008B889C88AD88BE888F89803129F4BB277E
:1018F000AF2D9E2D8D2D09C0DB01CA0147E0B695A5
:10190000A795979587954A95D1F7880E991EAA1E97
:10191000BB1E8091000190910101A0910201B09144
:10192000030188169906AA06BB0679F48F898031CF
:10193000A1F4DD24EE24FF24C601880F991FFC01C9
:10194000EC51FD4F5182408219C040E0C501B40105
:101950000E94FF0B8111EACFB5CFE894C7F8DD24D0
:10196000EE24FF24C601880F991F880F991FFC01E0
:10197000EC51FD4F40825182628273828091D60287
:1019800081608093D6028A89823080F08D819E8129
:10199000AF81B885880E991EAA1EBB1E8092D70201
:1019A0009092D802A092D902B092DA0281E0DF913F
:1019B000CF911F910F91FF90EF90DF90CF90BF904C
:1019C000AF909F908F907F906F905F904F90089511
:1019D0008F929F92AF92BF92CF92DF92EF92FF923F
:1019E0000F931F93CF93DF93FC0181859285A3858D
:1019F000B4850196A11DB11D84179507A607B707E9
:101A000010F480E05CC083899489A589B689C78970
:101A1000C03129F4852E962EA72EBB2409C04A0179
:101A20005B01C7E0B694A79497948794CA95D1F7C1
:101A3000E9016A017B018F01BC01CD01680D791DAF
:101A40008A1D9B1D8090000190900101A0900201D1
:101A5000B0900301681579058A059B0599F4F80192
:101A600087898031A9F4B701A60155276627772712
:101A7000440F551FFA01EC51FD4F80819181A0E088
:101A8000B0E018C040E00E94FF0B8111E8CFB9CF51
:101A9000B701A6014F77552766277727440F551FB3
:101AA000440F551FFA01EC51FD4F80819181A281B5
:101AB000B381BF7088839983AA83BB8381E0DF9160
:101AC000CF911F910F91FF90EF90DF90CF90BF903B
:101AD000AF909F908F9008954F925F926F927F92F8
:101AE000AF92BF92CF92DF92EF92FF920F931F932C
:101AF000CF93DF9300D000D0CDB7DEB78C01498300
:101B00005A836B837C835901C12CD12C7601412CE3
:101B100082E0582E612C712C49815A816B817C8125
:101B20009E012F5F3F4FC8010E94E80C882351F1AE
:101B3000D301C201F801058404C0880F991FAA1FB0
:101B4000BB1F0A94D2F7C80ED91EEA1EFB1E49819C
:101B50005A816B817C818789803129F088EF9FEFE2
:101B6000AFEFBFE004C088EF9FEFA0E0B0E0481700
:101B700059076A077B0780F2F501C082D182E282B1
:101B8000F38281E00F900F900F900F90DF91CF9133
:101B90001F910F91FF90EF90DF90CF90BF90AF908B
:101BA0007F906F905F904F900895CF93DF93EC01FB
:101BB0008D818823A1F18C8187FF2DC06E857F8563
:101BC0008889998941E00E94FF0B882341F1EA89C5
:101BD00080E2E89FF0011124DF01AC51BD4F109766
:101BE000F1F08D81823050F44B895C896D897E895A
:101BF0005C964D935D936D937C935F978F89988DE1
:101C0000A98DBA8DEC51FD4F938F828FB58BA48B2C
:101C10008C818F778C83DF91CF910C94C40B80E003
:101C2000DF91CF9108958F929F92AF92BF92CF9202
:101C3000DF92EF92FF920F931F93CF93DF93EC010C
:101C40008D81811102C080E077C00B891C892D89AC
:101C50003E890417150726073707A8F36A017B0199
:101C6000823029F4CA86DB86EC86FD860DC0C1145D
:101C7000D104E104F10451F41E821F8218861986F2
:101C80001A861B861C861D8681E056C08A849B842A
:101C9000AC84BD84EB8DFC8D258530E0275F3F4F04
:101CA000B501A4014150510961097109022E04C016
:101CB00076956795579547950A94D2F7D701C6014F
:101CC0000197A109B10904C0B695A7959795879585
:101CD0002A95D2F784179507A607B70720F0892819
:101CE0008A288B2849F44F89588D698D7A8D4E83C7
:101CF0005F836887798704C0841B950BA60BB70B9D
:101D00004C015D018E010A5F1F4F81149104A104F3
:101D1000B10409F4A7CF4E815F8168857985980168
:101D20008B8D9C8D0E94E80C91E0891A9108A10886
:101D3000B1088111EACF87CFDF91CF911F910F9129
:101D4000FF90EF90DF90CF90BF90AF909F908F90DB
:101D500008952F923F924F925F926F927F928F924F
:101D60009F92AF92BF92CF92DF92EF92FF920F932A
:101D70001F93CF93DF9300D000D0CDB7DEB78C0197
:101D80005B011A01DC0115968C9115978130C9F41D
:101D900014968C9181FF15C082FF1BC0F801438906
:101DA00054896589768982859385A485B58584174C
:101DB0009507A607B70769F0C8010E94130E8111A5
:101DC00008C081E090E0F8019383828380E090E096
:101DD00039C1610183C0D8015B968D919C915C975C
:101DE000FC01248121502A013B0139E0769467945B
:101DF000579447943A95D1F7722E74207A01F1E006
:101E0000FF22772009F476C080E092E08E199F09C6
:101E100046018C159D0508F44C01D8015B962D9167
:101E20003C915C9716968D919D910D90BC91A02D43
:101E30000297A109B109F901058404C0880F991F0F
:101E4000AA1FBB1F0A94D2F74685578560897189FE
:101E5000840F951FA61FB71F9C01AD01270D311DD3
:101E6000411D511D29013A01811432E0930609F008
:101E700088C08091000190910101A0910201B09170
:101E8000030184159505A605B70559F48FEF9FEF5B
:101E9000DC018093000190930101A0930201B093B3
:101EA00003019501B301A2018091E4049091E5043E
:101EB0000E94C207882309F484CF9EEFB91AC8187C
:101EC000D908F80182859385A485B585880D991D6B
:101ED000A11DB11D82879387A487B587D8011A9663
:101EE0004D915D916D917C911D97C114D10409F0C4
:101EF00072CF87C0E114F10409F086CF16964D9198
:101F00005D916D917C9119974115510561057105A0
:101F100059F457968D919D910D90BC91A02D0097ED
:101F2000A105B10541F521C09E012F5F3F4F0E94E1
:101F3000E80C882309F44BCF89819A81AB81BC815D
:101F4000F801238D348DF9012789203129F048EFDC
:101F50005FEF6FEF7FE004C048EF5FEF60E070E09D
:101F600084179507A607B70730F0C8010E946302DF
:101F700081114ACF26CFF80186839783A087B18746
:101F800043CFE114F10429F5D8011A964D915D91E2
:101F90006D917C911D9753968D919D910D90BC9163
:101FA000A02D481759076A077B0798F00E94C40BB9
:101FB000882309F406CF40920001509201016092FB
:101FC0000201709203018091D60281608093D60253
:101FD00008C041E0C301B2010E94FF0B882309F44D
:101FE000F0CED501F701EC51FD4FCF01880D991DC1
:101FF000E817F90719F02D912193FACFA80CB91C15
:102000005ECF53968D919D910D90BC91A02D84171C
:102010009507A607B70740F4F801438B548B658BEF
:10202000768B848180688483D80114968C9183FD9B
:1020300002C0C10107C0C8010E94D50D882309F460
:10204000C0CEF7CF0F900F900F900F90DF91CF91F0
:102050001F910F91FF90EF90DF90CF90BF90AF90C6
:102060009F908F907F906F905F904F903F902F90B8
:102070000895CF93DF931F92CDB7DEB7698341E018
:1020800050E0BE016F5F7F4F0E94A90E0F90DF915D
:10209000CF9108958F929F92AF92BF92CF92DF928D
:1020A000EF92FF920F931F93CF93DF9300D000D056
:1020B000CDB7DEB77C0180E2689F600111249601F4
:1020C0002C513D4FD9011B969C91917121F0842F89
:1020D000827409F097C0142FF701628B8091000180
:1020E00090910101A0910201B09103018687978729
:1020F000A08BB18BF601EC51FD4F4489558960E00E
:1021000070E0BA0155274427D70157964D935D9348
:102110006D937C935A97828D938DA0E0B0E0482B0D
:10212000592B6A2B7B2BD70157964D935D936D935B
:102130007C935A97D9011B968C91887159F4848DA0
:10214000958DA68DB78DF701838B948BA58BB68B60
:1021500081E012C0803109F055C097012D5E3F4FDC
:10216000D7015B968D919C915C970E946C0D8823A2
:1021700009F448C084E0F7018583812F8F70D7016F
:1021800014968C931497F701168217821086118685
:102190001A961D921D921D921C921D9716FF34C017
:1021A00015968C91813071F511FF2CC0F701438990
:1021B000548965897689452B462B472B09F461C0E4
:1021C00040E050E0BA01C7010E94130E8823D1F00D
:1021D000F7018788908CA18CB28CC38CD48C82E060
:1021E00090E0A0E0B0E0F60180839183A283B38306
:1021F0009E012F5F3F4FB501A401C6010E94E80C6C
:10220000811104C080E03DC081E03BC000E010E0EF
:102210009801B501A401C6010E94480C882391F3DE
:1022200089809A80AB80BC80D60157968C91803192
:1022300029F088EF9FEFAFEFBFE004C088EF9FEF7A
:10224000A0E0B0E088169906AA06BB0688F2D7017E
:1022500057961D921D921D921C925A97F701138A50
:10226000148A158A168A848180688483C7010E9433
:10227000D50D882339F240E050E0BA01C7010E9431
:10228000130E0F900F900F900F90DF91CF911F9131
:102290000F91FF90EF90DF90CF90BF90AF909F9005
:1022A0008F9008958F929F92AF92BF920F931F933A
:1022B000CF93DF93CDB7DEB7A1970FB6F894DEBF0B
:1022C0000FBECDBF19A2423008F44AE08E010F5D67
:1022D0001F4F842E912CA12CB12CA50194010E949A
:1022E0007E2DE62FB901CA0101501109EA3014F41C
:1022F000E05D01C0E95CD801EC93232B242B252B56
:1023000061F7B80186EE94E00E946016A1960FB6C0
:10231000F894DEBF0FBECDBFDF91CF911F910F911B
:10232000BF90AF909F908F9008950F931F93CF937E
:10233000DF93EC0188819981009729F02A813B8104
:102340002617370788F48B016F5F7F4F0E94F725B0
:10235000009761F0998388831B830A832C813D81D8
:10236000232B11F4FC01108281E001C080E0DF9199
:10237000CF911F910F9108954F925F926F927F922C
:102380008F929F92AF92BF92CF92DF92EF92FF9285
:102390006B017C019B01AC010E94AA24882319F0E7
:1023A00066EF71E01AC046015701E894B7F82FEFC5
:1023B0003FEF4FE75FE7C501B4010E94AA248111F6
:1023C00012C02FEF3FEF4FE75FE7C501B4010E9456
:1023D0004A2C181644F46AEF71E086EE94E00E94ED
:1023E00060167C018AC02FEF3FEF4FE75FE4C70123
:1023F000B6010E944B2418161CF46EEF71E0EDCF6D
:102400002FEF3FEF4FE75FECC701B6010E944A2C68
:1024100087FDF3CF20E030E0A901C701B6010E949B
:102420004A2C87FF11C0E091E604F091E704019087
:10243000F081E02D6DE286EE94E009955C01F7FAFB
:10244000F094F7F8F09402C0A12CB12C2AE037EDFB
:1024500043EA5BE3C701B6010E94F8212B013C016E
:102460000E9454236B017C010E944F2C9B01AC0104
:10247000C301B2010E94F7212B013C014AE0C701D0
:10248000B6010E9452117C01EA0CFB1C66E871E067
:1024900086EE94E00E946016E80EF91E20E030E01F
:1024A00040E251E4C301B2010E94B02C2B013C0177
:1024B0000E9454234B01A12CB12C4AE0C501B40168
:1024C0000E945211E80EF91EC501B4010E944F2C62
:1024D0009B01AC01C301B2010E94F72120E030E072
:1024E00040E251E40E94B02C0E94542380E090E02E
:1024F0004AE00E945211E80EF91E62E072E086EE98
:1025000094E00E9460168E0D9F1DFF90EF90DF906B
:10251000CF90BF90AF909F908F907F906F905F9083
:102520004F9008950F931F93CF93DF93CDB7DEB7EE
:1025300029970FB6F894DEBF0FBECDBF8091D605A8
:102540009091D705892B09F4A1C00E94490B0091F5
:10255000DC051091DD052091DE053091DF05DC0101
:10256000CB01801B910BA20BB30BC297A105B10548
:1025700060F3F8948091D2059091D3059A83898372
:10258000E091D605F091D705DF011196808189870A
:102590009091CE05E091E005F091E1058091E20592
:1025A000992309F42EC09081982B9887908180956B
:1025B00089238F838F818C8388E08B8358856F81FB
:1025C00049853B812C8189819A81508347FD252F44
:1025D0003A952083262F39F0441F00C00000608305
:1025E000000000C0F2CF38E04D91608300000197F9
:1025F00061F7F093E105E093E00549873B832C8385
:1026000038C09081982B98879081809589238F83FB
:102610008F818E8388E08D8358856F8149853D81C8
:102620002E8189819A81508347FD252F00C000C0EB
:10263000208300C000C000C000C000C06083000054
:10264000262F3A9541F0441F000000C000C000C092
:1026500000C000C0E8CF38E04D9100C0608300C0EA
:10266000019709F7F093E105E093E00549873D8381
:102670002E839A83898378940E94490B6093DC05AA
:102680007093DD058093DE059093DF0529960FB6E4
:10269000F894DEBF0FBECDBFDF91CF911F910F9198
:1026A00008958F929F92AF92BF92CF92DF92EF9256
:1026B000FF922091D0053091D1058217930708F041
:1026C00052C04B01AA24BB24E82DC52ED62EE72EDE
:1026D000FF24FC2D342F2091D505222361F0829E0A
:1026E00040011124E92DC29E60011124FD2D429F5D
:1026F000D00111243B2FF090DB05E090D805A0918C
:10270000D605B091D705FE1008C0AC01440F551F87
:10271000840F951F8A0F9B1F14C0880F991F880F65
:10272000991F8A0F9B1F472F552766277727DC01A4
:10273000AF0DB11D222321F0429FA0011124452F8E
:102740004C932091D805DC01A20FB11DEC93209190
:10275000D905DC01A20FB11DFC932091DA05FC0123
:10276000E20FF11D3083FF90EF90DF90CF90BF908C
:10277000AF909F908F900895CF92DF92EF92FF924B
:10278000CF93DF936C01990FEE08FF08F7FE1AC094
:10279000E091E604F091E7040190F081E02D6DE214
:1027A00086EE94E00995EC0166277727CB016C193A
:1027B0007D098E099F094AE00E9452117C01EC0EAE
:1027C000FD1E06C04AE0C701B6010E9452117C01FD
:1027D00062E072E086EE94E00E9460168E0D9F1D0E
:1027E000DF91CF91FF90EF90DF90CF900895CF933E
:1027F000DF93BC0186EE94E00E946016EC0162E07B
:1028000072E086EE94E00E9460168C0F9D1FDF91AF
:10281000CF9108958F929F92AF92BF92CF92DF9205
:10282000EF92FF92CF93DF93C82F85E895E09093C6
:10283000E5048093E404CC2369F1C53010F080E016
:102840000DC140E060E070E0CB010E94FF0B8823E7
:10285000B1F320E1C29FC00111248C529D4FFC01B5
:10286000E254FE4F20812F7751F73C9640815181F1
:1028700062817381443651056105710500F3349717
:10288000C080D180E280F380C114D104E104F1045E
:1028900021F4D5CFC12CD12C760140E0C701B6017F
:1028A0000E94FF0B882359F28091EF029091F00271
:1028B0008115924021F6A091F402AA2309F4BFCF1A
:1028C0006091F2027091F3026115710509F4B7CFBE
:1028D0002091F102222309F4B2CFA093A305209303
:1028E000950580E030E0E1E0F0E0C82FAF01082E70
:1028F00002C0440F551F0A94E2F72417350741F030
:10290000982F8F5F983089F789E080939E0597CF45
:1029100080939E052091FA023091FB02211531052A
:1029200019F040E050E008C02091080330910903FD
:1029300040910A0350910B0320939605309397051D
:10294000409398055093990546015701860E971EAE
:10295000A11CB11C8092A4059092A505A092A60589
:10296000B092A705E091F502F091F602F093AA0566
:10297000E093A905B0E00E94A02D860E971EA81E28
:10298000B91E8092AB059092AC05A092AD05B092B5
:10299000AE0585E0EE0FFF1F8A95E1F7E150FE4F8F
:1029A000EF2FFF27E6958E0E9F1EA11CB11C809273
:1029B0009F059092A005A092A105B092A20520913A
:1029C000F7023091F8022115310521F0A90160E0EC
:1029D00070E008C040910403509105036091060324
:1029E00070910703D701C60188199909AA09BB0983
:1029F000840F951FA61FB71F04C0B695A79597957E
:102A00008795CA95D2F780939A0590939B05A093DA
:102A10009C05B0939D05853F2FE09207A105B10568
:102A200010F48CE018C0853F9F4FA105B10510F44C
:102A300080E111C08091100390911103A0911203C5
:102A4000B09113038093AB059093AC05A093AD05B3
:102A5000B093AE0580E28093A80581E0DF91CF912D
:102A6000FF90EF90DF90CF90BF90AF909F908F90AE
:102A70000895EF92FF920F931F93CF93DF93FC0182
:102A8000248135816115710511F480E019C041156B
:102A90005105A9F07B01EC018A01020F131FB80157
:102AA0000E949511882389F3288139818C819D8129
:102AB000B701820F931F0E94EE261D830C8381E0D5
:102AC000DF91CF911F910F91FF90EF900895CF93D9
:102AD000DF93EC0188819981009711F00E945F25B6
:102AE000198218821D821C821B821A82DF91CF916B
:102AF0000895CF93DF93EC016115710561F0FB013F
:102B000001900020E9F73197AF01461B570B0E9457
:102B10003915811103C0CE010E946715CE01DF91E6
:102B2000CF910895CF93DF93EC01FB014481558150
:102B3000608171810E943915811103C0CE010E940C
:102B40006715CE01DF91CF910895EF92FF920F9319
:102B50001F93CF93DF93EC017B018A01BA010E949E
:102B60009511811104C0CE010E94671507C01D8315
:102B70000C83B701888199810E94EE26CE01DF91F6
:102B8000CF911F910F91FF90EF900895CF93DF9316
:102B9000EC01FB018617970761F060817181611577
:102BA000710529F0448155810E94A51502C00E943B
:102BB0006715CE01DF91CF910895FC01808191814D
:102BC0000C945F25EF92FF920F931F93CF93DF93A7
:102BD000CDB7DEB7A1970FB6F894DEBF0FBECDBF5D
:102BE0007C01CB01BA01F70111821082138212829B
:102BF0001582148242E0420F8E010F5F1F4F0E9428
:102C00000427009769F0FC0101900020E9F7319753
:102C1000AF01481B590BBC01C7010E94A51503C099
:102C2000C7010E946715A1960FB6F894DEBF0FBECC
:102C3000CDBFDF91CF911F910F91FF90EF9008953D
:102C4000CF92DF92EF92FF920F931F93CF93DF9378
:102C50006C017A018B01C0E0D0E0CE15DF0589F070
:102C6000D8016D918D01D601ED91FC910190F0811B
:102C7000E02DC6010995892B11F47E0102C0219631
:102C8000ECCFC701DF91CF911F910F91FF90EF9093
:102C9000DF90CF900895FC0111821082138212827E
:102CA000158214826115710551F0FB01019000201D
:102CB000E9F73197AF01461B570B0C94A515089502
:102CC0006115710579F0FB0101900020E9F731975A
:102CD000AF01461B570BDC01ED91FC910280F381A3
:102CE000E02D099480E090E008950F931F93CF9317
:102CF000DF93EC01E881F981DB0114964D915C9141
:102D000015976D917C910280F381E02D09958C01DE
:102D100062E072E0CE010E946016800F911FDF9189
:102D2000CF911F910F910895CF93DF93CDB7DEB769
:102D3000C059D1090FB6F894DEBF0FBECDBF78944D
:102D400084B5826084BD84B5816084BD85B58260B0
:102D500085BD85B5816085BD80916E008160809361
:102D60006E001092810080918100826080938100CA
:102D700080918100816080938100809180008160DA
:102D8000809380008091B10084608093B100809135
:102D9000B00081608093B00080917A00846080935D
:102DA0007A0080917A00826080937A0080917A0024
:102DB000816080937A0080917A00806880937A00A5
:102DC0001092C100E091F604F091F70482E0808354
:102DD000E091F204F091F3041082E091F404F09198
:102DE000F50480E180831092FE04E091FA04F091F2
:102DF000FB0486E08083E091F804F091F90480817F
:102E000080618083E091F804F091F904808188600A
:102E10008083E091F804F091F904808180688083D8
:102E2000E091F804F091F90480818F7D8083809196
:102E3000D40587FD08C061E00E940D0B60E0809121
:102E4000D4050E94DD0A81E08093CF056091D5050D
:102E50006B3021F12091D6053091D705615031F0CA
:102E600070E08FEF9AE00E94C92102C060E070E03C
:102E7000F9014091D2055091D305CF01821B930BEC
:102E80008417950740F44081469FC001479F900DED
:102E900011249193EECF8BE08093D5050E9492127E
:102EA0001092900510928E0510928B0510928A0553
:102EB0008AE0809389050E946E0B8B0161E080910E
:102EC00089050E940D0B61E0809189050E94DD0A51
:102ED000FFB6F89480910602811127C0E0E0F1E08E
:102EE0008491E4E1F1E09491E82FF0E0EE0FFF1F10
:102EF000EC54FF4FA591B491EC91E92321F461E0EA
:102F00008AE00E94DD0A61E08AE00E940D0B8CB528
:102F100080618CBD8CB580648CBD61E08DE00E94C9
:102F20000D0B61E08BE00E940D0B809106028F5F1C
:102F300080930602FFBE82E580938305109284058C
:102F400080918305909184050E94B6037AE0F72E64
:102F50008FEF0E947703FA94F110FACF85E895E09D
:102F60000E94B90320E030E0A90160E085E895E027
:102F70000E94CF03F82E80938F0581E0F81649F068
:102F80000E946E0B601B710B613D774058F381E02E
:102F900056C02AEA31E040E050E068E085E895E07C
:102FA0000E94CF0382FF03C0F092900510C064E03E
:102FB000F62E0E947E0380938F05FA94F110F9CFCC
:102FC0008A3A11F082E03BC082E0809390058091C4
:102FD0009005823021F0C12CD12C760105C0C12C86
:102FE000D12CE12C50E4F52E20E030E0A90167E37C
:102FF00085E895E00E94CF03A701960169E285E884
:1030000095E00E94CF0380938F05882349F00E94AA
:103010006E0B601B710B613D774030F388E00FC091
:1030200080919005823001F520E030E0A9016AE34B
:1030300085E895E00E94CF03882341F086E08093E5
:103040008A0585E895E00E946C038FC00E947E038C
:10305000807C803C19F483E0809390050E947E037D
:103060000E947E030E947E0385E895E00E946C0327
:1030700080E5809383051092840581E00E940A1404
:10308000882329F08091B405882341F06EC080E048
:103090000E940A14882309F468C0F4CF8091A8051F
:1030A000803109F582E08093B4051092C605109234
:1030B000C7051092C8051092C9058091A905909185
:1030C000AA05A0E0B0E045E0880F991FAA1FBB1F2A
:1030D0004A95D1F78093C2059093C305A093C40588
:1030E000B093C5051EC0803209F03FC083E08093D5
:1030F000B4054091AB055091AC056091AD05709160
:10310000AE054093C6055093C7056093C8057093FC
:10311000C90522EC35E081E995E00E946C0D882319
:1031200021F181E995E09093CB058093CA0581E078
:103130008093B3051092B5051092B6051092B705AD
:103140001092B8051092B9051092BA051092BB05FD
:103150001092BC051092BD051092BE051092BF05DD
:103160001092C0051092C10504C08AE591E00E944A
:10317000F71386E791E00E94F71364E072E0CE0156
:103180008D589F4F0E944B16C12CD12C8E010F5F82
:103190001F4FDE015E961D013EE1832E31E0932E2E
:1031A000FE01FB96CD57DF4FF983E883C358D0402B
:1031B0001F8E1E8E19A218A21BA21AA24AE0B801E5
:1031C000C601FAE0CF16D10488F40E944228F80123
:1031D00001900020E9F73197AF01401B510BB80176
:1031E000C1010E94A51568E871E010C00E94422844
:1031F000F80101900020E9F73197AF01401B510B16
:10320000B801C1010E94A51565E971E0C8010E94DD
:103210004B16B101C8010E94921560E971E00E944D
:103220007915BC01CE018D589F4F0E94C615C8016B
:103230000E94DD15C1010E94DD15E596AEACBFAC64
:10324000E5971EAE1DAE9CAE8BAE21961FAE2197AC
:1032500019A218A29F8E8E8E1BA2CB57DF4F188209
:10326000C558D040412CCD57DF4F5880C358D0406F
:10327000CC57DF4F7880C458D0402FEAE22E25E0AB
:10328000F22ECB57DF4F8881C558D040942DF501E1
:10329000E80FF91F20812F3209F40196DE01A85AA8
:1032A000BF4F20E030E0F501E80FF91F40814F32B9
:1032B00049F0442339F02F5F3F4F01964D932C3056
:1032C000310589F7E8E5F0E0EC0FFD1FE20FF31F91
:1032D0001082F501E80FF91F20812F3209F40196C1
:1032E000CB57DF4F8883C558D040492EF501E80FF2
:1032F000F91F60801C821B829A8289821E8221E0D3
:10330000AE01485A5F4FB701C8010E94CF0588231C
:1033100031F0C8010E94570261100AC025C02FEA8F
:10332000E21625E0F20681F1C7010E9457022CC087
:1033300021E0AE01485A5F4FB701852D972D0E94BD
:10334000CF05682E8FEAE81685E0F80609F4ABC6CB
:10335000C7010E9457026620B9F09E2D8F2DE52CE3
:10336000F72C592E782E8DCF9FEAE91695E0F906B5
:1033700019F0C7010E945702AFEFCA1ADA0AB4E681
:10338000CB16D10409F014CFE596AEACBFACE597EF
:103390006FEA75E0C1010E942D081C821B828EE13C
:1033A00091E09A8389831E826501702E612E41010E
:1033B0006FE270E0C6010E94E326009709F440C066
:1033C000F60120812F3221F4FFEFCF1ADF0AF0CF70
:1033D0008C198D3008F08CE0E82EF12CA701B60195
:1033E000CE01885A9F4F0E94F526E8E5F0E0EC0FE9
:1033F000FD1FEE0DFF1D1082872D962D0E94570296
:1034000021E0AE01485A5F4FB401872D962D0E94EE
:10341000CF0581110AC01EAE1DAE8EE191E09CAFBA
:103420008BAF21961FAE219719C0CE0CDF1CC401B3
:103430000E945702982D892D872C962C3C01B8CFDD
:10344000C6018A199B09C757DF4F99838883C958DA
:10345000D040B401CE01CB960E942D08C757DF4F54
:10346000A881B981C958D040AA0EBB1EF501808140
:10347000811109C0BE01655C7F4FC8010E942D0803
:103480004CE951E047C019A218A28EE191E09F8F4C
:103490008E8F1BA221968FAD2197811116C06C963D
:1034A0001FAE1EAE6C9788EE93E0A0E0B0E0A09651
:1034B0008CAF9DAFAEAFBFAFA097E3961FAE1EAE71
:1034C000E397A5961FAEA5972BC0825023E1A501D7
:1034D000823040F46FEA75E0C1010E94CF0581118E
:1034E0000DC0DDCFBE01655C7F4FC1010E94CF05DD
:1034F0008823A9F2CE01CB960E94570249A95AA966
:103500006BA97CA9C1010E94130EB101C8010E94E0
:103510002D08A501B801CE01885A9F4F0E947E0850
:103520006C968EAD9FAD6C979093050680930406C4
:10353000A0968CAD9DADAEADBFADA09780930606B5
:1035400090930706A0930806B0930906A4968CAD45
:103550009DADAEADBFADA49780930A0690930B06C8
:10356000A0930C06B0930D068DE0E8E5F0E0EC0FBB
:10357000FD1F3C96AEE0B6E001900D928A95E1F712
:10358000E3968EAD9FADE39790931C0680931B0648
:10359000CE018D589F4F0E94DD1598EEE92E93E0E5
:1035A000F92E09EF10E0E1ECF0E08491EDE0F1E0BC
:1035B000C490F801D490DD2071F081110E94B40A0A
:1035C000ED2DF0E0EE0FFF1FE451FF4FA591B491F8
:1035D0008C918C2191F4F1E0EF1AF10821F78091A0
:1035E0008F02282F30E0233031051CF48F5F809349
:1035F0008F028EE991E00E94F71389EA91E00E9420
:10360000F71380E8EFE0F2E0DF011D928A95E9F719
:1036100010E083EE95E00E948D010E94BC1383EEC2
:1036200095E00E948D010196A1F383EE95E00E9442
:103630001202E12FF0E0E15FFD4F8083112329F0BA
:10364000843219F480930F0210E080910F028432CB
:1036500001F781E0810FE12FF0E0E15FFD4F908104
:103660009A3011F0182FD5CF90E0FC01E35FFD4FA9
:1036700010828C0105501109F801E15FFD4F208196
:103680002A3219F081EB91E019C040E150E060E08E
:1036900070E0855F9D4F0E94242721E0822F90E0FB
:1036A000801791073CF4FC01E15FFD4F80816827A2
:1036B0002F5FF4CF662329F08BEB91E00E94F71384
:1036C000A7CF83EC91E00E94F7138091120282351C
:1036D00009F0D7C28BE0CD57DF4FE881F981C3589D
:1036E000D040282F11922A95E9F7CF57DF4F198242
:1036F0001882C158D040D1011D928A95E9F7C1586E
:10370000DF4F19821882CF57D040EFE0F2E0CF01AF
:103710008F50924021912C32D1F70196FC01E15F4C
:10372000FD4F208101962C32C9F7FC01E15FFD4F6E
:10373000208101962C32C9F7FE01FB96DC01A15FC6
:10374000BD4F2C9101962C3211F02193F7CFFE0141
:10375000EF57FF4FDC01A15FBD4F2C9101962C323A
:1037600011F02193F7CFFE017E96DC01A15FBD4FE2
:103770002C9101962C3211F02193F7CFFC01E15FDF
:10378000FD4FDE01A158BF4F81918C3211F08D9316
:10379000FBCF8AEC91E00E94F713BE01625E7F4F7F
:1037A000CE0181589F4F0E942D099B01AC01BE01A3
:1037B000655C7F4FCE018F579F4FC357DF4F2883E4
:1037C000CD58D040C257DF4F3883CE58D040C15774
:1037D000DF4F4883CF58D040C057DF4F5883C05980
:1037E000D0400E942D094B015C01C357DF4F288157
:1037F000CD58D040C257DF4F3881CE58D040C15746
:10380000DF4F4881CF58D040C057DF4F5881C05953
:10381000D0406FED7BE982EA92EC0E94F72125E32C
:103820003AEF4EE85CE30E94B02C6B017C010E94F1
:103830005824CB57DF4F688379838A839B83C5588D
:10384000D04025E33AEF4EE85CE3C501B4010E94A5
:10385000B02C4B015C010E94D6222B013C01C5011A
:10386000B4010E9458244B015C01C701B6010E94BB
:10387000D622C757DF4F688379838A839B83C958D1
:10388000D0402EE13CE045EF5EE3C301B2010E946F
:10389000B02C6B017C012CE736EC40E65FE3C50100
:1038A000B4010E94B02C2CE736EC40E65FE30E94A6
:1038B000B02CC757DF4F288139814A815B81C958B5
:1038C000D0400E94B02C9B01AC01C701B6010E9400
:1038D000F7216B017C012CE736EC40E65FE3CB5728
:1038E000DF4F688179818A819B81C558D0400E94D1
:1038F000B02CA70196010E94772221EE3EE245E618
:1039000052E40E94B02C6B017C0120E030E0A90160
:103910000E944A2C87FF10C020E030E044EB53E4C3
:10392000C701B6010E94F82120E030E044EB53E4E7
:103930000E948E236B017C01C0920B02D0920C027C
:10394000E0920D02F0920E02BE01625E7F4FCE0148
:1039500081589F4F0E942D096B017C01BE01655C5F
:103960007F4FCE018F579F4F0E942D092B013C01A5
:103970009B01AC016AE971EC84EE91E40E94F721AD
:1039800025E33AEF4EE85CE30E94B02C20E030E003
:1039900040E05FE30E94B02C0E9458244B015C0180
:1039A00025E33AEF4EE85CE3C301B2010E94B02C7C
:1039B0000E94D6222B013C01A70196016FED7BE905
:1039C00082EA92EC0E94F72125E33AEF4EE85CE3AD
:1039D0000E94B02C20E030E040E05FE30E94B02C79
:1039E0000E9458246B017C01A5019401C501B4011A
:1039F0000E94B02C4B015C012CE736EC40E65FE303
:103A0000C301B2010E94B02CA70196010E94B02C04
:103A1000A70196010E94B02C9B01AC01C501B40125
:103A20000E94F8216B017C010E94BC11A701960144
:103A300060E070E080E89FE30E94F7210E94662426
:103A40009B01AC01C701B601C357DF4F2883CD5896
:103A5000D040C257DF4F3883CE58D040C157DF4FD8
:103A60004883CF58D040C057DF4F5883C059D0400B
:103A70000E946624C357DF4F2881CD58D040C257DB
:103A8000DF4F3881CE58D040C157DF4F4881CF58E3
:103A9000D040C057DF4F5881C059D0400E94772294
:103AA0009B01AC010E94F8216B017C010E94BC11BA
:103AB0002CEA38E74FE95BE4C701B6010E94B02C5D
:103AC00060930702709308028093090290930A02A0
:103AD00082ED91E00E94F71340910B0250910C028D
:103AE00060910D0270910E0222E0CE0101960E94BB
:103AF000E21540910702509108026091090270910D
:103B00000A0222E0CE018D589F4F0E94E2156A966C
:103B10001FAE1EAE6A976C961FAE1EAE6C976E9669
:103B20001FAE1EAE6E97BE016D587F4FCE01885AF4
:103B30009F4F0E94C6156BEE71E0CE01885A9F4FD1
:103B40000E947915BE016F5F7F4F0E949215BC01E4
:103B500086EE94E00E947516CE01885A9F4F0E940F
:103B6000DD15CE018D589F4F0E94DD15CE010196C7
:103B70000E94DD158090070290900802A090090233
:103B8000B0900A02BE01655C7F4FCE01885A9F4FFC
:103B90000E944B16BE01625E7F4FCE0187589F4F39
:103BA0000E944B16E5961FAE1EAEE597E7961FAE38
:103BB0001EAEE797E9961FAE1EAEE997BE016758A5
:103BC0007F4FCE018D589F4F0E94C6158CE289838E
:103BD0001A8241E050E0BE016F5F7F4FCE018D58E9
:103BE0009F4F0E943915811105C0CE018D589F4FFE
:103BF0000E946715BE01685A7F4FCE018D589F4FB6
:103C00000E9492157C018CE289831A8241E050E087
:103C1000BE016F5F7F4FC7010E943915811103C03C
:103C2000C7010E9467158E010F5F1F4F22E044E01D
:103C3000C501B4010E940427FC0101900020E9F7AE
:103C40003197AF01481B590BBC01C7010E943915C0
:103C5000811103C0C7010E946715B70182E096E099
:103C60000E947516CE018D589F4F0E94DD15CE0122
:103C700087589F4F0E94DD15CE01885A9F4F0E94A2
:103C8000DD15C0900702D0900802E0900902F09084
:103C90000A0280900B0290900C02A0900D02B0904E
:103CA0000E0210918F028DEE91E00E94F713409169
:103CB000D2055091D30560E070E08091D6059091D7
:103CC000D7050E94DC261130A1F040F01230B1F08F
:103CD0001330C9F44FEF50E0BA0119C040E053E58A
:103CE00065EE70E080E090E00E9451130E94921215
:103CF00012C040E05FEF60E070E009C04FEF50E0BD
:103D000060E070E004C040E050E06FEF70E080E001
:103D100090E00E94511320E030E040E751E4C701F9
:103D2000B6010E944B2487FD08C040E050E06FEFD1
:103D300070E080E290E00E94511320E030E048E41F
:103D400052E4C701B6010E944B2487FD08C040E041
:103D500050E06FEF70E081E290E00E94511320E0AC
:103D600030E048E453E4C701B6010E944B2487FDCC
:103D700008C040E050E06FEF70E082E290E00E9407
:103D8000511320E030E048EC53E4C701B6010E9433
:103D90004B2487FD08C040E050E06FEF70E083E205
:103DA00090E00E94511320E030E04AE754E4C7015C
:103DB000B6010E944B2487FD08C040E050E06FEF41
:103DC00070E084E290E00E94511320E030E04AEF7E
:103DD00054E4C701B6010E944B2487FD08C040E0AF
:103DE00050E06FEF70E085E290E00E94511320E018
:103DF00030E04AE755E4C701B6010E944B2487FD35
:103E000008C040E050E06FEF70E086E290E00E9472
:103E1000511320E030E045EA55E4C701B6010E94A5
:103E20004B2487FD08C040E050E06FEF70E087E270
:103E300090E00E94511320E030E0A901C501B401D7
:103E40000E94F8210E944D238B0177FF03C008597F
:103E50001E4F07C06936B1E07B071CF08B01085686
:103E60001140C8010E94BC13C80106978E35E1E0DD
:103E70009E0798F48733910598F0C7978C33910586
:103E800090F0CC978238910588F00B5F11090233CE
:103E9000110578F085E090E00EC080E090E00BC066
:103EA00081E090E008C082E090E005C083E090E00F
:103EB00002C084E090E08330910509F47DC044F4B1
:103EC0008130910509F442C0029709F46EC007C021
:103ED0008430910509F49FC0059709F4B3C04FEFF2
:103EE0005FEF60E070E083E090E00E9451134FEFDD
:103EF0005FEF60E070E084E090E00E9451134FEFCC
:103F00005FEF60E070E08BE090E00E9451134FEFB4
:103F10005FEF60E070E08CE090E00E9451134FEFA3
:103F20005FEF60E070E083E190E00E9451134FEF9B
:103F30005FEF60E070E084E190E00E9451134FEF8A
:103F40005FEF60E070E08BE190E026C04FEF5FEF45
:103F500060E070E086E090E00E9451134FEF5FEF69
:103F600060E070E087E090E00E9451134FEF5FEF58
:103F700060E070E08EE090E00E9451134FEF5FEF41
:103F800060E070E08FE090E00E9451134FEF5FEF30
:103F900060E070E085E190E00E9451134FEF5FEF29
:103FA00060E070E08CE190E073C04FEF5FEF60E0A5
:103FB00070E08CE190E016C04FEF5FEF60E070E0E2
:103FC00088E190E00E9451134FEF5FEF60E070E0F6
:103FD00089E190E00E9451134FEF5FEF60E070E0E5
:103FE0008AE190E00E9451134FEF5FEF60E070E0D4
:103FF0008DE190E00E9451134FEF5FEF60E070E0C1
:104000008EE190E00E9451134FEF5FEF60E070E0AF
:104010008FE190E03DC04FEF5FEF60E070E088E13E
:1040200090E00E9451134FEF5FEF60E070E089E194
:1040300090E00E9451134FEF5FEF60E070E08AE183
:1040400090E01EC04FEF5FEF60E070E089E090E02D
:104050000E9451134FEF5FEF60E070E08AE090E064
:104060000E9451134FEF5FEF60E070E081E190E05C
:104070000E9451134FEF5FEF60E070E082E190E04B
:104080000E9451134FEF5FEF60E070E08BE190E032
:104090000E9451130E9492128FE092E00E94F71347
:1040A0000E94500A7ACA662009F46EC9710155C986
:1040B0008091D6059091D705009711F00E945F2559
:1040C0008091D40587FD03C060E00E940D0B86E25D
:1040D00091E09093E4058093E3058091D202909162
:1040E000D302835E954071F4E091F605F091F705F7
:1040F00090818091F8058095892380831092D30266
:104100001092D20208951092E9041092E80488EE09
:1041100093E0A0E0B0E08093EA049093EB04A093D6
:10412000EC04B093ED042EE031E03093E7042093EB
:10413000E60425EC30E03093F3042093F20424EC01
:1041400030E03093F5042093F40420EC30E0309319
:10415000F7042093F60421EC30E03093F904209327
:10416000F80422EC30E03093FB042093FA0426ECB0
:1041700030E03093FD042093FC041092FF04109271
:104180000005109201051092020520E52093830599
:104190001092840510928A0510928B0510928E055C
:1041A0001092900542E050E060E070E0409391058D
:1041B0005093920560939305709394051092A8050F
:1041C0001092B2051092B1052EE131E03093B005A6
:1041D0002093AF051092B4051092050610920406C4
:1041E0008093060690930706A0930806B0930906ED
:1041F00026E331E0309303062093020610921C065A
:1042000010921B0610920E061092E6051092E5051C
:104210008093E7059093E805A093E905B093EA053C
:1042200086E291E09093E4058093E3051092FA050D
:104230001092F9051092FC051092FB051092FE05F4
:104240001092FD05109200061092FF056091010684
:104250006E7F6D7F609301066695617081E06827CF
:1042600087E00E94DD0A61E087E00E940D0BE1E13A
:10427000F1E0E491E093F305EDEFF0E0E491F0E09C
:10428000EE0FFF1FEE51FF4F859194919093F5052E
:104290008093F40560E088E00E940D0B8091010698
:1042A00081FD04C061E088E00E94DD0A88E080931F
:1042B000EF05E2E1F1E0E491E093F005EEEFF0E0EC
:1042C000E491F0E0EE0FFF1FE451FF4F85919491D0
:1042D0009093F2058093F1051092CF051092D505C9
:1042E0001092DC051092DD051092DE051092DF05BC
:1042F00081E08093DB058093D8051092D90592E088
:104300009093DA058093CE0588E790E09093D305EB
:104310008093D2050E94CA249093D7058093D60536
:10432000009761F028E7FC0111922A95E9F788E2ED
:1043300090E09093D1058093D00508C01092D305EA
:104340001092D2051092D1051092D00586E080938C
:10435000D4058091CF05882341F061E086E00E947A
:104360000D0B60E086E00E94DD0AECEFF0E0E491E6
:10437000F0E0EE0FFF1FEE51FF4F85919491909367
:10438000E1058093E005E0E1F1E0E491E093E205EE
:104390000895AA1BBB1B51E107C0AA1FBB1FA6178C
:1043A000B70710F0A61BB70B881F991F5A95A9F7DE
:1043B00080959095BC01CD01089597FB072E16F4CA
:1043C000009407D077FD09D00E94C92107FC05D0D1
:1043D0003EF4909581959F4F0895709561957F4F1C
:1043E0000895EE0FFF1F0590F491E02D09945058A9
:1043F000BB27AA270E940F220C94342D0E94262D41
:1044000038F00E942D2D20F039F49F3F19F426F446
:104410000C94232D0EF4E095E7FB0C941D2DE92F51
:104420000E94452D58F3BA17620773078407950752
:1044300020F079F4A6F50C94672D0EF4E0950B2E80
:10444000BA2FA02D0B01B90190010C01CA01A001E6
:104450001124FF27591B99F0593F50F4503E68F141
:104460001A16F040A22F232F342F4427585FF3CF82
:10447000469537952795A795F0405395C9F77EF453
:104480001F16BA0B620B730B840BBAF09150A1F09C
:10449000FF0FBB1F661F771F881FC2F70EC0BA0F22
:1044A000621F731F841F48F4879577956795B795AA
:1044B000F7959E3F08F0B0CF9395880F08F09927A5
:1044C000EE0F9795879508950E94262D60F080E85D
:1044D00091E009F49EEF0E942D2D28F040E851E074
:1044E00071F45EEF0CC00C94232D0C94672DE92F12
:1044F000E0780E94452D40F3092E052AB1F32617D6
:1045000037074807590738F00E2E07F8E02569F0FD
:10451000E025E0640AC0EF6307F8009407FADB01C6
:10452000B9019D01DC01CA01AD01EF930E94F222A5
:104530000E94342D0E94A7225F91552339F02BED64
:104540003FE049E450FD49EC0C94F8210895DF93D5
:10455000DD27B92FBF7740E85FE316161706480737
:104560005B0718F4D92F0E9450249F938F937F9359
:104570006F930E94A624E8E6F0E00E94E5230E94E3
:10458000342D2F913F914F915F910E94C32CDD23D9
:1045900051F09058A2EA2AED3FE049EC5FE3D07871
:1045A0005D270E940F22DF910C94342D0E940E246F
:1045B000E3950C9437240E94EF220C94342D0E9432
:1045C0002D2D58F00E94262D40F029F45F3F29F050
:1045D0000C941D2D51110C94682D0C94232D0E94C8
:1045E000452D68F39923B1F3552391F3951B550B92
:1045F000BB27AA2762177307840738F09F5F5F4FB6
:10460000220F331F441FAA1FA9F335D00E2E3AF0F4
:10461000E0E832D091505040E695001CCAF72BD00C
:10462000FE2F29D0660F771F881FBB1F261737075D
:104630004807AB07B0E809F0BB0B802DBF01FF278F
:1046400093585F4F3AF09E3F510578F00C941D2D22
:104650000C94682D5F3FE4F3983ED4F386957795EC
:104660006795B795F7959F5FC9F7880F911D969548
:10467000879597F90895E1E0660F771F881FBB1FA4
:10468000621773078407BA0720F0621B730B840B51
:10469000BA0BEE1F88F7E09508950E9454236894A2
:1046A000B1110C94682D08950E944D2D88F09F57EC
:1046B00098F0B92F9927B751B0F0E1F0660F771F46
:1046C000881F991F1AF0BA95C9F714C0B13091F03C
:1046D0000E94672DB1E008950C94672D672F782F05
:1046E0008827B85F39F0B93FCCF386957795679501
:1046F000B395D9F73EF490958095709561957F4F6D
:104700008F4F9F4F08950E94262D20F019F00E9490
:104710002D2D50F40C94232D0C94682DE92F0E941C
:10472000452D88F35523B1F3E7FB62177307840720
:104730009507A8F189F3E92FFF2788232AF03197FD
:10474000660F771F881FDAF7952F5527442332F01D
:1047500091505040220F331F441FD2F7BB27E91B53
:10476000F50B621B730B840BB109B1F222F4620FDB
:10477000731F841FB11D31972AF0660F771F881FA2
:10478000BB1FEFCF9150504062F041F0882332F0D0
:10479000660F771F881F91505040C1F793950C9476
:1047A000D7238695779567959F5FD9F7F7CF9F3F7A
:1047B00031F0915020F4879577956795B795880FDC
:1047C000911D9695879597F90895DF93CF931F9341
:1047D0000F93FF92EF92DF927B018C01689406C0E9
:1047E000DA2EEF010E94C32CFE01E894A5912591D9
:1047F000359145915591A6F3EF010E940F22FE01DC
:104800009701A801DA9469F7DF90EF90FF900F917C
:104810001F91CF91DF9108950C94232D0E944D2D6F
:10482000D8F3E894E0E0BB279F57F0F02AED3FE093
:1048300049EC06C0EE0FBB0F661F771F881F28F0DC
:10484000B23A62077307840728F0B25A620B730BFF
:10485000840BE3959A9572F7803830F49A95BB0FE4
:10486000661F771F881FD2F790480C94D923EF93C7
:10487000E0FF07C0A2EA2AED3FE049EC5FEB0E94AF
:104880000F220E94342D0F90039401FC9058E5E90B
:10489000F0E00C94B6240E948C2C08F48FEF08955D
:1048A0009B01AC0160E070E080E89FE30C94DB22A8
:1048B0009F930E940E240F9007FCEE5F0C94372408
:1048C00019F416F40C94232D0C94D7230E944D2D2B
:1048D000B8F39923C9F3B6F39F57550B87FF0E948E
:1048E000AF240024A0E640EA9001805856959795A1
:1048F00028F4805C660F771F881F20F02617370783
:10490000480730F4621B730B840B202931294A2B92
:10491000A69517940794202531254A2758F7660F46
:10492000771F881F20F026173707480730F4620BDF
:10493000730B840B200D311D411DA09581F7B9012A
:10494000842F9158880F9695879508959B01AC0107
:104950000C94B02C0E948C2C880B990B08959150CC
:104960005040660F771F881FD2F708959F938F934B
:104970007F936F93FF93EF939B01AC010E94B02C48
:10498000EF91FF910E94E5232F913F914F915F910D
:104990000C94B02CCF93DF938230910510F482E019
:1049A00090E0E0911F06F091200620E030E0C0E0AA
:1049B000D0E0309711F14081518148175907C0F07C
:1049C0004817590761F482819381209719F09B83DE
:1049D0008A832BC09093200680931F0626C0211542
:1049E000310519F04217530718F49A01BE01DF018F
:1049F000EF010280F381E02DDCCF2115310509F1B3
:104A0000281B390B2430310590F412968D919C911E
:104A100013976115710521F0FB019383828304C014
:104A20009093200680931F06FD01329644C0FD013D
:104A3000E20FF31F81939193225031092D933C9300
:104A40003AC020911D0630911E06232B41F420917F
:104A500006013091070130931E0620931D06209118
:104A60000401309105012115310541F42DB73EB700
:104A70004091080150910901241B350BE0911D065E
:104A8000F0911E06E217F307A0F42E1B3F0B281728
:104A9000390778F0AC014E5F5F4F2417350748F0B7
:104AA0004E0F5F1F50931E0640931D0681939193F6
:104AB00002C0E0E0F0E0CF01DF91CF9108950F93C5
:104AC0001F93CF93DF93009709F48CC0FC013297BA
:104AD0001382128200911F06109120060115110504
:104AE00081F420813181820F931F20911D06309126
:104AF0001E062817390779F5F0931E06E0931D0668
:104B000071C0D80140E050E0AE17BF0750F41296D4
:104B10002D913C911397AD012115310509F1D90172
:104B2000F3CF9D01DA013383228360817181860F87
:104B3000971F8217930769F4EC0128813981260FAA
:104B4000371F2E5F3F4F318320838A819B81938360
:104B50008283452B29F4F0932006E0931F0642C080
:104B60001396FC93EE931297ED01499159919E0192
:104B7000240F351FE217F30771F480819181840FB0
:104B8000951F029611969C938E9382819381139622
:104B90009C938E931297E0E0F0E0D80112968D91ED
:104BA0009C911397009719F0F8018C01F6CF8D9125
:104BB0009C9198012E5F3F4F820F931F20911D06FD
:104BC00030911E062817390769F4309729F410929E
:104BD000200610921F0602C01382128210931E0636
:104BE00000931D06DF91CF911F910F910895A0E0D2
:104BF000B0E0EDEFF5E20C94AF2DEC01009721F45D
:104C0000CB010E94CA24B8C0FC01E60FF71F9C012B
:104C100022503109E217F30708F4ACC0D9010D9115
:104C20001C91119706171707B0F00530110508F40D
:104C30009FC0C80104978617970708F499C00250CF
:104C40001109061B170B019311936D937C93CF01F0
:104C50000E945F258DC05B01A01AB10A4C01800E35
:104C6000911EA0911F06B091200640E050E0E12C7B
:104C7000F12C109709F44AC0A815B905D1F56D902B
:104C80007C901197630182E0C80ED11CCA14DB042A
:104C900080F1A3014A195B096A0182E0C80ED11CA8
:104CA0001296BC9012971396AC91B5E0CB16D10436
:104CB00040F0B282A38351834083D9016D937C93EA
:104CC0000AC00E5F1F4FC301800F911FF90191832E
:104CD0008083EB2DFA2FE114F10431F0D701139604
:104CE000FC93EE93129744C0F0932006E0931F06C6
:104CF0003FC08D919C9111974817590708F4AC015A
:104D00007D0112960D90BC91A02DB3CF80911D0610
:104D100090911E0688159905E1F446175707C8F4C7
:104D20008091040190910501009741F48DB79EB7E1
:104D30004091080150910901841B950BE817F90770
:104D4000C8F4F0931E06E0931D06F9017183608399
:104D50000FC0CB010E94CA247C01009759F0A80122
:104D6000BE010E94D326CE010E945F25C70104C068
:104D7000CE0102C080E090E0CDB7DEB7EEE00C944B
:104D8000CB2D81E090E0F8940C94F12DFB01DC0137
:104D900004C08D910190801921F441505040C8F712
:104DA000881B990B0895FB01DC0102C001900D9254
:104DB00041505040D8F70895DC0101C06D93415037
:104DC0005040E0F70895FC018191861721F0882377
:104DD000D9F7992708953197CF010895FB01DC0198
:104DE00001900D920020E1F70895FB01DC01415094
:104DF000504048F001900D920020C9F701C01D926B
:104E000041505040E0F70895EF920F931F93CF93D6
:104E1000DF93E80147FD02C034E001C034E1E42F34
:104E2000440FFF0BF7FF03C0F195E195F109E32E65
:104E3000022F2E2FAE010E945C28CE01DF91CF9170
:104E40001F910F91EF900895A0E0B0E0EAE2F7E241
:104E50000C94AB2D5C016B017A016115710519F0A1
:104E6000FB0191838083E114F10429F0C7010297CB
:104E7000839708F0F1C0E5012196F5011081812F9B
:104E800090E00E943928892B11F05E01F4CF1D3289
:104E900029F42196F501118101E007C01B3221F4AC
:104EA000E5012296F501118100E0E114F10459F1C8
:104EB000F0E1EF16F10461F41033E1F488818F7DA5
:104EC000883569F519812296026070E1E72EF12C90
:104ED00088E0E816F10439F12CF4F2E0EF16F10461
:104EE000C9F12AC08AE0E816F10479F0E0E1EE1693
:104EF000F10411F550E1E52EF12C812C912CA12C1F
:104F000068E0B62E2CC01033C9F23AE0E32EF12C43
:104F10004CEC842E982CA82C4CE0B42E20C010E32E
:104F2000E114F104A9F698E0E92EF12C812C912CE2
:104F3000A12C20E1B22E13C060E070E080E090E888
:104F400097010F2C000C440B550B0E947E2D49013C
:104F50005A0105C0812C912CA12C80E4B82E60E070
:104F600020E030E0A90127010F2C000C660877082B
:104F70001E01E0EDE10FEA3060F08FEB810F8A3126
:104F800010F4E9EC05C08FE9810F8A3128F5E9EAD0
:104F9000E10F8E2F90E08E159F05F4F467FD18C089
:104FA00082169306A406B50690F0C301B2010E94D2
:104FB0006E2D9B01AC012E0F311D411D511D213065
:104FC00031054105F0E85F0710F461E001C06FEFC3
:104FD0002196F1011081CCCF802F8170C114D104B2
:104FE00071F0662329F02197F601D183C08307C0B1
:104FF00001FF19C02297F601D183C08314C067FF57
:1050000012C0811105C02FEF3FEF4FEF5FE704C0E3
:1050100020E030E040E050E882E290E09093220609
:105020008093210616C0882341F050954095309515
:1050300021953F4F4F4F5F4F0CC057FF0AC082E290
:1050400090E090932206809321062FEF3FEF4FEFE1
:105050005FE7B901CA0104C060E070E080E090E061
:10506000CDB7DEB7E2E10C94C72D662777270C9405
:10507000EA2991110C941F2C803219F08950855027
:10508000C8F70895BB27FB015527AA27880F991F4A
:10509000AA1FA41710F0A41B83955051B9F7A05D67
:1050A000AA3308F0A95DA193009779F7B111B193E4
:1050B0001192CB010C943A2C4F925F926F927F9297
:1050C0009F92AF92BF92CF92DF92EF92FF920F9397
:1050D0001F93CF93DF93CDB7DEB729970FB6F89420
:1050E000DEBF0FBECDBF6A01122FB02E2BE32017FB
:1050F00020F0FF24F394F00E02C0BCE3FB2E0F2D32
:1051000027E0AE014F5F5F4F0E94472BAC018981C2
:10511000982F9970913031F0E1FC06C0E0FE06C096
:1051200090E205C09DE203C09BE201C090E0EE2D3D
:10513000E07183FF3CC0911102C083E001C084E0B4
:10514000811718F4212F281B01C020E0E1110BC0AA
:10515000F601822F30E2882319F031938150FBCF82
:10516000C20ED11C20E0992329F0D6019C93F601B0
:1051700031966F01C6010396E2FE0AC03EE4D601F5
:105180003C9341E411964C93119712963C9306C0C0
:105190003EE6F601308341E641833283FC01322F43
:1051A00040E2332309F442C041933150FACF82FFE9
:1051B00044C0911102C083E001C084E0811718F45B
:1051C000212F281B01C020E0E1110BC0F601822F26
:1051D00030E2882319F031938150FBCFC20ED11CED
:1051E00020E0992329F0D6019C93F60131966F01B6
:1051F000C6010396E2FE0BC039E4D6013C933EE4BF
:1052000011963C93119736E412963C9307C039E609
:10521000F60130833EE6318336E63283FC01322FDD
:1052200040E2332319F041933150FBCFFC01E20FF0
:10523000F11D10828EEF9FEFB7C0F1E0911101C018
:10524000F0E06F2F70E01416150624F49A012F5F1A
:105250003F4F02C021E030E0260F371FBB2029F06E
:105260006B2D70E06F5F7F4F02C060E070E0260F33
:10527000371F612F70E0261737071CF4121B212FF0
:1052800001C020E03E2D387159F4D601322F60E282
:10529000332319F06D933150FBCFC20ED11C20E0A7
:1052A000FF2331F0D6019C93B6016F5F7F4F6B01F6
:1052B000E1110BC0F601922F30E3992319F03193DD
:1052C0009150FBCFC20ED11C20E09F2D940F3A814C
:1052D000782F7071A72E84FF03C0313309F49150E9
:1052E000191624F4993018F098E001C091E0E42FE9
:1052F000852F57FF02C0E0E080E06E2F782FE0E0BE
:10530000F0E0AEE29A2E3A01691A71082A01461AB3
:10531000570A0B2D10E01195019511096F3F8FEF82
:10532000780729F4D6019C92C60101966C014617B4
:10533000570784F0661677066CF47F01E40CF51CC1
:10534000A1E0B0E0AC0FBD1FEA0EFB1ED701119625
:10535000BC9002C090E3B92E615071093196C6012C
:1053600001967C016017710724F0D601BC926C0194
:10537000D5CF6417750741F4363320F4353321F463
:10538000A11002C081E3B82EF601B082F701822F8E
:1053900090E2882319F091938150FBCFF701E20F3F
:1053A000F11D108280E090E029960FB6F894DEBFE0
:1053B0000FBECDBFDF91CF911F910F91FF90EF9066
:1053C000DF90CF90BF90AF909F907F906F905F9055
:1053D0004F900895A0E0B0E0E0EFF9E20C94AF2D1B
:1053E000EC017B016115710519F0DB018D939C9334
:1053F0008E010F5F1F4F7880872D90E00E94392823
:10540000892B11F0E801F4CFBDE27B1205C00F5FDC
:105410001F4F7980C1E008C0EBE27E1204C08E010C
:105420000E5F1F4F7980C0E06801F1E0CF1AD1080C
:1054300043E050E066E271E0C6010E94222C892B15
:10544000F1F4680122E0C20ED11C45E050E061E2B7
:1054500071E0C6010E94222C892B21F4680187E0AB
:10546000C80ED11CE114F10419F0D701CD92DC92E1
:10547000C111FFC060E070E080E89FE703C143E036
:1054800050E06EE171E0C6010E94222C892B51F49C
:10549000E114F10409F4F2C00E5F1F4FF70111830C
:1054A0000083ECC0680160E070E0CB0100E010E038
:1054B000F601D0EDD70DDA3058F52C2F2260622E90
:1054C0002C2F2870C2FF05C0211128C00F5F1F4F6D
:1054D00025C0222311F001501109A5E0B0E09B0185
:1054E000AC010E94A02D4B015C01880C991CAA1CE8
:1054F000BB1CC501B4016D0F711D811D911D683963
:10550000A9E97A078A07A9E19A0740F0C66005C0B1
:10551000DE3F51F4C3FD44C0C8606C2EBFEFCB1A10
:10552000DB0A7080C62DC4CF2D2F2F7D2531C1F50C
:1055300040814D3211F4C06106C04B3221F03196EA
:1055400021E030E006C03296D60111964C9122E05F
:1055500030E0A0EDA40FAA3018F0E21BF30B20C03E
:1055600040E050E04038BCE05B075CF49A01220F59
:10557000331F220F331F420F531F440F551F4A0F73
:10558000511D3196DF0111972C91A0EDA20FAA3089
:1055900048F3C4FF03C0519541955109040F151FED
:1055A000C1FF07C0E114F10421F03197D701ED9359
:1055B000FC930E944F2CC370C33019F06B017C0127
:1055C00006C06B017C01F7FAF094F7F8F09420E044
:1055D00030E0A901C701B6010E944A2C882309F4D2
:1055E00045C017FF06C0119501951109CDE3D1E023
:1055F00002C0C5E5D1E05E01B8E1AB1AB1084601D1
:10560000BE2DAF2D90E2E92EF12C0E151F0584F072
:10561000FE012591359145915491B4018B2F9A2F1C
:105620000E94B02C4B01B82FA92F0E191F09EDCFE6
:105630002497F594E794CA15DB0539F76401EB2E3E
:10564000FA2E8E2D880F8F2D881F8F3F49F020E076
:1056500030E0A901C701B6010E944A2C811106C0A1
:1056600082E290E09093220680932106C701B60162
:1056700009C060E070E080E89FEF04C060E070E087
:1056800080EC9FE7CDB7DEB7EEE00C94CB2D283051
:1056900008F027E03327DA01990F311D87FD91606B
:1056A00000966105710539F432602E5F3D9330E359
:1056B0002A95E1F708959F3F30F080387105610524
:1056C00009F03C5F3C5F3D93913008F08068911D8C
:1056D000DF93CF931F930F93FF92EF92192F987F31
:1056E0009695E92F96959695E90FFF27ED54FE4F75
:1056F00099273327EE24FF24A701E701059008949A
:10570000079428F4360FE71EF81E491F511D660F37
:10571000771F881F991F0694A1F70590079428F416
:10572000E70EF81E491F561FC11D770F881F991FCE
:10573000661F0694A1F70590079428F4F80E491FF8
:10574000561FC71FD11D880F991F661F771F06940C
:10575000A1F70590079420F4490F561FC71FD81FC3
:10576000990F661F771F881F0694A9F784911095DB
:10577000177041F0D695C79557954795F794E794DC
:105780001A95C1F7E9E5F1E0689415901591359106
:105790006591959105907FE27395E118F10A430BAD
:1057A000560BC90BD009C0F7E10CF11E431F561F61
:1057B000C91FD01D7EF4703311F48A95E6CFE894AA
:1057C000015030F0080F0AF40027021708F4202FC8
:1057D0002395022F7A3328F079E37D932A95E9F710
:1057E00010C07D932A9589F606949795679537950D
:1057F00017951794E118F10A430B560BC90BD00902
:1058000098F023957E9173957A3308F070E37C933A
:105810002013B8F77E9170617D9330F0839571E32A
:105820007D9370E32A95E1F71124EF90FF900F919B
:105830001F91CF91DF91992787FD90950895992722
:1058400088270895FB01DC014150504088F08D917C
:1058500081341CF08B350CF4805E659161341CF052
:105860006B350CF4605E861B611171F3990B089522
:10587000881BFCCFDC01FC01672F71917723E1F7D6
:10588000329704C07C916D9370836291AE17BF070D
:10589000C8F308950E948C2C08F481E00895E894E0
:1058A00009C097FB3EF490958095709561957F4F68
:1058B0008F4F9F4F9923A9F0F92F96E9BB27939516
:1058C000F695879577956795B795F111F8CFFAF426
:1058D000BB0F11F460FF1BC06F5F7F4F8F4F9F4F57
:1058E00016C0882311F096E911C0772321F09EE8B5
:1058F000872F762F05C0662371F096E8862F70E01B
:1059000060E02AF09A95660F771F881FDAF7880FF4
:105910009695879597F90895990F0008550FAA0B4A
:10592000E0E8FEEF16161706E807F907C0F01216B2
:105930001306E407F50798F0621B730B840B950BB5
:1059400039F40A2661F0232B242B252B21F408950A
:105950000A2609F4A140A6958FEF811D811D0895A7
:105960000E94C32C0C94342D0E94262D38F00E94E6
:105970002D2D20F0952311F00C941D2D0C94232D2A
:1059800011240C94682D0E94452D70F3959FC1F34E
:10599000950F50E0551F629FF001729FBB27F00DDD
:1059A000B11D639FAA27F00DB11DAA1F649F662732
:1059B000B00DA11D661F829F2227B00DA11D621F81
:1059C000739FB00DA11D621F839FA00D611D221F3B
:1059D000749F3327A00D611D231F849F600D211D1F
:1059E000822F762F6A2F11249F5750409AF0F1F0A2
:1059F00088234AF0EE0FFF1FBB1F661F771F881F0B
:105A000091505040A9F79E3F510580F00C941D2DF8
:105A10000C94682D5F3FE4F3983ED4F38695779518
:105A20006795B795F795E7959F5FC1F7FE2B880FB0
:105A3000911D9695879597F9089597F99F6780E846
:105A400070E060E008959FEF80EC089500240A94D0
:105A50001616170618060906089500240A94121649
:105A60001306140605060895092E0394000C11F47C
:105A7000882352F0BB0F40F4BF2B11F460FF04C029
:105A80006F5F7F4F8F4F9F4F089557FD9058440F82
:105A9000551F59F05F3F71F04795880F97FB991F8D
:105AA00061F09F3F79F0879508951216130614064A
:105AB000551FF2CF4695F1DF08C0161617061806D7
:105AC000991FF1CF86957105610508940895E894B2
:105AD000BB2766277727CB0197F90895DB018F93C2
