:100000000C94AA000C94D2000C94D2000C944A08D0
:100010000C944A080C944A080C94D2000C94D20018
:100020000C94D2000C94D2000C94D2000C94D20008
:100030000C94D2000C94D2000C94D2000C94D200F8
:100040000C9419160C94D2000C94D3180C94051926
:100050000C94D2000C94D2000C94D2000C94D200D8
:100060000C94D2000C94D200084AD73B3BCE016ED0
:1000700084BCBFFDC12F3D6C74319ABD56833DDAFF
:100080003D00C77F11BED9E4BB4C3E916BAAAABE0E
:10009000000000803F05A84CCDB2D44EB93836A937
:1000A000020C50B9918688083CA6AAAA2ABE000074
:1000B00000803F0000000008000201000003040768
:1000C0000000000000000000010204081020408031
:1000D0000102040810200102040810200404040492
:1000E00004040404020202020202030303030303E2
:1000F0000000000023002600290000000000250069
:1001000028002B0000000000240027002A004E4198
:100110004E494E495459494E46CDCCCC3D0AD72381
:100120003C17B7D13877CC2B329595E6241FB14FC9
:100130000A000020410000C84200401C4620BCBE0E
:100140004CCA1B0E5AAEC59D7400C405C20A190DD7
:100150003519D80511241FBECFEFD8E0DEBFCDBFC3
:1001600011E0A0E0B1E0E6EFF3E402C005900D92EB
:10017000A63BB107D9F725E0A6EBB1E001C01D927F
:10018000AA3FB207E1F711E0C2E5D1E004C022972F
:10019000FE010E94A81DCA34D107C9F70E9479192F
:1001A0000C94EE210C9400008F929F92AF92BF921C
:1001B000CF92DF92EF92FF920F931F93CF93DF9333
:1001C000EC01CB010E9416206B017C010E94121BE6
:1001D000CB0164E670E00E94461D8B0184E6809F9F
:1001E000B001819F700D1124882777FD8095982F8D
:1001F0000E94451B9B01AC01C701B6010E94DC199E
:1002000020E030E040E752E40E94AA1A6B017C0132
:10021000B801882777FD8095982F0E94451BA7017C
:1002200096010E94DD194B015C0120E030E041E6BF
:1002300055E4C701B6010E94AA1A9B01AC01C50191
:10024000B4010E94DD1921E0CC30D20719F0CE5064
:10025000D14009F49058DF91CF911F910F91FF90F9
:10026000EF90DF90CF90BF90AF909F908F900895C8
:100270004F925F926F927F928F929F92AF92BF92B6
:10028000CF92DF92EF92FF920F931F93CF93DF9362
:10029000CDB7DEB760970FB6F894DEBF0FBECDBF07
:1002A0002B013C0129873A874B875C87E982FA82D8
:1002B0000B831C839B01AC01C801B7010E94DC19B0
:1002C00020E030E040E05FE30E945E1C25E33AEF6F
:1002D0004EE85CE30E945E1C0E94C11C6D837E831D
:1002E0008F83988725E33AEF4EE85CE3C301B201C0
:1002F0000E945E1C0E94A71A2B013C0125E33AEFE5
:100300004EE85CE3C801B7010E945E1C0E94A71A78
:1003100069837A838B839C8329853A854B855C85A9
:10032000C601B5010E94DC1920E030E040E05FE347
:100330000E945E1C25E33AEF4EE85CE30E945E1CDF
:100340000E94C11C4B015C012D813E814F8158856B
:10035000CA01B9010E945E1C6B017C0129813A81AE
:100360004B815C81C301B2010E945E1C2B013C01E8
:10037000A5019401C501B4010E945E1C9B01AC0162
:10038000C301B2010E945E1C9B01AC01C701B60112
:100390000E94DD196B017C019B01AC0160E070E003
:1003A00080E89FE30E94DC190E94CB1C9B01AC01FA
:1003B000C701B6012D873E874F87588B0E94CB1C03
:1003C0002D853E854F8558890E94501A9B01AC01AE
:1003D0000E94DD1920E030E04AE155EC0E945E1CED
:1003E00060960FB6F894DEBF0FBECDBFDF91CF9100
:1003F0001F910F91FF90EF90DF90CF90BF90AF9043
:100400009F908F907F906F905F904F9008954F9244
:100410005F926F927F928F929F92AF92BF92CF9294
:10042000DF92EF92FF920F931F93CF93DF93CDB79D
:10043000DEB760970FB6F894DEBF0FBECDBF6983FD
:100440007A838B839C83C601B5010E94DC1925E366
:100450003AEF4EE85CE30E945E1C4B015C010E9497
:10046000C11C6D837E838F83988725E33AEF4EE826
:100470005CE3C801B7010E945E1C2B013C010E9495
:10048000A71A6B017C0125E33AEF4EE85CE3698132
:100490007A818B819C810E945E1C69837A838B8325
:1004A0009C830E94A71A69877A878B879C87C301E0
:1004B000B2010E94C11C9B01AC0169817A818B81D0
:1004C0009C812D873E874F87588B0E94C11C2B0132
:1004D0003C01C501B4010E94A71A69837A838B830A
:1004E0009C832D853E854F85588969857A858B85C6
:1004F0009C850E945E1C4B015C01A7019601C30113
:10050000B2010E945E1CA70196010E945E1C298117
:100510003A814B815C810E945E1C9B01AC01C5014C
:10052000B4010E94DC194B015C01A70196016D81A9
:100530007E818F8198850E945E1CA50194010E9496
:10054000501A21EE3EE245E652E40E945E1C60969F
:100550000FB6F894DEBF0FBECDBFDF91CF911F91D4
:100560000F91FF90EF90DF90CF90BF90AF909F9052
:100570008F907F906F905F904F9008958F929F9291
:10058000AF92BF92CF92DF92EF92FF920F931F93A1
:10059000CF93C82F4A015B01680179018AEB91E092
:1005A0000E941016C130C9F030F0C230C9F0C3301B
:1005B000D9F44FEF1AC040E063E585EE0E94C615FE
:1005C0009B01AC0160E070E08AEB91E00E94611554
:1005D0008AEB91E00E94451414C040E06FEF02C026
:1005E0004FEF60E080E003C040E060E08FEF0E94EA
:1005F000C6159B01AC0160E070E08AEB91E00E94BF
:10060000611520E030E040E751E4C701B6010E94E7
:10061000531C87FD0DC040E060E08FEF0E94C615BF
:100620009B01AC0160E270E08AEB91E00E946115F1
:1006300020E030E048E452E4C701B6010E94531CB8
:1006400087FD0DC040E060E08FEF0E94C6159B0162
:10065000AC0161E270E08AEB91E00E94611520E05C
:1006600030E048E453E4C701B6010E94531C87FD03
:100670000DC040E060E08FEF0E94C6159B01AC0109
:1006800062E270E08AEB91E00E94611520E030E0C8
:1006900048EC53E4C701B6010E94531C87FD0DC00E
:1006A00040E060E08FEF0E94C6159B01AC0163E261
:1006B00070E08AEB91E00E94611520E030E04AE7AB
:1006C00054E4C701B6010E94531C87FD0DC040E0F1
:1006D00060E08FEF0E94C6159B01AC0164E270E000
:1006E0008AEB91E00E94611520E030E04AEF54E48B
:1006F000C701B6010E94531C87FD0DC040E060E0B9
:100700008FEF0E94C6159B01AC0165E270E08AEB99
:1007100091E00E94611520E030E04AE755E4C7010E
:10072000B6010E94531C87FD0DC040E060E08FEFD2
:100730000E94C6159B01AC0166E270E08AEB91E075
:100740000E94611520E030E045EA55E4C701B6019A
:100750000E94531C87FD0DC040E060E08FEF0E94B7
:10076000C6159B01AC0167E270E08AEB91E00E9444
:1007700061152091B6013091B7014091B8015091B7
:10078000B901C501B4010E94DD190E94121B9B0131
:1007900077FF03C028593E4F07C0693641E0740710
:1007A0001CF09B0128563140C90106978E3541E067
:1007B000940798F48733910598F0C7978C33910587
:1007C00090F0CC978238910588F02B5F3109223365
:1007D000310578F484E090E00EC080E090E00BC03A
:1007E00081E090E008C082E090E005C083E090E006
:1007F00002C085E090E08330910509F4BDC044F467
:100800008130910509F463C0029709F4ABC007C0B9
:100810008430910509F4FBC0059709F41CC14FEF22
:100820006FEF80E00E94C6159B01AC0163E070E0B1
:100830008AEB91E00E9461154FEF6FEF80E00E941C
:10084000C6159B01AC0164E070E08AEB91E00E9468
:1008500061154FEF6FEF80E00E94C6159B01AC0160
:100860006BE070E08AEB91E00E9461154FEF6FEF53
:1008700080E00E94C6159B01AC016CE070E08AEB41
:1008800091E00E9461154FEF6FEF80E00E94C61566
:100890009B01AC0163E170E08AEB91E00E9461157D
:1008A0004FEF6FEF80E00E94C6159B01AC0164E141
:1008B00070E08AEB91E00E9461154FEF6FEF80E0EE
:1008C0000E94C6159B01AC016BE170E03DC04FEF8B
:1008D0006FEF80E00E94C6159B01AC0166E070E0FE
:1008E0008AEB91E00E9461154FEF6FEF80E00E946C
:1008F000C6159B01AC0167E070E08AEB91E00E94B5
:1009000061154FEF6FEF80E00E94C6159B01AC01AF
:100910006EE070E08AEB91E00E9461154FEF6FEF9F
:1009200080E00E94C6159B01AC016FE070E08AEB8D
:1009300091E00E9461154FEF6FEF80E00E94C615B5
:100940009B01AC0165E170E08AEB91E00E946115CA
:100950004FEF6FEF80E00E94C6159B01AC016CE188
:1009600070E0B6C04FEF6FEF80E00E94C6159B01AC
:10097000AC016CE170E023C04FEF6FEF80E00E94AC
:10098000C6159B01AC0168E170E08AEB91E00E9422
:1009900061154FEF6FEF80E00E94C6159B01AC011F
:1009A00069E170E08AEB91E00E9461154FEF6FEF13
:1009B00080E00E94C6159B01AC016AE170E08AEB01
:1009C00091E00E9461154FEF6FEF80E00E94C61525
:1009D0009B01AC016DE170E08AEB91E00E94611532
:1009E0004FEF6FEF80E00E94C6159B01AC016EE1F6
:1009F00070E08AEB91E00E9461154FEF6FEF80E0AD
:100A00000E94C6159B01AC016FE170E061C04FEF21
:100A10006FEF80E00E94C6159B01AC0168E170E0B9
:100A20008AEB91E00E9461154FEF6FEF80E00E942A
:100A3000C6159B01AC0169E170E08AEB91E00E9470
:100A400061154FEF6FEF80E00E94C6159B01AC016E
:100A50006AE170E030C04FEF6FEF80E00E94C61592
:100A60009B01AC0169E070E08AEB91E00E946115A6
:100A70004FEF6FEF80E00E94C6159B01AC016AE06A
:100A800070E08AEB91E00E9461154FEF6FEF80E01C
:100A90000E94C6159B01AC0161E170E08AEB91E018
:100AA0000E9461154FEF6FEF80E00E94C6159B0119
:100AB000AC0162E170E08AEB91E00E9461154FEFBA
:100AC0006FEF80E00E94C6159B01AC016BE170E006
:100AD0008AEB91E00E9461158AEB91E0CF911F9122
:100AE0000F91FF90EF90DF90CF90BF90AF909F90CD
:100AF0008F900C94451426E040E052EC61E070E0E9
:100B000087E595E00E9471188AEB91E00E94C1137D
:100B10006AE08AEB91E00E94CF158AEB91E00E9497
:100B2000451440E855E260E070E08FEC91E00E94EF
:100B30004D0960E171E08FEC91E00E94CA1961E219
:100B400071E08FEC91E00E94CA196AE371E08FECCA
:100B500091E00E94CA1962E0809106010C94F61699
:100B60001F93CF93DF93182FC8EED3E0812F0E94FD
:100B70006517892B21F42197C9F781E001C080E036
:100B8000DF91CF911F9108958EE092E00E94600A5C
:100B900020E047E068E08FEC91E00E941D0922E52B
:100BA00030E046E068E270E08AEB91E00C943915A1
:100BB0008AEB91E00E94AD138FEC91E00C94C40895
:100BC000CF93DF9380E8E2E3F2E0DF011D928A95A4
:100BD000E9F7C0E08FEC91E00E94DB070196D1F3CA
:100BE0008FEC91E00E946707AC2FB0E0AE5CBD4F88
:100BF0008C93CC2329F0843219F480933202C0E024
:100C000080913202843231F781E08C0FEC2FF0E0DA
:100C1000EE5CFD4F90819A3011F0C82FDBCF90E051
:100C2000FC01E05DFD4F1082EC012597FE01EE5CBA
:100C3000FD4F20812A3269F640E150E060E070E02B
:100C4000825D9D4F0E94E21E21E0822F90E08C1772
:100C50009D073CF4FC01EE5CFD4F808168272F5F0F
:100C6000F4CF6111B6CFDF91CF9108952F923F92CB
:100C70004F925F926F927F928F929F92AF92BF92AC
:100C8000CF92DF92EF92FF920F931F93CF93DF9358
:100C9000CDB7DEB7A9970FB6F894DEBF0FBECDBFB4
:100CA00086E090E00E94B005882359F080913102DF
:100CB00091E0980F90933102843018F48E5F809306
:100CC00031020E94E00580913502823509F0CCC0E6
:100CD0008BE04E0127E1820E911CD401E82F1D927A
:100CE000EA95E9F71BA21AA21E01FCE02F0E311CA7
:100CF000D101E82F1D92EA95E9F79E012F5F3F4F42
:100D00003DA32CA3D9011D928A95E9F7E2E3F2E015
:100D1000CF018253924021912C32D1F70196FC01F0
:100D2000EE5CFD4F208101962C32C9F7FC01EE5C90
:100D3000FD4F208101962C32C9F7F4019F0128193B
:100D40003909DC01AE5CBD4F4C9101964C3211F07B
:100D50004193F4CFFE01B296E20FF31FDC01AE5CCB
:100D6000BD4F2C9101962C3211F02083F7CFF10169
:100D7000AF01421953099C012E5C3D4FD9012C91C2
:100D800001962C3211F02193F3CFA1E0B0E0AC0F2B
:100D9000BD1FA40FB51FFC01EE5CFD4F20812C325E
:100DA00019F02C930196F7CFE0913102B8E0EB9F58
:100DB000F0011124E251FE4FA480B580C680D78097
:100DC0004080518062807380B401CE0182960E947F
:100DD000D4009B01AC01B101CE0101962EA33FA32B
:100DE00048A759A70E94D400830172012EA13FA1F8
:100DF00048A559A50E9407026093290270932A0210
:100E000080932B0290932C02E091310228E0E29F24
:100E1000F0011124E251FE4FA480B580C680D78036
:100E20004080518062807380B401CE0182960E941E
:100E3000D4009B01AC01B101CE0101962EA33FA3CA
:100E400048A759A70E94D400830172012EA13FA197
:100E500048A559A50E94380160932D0270932E0277
:100E600080932F029093300200912D0210912E0258
:100E700020912F02309130024091290250912A0294
:100E800060912B0270912C02809131020E94BE026F
:100E900062E372E087E595E00E94CA19A9960FB651
:100EA000F894DEBF0FBECDBFDF91CF911F910F91A0
:100EB000FF90EF90DF90CF90BF90AF909F908F907A
:100EC0007F906F905F904F903F902F90089520916A
:100ED000F7023091F80228173907B9F49091B5025A
:100EE0008091B602981789F0E091B502F0E0E954DC
:100EF000FD4F80812091B50230E02F5F3F4F2F736F
:100F000033272093B50290E008958FEF9FEF089567
:100F10001F93CF93DF93DC015C968D919C915D973D
:100F2000009749F481E090E013969C938E9312977A
:100F300080E090E03BC05196ED91FC915297509625
:100F40002C915097322F30951FB75E964C915E973B
:100F500041FB772770F941FD6095F8944081772334
:100F600011F0422B01C043234083EC012197F1F79C
:100F700048E0508160FF02C0522B01C053235083D0
:100F8000EC012197F1F76695415099F7808177231D
:100F900011F0832301C0822B80831FBF5C968D914B
:100FA0009C915D970197F1F781E090E0DF91CF91FF
:100FB0001F91089508952091F7023091F8022817A3
:100FC000390771F49091B5028091B602981741F0FB
:100FD000E091B502F0E0E954FD4F808190E0089582
:100FE0008FEF9FEF08952091F7023091F8022817B4
:100FF000390771F48091B6022091B50290E0805CCF
:101000009F4F821B910960E470E00E94461D089585
:1010100080E090E00895E091F702F091F802E8177F
:10102000F90769F4A389B4899C91858980958923FE
:101030008C931092F8021092F70281E0089580E0FC
:101040000895CF93DF93EC018A8D9B8D892BF1F06E
:101050008091F7029091F8028C179D07B9F00097E4
:1010600011F00E940B088E8D8E7F8E8F1092B6022B
:101070001092B502D093F802C093F702EB89FC8975
:1010800080819D89892B808381E001C080E0DF9190
:10109000CF9108951F920F920FB60F9211242F93A4
:1010A0003F934F935F936F937F938F939F93AF93F0
:1010B000BF93EF93FF93E091F702F091F80230971E
:1010C00009F451C0868DA685B785958581FF04C03A
:1010D0008C91892329F447C08C91892309F043C05E
:1010E000A389B4899C918589809589238C9386896D
:1010F00097890197F1F7208D318DA685B785758584
:1011000058E040E0C9010197F1F7842F90E09595F0
:101110008795482F6C91672309F04068515091F7EB
:10112000868D81FD40958091B60290E001968F7387
:1011300099272091B502281749F0A091B602B0E096
:10114000A954BD4F4C938093B60203C0868D816035
:10115000868F828D938D0197F1F7A389B4898C9145
:101160009589892B8C93FF91EF91BF91AF919F91BE
:101170008F917F916F915F914F913F912F910F9040
:101180000FBE0F901F90189520E731E0FC013183CE
:1011900020830C940B081F93CF93DF93EC01162F41
:1011A0006E8D6695617081E06827812F0E942F17F0
:1011B00061E0812F0E94F616812F90E0FC01E85338
:1011C000FF4FE491E88BFC01E452FF4FE491F0E023
:1011D000EE0FFF1FE650FF4F859194919A8B898BFC
:1011E000DF91CF911F9108951F93CF93DF93EC016F
:1011F000162F60E0812F0E94F6168E8D81FD04C0AF
:1012000061E0812F0E942F171C87812F90E0FC0145
:10121000E853FF4FE491ED87FC01E452FF4FE49166
:10122000F0E0EE0FFF1FE051FF4F859194919F87F3
:101230008E87DF91CF911F910895FF920F931F9397
:10124000CF93DF93EC01F62E522F1B821A8208EE09
:1012500013E020E030E00C831D832E833F8380E782
:1012600091E0998388831F8A1E8A198E188E1B8E9F
:101270001A8E1D8E1C8E8E8D8E7F50FB81F98E8F67
:10128000642FCE010E94CB086F2DCE01DF91CF914C
:101290001F910F91FF900C94F408CF93DF93EC0112
:1012A0009A01AB011B8E1A8E198E188E1F8A1E8A08
:1012B00060E079E08DE390E00E947C1DC90124305C
:1012C000310520F0B9016350710902C061E070E09E
:1012D0007D8F6C8FEC85E63108F068C0B90176959A
:1012E00067956431710518F06351710902C061E0BE
:1012F00070E07F8B6E8B069718F0C901059702C0CE
:1013000081E090E0998F888FC901880F991F820F23
:10131000931F96958795969587958D30910510F03A
:101320000C9702C081E090E09B8F8A8F209168002B
:10133000E83050F091E0EE3008F490E081E001C038
:10134000880F9A95EAF701C084E0822B80936800A9
:101350002C85283038F02E3040F0263148F48CE6C9
:1013600090E008C08DE690E005C08BE690E002C0FA
:1013700080E090E09C8B8B8B283030F481E001C0C2
:10138000880F2A95EAF70DC0822F90E02E3010F4D6
:10139000089701C00E9791E001C0990F8A95EAF76E
:1013A000892F8D8B8C8D9D8D0197F1F7CE01DF916B
:1013B000CF910C942108CF93DF931F92CDB7DEB766
:1013C0006983DC01ED91FC910280F381E02D41E025
:1013D00050E0BE016F5F7F4F09950F90DF91CF9175
:1013E0000895CF93DF93EC01898D9A8D009759F082
:1013F000FC01138212820E944D0FE98DFA8D228129
:101400003381232B31F081E090E09B838A8380E05D
:1014100090E0DF91CF910895FC01818D928D00972E
:1014200011F00C94060F0895CF93DF931F92CDB760
:10143000DEB741E050E0BE016F5F7F4F0E94620D5A
:10144000019719F4898190E002C08FEF9FEF0F9010
:10145000DF91CF910895FC01818D928D009711F05D
:101460000C94140A8FEF9FEF08950F931F93CF935F
:10147000DF938C01FC01818D928D0097B9F00E9461
:10148000140AEC018F3FFFEF9F0799F0F801818D5F
:10149000928DFC01428553856485758541505109C3
:1014A000610971090E946A0ECE0105C080E090E0DA
:1014B00002C08FEF9FEFDF91CF911F910F910895A1
:1014C000FC011382128248EE53E060E070E0448336
:1014D00055836683778380E891E091838083128EC1
:1014E000118E14860895DC015996ED91FC915A975E
:1014F000309729F0628573858485958508956FEF0F
:101500007FEFCB010895DC015996ED91FC915A973C
:10151000309729F06389748985899689089560E0F8
:1015200070E0CB010895CF92DF92EF92FF92CF93BC
:10153000DF93EC01898D9A8D892BD9F0CE010E9421
:10154000830A6B017C01CE010E94730AA7019601F8
:10155000261B370B480B590BDA01C901811530E8FE
:101560009307A105B10538F08FEF9FE7A0E0B0E049
:1015700002C080E090E0DF91CF91FF90EF90DF908C
:10158000CF9008951092FE021092FF021092020373
:101590001092040382E090E0A0E0B0E080930503A5
:1015A00090930603A0930703B093080310921C03C3
:1015B000109226031092250380E991E09093240372
:1015C000809323031092280308959FB7F8942091E5
:1015D000B4028091B202213019F48DBB9FBF0895EF
:1015E0008FBF08952091B402222399F03FB7F89459
:1015F0002091B402213059F42DB32093B2024DB39F
:101600002091B302209524232DBB3FBF02C030930D
:10161000B2028CBD9DBD08958EBD00000DB407FEC5
:10162000FDCF8EB508958FEF0C940C0B61E0FC019B
:1016300084810E942F1780914203882339F01092F1
:1016400042038091B40281110C94E50A0895CF936E
:10165000DF93EC0180914203811109C081E0809306
:10166000420380914303909144030E94F20A60E098
:101670008C81DF91CF910C942F17CF93DF93EC01E6
:101680008E81882389F08F8198859C012F5F3F4F41
:1016900038872F838230924018F40E94130BF3CFC7
:1016A000CE010E94160B1E82DF91CF9108950F93F9
:1016B0001F93CF93DF93EB010E9463168B010E946F
:1016C000130B8F3F49F00E946316601B710B6C1760
:1016D0007D07A8F380E001C081E0DF91CF911F91E9
:1016E0000F910895CF92DF92FF920F931F93CF93A4
:1016F000DF9300D000D0CDB7DEB76C01F62E298382
:101700003A834B835C830E943D0BC6010E94270BEA
:101710006CE271E0C6010E94570B8F2D80640E941D
:101720000C0B08E110E05C814B813A812981DA01E0
:10173000C901002E04C0B695A795979587950A9480
:10174000D2F729833A834B835C830E940C0B0850A9
:10175000110929813A814B815C81083F8FEF18077D
:1017600031F7FF2029F0E8E0FE1621F08FEF03C0EB
:1017700085E901C087E80E940C0B10E00E94130B62
:10178000F601828787FF04C01F3F11F01F5FF6CF6D
:101790000F900F900F900F90DF91CF911F910F91AD
:1017A000FF90DF90CF9008950F931F93CF93DF9317
:1017B000EC010E9463168B010E94130B8A878F3FF6
:1017C00049F40E946316601B710B6D327140A0F3E7
:1017D0008FE003C08E3F39F08DE08D83CE010E94F3
:1017E000160B80E001C081E0DF91CF911F910F9136
:1017F0000895CF92DF92EF92FF920F931F93CF93B2
:10180000DF93EC0169010115110509F462C0C801FB
:10181000820F931F8130924008F05DC08E81882333
:1018200071F088819981AA81BB81481759076A079D
:101830007B0729F48F819885C816D90610F548834F
:1018400059836A837B838B85833039F039E0440F79
:10185000551F661F771F3A95D1F79A01AB0161E1D9
:10186000CE010E94720B882319F083E08D8333C070
:10187000CE010E94D40B882371F118861F8281E06B
:101880008E838F8198858C159D0540F40E94130BE3
:101890008F819885019698878F83F3CF6701E00E3B
:1018A000F11ECE14DF0431F00E94130BF601819378
:1018B0006F01F7CF8F819885800F911F98878F8355
:1018C0002985222319F08115924018F0CE010E943B
:1018D0003D0B81E004C0CE010E94160B80E0DF9139
:1018E000CF911F910F91FF90EF90DF90CF900895CF
:1018F000EF92FF920F931F93790100E012E020E036
:1019000030E00E94F90B1F910F91FF90EF90089526
:10191000CF92DF92EF92FF920F931F93CF93DF93BB
:1019200000D0CDB7DEB78C01862F49835A830E9441
:101930000C0B4981C42E5A81D52EE12CF12CF601D5
:1019400081916F010E940C0BFFEFEF1AFF0AE11467
:1019500082E0F806A1F78FEF0E940C0B8FEF0E9438
:101960000C0B0E94130BF80182878F71853039F0C0
:1019700081E18583C8010E94160B80E001C081E0EF
:101980000F900F90DF91CF911F910F91FF90EF90EB
:10199000DF90CF9008950F931F93CF93DF93EC01C7
:1019A0008901411551056105710511F482E132C0CB
:1019B0008B85833039F089E0440F551F661F771FF0
:1019C0008A95D1F79A01AB0168E1CE010E94720BB2
:1019D000882311F084E01EC0A8016EEFCE010E94A2
:1019E000880C8823C1F068E572E0CE010E94570B95
:1019F000811102C085E10EC020E030E0A9016DE058
:101A0000CE010E94720B811104C00E94130B882327
:101A100039F084E18D83CE010E94160B80E004C072
:101A2000CE010E94160B81E0DF91CF911F910F91A3
:101A3000089580E580934303109244030895CF9363
:101A4000DF93EC019C012A5F3F4F41E050E060E0F2
:101A500070E08B8D9C8D0E9498128823A1F04F8995
:101A6000588D698D7A8D452B462B472B71F44E810D
:101A70005F81688579854F8B588F698F7A8F8C81CC
:101A800080688C8302C080E001C081E0DF91CF914B
:101A90000895CF93DF93EC01462F6E857F8588896B
:101AA00099890E943811882341F08A8920E2829F17
:101AB000C0011124825B9C4F02C080E090E0DF9166
:101AC000CF9108952F923F924F925F926F927F92A3
:101AD0008F929F92AF92BF92CF92DF92EF92FF923E
:101AE0000F931F93CF93DF93EC016B015A018D810C
:101AF000811103C08FEF9FEFDAC08C8180FFFACF96
:101B00004B895C896D897E898A859B85AC85BD857D
:101B10002501612C712C8A019B01081B190B2A0BD2
:101B20003B0B041515052605370518F45A01A81AAC
:101B3000B90A25011E0126E0220E311C4114510470
:101B400009F47BC04A855B856C857D854A0181E00F
:101B50009822ED818A019B01F9E03695279517952A
:101B60000795FA95D1F78B8D9C8DE23051F4FC01ED
:101B7000628D738D848D958D600F711F821F931FF1
:101B80003EC0FC0174807A94702281149104C9F4DF
:101B9000711017C0452B462B472B49F48F89988D20
:101BA000A98DBA8D8E839F83A887B9870AC04E817D
:101BB0005F816885798591010E947311882309F4FA
:101BC00099CFEB8DFC8D6E817F81888599856250E0
:101BD000710981099109058404C0660F771F881F68
:101BE000991F0A94D2F70685178520893189600FDD
:101BF000711F821F931F670D711D811D911D20E0B4
:101C000032E02819390932012415350508F4390163
:101C10002C8126FD04C06114F2E07F06A1F500913D
:101C200008011091090120910A0130910B01601700
:101C300071078207930719F426C0C50138C07601E1
:101C400083019401AB01BC0180914C0390914D0341
:101C50000E94F90B882309F44DCFC60CD71C04C091
:101C6000E81BF90BCE0EDF1E8A859B85AC85BD85F2
:101C7000860D971DA11DB11D8A879B87AC87BD87E7
:101C8000461857085BCF40E00E943811882309F4BA
:101C900031CFC401825B9C4FD6019C01260D371DBC
:101CA000FC01E217F307E1F241914D93FACFDF9186
:101CB000CF911F910F91FF90EF90DF90CF90BF9049
:101CC000AF909F908F907F906F905F904F903F90DC
:101CD0002F9008954F925F926F927F92AF92BF9232
:101CE000CF92DF92EF92FF920F931F93CF93DF93E8
:101CF000EC016A017B012D81222309F457C08B89F5
:101D00009C89AD89BE8984179507A607B70708F493
:101D10004DC04EC08A859B85AC85BD85EB8DFC8D05
:101D2000E585F0E03996AC01BD01415051096109EA
:101D300071090E2E04C076956795579547950A94BC
:101D4000D2F797018601015011092109310904C018
:101D50003695279517950795EA95D2F70417150735
:101D600026073707B0F58F89988DA98DBA8D8E8398
:101D70009F83A887B987280139015E0186E0A80EF4
:101D8000B11C411451046104710461F14E815F8101
:101D90006885798595018B8D9C8D0E94731191E0EA
:101DA000491A5108610871088111EBCF80E01FC00A
:101DB0002230C1F0C114D104E104F10409F0AACF2A
:101DC0001E821F82188619861A861B861C861D860F
:101DD0000DC0892B8A2B8B2B31F2041B150B260B84
:101DE000370BC9CFCA86DB86EC86FD8681E0DF91A2
:101DF000CF911F910F91FF90EF90DF90CF90BF9008
:101E0000AF907F906F905F904F9008950F931F93C6
:101E1000CF93DF93EC018D818823C9F18C8187FFFB
:101E200030C061E0CE010E94490D8C01009779F12C
:101E30008D81823048F44B895C896D897E89F801F7
:101E4000448F558F668F778F4F89588D698D7A8D26
:101E5000F801538F428F758B648BE0914503F091AD
:101E60004603309759F0B8016A5E7F4FC801489623
:101E70000995F801808D918D938B828B8C818F7762
:101E80008C83DF91CF911F910F910C94FD1080E016
:101E9000DF91CF911F910F9108952F923F924F9212
:101EA0005F926F927F928F929F92AF92BF92CF92EA
:101EB000DF92EF92FF920F931F93CF93DF9300D0A7
:101EC00000D01F92CDB7DEB78C017B013A01DC0157
:101ED00015968C9115978130C9F414968C9181FFD9
:101EE00015C082FF1BC0F801438954896589768932
:101EF00082859385A485B58584179507A607B707BE
:101F000069F0C8010E946A0E811108C081E090E06A
:101F1000F8019383828380E090E046C1630180C032
:101F2000D8015B968D919C915C97FC01F481F150F6
:101F3000B501A40129E076956795579547952A95AF
:101F4000D1F7F423FD8321E09222FF2309F474C02A
:101F500080E092E08819990956018C159D0508F4D6
:101F60005C01D8015B96ED91FC915C9716962D90E3
:101F70003D904D905C901997B2E02B1A31084108C2
:101F80005108058404C0220C331C441C551C0A94BF
:101F9000D2F786859785A089B189280E391E4A1EF9
:101FA0005B1EED812E0E311C411C511CA114F2E070
:101FB000BF0609F088C08091080190910901A091A5
:101FC0000A01B0910B0182159305A405B50559F4DA
:101FD0008FEF9FEFDC018093080190930901A0939C
:101FE0000A01B0930B019701B201A10180914C034A
:101FF00090914D030E94CB0C882309F487CF9EEF6C
:10200000F91ACA18DB08F80182859385A485B5857D
:102010008A0D9B1DA11DB11D82879387A487B5875B
:10202000D8011A968D909D90AD90BC901D97C114CB
:10203000D10409F075CF8AC08114910409F088CFCA
:1020400016964D915D916D917C91199741155105B1
:102050006105710559F457968D919D910D90BC9134
:10206000A02D0097A105B10541F521C09E012F5F6C
:102070003F4F0E947311882309F44ECF89819A81C2
:10208000AB81BC81F801238D348DF9012789203182
:1020900029F448EF5FEF60E070E004C048EF5FEFC5
:1020A0006FEF7FE084179507A607B70730F0C801E8
:1020B0000E941F0D81114CCF29CFF8018683978391
:1020C000A087B18745CF8114910429F5D8011A96CC
:1020D0004D915D916D917C911D9753968D919D9140
:1020E0000D90BC91A02D481759076A077B0798F0FF
:1020F0000E94FD10882309F409CF20920801309234
:10210000090140920A0150920B0180914B038160BA
:1021100080934B0308C041E0C201B1010E94381115
:10212000882309F4F3CEC401825B9C4FD7019C0144
:102130002A0D3B1DFC01E217F30719F04D91419365
:10214000FACFE81BF90BEE0EFF1E5BCF53968D9175
:102150009D910D90BC91A02DF801248188159905C1
:10216000AA05BB0538F4838A948AA58AB68A2068B2
:1021700024830CC08091450390914603892B31F054
:102180006114710419F02068F8012483D8011496B1
:102190008C9183FD02C0C30107C0C8010E94060FD5
:1021A000882309F4B3CEF7CF0F900F900F900F90C4
:1021B0000F90DF91CF911F910F91FF90EF90DF90E3
:1021C000CF90BF90AF909F908F907F906F905F90D7
:1021D0004F903F902F900895CF93DF931F92CDB7EC
:1021E000DEB7698341E050E0BE016F5F7F4F0E9420
:1021F0004D0F0F90DF91CF91089580914B0388236D
:1022000099F1409108015091090160910A01709182
:102210000B012EE433E080914C0390914D030E941A
:10222000CB0C882319F140914703509148036091EA
:10223000490370914A03411551056105710591F0FB
:102240002EE433E080914C0390914D030E94CB0C1F
:10225000882361F0109247031092480310924903BB
:1022600010924A0310924B0381E0089580E0089594
:10227000CF92DF92EF92FF92CF936B017C01C42F3C
:102280008091080190910901A0910A01B0910B0180
:102290008C159D05AE05BF05D1F00E94FD10811182
:1022A00002C080E01AC02EE433E0B701A60180919D
:1022B0004C0390914D030E94780C882391F3C092B7
:1022C0000801D0920901E0920A01F0920B0180917D
:1022D0004B038C2B80934B0381E0CF91FF90EF90C9
:1022E000DF90CF9008958F929F92AF92BF92CF923E
:1022F000DF92EF92FF920F931F93CF93DF938C01A6
:102300006A017B01E901FC0181859285A385B48581
:102310000196A11DB11D84179507A607B70710F4F4
:1023200080E058C0F8014389548965897689878996
:10233000803129F4BB27AF2D9E2D8D2D09C0D701EB
:10234000C60127E0B695A795979587952A95D1F769
:102350004C015D01840E951EA61EB71EC501B40179
:102360008090080190900901A0900A01B0900B01A3
:10237000681579058A059B0589F4F80187898031FC
:1023800099F4DD24EE24FF24F601EE0FFF1FE25B3B
:10239000FC4F80819181A0E0B0E017C040E00E9436
:1023A00038118111EACFBCCFE894C7F8DD24EE24C0
:1023B000FF24F601EE0FFF1FEE0FFF1FE25BFC4F45
:1023C00080819181A281B381BF7088839983AA8320
:1023D000BB8381E0DF91CF911F910F91FF90EF9030
:1023E000DF90CF90BF90AF909F908F9008954F92C5
:1023F0005F926F927F928F929F92AF92BF92CF9295
:10240000DF92EF92FF920F931F93CF93DF93EC0134
:102410006A017B01280139014230510561057105CE
:1024200008F474C049855A856B857C854F5F5F4F82
:102430006F4F7F4F4C155D056E057F0508F466C034
:102440008B889C88AD88BE888F89803129F4772756
:102450006F2D5E2D4D2D09C0B701A601E7E07695E1
:10246000679557954795EA95D1F7840E951EA61E58
:10247000B71E409108015091090160910A017091C5
:102480000B0184169506A606B70671F48F89803174
:1024900099F4DD24EE24FF24F601EE0FFF1FE25B2A
:1024A000FC4F5182408218C040E0C501B4010E9437
:1024B00038118111EBCF2AC0E894C7F8DD24EE244F
:1024C000FF24F601EE0FFF1FEE0FFF1FE25BFC4F34
:1024D000408251826282738280914B03816080933B
:1024E0004B038A89823080F08D819E81AF81B885CF
:1024F000880D991DAA1DBB1D809347039093480327
:10250000A0934903B0934A0381E001C080E0DF91CA
:10251000CF911F910F91FF90EF90DF90CF90BF90E0
:10252000AF909F908F907F906F905F904F900895A5
:102530002F923F924F925F926F927F929F92AF92B3
:10254000BF92CF92DF92EF92FF920F931F93CF93A0
:10255000DF93CDB7DEB760970FB6F894DEBF0FBE3E
:10256000CDBF5C014D875E876F87788B1901D901DC
:102570004D905D906D907C90411451046104710404
:1025800031F0BFEF4B1A5B0A6B0A7B0A10C0FC01EB
:102590004080518062807380992493940D851E85BC
:1025A0002F853889013011052105310509F0912C5D
:1025B000D50119962D913D914D915C911C972F5FFE
:1025C0003F4F4F4F5F4F29873A874B875C87730197
:1025D00062011D821E821F821886F5018185928507
:1025E000A385B4850D811E812F81388508171907B1
:1025F0002A073B0708F056C029853A854B855C853C
:102600002C153D054E055F0550F4A2E0CA2ED12CD5
:10261000E12CF12CB2E04B2E512C612C712C9E013F
:102620002F5F3F4FB701A601C5010E947311882398
:10263000C9F149815A816B817C81D701C60101961C
:10264000A11DB11D452B462B472B19F02C013D0137
:102650000FC0AC01BD0144195509660977090D8504
:102660001E852F853889401751076207730779F057
:102670002D813E814F8158852F5F3F4F4F4F5F4FD8
:102680002D833E834F8358876C017D01A6CF0FEFCA
:102690001FEF2FEF3FE0B701A601C5010E94F71120
:1026A000811118C080E041C0D701C6010197A1097E
:1026B000B1098D839E83AF83B88797018601AC01F2
:1026C000BD01C5010E94F711882361F3CD80DE8032
:1026D000EF80F8844C145D046E047F0428F3D1016C
:1026E0004D915D916D917C9141155105610571058B
:1026F00099F4F10140825182628273829920A1F0A3
:10270000FFEF4F1A5F0A6F0A7F0AD5014D925D9263
:102710006D927C92139708C093018201C5010E94BB
:10272000F7118111E6CFBECF81E060960FB6F89425
:10273000DEBF0FBECDBFDF91CF911F910F91FF90F4
:10274000EF90DF90CF90BF90AF909F907F906F9071
:102750005F904F903F902F900895CF93DF93EC01BF
:1027600088859985009711F00E94531E8E8187FD00
:1027700005C060E0DF91CF910C94F616DF91CF9108
:102780000895CF93DF93EC018E8187FD07C061E050
:102790000E94F61660E08E810E942F1781E08983E7
:1027A000DF91CF910895EF92FF920F931F93CF93F4
:1027B000DF93EC017B0188859985009711F00E94D9
:1027C000531E9D858A85981303C083E090E002C064
:1027D00084E090E08E9D80018F9D100D9E9D100DD8
:1027E00011241D830C83C8010E94BB1D9987888713
:1027F000009741F0A80160E070E00E942220FB8277
:10280000EA8204C01D821C821B821A82DF91CF9152
:102810001F910F91FF90EF900895FC0121E09585A5
:102820008285981320E0CB0136E0969587953A95FE
:10283000E1F7482F43704587CB0154E09695879583
:102840005A95E1F7382F33703287CB0196958795EB
:102850009695879583708387862F8370848781E020
:102860006F3F710511F008F080E0808380859185CD
:10287000892B51F091E0431390E0921729F0628187
:102880007381CF010C94D3130895CF92DF92EF920E
:10289000FF920F931F93CF93DF93CDB7DEB72997A6
:1028A0000FB6F894DEBF0FBECDBF8C01DC011896C9
:1028B0008D919C911997892B09F49AC00E946F16EB
:1028C000F801C684D784E088F1886C197D098E09E7
:1028D0009F09623371058105910580F3F894848125
:1028E00095819A838983A085B1857D01EFEFEE1AEA
:1028F000FE0A8C918987D8019C9152960D90BC91CB
:10290000A02DF8018489992309F42EC09C91982B5D
:1029100098879C91809589238F838F818E8388E00F
:102920008D8358856F8149853D812E8189819A816A
:10293000F7015C9347FD252F3A952C93262F39F00C
:10294000441F00C000006C93000000C0F2CF38E0CC
:1029500041916C930000019761F7F801B38BA28B52
:1029600049873D832E8338C09C91982B98879C91F2
:10297000809589238F838F818C8388E08B83588512
:102980006F8149853B812C8189819A81F7015C9314
:1029900047FD252F00C000C02C9300C000C000C020
:1029A00000C000C06C930000262F3A9541F0441FF0
:1029B000000000C000C000C000C000C0E8CF38E088
:1029C000419100C06C9300C0019709F7F801B38BE7
:1029D000A28B49873B832C839A83898378940E94B6
:1029E0006F16D8011E966D937D938D939C9351978E
:1029F00029960FB6F894DEBF0FBECDBFDF91CF9101
:102A00001F910F91FF90EF90DF90CF9008951F934B
:102A1000CF93DF93EC01162F8981882331F08E81CB
:102A200087FD03C060E00E94F6161E83898188231B
:102A300041F061E0812F0E94F61660E0812F0E9434
:102A40002F17812F90E0FC01E452FF4FE491F0E05A
:102A5000EE0FFF1FE650FF4F259134913B8B2A8BE1
:102A6000FC01E853FF4F84918C8BDF91CF911F9134
:102A70000895EF92FF920F931F93CF93DF931F92CE
:102A8000CDB7DEB77C018B01FC0111821782118664
:102A9000108616861786108A118AB90149830E940A
:102AA0000D14B801C7010E94D3134981642FC701D7
:102AB0000F90DF91CF911F910F91FF90EF900C94A9
:102AC0000715CF92DF92EF92FF920F931F93CF9350
:102AD000DF93FC01828193816817790708F04DC06C
:102AE000CA01AA27BB27182FC32ED42EE52EFF24F8
:102AF000DC2DC22F0781002361F0809FC0011124CB
:102B0000192FC09E60011124DD2D209FC0011124CA
:102B1000C92FF5848285A085B185F81208C0CB0144
:102B2000880F991F860F971F8A0F9B1F17C0CB0115
:102B3000880F991F880F991F8A0F9B1F452F5527B4
:102B400066277727DC01AF0DB11D002329F0409FD8
:102B500090011124232F01C0242F2C932285DC0106
:102B6000A20FB11D1C932385DC01A20FB11DDC93C4
:102B70002485FC01E20FF11DC083DF91CF911F91ED
:102B80000F91FF90EF90DF90CF900895962F50E037
:102B900060E070E0592B682BCB01BA010895FF92D9
:102BA0000F931F93CF93DF93EC01FF24F394F60E62
:102BB0002F81F21679F1088519852150B9F06F3F00
:102BC00059F430E040E050E06FEF7FEF80E090E0BC
:102BD0000E947C1DB9010CC08F2D90E0982F882792
:102BE0000197622F70E00E94321D02C060E070E029
:102BF000F8018C819D81AF01401B510B481759078B
:102C000040F44081469FC001479F900D112491934D
:102C1000F0CFFF82DF91CF911F910F91FF90089528
:102C2000FC014481558160E070E0808591850C94C1
:102C300022201F920F920FB60F9211242F933F93D1
:102C40008F939F93AF93BF9380914F0590915005C1
:102C5000A0915105B091520530914E0523E0230F0C
:102C60002D3720F40196A11DB11D05C026E8230FC4
:102C70000296A11DB11D20934E0580934F059093A0
:102C80005005A0935105B093520580915305909142
:102C90005405A0915505B09156050196A11DB11D91
:102CA0008093530590935405A0935505B093560512
:102CB000BF91AF919F918F913F912F910F900FBE38
:102CC0000F901F9018952FB7F89460914F05709151
:102CD000500580915105909152052FBF08953FB73F
:102CE000F8948091530590915405A0915505B091A9
:102CF000560526B5A89B05C02F3F19F00196A11DCA
:102D0000B11D3FBF6627782F892F9A2F620F711D43
:102D1000811D911D42E0660F771F881F991F4A95FC
:102D2000D1F70895789484B5826084BD84B58160BC
:102D300084BD85B5826085BD85B5816085BDEEE6C3
:102D4000F0E0808181608083E1E8F0E010828081A2
:102D500082608083808181608083E0E8F0E0808110
:102D600081608083E1EBF0E0808184608083E0EB30
:102D7000F0E0808181608083EAE7F0E08081846018
:102D80008083808182608083808181608083808174
:102D9000806880831092C1000895833081F028F408
:102DA000813099F08230A1F008958730A9F0883001
:102DB000B9F08430D1F4809180008F7D03C0809180
:102DC00080008F7780938000089584B58F7702C04C
:102DD00084B58F7D84BD08958091B0008F7703C046
:102DE0008091B0008F7D8093B0000895CF93DF93E2
:102DF00090E0FC01E853FF4F2491FC01E452FF4FA7
:102E00008491882349F190E0880F991FFC01EC5FC1
:102E1000FE4FA591B49186509F4FFC01C591D4916E
:102E20009FB7611108C0F8948C91209582238C93F0
:102E3000888182230AC0623051F4F8948C91322F39
:102E4000309583238C938881822B888304C0F894E7
:102E50008C91822B8C939FBFDF91CF9108950F931C
:102E60001F93CF93DF931F92CDB7DEB7282F30E0AB
:102E7000F901EC54FF4F8491F901E853FF4F14918D
:102E8000F901E452FF4F04910023C9F0882321F097
:102E900069830E94CD166981E02FF0E0EE0FFF1FDD
:102EA000E650FF4FA591B4919FB7F8948C916111B2
:102EB00003C01095812301C0812B8C939FBF0F907D
:102EC000DF91CF911F910F910895CF93DF93282F1A
:102ED00030E0F901EC54FF4F8491F901E853FF4FC2
:102EE000D491F901E452FF4FC491CC2391F08111A8
:102EF0000E94CD16EC2FF0E0EE0FFF1FE051FF4FC8
:102F0000A591B4912C912D2381E090E021F480E0F3
:102F100002C080E090E0DF91CF910895FC01818DA7
:102F2000228D90E0805C9F4F821B91098F739927BF
:102F30000895FC01918D828D981731F0828DE80FF4
:102F4000F11D858D90E008958FEF9FEF0895FC01AE
:102F5000918D828D981761F0828DDF01A80FB11DD0
:102F60005D968C91928D9F5F9F73928F90E00895F4
:102F70008FEF9FEF08958BE299E1892B49F080E074
:102F800090E0892B29F00E942B1981110C940000EC
:102F90000895FC01848DDF01A80FB11DA35ABF4F16
:102FA0002C91848D90E001968F739927848FA68948
:102FB000B7892C93A089B1898C9180648C93938D6F
:102FC000848D981306C00288F389E02D80818F7D5F
:102FD00080830895CF93DF93EC01888D8823C9F017
:102FE000EA89FB89808185FD05C0A889B9898C9112
:102FF00086FD0FC00FB607FCF5CF808185FFF2CFAD
:10300000A889B9898C9185FFEDCFCE010E94C9179F
:10301000E7CFDF91CF910895CF92DF92FF920F9388
:103020001F93CF93DF931F92CDB7DEB76C0181E082
:10303000D60158968C9358975B969C915B975C96BB
:103040008C915C97981307C05096ED91FC91519725
:10305000808185FD2EC0F601038D10E00F5F1F4FAC
:103060000F731127F02EF601848DF81211C00FB6E0
:1030700007FCF9CFD6015096ED91FC9151978081D4
:1030800085FFF1CFC60169830E94C9176981EBCF23
:10309000838DE80FF11DE35AFF4F6083D6015B96E5
:1030A0000C935B975296ED91FC91539780818062CF
:1030B0000CC0D6015696ED91FC91579760835096BF
:1030C000ED91FC91519780818064808381E090E054
:1030D0000F90DF91CF911F910F91FF90DF90CF90D4
:1030E0000895BF92CF92DF92EF92FF92CF93DF933A
:1030F000EC016A017B01B22EE889F98982E08083C4
:10310000411581EE580761057105A1F060E079E095
:103110008DE390E0A70196010E945A1D21503109CC
:10312000410951095695479537952795211580E115
:10313000380798F0E889F989108260E874E88EE130
:1031400090E0A70196010E945A1D215031094109C2
:1031500051095695479537952795EC85FD85308320
:10316000EE85FF852083188EEC89FD89B082EA897F
:10317000FB89808180618083EA89FB898081886006
:103180008083EA89FB89808180688083EA89FB8962
:1031900080818F7D8083DF91CF91FF90EF90DF90D2
:1031A000CF90BF9008951F920F920FB60F921124E7
:1031B0002F938F939F93EF93FF93E0916705F09187
:1031C00068058081E0916D05F0916E0582FD12C069
:1031D0009081809170058F5F8F73209171058217A8
:1031E00051F0E0917005F0E0E95AFA4F958F809325
:1031F000700501C08081FF91EF919F918F912F9178
:103200000F900FBE0F901F9018951F920F920FB640
:103210000F9211242F933F934F935F936F937F935C
:103220008F939F93AF93BF93EF93FF9387E595E0C1
:103230000E94C917FF91EF91BF91AF919F918F911C
:103240007F916F915F914F913F912F910F900FBEA2
:103250000F901F90189587E595E00E948E1721E04A
:10326000892B09F420E0822F089510925A051092BC
:10327000590588EE93E0A0E0B0E080935B05909361
:103280005C05A0935D05B0935E0588E991E090939D
:1032900058058093570585EC90E0909364058093E2
:1032A000630584EC90E0909366058093650580EC5F
:1032B00090E0909368058093670581EC90E090938F
:1032C0006A058093690582EC90E090936C05809389
:1032D0006B0586EC90E090936E0580936D051092DF
:1032E0007005109271051092720510927305089581
:1032F00008950E9492160E9478190E947B05CBEBDC
:10330000D7E10E9436062097E1F30E94BB17F9CF60
:10331000CF92DF92EF92FF920F931F93CF93DF93A1
:103320007C016A01EB0100E010E00C151D0571F055
:103330006991D701ED91FC910190F081E02DC701D9
:103340000995892B19F00F5F1F4FEFCFC801DF914F
:10335000CF911F910F91FF90EF90DF90CF90089544
:103360006115710581F0DB010D900020E9F7AD01D9
:1033700041505109461B570BDC01ED91FC91028035
:10338000F381E02D099480E090E0089564EA71E013
:103390000C94B0190F931F93CF93DF93EC010E940D
:1033A000B0198C01CE010E94C619800F911FDF91C8
:1033B000CF911F910F9108955058BB27AA270ED087
:1033C00027C2F0D130F0F5D120F031F49F3F11F455
:1033D0001EF4C0C10EF4E095E7FBB6C1E92F3AD266
:1033E00080F3BA17620773078407950718F071F422
:1033F0009EF552C20EF4E0950B2EBA2FA02D0B01B4
:10340000B90190010C01CA01A0011124FF27591B29
:1034100099F0593F50F4503E68F11A16F040A22F2F
:10342000232F342F4427585FF3CF469537952795A0
:10343000A795F0405395C9F77EF41F16BA0B620B9F
:10344000730B840BBAF09150A1F0FF0FBB1F661FE6
:10345000771F881FC2F70EC0BA0F621F731F841F29
:1034600048F4879577956795B795F7959E3F08F04F
:10347000B3CF9395880F08F09927EE0F979587950E
:10348000089590D158F080E891E009F49EEF91D131
:1034900028F040E851E059F45EEF09C05BC1FCC17F
:1034A000E92FE078D7D168F3092E052AC1F3261752
:1034B00037074807590738F00E2E07F8E02569F05E
:1034C000E025E0640AC0EF6307F8009407FADB0127
:1034D000B9019D01DC01CA01AD01EF934AD098D139
:1034E0000AD05F91552331F02BED3FE049E450FDC8
:1034F00049EC63CF0895DF93DD27B92FBF7740E80C
:103500005FE31616170648075B0710F4D92FCFD1D3
:103510009F938F937F936F937CD2E8E6F0E01DD169
:1035200077D12F913F914F915F91D4D1DD2349F015
:103530009058A2EA2AED3FE049EC5FE3D0785D279E
:103540004DDFDF9165C1DCD008F481E0089539D109
:10355000E3956FC10CD05CC12CD140F023D130F089
:1035600021F45F3F19F0F0C0511197C1F3C072D13F
:1035700098F39923C9F35523B1F3951B550BBB273A
:10358000AA2762177307840738F09F5F5F4F220FE7
:10359000331F441FAA1FA9F333D00E2E3AF0E0E8E0
:1035A00030D091505040E695001CCAF729D0FE2F2C
:1035B00027D0660F771F881FBB1F261737074807BE
:1035C000AB07B0E809F0BB0B802DBF01FF27935874
:1035D0005F4F2AF09E3F510568F0B6C05EC15F3F65
:1035E000ECF3983EDCF3869577956795B795F7955C
:1035F0009F5FC9F7880F911D9695879597F9089554
:10360000E1E0660F771F881FBB1F621773078407EF
:10361000BA0720F0621B730B840BBA0BEE1F88F7FE
:10362000E095089504D06894B11137C108951AD176
:1036300088F09F5790F0B92F9927B751A0F0D1F09B
:10364000660F771F881F991F1AF0BA95C9F712C025
:10365000B13081F021D1B1E008951EC1672F782FDC
:103660008827B85F39F0B93FCCF386957795679591
:10367000B395D9F73EF490958095709561957F4FFD
:103680008F4F9F4F0895E89409C097FB3EF49095A3
:103690008095709561957F4F8F4F9F4F9923A9F02B
:1036A000F92F96E9BB279395F695879577956795BA
:1036B000B795F111F8CFFAF4BB0F11F460FF1BC0FE
:1036C0006F5F7F4F8F4F9F4F16C0882311F096E991
:1036D00011C0772321F09EE8872F762F05C066233F
:1036E00071F096E8862F70E060E02AF09A95660FF8
:1036F000771F881FDAF7880F9695879597F90895B1
:10370000990F0008550FAA0BE0E8FEEF16161706F2
:10371000E807F907C0F012161306E407F50798F05A
:10372000621B730B840B950B39F40A2661F0232B73
:10373000242B252B21F408950A2609F4A140A695EF
:103740008FEF811D811D089597F99F6780E870E0D4
:1037500060E008959FEF80EC0895DF93CF931F936F
:103760000F93FF92EF92DF927B018C01689405C06A
:10377000DA2EEF01AFD0FE01E894A59125913591A5
:1037800045915591AEF3EF0129DEFE019701A801A5
:10379000DA9479F7DF90EF90FF900F911F91CF911E
:1037A000DF91089500240A941616170618060906D4
:1037B000089500240A9412161306140605060895A7
:1037C000C9CF50D0E8F3E894E0E0BB279F57F0F072
:1037D0002AED3FE049EC06C0EE0FBB0F661F771FD6
:1037E000881F28F0B23A62077307840728F0B25A9C
:1037F000620B730B840BE3959A9572F7803830F463
:103800009A95BB0F661F771F881FD2F7904806C195
:10381000092E0394000C11F4882352F0BB0F40F4DE
:10382000BF2B11F460FF04C06F5F7F4F8F4F9F4F1E
:103830000895EF93E0FF06C0A2EA2AED3FE049ECCD
:103840005FEBCCDDE5DF0F90039401FC9058E5E9D8
:10385000F0E0F7C057FD9058440F551F59F05F3FF7
:1038600071F04795880F97FB991F61F09F3F79F0A2
:1038700087950895121613061406551FF2CF469524
:10388000F1DF08C0161617061806991FF1CF8695A6
:103890007105610508940895E894BB27662777278A
:1038A000CB0197F908952CDF08F48FEF08959B0161
:1038B000AC0160E070E080E89FE34CCE0BD0A8CF75
:1038C00071DF28F076DF18F0952309F03DCF42CF65
:1038D0001124E3CFBFDFA0F3959FD1F3950F50E004
:1038E000551F629FF001729FBB27F00DB11D639FB2
:1038F000AA27F00DB11DAA1F649F6627B00DA11D58
:10390000661F829F2227B00DA11D621F739FB00DFD
:10391000A11D621F839FA00D611D221F749F33276D
:10392000A00D611D231F849F600D211D822F762F06
:103930006A2F11249F5750408AF0E1F088234AF003
:10394000EE0FFF1FBB1F661F771F881F915050404F
:10395000A9F79E3F510570F0F7CE9FCF5F3FECF384
:10396000983EDCF3869577956795B795F795E7953B
:103970009F5FC1F7FE2B880F911D9695879597F94C
:1039800008959F931EDF0F9007FCEE5F52CF11F456
:103990000EF4E0CE41C066DFD0F39923D9F3CEF325
:1039A0009F57550B87FF46D00024A0E640EA9001C0
:1039B00080585695979528F4805C660F771F881F6E
:1039C00020F026173707480730F4621B730B840B6F
:1039D000202931294A2BA6951794079420253125B3
:1039E0004A2758F7660F771F881F20F026173707DA
:1039F000480730F4620B730B840B200D311D411D01
:103A0000A09581F7B901842F9158880F96958795D5
:103A100008959B01AC0152CF9F3F31F0915020F4AB
:103A2000879577956795B795880F911D969587959A
:103A300097F9089591505040660F771F881FD2F76D
:103A400008959F938F937F936F93FF93EF939B01C1
:103A5000AC0134DFEF91FF9180DE2F913F914F91C8
:103A60005F912CCFAA1BBB1B51E107C0AA1FBB1F34
:103A7000A617B70710F0A61BB70B881F991F5A95FA
:103A8000A9F780959095BC01CD01089597FB072E6D
:103A900016F4009407D077FD09D00E94321D07FC70
:103AA00005D03EF4909581959F4F0895709561954E
:103AB0007F4F0895A1E21A2EAA1BBB1BFD010DC06A
:103AC000AA1FBB1FEE1FFF1FA217B307E407F507CE
:103AD00020F0A21BB30BE40BF50B661F771F881FAA
:103AE000991F1A9469F760957095809590959B0140
:103AF000AC01BD01CF010895052E97FB1EF4009483
:103B00000E94931D57FD07D00E945A1D07FC03D049
:103B10004EF40C94931D50954095309521953F4F50
:103B20004F4F5F4F089590958095709561957F4FA9
:103B30008F4F9F4F08950E94AC1DA59F900DB49F7D
:103B4000900DA49F800D911D11240895EE0FFF1F6D
:103B50000590F491E02D0994A29FB001B39FC0019C
:103B6000A39F700D811D1124911DB29F700D811DA9
:103B70001124911D0895CF93DF938230910510F4A5
:103B800082E090E0E091F605F091F70520E030E06A
:103B9000A0E0B0E0309739F14081518148175907D2
:103BA000B8F04817590771F482819381109729F072
:103BB00013969C938E9312972CC09093F705809345
:103BC000F60527C02115310531F04217530718F0CB
:103BD000A901DB0101C0EF019A01BD01DF010280F3
:103BE000F381E02DD7CF21153105F9F0281B390BD2
:103BF0002430310580F48A819B816115710521F0A3
:103C0000FB019383828304C09093F7058093F605AC
:103C1000FE01329644C0FE01E20FF31F819391939F
:103C200022503109398328833AC02091F40530911C
:103C3000F505232B41F420910201309103013093CB
:103C4000F5052093F4052091000130910101211523
:103C5000310541F42DB73EB7409104015091050163
:103C6000241B350BE091F405F091F505E217F307FD
:103C7000A0F42E1B3F0B2817390778F0AC014E5FDC
:103C80005F4F2417350748F04E0F5F1F5093F5051F
:103C90004093F4058193919302C0E0E0F0E0CF01FE
:103CA000DF91CF910895CF93DF93009709F487C0F8
:103CB000FC01329713821282C091F605D091F7056C
:103CC000209781F420813181280F391F8091F405DC
:103CD0009091F5058217930779F5F093F505E09338
:103CE000F4056DC0DE0120E030E0AE17BF0750F4F0
:103CF00012964D915C9113979D014115510509F163
:103D0000DA01F3CFB383A28340815181840F951FE1
:103D10008A179B0771F48D919C911197840F951FC1
:103D200002969183808312968D919C911397938331
:103D300082832115310529F4F093F705E093F60508
:103D40003EC0D9011396FC93EE9312974D915D916D
:103D5000A40FB51FEA17FB0779F480819181840FC6
:103D6000951F0296D90111969C938E93828193811F
:103D700013969C938E931297E0E0F0E08A819B81EA
:103D8000009719F0FE01EC01F9CFCE0102962881CF
:103D90003981820F931F2091F4053091F505281782
:103DA000390769F4309729F41092F7051092F60557
:103DB00002C013821282D093F505C093F405DF91FF
:103DC000CF9108952F923F925F926F927F928F9240
:103DD0009F92AF92BF92CF92DF92EF92FF920F939A
:103DE0001F93CF93DF938B01EA016115710521F0D9
:103DF000DB018C9311969C93209739F09E01225001
:103E000031092332310508F0FBC07C016701BFEFA7
:103E1000CB1ADB0A5601F7016080862D90E00E94E4
:103E20001A20892B11F07601F1CFFDE26F120AC042
:103E3000570182E0A80EB11CD70111966C9077242F
:103E400073940BC0BBE26B1207C05701E2E0AE0EE9
:103E5000B11CD70111966C90712CCE018F7E892BED
:103E600089F4B0E36B1222C0F50180818F7D883523
:103E700041F56180F2E0AF0EB11C872D8260782E93
:103E8000C0E1D0E0C830D105F1F04CF4C230D1052A
:103E900011F5C12CD12CE12CB0E4FB2E2FC0CA307F
:103EA000D10531F0C031D10521F115C0209751F76E
:103EB000CAE0D0E0ACECCA2EDC2CEC2CACE0FA2E44
:103EC0001DC02097F9F6C8E0D0E0C12CD12CE12C20
:103ED000F0E1FF2E13C060E070E080E090E89E010A
:103EE000442737FD4095542F0E945A1D69017A01DD
:103EF00005C0C12CD12CE12CE8E0FE2EF50160E0DC
:103F000020E030E0A9014E01AA2497FCA094BA2C2D
:103F10001F0170ED572E560CA9E0A51570F48FEB1C
:103F2000860D8A3118F499EC592E06C08FE9860D5A
:103F30008A3130F589EA582E560C852D90E08C1781
:103F40009D07F4F467FD18C0C216D306E406F50613
:103F500080F0C501B4010E94A7219B01AC01250D91
:103F6000311D411D511D213031054105B0E85B0770
:103F700010F06FEF01C061E03196D1016C90C8CFB5
:103F8000872D81700115110571F0662329F0319795
:103F9000D801ED93FC9307C071FE19C03297D80188
:103FA000ED93FC9314C067FF12C0882329F020E032
:103FB00030E040E050E804C02FEF3FEF4FEF5FE705
:103FC00082E290E09093F9058093F80516C088236B
:103FD00041F050954095309521953F4F4F4F5F4FA1
:103FE0000CC057FF0AC082E290E09093F9058093DD
:103FF000F8052FEF3FEF4FEF5FE7B901CA0104C0AB
:1040000060E070E080E090E0DF91CF911F910F9130
:10401000FF90EF90DF90CF90BF90AF909F908F90E8
:104020007F906F905F903F902F900895662777273D
:104030000C942920911170C1803219F0895085505B
:10404000D0F70895DC0101C06D9341505040E0F776
:104050000895A0E0B0E0EFE2F0E20C94BD218B0106
:104060006115710521F0DB018C9311969C93EC0195
:104070005E01BFEFAB1ABB0A7501C8808C2D90E0C2
:104080000E941A20892B11F0E501F2CFEDE2CE1249
:1040900008C07E01F2E0EF0EF11CC980DD24D3944C
:1040A00009C02BE2C21205C07E0142E0E40EF11C01
:1040B000C980D12CE701219743E050E066E171E02F
:1040C000CE010E948F21892BC1F4239645E050E058
:1040D00061E171E0CE010E948F21892B09F42596C0
:1040E0000115110519F0D801CD93DC93D11006C14B
:1040F00060E070E080E89FE70AC143E050E06EE0D6
:1041000071E0CE010E948F21892B59F40115110510
:1041100009F4F9C0B2E0EB0EF11CF801F182E08283
:10412000F2C0F70160E070E0CB01C0E0D0E07F01B9
:10413000A0EDAA2EAC0C29E02A1530F14D2D4260DD
:10414000B42E2D2D2870D2FE04C0211125C0219639
:1041500023C021112197A5E0B0E09B01AC010E9492
:104160009B1D660F771F881F991F6A0D711D811D8A
:10417000911D6839A9E97A078A07A9E19A0760F0D1
:10418000BD2DB660BB2E08C02EEFA2120AC0D3FC14
:1041900050C04D2D4860B42E3196D701CC90DB2C09
:1041A000C6CF2C2D2F7D253409F043C0A081AD3220
:1041B00041F4BD2DB061DB2E7F0122E0E20EF11C47
:1041C0000CC07F01AB3231F04FEFE41AF40A21E06A
:1041D00030E006C0A2E0EA0EF11CA18122E030E04E
:1041E000A053AA3018F0E21AF30A23C0F70120E026
:1041F00030E02038BCE03B075CF4A901440F551FB8
:10420000440F551F240F351F220F331F2A0F311D56
:10421000AF014F5F5F4F7A01A081A053AA3010F425
:10422000FA01E7CFD4FE03C0319521953109C20FC1
:10423000D31FD1FE09C00115110531F0E1E0EE1ADE
:10424000F108D801ED92FC920E94431B2D2D2370A2
:10425000233019F04B015C0106C04B015C01B7FA39
:10426000B094B7F8B09420E030E0A901C501B401E2
:104270000E94A31A882309F43EC0D7FF06C0D19537
:10428000C195D1090DE211E002C005E411E0680119
:10429000B8E1CB1AD10890E2E92EF12CCE15DF055A
:1042A00074F0F8012591359145915491C501B401FF
:1042B0000E945E1C4B015C01CE19DF09EFCF045058
:1042C0001109F594E7940C151D0541F78A2D880F07
:1042D0008B2D881F8F3F49F020E030E0A901C501F8
:1042E000B4010E94A31A811106C082E290E090936B
:1042F000F9058093F805C501B40109C060E070E0DC
:1043000080E89FEF04C060E070E080EC9FE7CDB7ED
:10431000DEB7ECE00C94D921992788270895FB019A
:10432000DC014150504088F08D9181341CF08B3578
:104330000CF4805E659161341CF06B350CF4605EAA
:10434000861B611171F3990B0895881BFCCFDB016B
:104350008F939F930E949B1DBF91AF91A29F800D51
:10436000911DA39F900DB29F900D112408952F923F
:104370003F924F925F926F927F928F929F92AF92F5
:10438000BF92CF92DF92EF92FF920F931F93CF9342
:10439000DF93CDB7DEB7CA1BDB0B0FB6F894DEBFD9
:1043A0000FBECDBF09942A88398848885F846E84FF
:1043B0007D848C849B84AA84B984C884DF80EE8049
:1043C000FD800C811B81AA81B981CE0FD11D0FB652
:1043D000F894DEBF0FBECDBFED01089511E0C2E538
:1043E000D1E004C0FE010E94A81D2296C435D10769
:0643F000C9F7F894FFCFAD
:1043F6000000FA0580000600FFFFFFFF570053008C
:1044060024504D544B3232302C313030302A314624
:104416000024504D544B3330302C313030302C305A
:104426002C302C302C302A31430024504D544B3341
:1044360031342C302C312C302C302C302C302C308C
:104446002C302C302C302C302C302C302C302C3086
:104456002C302C302C302C302A3239000000000051
:1044660088078819F3076707DB07DA0700000000EB
:10447600DB09F109930A2B0A350A0C0A0000000031
:10448600EC108819000000000C1888198E17A71761
:104496009917EA170D0A006E616E00696E66006F65
:0644A6007666002E000006
:00000001FF
