:100000000C9427010C944F010C944F010C944F0158
:100010000C944F010C944F010C944F010C944F0120
:100020000C944F010C944F010C944F010C944F0110
:100030000C944F010C944F010C944F010C944F0100
:100040000C945B170C944F010C946C1A0C949E1A30
:100050000C944F010C944F010C944F010C944F01E0
:100060000C944F010C944F01084AD73B3BCE016ED4
:1000700084BCBFFDC12F3D6C74319ABD56833DDAFF
:100080003D00C77F11BED9E4BB4C3E916BAAAABE0E
:10009000000000803F05A84CCDB2D44EB93836A937
:1000A000020C50B9918688083CA6AAAA2ABE000074
:1000B00000803F0000000008000201000003040768
:1000C0000000000000000000010204081020408031
:1000D0000102040810200102040810200404040492
:1000E00004040404020202020202030303030303E2
:1000F0000000000023002600290000000000250069
:1001000028002B0000000000240027002A004E4198
:100110004E494E495459494E46CDCCCC3D0AD72381
:100120003C17B7D13877CC2B329595E6241FB14FC9
:100130000A000020410000C84200401C4620BCBE0E
:100140004CCA1B0E5AAEC59D7400407A10F35A007B
:10015000A0724E18090010A5D4E80000E8764817F0
:100160000000E40B54020000CA9A3B000000E1F5D5
:1001700005000080969800000040420F000000A09B
:100180008601000000102700000000E803000000C6
:10019000006400000000000A0000000000010000F0
:1001A0000000002C76D888DC674F0823DFC1DFAE63
:1001B00059E1B1B796E5E3E453C63AE6519976962C
:1001C000E8E6C28426EB898C9B62ED407C6FFCEFF5
:1001D000BC9C9F40F2BAA56FA5F490055A2AF75C23
:1001E000936B6CF9676DC11BFCE0E40D47FEF520D5
:1001F000E6B500D0ED902E0300943577050080849D
:100200001E080000204E0A000000C80C33333333B0
:100210000F986E12831141EF8D2114893BE655161C
:10022000CFFEE6DB18D1844B381BF77C1D901DA454
:10023000BBE424203284725E228100C9F124ECA147
:10024000E53D27000C0B040C5B0ECE1A190B112494
:100250001FBECFEFD8E0DEBFCDBF12E0A0E0B1E01F
:10026000E8ECF0E502C005900D92AE31B107D9F788
:1002700026E0AEE1B2E001C01D92A330B207E1F783
:1002800012E0CCE4D2E004C02297FE010E940422D6
:10029000C434D107C9F70E94121B0C9457280C9440
:1002A00000008F929F92AF92BF92CF92DF92EF9217
:1002B000FF920F931F93CF93DF93EC01CB010E942A
:1002C00029246B017C010E94101FCB0164E670E0C1
:1002D0000E94A2218B0184E6809FB001819F700D56
:1002E0001124882777FD8095982F0E94431F9B013A
:1002F000AC01C701B6010E94DA1D20E030E040E702
:1003000052E40E94A81E6B017C01B801882777FD8A
:100310008095982F0E94431FA70196010E94DB1D24
:100320004B015C0120E030E041E655E4C701B60135
:100330000E94A81E9B01AC01C501B4010E94DB1DF7
:1003400028812B7F233509F49058DF91CF911F919D
:100350000F91FF90EF90DF90CF90BF90AF909F9064
:100360008F9008954F925F926F927F928F929F929B
:10037000AF92BF92CF92DF92EF92FF920F931F93B3
:10038000CF93DF93CDB7DEB760970FB6F894DEBF9B
:100390000FBECDBF2B013C0129873A874B875C8775
:1003A000E982FA820B831C839B01AC01C801B7016F
:1003B0000E94DA1D25E33AEF4EE85CE30E94B82084
:1003C00020E030E040E05FE30E94B8200E941B2163
:1003D0006D837E838F83988725E33AEF4EE85CE355
:1003E000C301B2010E94B8200E94A51E2B013C014E
:1003F00025E33AEF4EE85CE3C801B7010E94B8205C
:100400000E94A51E69837A838B839C8329853A8504
:100410004B855C85C601B5010E94DA1D25E33AEFE4
:100420004EE85CE30E94B82020E030E040E05FE36B
:100430000E94B8200E941B214B015C012D813E814E
:100440004F815885CA01B9010E94B8206B017C0117
:1004500029813A814B815C81C301B2010E94B8209D
:10046000A50194010E94B820A50194010E94B82022
:100470009B01AC01C701B6010E94DB1D6B017C0131
:100480009B01AC0160E070E080E89FE30E94DA1D10
:100490000E9425219B01AC01C701B6012D873E8733
:1004A0004F87588B0E9425212D853E854F85588981
:1004B0000E944E1E9B01AC010E94DB1D20E33BE726
:1004C0004FE95BE40E94B82060960FB6F894DEBF57
:1004D0000FBECDBFDF91CF911F910F91FF90EF9095
:1004E000DF90CF90BF90AF909F908F907F906F9054
:1004F0005F904F9008954F925F926F927F928F928C
:100500009F92AF92BF92CF92DF92EF92FF920F93A2
:100510001F93CF93DF93CDB7DEB760970FB6F894F4
:10052000DEBF0FBECDBF69837A838B839C83C601F8
:10053000B5010E94DA1D25E33AEF4EE85CE30E9424
:10054000B8204B015C010E941B216D837E838F8349
:10055000988725E33AEF4EE85CE3C801B7010E94B3
:10056000B8202B013C010E94A51E6B017C0125E3F4
:100570003AEF4EE85CE369817A818B819C810E942D
:10058000B82069837A838B839C830E94A51E698728
:100590007A878B879C87C301B2010E941B219B0134
:1005A000AC0169817A818B819C812D873E874F8741
:1005B000588B0E941B212B013C01C501B4010E94F4
:1005C000A51E69837A838B839C832D853E854F8509
:1005D000588969857A858B859C850E94B8204B0156
:1005E0005C01A7019601C301B2010E94B820A701D6
:1005F00096010E94B82029813A814B815C810E943A
:10060000B8209B01AC01C501B4010E94DA1D4B0169
:100610005C01A70196016D817E818F8198850E9482
:10062000B820A50194010E944E1E21EE3EE245E64F
:1006300052E40E94B8206B017C0120E030E0A90167
:100640000E94A11E87FF24C020E030E044EB53E469
:10065000C701B6010E94DB1D20E030E044EB53E40B
:1006600060960FB6F894DEBF0FBECDBFDF91CF917D
:100670001F910F91FF90EF90DF90CF90BF90AF90C0
:100680009F908F907F906F905F904F900C94851FFC
:10069000C701B60160960FB6F894DEBF0FBECDBF9E
:1006A000DF91CF911F910F91FF90EF90DF90CF904E
:1006B000BF90AF909F908F907F906F905F904F9082
:1006C00008958F929F92AF92BF92CF92DF92EF9256
:1006D000FF920F931F93CF93C82F4A015B016801CC
:1006E000790186E292E00E945217C130C9F030F0E1
:1006F000C230C9F0C330D9F44FEF1AC040E063E50F
:1007000085EE0E9408179B01AC0160E070E086E274
:1007100092E00E94A31686E292E00E94871514C020
:1007200040E06FEF02C04FEF60E080E003C040E0C8
:1007300060E08FEF0E9408179B01AC0160E070E061
:1007400086E292E00E94A31620E030E040E751E408
:10075000C701B6010E94AD2087FD0DC040E060E0FA
:100760008FEF0E9408179B01AC0160E270E086E207
:1007700092E00E94A31620E030E048E452E4C70172
:10078000B6010E94AD2087FD0DC040E060E08FEF14
:100790000E9408179B01AC0161E270E086E292E0E2
:1007A0000E94A31620E030E048E453E4C701B601FC
:1007B0000E94AD2087FD0DC040E060E08FEF0E94F9
:1007C00008179B01AC0162E270E086E292E00E94B1
:1007D000A31620E030E048EC53E4C701B6010E94C4
:1007E000AD2087FD0DC040E060E08FEF0E9408174C
:1007F0009B01AC0163E270E086E292E00E94A316E6
:1008000020E030E04AE754E4C701B6010E94AD2081
:1008100087FD0DC040E060E08FEF0E9408179B014C
:10082000AC0164E270E086E292E00E94A31620E050
:1008300030E04AEF54E4C701B6010E94AD2087FDC5
:100840000DC040E060E08FEF0E9408179B01AC01F3
:1008500065E270E086E292E00E94A31620E030E0BC
:100860004AE755E4C701B6010E94AD2087FD0DC0DF
:1008700040E060E08FEF0E9408179B01AC0166E248
:1008800070E086E292E00E94A31620E030E045EAA4
:1008900055E4C701B6010E94AD2087FD0DC040E0C0
:1008A00060E08FEF0E9408179B01AC0167E270E0E7
:1008B00086E292E00E94A316209122023091230248
:1008C0004091240250912502C501B4010E94DB1D14
:1008D0000E94101F7B0177FF05C028E9E21A2EEF66
:1008E000F20A09C0693621E072072CF07B0128E684
:1008F000E21A21E0F20A4AE050E0B70180E695E012
:100900000E94351CC70106978E3521E09207A8F496
:1009100087339105A8F0C7978C339105A0F0CC9749
:100920008238910598F08BEFE81AF10822E3E2167D
:10093000F10478F484E090E00EC080E090E00BC019
:1009400081E090E008C082E090E005C083E090E0A4
:1009500002C085E090E08330910509F4BDC044F405
:100960008130910509F463C0029709F4ABC007C058
:100970008430910509F4FBC0059709F41CC14FEFC1
:100980006FEF80E00E9408179B01AC0163E070E00C
:1009900086E292E00E94A3164FEF6FEF80E00E9484
:1009A00008179B01AC0164E070E086E292E00E94CF
:1009B000A3164FEF6FEF80E00E9408179B01AC0178
:1009C0006BE070E086E292E00E94A3164FEF6FEFBB
:1009D00080E00E9408179B01AC016CE070E086E2A9
:1009E00092E00E94A3164FEF6FEF80E00E9408177D
:1009F0009B01AC0163E170E086E292E00E94A316E5
:100A00004FEF6FEF80E00E9408179B01AC0164E19B
:100A100070E086E292E00E94A3164FEF6FEF80E055
:100A20000E9408179B01AC016BE170E03DC04FEFE5
:100A30006FEF80E00E9408179B01AC0166E070E058
:100A400086E292E00E94A3164FEF6FEF80E00E94D3
:100A500008179B01AC0167E070E086E292E00E941B
:100A6000A3164FEF6FEF80E00E9408179B01AC01C7
:100A70006EE070E086E292E00E94A3164FEF6FEF07
:100A800080E00E9408179B01AC016FE070E086E2F5
:100A900092E00E94A3164FEF6FEF80E00E940817CC
:100AA0009B01AC0165E170E086E292E00E94A31632
:100AB0004FEF6FEF80E00E9408179B01AC016CE1E3
:100AC00070E0B6C04FEF6FEF80E00E9408179B0107
:100AD000AC016CE170E023C04FEF6FEF80E00E944B
:100AE00008179B01AC0168E170E086E292E00E9489
:100AF000A3164FEF6FEF80E00E9408179B01AC0137
:100B000069E170E086E292E00E94A3164FEF6FEF7A
:100B100080E00E9408179B01AC016AE170E086E268
:100B200092E00E94A3164FEF6FEF80E00E9408173B
:100B30009B01AC016DE170E086E292E00E94A31699
:100B40004FEF6FEF80E00E9408179B01AC016EE150
:100B500070E086E292E00E94A3164FEF6FEF80E014
:100B60000E9408179B01AC016FE170E061C04FEF7C
:100B70006FEF80E00E9408179B01AC0168E170E014
:100B800086E292E00E94A3164FEF6FEF80E00E9492
:100B900008179B01AC0169E170E086E292E00E94D7
:100BA000A3164FEF6FEF80E00E9408179B01AC0186
:100BB0006AE170E030C04FEF6FEF80E00E940817ED
:100BC0009B01AC0169E070E086E292E00E94A3160E
:100BD0004FEF6FEF80E00E9408179B01AC016AE0C5
:100BE00070E086E292E00E94A3164FEF6FEF80E084
:100BF0000E9408179B01AC0161E170E086E292E07F
:100C00000E94A3164FEF6FEF80E00E9408179B0130
:100C1000AC0162E170E086E292E00E94A3164FEF21
:100C20006FEF80E00E9408179B01AC016BE170E060
:100C300086E292E00E94A31686E292E0CF911F9195
:100C40000F91FF90EF90DF90CF90BF90AF909F906B
:100C50008F900C948715CF92DF92EF92FF92C09005
:100C60001E02D0901F02E0902002F09021020E940C
:100C7000A5176C157D058E059F0538F464E670E0B8
:100C800080E090E00E94D417EACF0E94A517685137
:100C90007C4F8F4F9F4F60931E0270931F02809373
:100CA00020029093210280E8E1E1F1E0AFE7B2E0B9
:100CB00001900D928A95E1F7FF90EF90DF90CF9031
:100CC000089526E040E052EC61E070E080E695E0B7
:100CD0000E940A1A86E292E00E9403156AE086E208
:100CE00092E00E94111786E292E00E94871562E06E
:100CF00080910A010E948F188FED9BE9A2EAB2EC65
:100D000080933B0290933C02A0933D02B0933E023D
:100D10008AE991ECA4EEB1E48093470290934802F3
:100D2000A0934902B0934A0208951F93CF93DF9393
:100D3000182FC8EED3E0812F0E94FE18892B21F4D2
:100D40002197C9F781E001C080E0DF91CF911F9129
:100D500008952F923F924F925F926F927F928F925F
:100D60009F92AF92BF92CF92DF92EF92FF920F933A
:100D70001F93CF93DF93CDB7DEB7C156D1090FB61E
:100D8000F894DEBF0FBECDBF86E090E00E949506CE
:100D9000882379F080917E02843010F08F5F01C04B
:100DA0008E5F80937E026DE571E080E695E00E94A3
:100DB0008A1B8EE00E944918BC01882777FD809528
:100DC000982F1F921F921F922FEF2F93A12CB12CBF
:100DD0006501EE24EA9413E0F12E00E010E020E03B
:100DE00030E0A9010E944D1C86E292E00E9411179A
:100DF0000E942B060F900F900F900F90809182020F
:100E0000823509F0D5C3BE01675B7F4F86E0DB0109
:100E10001D928A95E9F78BE03E01B7E16B0E711CDC
:100E2000F301282F11922A95E9F76E961FAE1EAE98
:100E30006E974E019CE0890E911CD401E82F1D9203
:100E4000EA95E9F76C961FAE1EAE6C978E010F5FA8
:100E50001F4FD8011D928A95E9F76A961FAE1EAE04
:100E60006A975E01BFE4AB0EB11C85E0F5011192FB
:100E70008A95E9F787E06E01F0E3CF0ED11CD60129
:100E8000E82F1D92EA95E9F72E01F9E24F0E511C69
:100E9000D201E82F1D92EA95E9F71E01F2E22F0E2A
:100EA000311CD1011D928A95E9F768961FAE1EAEDE
:100EB000689766961FAE1EAE6697EFE7F2E0DB011D
:100EC000CF018F57924021912C3211F02D93F8CF02
:100ED0007C01BFEFEB1AFB0ACE01CD960E94021DEA
:100EE00068E671E0CE01C7960E94021DBE01635CF8
:100EF0007F4FCE01C7960E94AC1DBC0180E695E0F5
:100F00000E94781BCE01C7960E94941CCE01CD96FC
:100F10000E94941C64E670E080E090E00E94D41788
:100F2000D301F701E158FD4F808197012F5F3F4FBB
:100F30008C3219F08D937901F4CF7901B301CE0190
:100F4000CD960E94021D64E771E0CE01C7960E9413
:100F5000021DBE01635C7F4FCE01C7960E94AC1D8F
:100F6000BC0180E695E00E94781BCE01C7960E94E6
:100F7000941CCE01CD960E94941C64E670E080E043
:100F800090E00E94D417FE01E45AFF4FD701A15808
:100F9000BD4F8C9197012F5F3F4F8C3219F0819399
:100FA0007901F4CF7901BE01645A7F4FCE01CD960D
:100FB0000E94021D6DE771E0CE01C7960E94021DDE
:100FC000BE01635C7F4FCE01C7960E94AC1DBC0181
:100FD00080E695E00E94781BCE01C7960E94941C83
:100FE000CE01CD960E94941C64E670E080E090E013
:100FF0000E94D417F401D701A158BD4F8C919701DD
:101000002F5F3F4F8C3219F081937901F4CF790132
:10101000B401CE01CD960E94021D65E871E0CE01BB
:10102000C7960E94021DBE01635C7F4FCE01C7962A
:101030000E94AC1DBC0180E695E00E94781BCE01A9
:10104000C7960E94941CCE01CD960E94941C64E623
:1010500070E080E090E00E94D417FE01E65AFF4F56
:10106000D701A158BD4F8C9197012F5F3F4F8C3214
:1010700019F081937901F4CF7901BE01665A7F4F4F
:10108000CE01CD960E94021D6AE871E0CE01C7969E
:101090000E94021DBE01635C7F4FCE01C7960E9475
:1010A000AC1DBC0180E695E00E94781BCE01C7967E
:1010B0000E94941CCE01CD960E94941C64E670E0C0
:1010C00080E090E00E94D417F801D701A158BD4FED
:1010D0008C9197012F5F3F4F8C3219F081937901EA
:1010E000F4CF7901B801CE01CD960E94021D60E9CE
:1010F00071E0CE01C7960E94021DBE01635C7F4F66
:10110000CE01C7960E94AC1DBC0180E695E00E940E
:10111000781BCE01C7960E94941CCE01CD960E94EA
:10112000941C64E670E080E090E00E94D417FE0119
:10113000E85AFF4FD701A158BD4F8C9187010F5F2F
:101140001F4F8C3219F081937801F4CFBE01685A99
:101150007F4FCE01CD960E94021D66E971E0CE015F
:10116000C7960E94021DBE01635C7F4FCE01C796E9
:101170000E94AC1DBC0180E695E00E94781BCE0168
:10118000C7960E94941CCE01CD960E94941C64E6E2
:1011900070E080E090E00E94D417F501D801A158DA
:1011A000BD4F8C910F5F1F4F8C3211F08193F6CFA2
:1011B000B501CE01CD960E94021D6DE971E0CE0110
:1011C000C7960E94021DBE01635C7F4FCE01C79689
:1011D0000E94AC1DBC0180E695E00E94781BCE0108
:1011E000C7960E94941CCE01CD960E94941C64E682
:1011F00070E080E090E00E94D417F601D801A15879
:10120000BD4F8C910F5F1F4F8C3211F08193F6CF41
:10121000B601CE01CD960E94021D64EA71E0CE01B6
:10122000C7960E94021DBE01635C7F4FCE01C79628
:101230000E94AC1DBC0180E695E00E94781BCE01A7
:10124000C7960E94941CCE01CD960E94941C64E621
:1012500070E080E090E00E94D417F201D801A1581C
:10126000BD4F8C910F5F1F4F8C3211F08193F6CFE1
:10127000B201CE01CD960E94021D6CEA71E0CE0152
:10128000C7960E94021DBE01635C7F4FCE01C796C8
:101290000E94AC1DBC0180E695E00E94781BCE0147
:1012A000C7960E94941CCE01CD960E94941C64E6C1
:1012B00070E080E090E00E94D417FE01B296D80161
:1012C000A158BD4F8C910F5F1F4F8C3211F081934D
:1012D000F6CFB101CE01CD960E94021D62EB71E006
:1012E000CE01C7960E94021DBE01635C7F4FCE01F6
:1012F000C7960E94AC1DBC0180E695E00E94781B59
:10130000CE01C7960E94941CCE01CD960E94941CDB
:1013100064E670E080E090E00E94D417FE01EA5A93
:10132000FF4FBF01C80181589D4F7C01DC018C91AA
:101330008C3221F081930F5F1F4FF4CFCE01CD96F9
:101340000E94021D6AEB71E0CE01C7960E94021D49
:10135000BE01635C7F4FCE01C7960E94AC1DBC01ED
:1013600080E695E00E94781BCE01C7960E94941CEF
:10137000CE01CD960E94941C64E670E080E090E07F
:101380000E94D417F701818165968FAF6597BE01E2
:101390006C5A7F4FCE01CD960E94021D6EEB71E01C
:1013A000CE01C7960E94021DBE01635C7F4FCE0135
:1013B000C7960E94AC1DBC0180E695E00E94781B98
:1013C000CE01C7960E94941CCE01CD960E94941C1B
:1013D00064E670E080E090E00E94D4176FE772E06E
:1013E000CE01C7960E94021DBE01695C7F4F80E658
:1013F00095E00E94781BCE01C7960E94941C68EE6F
:1014000073E080E090E00E94D41764EC71E080E625
:1014100095E00E948A1BE0917E0228E0E29FF001A5
:101420001124E55CFD4FA080B180C280D380448050
:10143000558066807780BE016F5F7F4FCE01885AEE
:101440009F4F0E9451019B01AC01B401CE01865A0D
:101450009F4F6F962FAF6F97A0963FAFA097A19623
:101460004FAFA197A2965FAFA2970E94510183014F
:1014700072016F962FAD6F97A0963FADA097A19682
:101480004FADA197A2965FADA2970E947B02609399
:101490007602709377028093780290937902E091BC
:1014A0007E0288E0E89FF0011124E55CFD4FA080FA
:1014B000B180C280D3804480558066807780BE0131
:1014C0006F5F7F4FCE01885A9F4F0E9451019B0151
:1014D000AC01B401CE01865A9F4F6F962FAF6F9724
:1014E000A0963FAFA097A1964FAFA197A2965FAFEE
:1014F000A2970E945101830172016F962FAD6F97E1
:10150000A0963FADA097A1964FADA197A2965FADD3
:10151000A2970E94B20160937A0270937B0280933B
:101520007C0290937D026CEC71E080E695E00E9475
:101530008A1B4091760250917702609178027091F7
:10154000790222E0CE01C7960E94501D40917A0296
:1015500050917B0260917C0270917D0222E0CE016D
:101560008D5B9F4F0E94501DBE016D5B7F4FCE0172
:10157000CD960E942F1D6CEB71E0CE01CD960E949E
:10158000BF1DBE01695C7F4F0E94AC1DBC0180E69F
:1015900095E00E94781BCE01CD960E94941CCE014E
:1015A0008D5B9F4F0E94941CCE01C7960E94941C95
:1015B00000917A0210917B0220917C0230917D0291
:1015C0004091760250917702609178027091790291
:1015D00080917E020E9461036FE772E080E695E0F1
:1015E0000E948A1BCF59DF4F0FB6F894DEBF0FBEA3
:1015F000CDBFDF91CF911F910F91FF90EF90DF90C2
:10160000CF90BF90AF909F908F907F906F905F90A2
:101610004F903F902F9008958BE592E00E94A20B8F
:1016200022E530E046E068E270E086E292E00C9469
:101630007B1686E292E00C94EF14CF93DF931F9217
:10164000CDB7DEB76983DC01ED91FC910280F381B7
:10165000E02D41E050E0BE016F5F7F4F09950F9094
:10166000DF91CF910895CF93DF93EC01898D9A8D0F
:10167000009759F0FC01138212820E948F10E98DAD
:10168000FA8D22813381232B31F081E090E09B831E
:101690008A8380E090E0DF91CF910895FC01818DF5
:1016A000928D009711F00C9448100895CF93DF931A
:1016B0001F92CDB7DEB741E050E0BE016F5F7F4FB4
:1016C0000E94A40E019719F4898190E002C08FEF67
:1016D0009FEF0F90DF91CF910895FC01818D928D46
:1016E000009711F00C94560B8FEF9FEF08950F9316
:1016F0001F93CF93DF938C01FC01818D928D009716
:10170000B9F00E94560BEC018F3FFFEF9F0799F055
:10171000F801818D928DFC01428553856485758524
:1017200041505109610971090E94AC0FCE0105C0F9
:1017300080E090E002C08FEF9FEFDF91CF911F918B
:101740000F910895FC011382128248EE53E060E08D
:1017500070E0448355836683778389EE91E09183BB
:101760008083128E118E14860895DC015996ED91B6
:10177000FC915A97309729F0628573858485958509
:1017800008956FEF7FEFCB010895DC015996ED913D
:10179000FC915A97309729F06389748985899689D5
:1017A000089560E070E0CB010895CF92DF92EF9250
:1017B000FF92CF93DF93EC01898D9A8D892BD9F01D
:1017C000CE010E94C50B6B017C01CE010E94B50BBE
:1017D000A7019601261B370B480B590BDA01C901EB
:1017E000811530E89307A105B10538F08FEF9FE729
:1017F000A0E0B0E002C080E090E0DF91CF91FF90E8
:10180000EF90DF90CF900895109207031092080395
:1018100010920B0310920D0382E090E0A0E0B0E084
:1018200080930E0390930F03A0931003B0931103C2
:101830001092250310922F0310922E0389EF91E04E
:1018400090932D0380932C031092310308959FB73A
:10185000F894209101038091FF02213019F48DBB8F
:101860009FBF08958FBF089520910103222399F00F
:101870003FB7F89420910103213059F42DB3209300
:10188000FF024DB320910003209524232DBB3FBFC1
:1018900002C03093FF028CBD9DBD08958EBD000037
:1018A0000DB407FEFDCF8EB508958FEF0C944E0C4E
:1018B00061E0FC0184810E94C81880914B03882359
:1018C00039F010924B038091010381110C94270C85
:1018D0000895CF93DF93EC0180914B03811109C0F0
:1018E00081E080934B0380914C0390914D030E94C3
:1018F000340C60E08C81DF91CF910C94C818CF93A9
:10190000DF93EC018E81882389F08F8198859C017B
:101910002F5F3F4F38872F838230924018F40E9408
:10192000550CF3CFCE010E94580C1E82DF91CF914F
:1019300008950F931F93CF93DF93EB010E94A51798
:101940008B010E94550C8F3F49F00E94A517601B28
:10195000710B6C177D07A8F380E001C081E0DF9177
:10196000CF911F910F910895CF92DF92FF920F9325
:101970001F93CF93DF9300D000D0CDB7DEB76C01BB
:10198000F62E29833A834B835C830E947F0CC60129
:101990000E94690C6CE271E0C6010E94990C8F2DC7
:1019A00080640E944E0C08E110E05C814B813A811A
:1019B0002981DA01C901002E04C0B695A795979533
:1019C00087950A94D2F729833A834B835C830E94DC
:1019D0004E0C0850110929813A814B815C81083FE6
:1019E0008FEF180731F7FF2029F0E8E0FE1621F00D
:1019F0008FEF03C085E901C087E80E944E0C10E01C
:101A00000E94550CF601828787FF04C01F3F11F02A
:101A10001F5FF6CF0F900F900F900F90DF91CF9137
:101A20001F910F91FF90DF90CF9008950F931F9318
:101A3000CF93DF93EC010E94A5178B010E94550CF8
:101A40008A878F3F49F40E94A517601B710B6D3286
:101A50007140A0F38FE003C08E3F39F08DE08D839D
:101A6000CE010E94580C80E001C081E0DF91CF914F
:101A70001F910F910895CF92DF92EF92FF920F93F3
:101A80001F93CF93DF93EC0169010115110509F450
:101A900062C0C801820F931F8130924008F05DC080
:101AA0008E81882371F088819981AA81BB81481732
:101AB00059076A077B0729F48F819885C816D906CC
:101AC00010F5488359836A837B838B85833039F093
:101AD00039E0440F551F661F771F3A95D1F79A01D9
:101AE000AB0161E1CE010E94B40C882319F083E0C0
:101AF0008D8333C0CE010E94160D882371F11886A4
:101B00001F8281E08E838F8198858C159D0540F41E
:101B10000E94550C8F819885019698878F83F3CF0B
:101B20006701E00EF11ECE14DF0431F00E94550C67
:101B3000F60181936F01F7CF8F819885800F911FF8
:101B400098878F832985222319F08115924018F0F8
:101B5000CE010E947F0C81E004C0CE010E94580C8F
:101B600080E0DF91CF911F910F91FF90EF90DF9078
:101B7000CF900895EF92FF920F931F93790100E0A9
:101B800012E020E030E00E943B0D1F910F91FF908A
:101B9000EF900895CF92DF92EF92FF920F931F93F1
:101BA000CF93DF9300D0CDB7DEB78C01862F49836A
:101BB0005A830E944E0C4981C42E5A81D52EE12CA5
:101BC000F12CF60181916F010E944E0CFFEFEF1A8C
:101BD000FF0AE11482E0F806A1F78FEF0E944E0C95
:101BE0008FEF0E944E0C0E94550CF80182878F7176
:101BF000853039F081E18583C8010E94580C80E06E
:101C000001C081E00F900F90DF91CF911F910F9154
:101C1000FF90EF90DF90CF9008950F931F93CF9395
:101C2000DF93EC018901411551056105710511F43E
:101C300082E132C08B85833039F089E0440F551F33
:101C4000661F771F8A95D1F79A01AB0168E1CE0133
:101C50000E94B40C882311F084E01EC0A8016EEF2E
:101C6000CE010E94CA0D8823C1F068E572E0CE0162
:101C70000E94990C811102C085E10EC020E030E085
:101C8000A9016DE0CE010E94B40C811104C00E9434
:101C9000550C882339F084E18D83CE010E94580CC5
:101CA00080E004C0CE010E94580C81E0DF91CF910A
:101CB0001F910F91089580E580934C0310924D037E
:101CC0000895CF93DF93EC019C012A5F3F4F41E0E1
:101CD00050E060E070E08B8D9C8D0E94DA138823C9
:101CE000A1F04F89588D698D7A8D452B462B472B56
:101CF00071F44E815F81688579854F8B588F698F2C
:101D00007A8F8C8180688C8302C080E001C081E082
:101D1000DF91CF910895CF93DF93EC01462F6E852D
:101D20007F85888999890E947A12882341F08A895F
:101D300020E2829FC0011124895A9C4F02C080E09A
:101D400090E0DF91CF9108952F923F924F925F9252
:101D50006F927F928F929F92AF92BF92CF92DF92BB
:101D6000EF92FF920F931F93CF93DF93EC016B01E0
:101D70005A018D81811103C08FEF9FEFDAC08C81F2
:101D800080FFFACF4B895C896D897E898A859B8526
:101D9000AC85BD852501612C712C8A019B01081B36
:101DA000190B2A0B3B0B041515052605370518F4EE
:101DB0005A01A81AB90A25011E0126E0220E311C7B
:101DC0004114510409F47BC04A855B856C857D858F
:101DD0004A0181E09822ED818A019B01F9E0369564
:101DE000279517950795FA95D1F78B8D9C8DE23045
:101DF00051F4FC01628D738D848D958D600F711F80
:101E0000821F931F3EC0FC0174807A94702281145B
:101E10009104C9F4711017C0452B462B472B49F488
:101E20008F89988DA98DBA8D8E839F83A887B98756
:101E30000AC04E815F816885798591010E94B51243
:101E4000882309F499CFEB8DFC8D6E817F81888585
:101E500099856250710981099109058404C0660F52
:101E6000771F881F991F0A94D2F706851785208946
:101E70003189600F711F821F931F670D711D811DB6
:101E8000911D20E032E02819390932012415350569
:101E900008F439012C8126FD04C06114F2E07F06AC
:101EA000A1F500910C0110910D0120910E013091CE
:101EB0000F01601771078207930719F426C0C50147
:101EC00038C0760183019401AB01BC0180915503B8
:101ED000909156030E943B0D882309F44DCFC60C08
:101EE000D71C04C0E81BF90BCE0EDF1E8A859B852C
:101EF000AC85BD85860D971DA11DB11D8A879B8769
:101F0000AC87BD87461857085BCF40E00E947A1225
:101F1000882309F431CFC401895A9C4FD6019C0112
:101F2000260D371DFC01E217F307E1F241914D93B5
:101F3000FACFDF91CF911F910F91FF90EF90DF903B
:101F4000CF90BF90AF909F908F907F906F905F9059
:101F50004F903F902F9008954F925F926F927F9293
:101F6000AF92BF92CF92DF92EF92FF920F931F93A7
:101F7000CF93DF93EC016A017B012D81222309F4C9
:101F800057C08B899C89AD89BE8984179507A607A0
:101F9000B70708F44DC04EC08A859B85AC85BD85CA
:101FA000EB8DFC8DE585F0E03996AC01BD0141502B
:101FB0005109610971090E2E04C0769567955795F0
:101FC00047950A94D2F7970186010150110921091A
:101FD000310904C03695279517950795EA95D2F7EC
:101FE0000417150726073707B0F58F89988DA98D37
:101FF000BA8D8E839F83A887B987280139015E0136
:1020000086E0A80EB11C411451046104710461F111
:102010004E815F816885798595018B8D9C8D0E94AD
:10202000B51291E0491A5108610871088111EBCF8E
:1020300080E01FC02230C1F0C114D104E104F104DA
:1020400009F0AACF1E821F82188619861A861B865F
:102050001C861D860DC0892B8A2B8B2B31F2041B0D
:10206000150B260B370BC9CFCA86DB86EC86FD869F
:1020700081E0DF91CF911F910F91FF90EF90DF9062
:10208000CF90BF90AF907F906F905F904F900895EA
:102090000F931F93CF93DF93EC018D818823C9F1B8
:1020A0008C8187FF30C061E0CE010E948B0E8C01D5
:1020B000009779F18D81823048F44B895C896D8974
:1020C0007E89F801448F558F668F778F4F89588DA1
:1020D000698D7A8DF801538F428F758B648BE091F7
:1020E0004E03F0914F03309759F0B8016A5E7F4F6D
:1020F000C80148960995F801808D918D938B828B4C
:102100008C818F778C83DF91CF911F910F910C94ED
:102110003F1280E0DF91CF911F910F9108952F9290
:102120003F924F925F926F927F928F929F92AF9267
:10213000BF92CF92DF92EF92FF920F931F93CF93B4
:10214000DF9300D000D01F92CDB7DEB78C017B01AA
:102150003A01DC0115968C9115978130C9F41496DB
:102160008C9181FF15C082FF1BC0F80143895489FF
:102170006589768982859385A485B58584179507B9
:10218000A607B70769F0C8010E94AC0F811108C00B
:1021900081E090E0F8019383828380E090E046C183
:1021A000630180C0D8015B968D919C915C97FC0186
:1021B000F481F150B501A40129E076956795579512
:1021C00047952A95D1F7F423FD8321E09222FF233E
:1021D00009F474C080E092E08819990956018C15C1
:1021E0009D0508F45C01D8015B96ED91FC915C972C
:1021F00016962D903D904D905C901997B2E02B1A59
:10220000310841085108058404C0220C331C441CC9
:10221000551C0A94D2F786859785A089B189280E26
:10222000391E4A1E5B1EED812E0E311C411C511CB5
:10223000A114F2E0BF0609F088C080910C019091D2
:102240000D01A0910E01B0910F0182159305A40517
:10225000B50559F48FEF9FEFDC0180930C0190934B
:102260000D01A0930E01B0930F019701B201A101DE
:1022700080915503909156030E940D0E882309F416
:1022800087CF9EEFF91ACA18DB08F801828593857B
:10229000A485B5858A0D9B1DA11DB11D82879387DD
:1022A000A487B587D8011A968D909D90AD90BC906B
:1022B0001D97C114D10409F075CF8AC0811491040F
:1022C00009F088CF16964D915D916D917C9119978B
:1022D000411551056105710559F457968D919D91F0
:1022E0000D90BC91A02D0097A105B10541F521C02D
:1022F0009E012F5F3F4F0E94B512882309F44ECFF5
:1023000089819A81AB81BC81F801238D348DF901DB
:102310002789203129F448EF5FEF60E070E004C0C6
:1023200048EF5FEF6FEF7FE084179507A607B707C9
:1023300030F0C8010E94610E81114CCF29CFF80105
:1023400086839783A087B18745CF8114910429F5AF
:10235000D8011A964D915D916D917C911D97539680
:102360008D919D910D90BC91A02D481759076A073A
:102370007B0798F00E943F12882309F409CF20922E
:102380000C0130920D0140920E0150920F0180918C
:10239000540381608093540308C041E0C201B1013D
:1023A0000E947A12882309F4F3CEC401895A9C4F03
:1023B000D7019C012A0D3B1DFC01E217F30719F020
:1023C0004D914193FACFE81BF90BEE0EFF1E5BCF48
:1023D00053968D919D910D90BC91A02DF801248173
:1023E00088159905AA05BB0538F4838A948AA58ABD
:1023F000B68A206824830CC080914E0390914F03CD
:10240000892B31F06114710419F02068F8012483DC
:10241000D80114968C9183FD02C0C30107C0C80186
:102420000E944810882309F4B3CEF7CF0F900F9085
:102430000F900F900F90DF91CF911F910F91FF9010
:10244000EF90DF90CF90BF90AF909F908F907F9054
:102450006F905F904F903F902F900895CF93DF93B0
:102460001F92CDB7DEB7698341E050E0BE016F5FD8
:102470007F4F0E948F100F90DF91CF910895809130
:102480005403882399F140910C0150910D01609102
:102490000E0170910F0127E533E080915503909173
:1024A00056030E940D0E882319F14091500350915C
:1024B0005103609152037091530341155105610519
:1024C000710591F027E533E0809155039091560313
:1024D0000E940D0E882361F0109250031092510358
:1024E00010925203109253031092540381E0089506
:1024F00080E00895CF92DF92EF92FF92CF936B012D
:102500007C01C42F80910C0190910D01A0910E01CE
:10251000B0910F018C159D05AE05BF05D1F00E944D
:102520003F12811102C080E01AC027E533E0B701F5
:10253000A60180915503909156030E94BA0D8823FD
:1025400091F3C0920C01D0920D01E0920E01F09235
:102550000F01809154038C2B8093540381E0CF9121
:10256000FF90EF90DF90CF9008958F929F92AF925F
:10257000BF92CF92DF92EF92FF920F931F93CF9370
:10258000DF938C016A017B01E901FC018185928561
:10259000A385B4850196A11DB11D84179507A607D3
:1025A000B70710F480E058C0F80143895489658961
:1025B00076898789803129F4BB27AF2D9E2D8D2DFB
:1025C00009C0D701C60127E0B695A79597958795CD
:1025D0002A95D1F74C015D01840E951EA61EB71EEB
:1025E000C501B40180900C0190900D01A0900E01E6
:1025F000B0900F01681579058A059B0589F4F801EB
:102600008789803199F4DD24EE24FF24F601EE0F52
:10261000FF1FE95AFC4F80819181A0E0B0E017C014
:1026200040E00E947A128111EACFBCCFE894C7F84B
:10263000DD24EE24FF24F601EE0FFF1FEE0FFF1F37
:10264000E95AFC4F80819181A281B381BF70888358
:102650009983AA83BB8381E0DF91CF911F910F9172
:10266000FF90EF90DF90CF90BF90AF909F908F90B2
:1026700008954F925F926F927F928F929F92AF9246
:10268000BF92CF92DF92EF92FF920F931F93CF935F
:10269000DF93EC016A017B012801390142305105C9
:1026A0006105710508F474C049855A856B857C8580
:1026B0004F5F5F4F6F4F7F4F4C155D056E057F0578
:1026C00008F466C08B889C88AD88BE888F8980316D
:1026D00029F477276F2D5E2D4D2D09C0B701A60176
:1026E000E7E07695679557954795EA95D1F7840E7B
:1026F000951EA61EB71E40910C0150910D016091D0
:102700000E0170910F0184169506A606B70671F4A6
:102710008F89803199F4DD24EE24FF24F601EE0F39
:10272000FF1FE95AFC4F5182408218C040E0C501AA
:10273000B4010E947A128111EBCF2AC0E894C7F845
:10274000DD24EE24FF24F601EE0FFF1FEE0FFF1F26
:10275000E95AFC4F40825182628273828091540315
:102760008160809354038A89823080F08D819E81BC
:10277000AF81B885880D991DAA1DBB1D809350039C
:1027800090935103A0935203B093530381E001C08F
:1027900080E0DF91CF911F910F91FF90EF90DF903C
:1027A000CF90BF90AF909F908F907F906F905F90F1
:1027B0004F9008952F923F924F925F926F927F9227
:1027C0009F92AF92BF92CF92DF92EF92FF920F93C0
:1027D0001F93CF93DF93CDB7DEB760970FB6F89412
:1027E000DEBF0FBECDBF5C014D875E876F87788BE4
:1027F0001901D9014D905D906D907C904114510468
:102800006104710431F0BFEF4B1A5B0A6B0A7B0A5B
:1028100010C0FC01408051806280738099249394A1
:102820000D851E852F85388901301105210531055B
:1028300009F0912CD50119962D913D914D915C9106
:102840001C972F5F3F4F4F4F5F4F29873A874B872A
:102850005C87730162011D821E821F821886F5014A
:1028600081859285A385B4850D811E812F81388550
:10287000081719072A073B0708F056C029853A852B
:102880004B855C852C153D054E055F0550F4A2E097
:10289000CA2ED12CE12CF12CB2E04B2E512C612C04
:1028A000712C9E012F5F3F4FB701A601C5010E9409
:1028B000B5128823C9F149815A816B817C81D70186
:1028C000C6010196A11DB11D452B462B472B19F0C2
:1028D0002C013D010FC0AC01BD0144195509660929
:1028E00077090D851E852F853889401751076207A6
:1028F000730779F02D813E814F8158852F5F3F4FBF
:102900004F4F5F4F2D833E834F8358876C017D016E
:10291000A6CF0FEF1FEF2FEF3FE0B701A601C501D4
:102920000E943913811118C080E041C0D701C6014F
:102930000197A109B1098D839E83AF83B887970161
:102940008601AC01BD01C5010E943913882361F3E2
:10295000CD80DE80EF80F8844C145D046E047F042B
:1029600028F3D1014D915D916D917C9141155105F7
:102970006105710599F4F10140825182628273828E
:102980009920A1F0FFEF4F1A5F0A6F0A7F0AD50165
:102990004D925D926D927C92139708C093018201D3
:1029A000C5010E9439138111E6CFBECF81E0609648
:1029B0000FB6F894DEBF0FBECDBFDF91CF911F9150
:1029C0000F91FF90EF90DF90CF90BF90AF909F90CE
:1029D0007F906F905F904F903F902F900895CF938E
:1029E000DF93EC0188859985009711F00E94D02231
:1029F0008E8187FD05C060E0DF91CF910C948F1828
:102A0000DF91CF910895CF93DF93EC018E8187FD05
:102A100007C061E00E948F1860E08E810E94C81894
:102A200081E08983DF91CF910895EF92FF920F9318
:102A30001F93CF93DF93EC017B01888599850097E5
:102A400011F00E94D0229D858A85981303C083E0EF
:102A500090E002C084E090E08E9D80018F9D100D7B
:102A60009E9D100D11241D830C83C8010E943822E5
:102A700099878887009741F0A80160E070E00E9484
:102A80003E24FB82EA8204C01D821C821B821A82C1
:102A9000DF91CF911F910F91FF90EF900895FC016E
:102AA00021E095858285981320E0CB0136E096954C
:102AB00087953A95E1F7482F43704587CB0154E05D
:102AC000969587955A95E1F7382F33703287CB0169
:102AD000969587959695879583708387862F8370C3
:102AE000848781E06F3F710511F008F080E08083FA
:102AF00080859185892B51F091E0431390E09217E6
:102B000029F062817381CF010C9415150895CF923D
:102B1000DF92EF92FF920F931F93CF93DF93CDB786
:102B2000DEB729970FB6F894DEBF0FBECDBF8C017C
:102B3000DC0118968D919C911997892B09F49AC004
:102B40000E94B117F801C684D784E088F1886C1917
:102B50007D098E099F09623371058105910580F316
:102B6000F894848195819A838983A085B1857D01BC
:102B7000EFEFEE1AFE0A8C918987D8019C9152964C
:102B80000D90BC91A02DF8018489992309F42EC0E1
:102B90009C91982B98879C91809589238F838F8116
:102BA0008E8388E08D8358856F8149853D812E8194
:102BB00089819A81F7015C9347FD252F3A952C93E3
:102BC000262F39F0441F00C000006C93000000C0A5
:102BD000F2CF38E041916C930000019761F7F80162
:102BE000B38BA28B49873D832E8338C09C91982B51
:102BF00098879C91809589238F838F818C8388E02F
:102C00008B8358856F8149853B812C8189819A818D
:102C1000F7015C9347FD252F00C000C02C9300C036
:102C200000C000C000C000C06C930000262F3A9581
:102C300041F0441F000000C000C000C000C000C040
:102C4000E8CF38E0419100C06C9300C0019709F7CC
:102C5000F801B38BA28B49873B832C839A838983AA
:102C600078940E94B117D8011E966D937D938D9331
:102C70009C93519729960FB6F894DEBF0FBECDBF37
:102C8000DF91CF911F910F91FF90EF90DF90CF9048
:102C900008951F93CF93DF93EC01162F898188232A
:102CA00031F08E8187FD03C060E00E948F181E8383
:102CB0008981882341F061E0812F0E948F1860E0B4
:102CC000812F0E94C818812F90E0FC01E452FF4F31
:102CD000E491F0E0EE0FFF1FE650FF4F2591349195
:102CE0003B8B2A8BFC01E853FF4F84918C8BDF9147
:102CF000CF911F910895EF92FF920F931F93CF935F
:102D0000DF931F92CDB7DEB77C018B01FC011182EE
:102D100017821186108616861786108A118AB901C5
:102D200049830E944F15B801C7010E9415154981BA
:102D3000642FC7010F90DF91CF911F910F91FF90EA
:102D4000EF900C944916CF92DF92EF92FF920F937F
:102D50001F93CF93DF93FC018281938168177907DA
:102D600008F04DC0CA01AA27BB27182FC32ED42EA6
:102D7000E52EFF24DC2DC22F0781002361F0809F08
:102D8000C0011124192FC09E60011124DD2D209F48
:102D9000C0011124C92FF5848285A085B185F81260
:102DA00008C0CB01880F991F860F971F8A0F9B1FA2
:102DB00017C0CB01880F991F880F991F8A0F9B1F7F
:102DC000452F552766277727DC01AF0DB11D00235E
:102DD00029F0409F90011124232F01C0242F2C9310
:102DE0002285DC01A20FB11D1C932385DC01A20FFB
:102DF000B11DDC932485FC01E20FF11DC083DF913E
:102E0000CF911F910F91FF90EF90DF90CF90089599
:102E1000962F50E060E070E0592B682BCB01BA018F
:102E20000895FF920F931F93CF93DF93EC01FF243C
:102E3000F394F60E2F81F21679F108851985215049
:102E4000B9F06F3F59F430E040E050E06FEF7FEFB2
:102E500080E090E00E94D821B9010CC08F2D90E055
:102E6000982F88270197622F70E00E948E2102C060
:102E700060E070E0F8018C819D81AF01401B510B37
:102E80004817590740F44081469FC001479F900D65
:102E900011249193F0CFFF82DF91CF911F910F9179
:102EA000FF900895FC014481558160E070E08085C9
:102EB00091850C943E241F920F920FB60F9211240D
:102EC0002F933F938F939F93AF93BF938091580518
:102ED00090915905A0915A05B0915B053091570525
:102EE00023E0230F2D3720F40196A11DB11D05C04D
:102EF00026E8230F0296A11DB11D2093570580934C
:102F0000580590935905A0935A05B0935B0580919D
:102F10005C0590915D05A0915E05B0915F050196FD
:102F2000A11DB11D80935C0590935D05A0935E0586
:102F3000B0935F05BF91AF919F918F913F912F917A
:102F40000F900FBE0F901F9018952FB7F8946091B7
:102F500058057091590580915A0590915B052FBFD6
:102F600008953FB7F89480915C0590915D05A0911C
:102F70005E05B0915F0526B5A89B05C02F3F19F0EF
:102F80000196A11DB11D3FBF6627782F892F9A2F6B
:102F9000620F711D811D911D42E0660F771F881F12
:102FA000991F4A95D1F708958F929F92AF92BF9241
:102FB000CF92DF92EF92FF926B017C010E94B117DA
:102FC0004B015C01C114D104E104F104F1F00E9451
:102FD000D91D0E94B117681979098A099B09683EB1
:102FE00073408105910570F321E0C21AD108E10810
:102FF000F10888EE880E83E0981EA11CB11CC11454
:10300000D104E104F10429F7DDCFFF90EF90DF90C8
:10301000CF90BF90AF909F908F900895789484B593
:10302000826084BD84B5816084BD85B5826085BDC4
:1030300085B5816085BDEEE6F0E0808181608083AA
:10304000E1E8F0E01082808182608083808181608D
:103050008083E0E8F0E0808181608083E1EBF0E054
:10306000808184608083E0EBF0E0808181608083F8
:10307000EAE7F0E0808184608083808182608083E1
:103080008081816080838081806880831092C1000C
:1030900008958E3008F08E5087702091100190E4D2
:1030A000299F90011124822B80937C0080917A00CB
:1030B000806480937A0080917A0086FDFCCF8091B5
:1030C00078002091790090E0922B0895833081F070
:1030D00028F4813099F08230A1F008958730A9F06A
:1030E0008830B9F08430D1F4809180008F7D03C0A6
:1030F000809180008F7780938000089584B58F77CA
:1031000002C084B58F7D84BD08958091B0008F7713
:1031100003C08091B0008F7D8093B0000895CF935D
:10312000DF9390E0FC01E853FF4F2491FC01E4524F
:10313000FF4F8491882349F190E0880F991FFC018B
:10314000EC5FFE4FA591B49186509F4FFC01C59155
:10315000D4919FB7611108C0F8948C912095822377
:103160008C93888182230AC0623051F4F8948C9148
:10317000322F309583238C938881822B888304C0DF
:10318000F8948C91822B8C939FBFDF91CF910895FF
:103190000F931F93CF93DF931F92CDB7DEB7282FE6
:1031A00030E0F901EC54FF4F8491F901E853FF4FEF
:1031B0001491F901E452FF4F04910023C9F08823D0
:1031C00021F069830E9466186981E02FF0E0EE0F1C
:1031D000FF1FE650FF4FA591B4919FB7F8948C91D3
:1031E000611103C01095812301C0812B8C939FBF77
:1031F0000F90DF91CF911F910F910895CF93DF939F
:10320000282F30E0F901EC54FF4F8491F901E85385
:10321000FF4FD491F901E452FF4FC491CC2391F0B8
:1032200081110E946618EC2FF0E0EE0FFF1FE051B5
:10323000FF4FA591B4912C912D2381E090E021F4D2
:1032400080E002C080E090E0DF91CF910895FC0122
:10325000818D228D90E0805C9F4F821B91098F733E
:1032600099270895FC01918D828D981731F0828DF8
:10327000E80FF11D858D90E008958FEF9FEF089581
:10328000FC01918D828D981761F0828DDF01A80F6E
:10329000B11D5D968C91928D9F5F9F73928F90E090
:1032A00008958FEF9FEF089584EC9AE1892B49F000
:1032B00080E090E0892B29F00E94C41A81110C94BF
:1032C00000000895FC01848DDF01A80FB11DA35AF1
:1032D000BF4F2C91848D90E001968F739927848F36
:1032E000A689B7892C93A089B1898C9180648C932D
:1032F000938D848D981306C00288F389E02D808118
:103300008F7D80830895CF93DF93EC01888D882390
:10331000C9F0EA89FB89808185FD05C0A889B98942
:103320008C9186FD0FC00FB607FCF5CF808185FF1D
:10333000F2CFA889B9898C9185FFEDCFCE010E948B
:103340006219E7CFDF91CF910895CF92DF92FF927C
:103350000F931F93CF93DF931F92CDB7DEB76C010E
:1033600081E0D60158968C9358975B969C915B9719
:103370005C968C915C97981307C05096ED91FC91E8
:103380005197808185FD2EC0F601038D10E00F5FFF
:103390001F4F0F731127F02EF601848DF81211C004
:1033A0000FB607FCF9CFD6015096ED91FC915197DD
:1033B000808185FFF1CFC60169830E94621969810E
:1033C000EBCF838DE80FF11DE35AFF4F6083D601E9
:1033D0005B960C935B975296ED91FC91539780818D
:1033E00080620CC0D6015696ED91FC915797608390
:1033F0005096ED91FC91519780818064808381E0AB
:1034000090E00F90DF91CF911F910F91FF90DF908F
:10341000CF900895BF92CF92DF92EF92FF92CF9319
:10342000DF93EC016A017B01B22EE889F98982E021
:103430008083411581EE580761057105A1F060E0B8
:1034400079E08DE390E0A70196010E94B62121501A
:103450003109410951095695479537952795211509
:1034600080E1380798F0E889F989108260E874E80B
:103470008EE190E0A70196010E94B621215031090A
:10348000410951095695479537952795EC85FD8556
:103490003083EE85FF852083188EEC89FD89B0820C
:1034A000EA89FB89808180618083EA89FB89808148
:1034B00088608083EA89FB89808180688083EA89CB
:1034C000FB8980818F7D8083DF91CF91FF90EF908A
:1034D000DF90CF90BF9008951F920F920FB60F927A
:1034E00011242F938F939F93EF93FF93E091700597
:1034F000F09171058081E0917605F091770582FD6C
:1035000012C09081809179058F5F8F7320917A0529
:10351000821751F0E0917905F0E0E05AFA4F958F6B
:103520008093790501C08081FF91EF919F918F91E8
:103530002F910F900FBE0F901F9018951F920F9212
:103540000FB60F9211242F933F934F935F936F9376
:103550007F938F939F93AF93BF93EF93FF9380E6F7
:1035600095E00E946219FF91EF91BF91AF919F91F9
:103570008F917F916F915F914F913F912F910F901C
:103580000FBE0F901F90189580E695E00E942719B6
:1035900021E0892B09F420E0822F08951092630521
:1035A0001092620588EE93E0A0E0B0E0809364059D
:1035B00090936505A0936605B093670581E092E05E
:1035C000909361058093600585EC90E090936D0584
:1035D00080936C0584EC90E090936F0580936E056A
:1035E00080EC90E0909371058093700581EC90E001
:1035F000909373058093720582EC90E0909375052B
:103600008093740586EC90E090937705809376051F
:103610001092790510927A0510927B0510927C0524
:10362000089508950E940E180E94111B0E946106C1
:10363000C4E5D9E10E94A9062097E1F30E9454193C
:10364000F9CFCF92DF92EF92FF920F931F93CF9318
:10365000DF937C016A01EB0100E010E00C151D0511
:1036600071F06991D701ED91FC910190F081E02D0D
:10367000C7010995892B19F00F5F1F4FEFCFC801C4
:10368000DF91CF911F910F91FF90EF90DF90CF903E
:1036900008956115710581F0DB010D900020E9F7B7
:1036A000AD0141505109461B570BDC01ED91FC91D6
:1036B0000280F381E02D099480E090E00895DC0120
:1036C000ED91FC91DB0114964D915C9115976D91F4
:1036D0007C910280F381E02D0994DC01ED91FC9155
:1036E0000190F081E02D09946DE072E00C94491B8B
:1036F0000F931F93CF93DF93EC010E945F1B8C010C
:10370000CE010E94741B800F911FDF91CF911F91FA
:103710000F9108950F931F93CF93DF93EC010E94B5
:10372000491B8C01CE010E94741B800F911FDF91F9
:10373000CF911F910F9108958F929F92AF92BF9258
:10374000DF92EF92FF920F931F93CF93DF93CDB74A
:10375000DEB7A1970FB6F894DEBF0FBECDBF7C01D8
:10376000F42FD52ECB0119A2223008F42AE08E01C5
:103770000F5D1F4F822E912CA12CB12C6F2F7D2D10
:10378000A50194010E94B621F22FD32ECA01015047
:1037900011096A3014F4E0E301C0E7E3E60FD80151
:1037A000EC93232B242B252B49F7B801C7010E944A
:1037B000491BA1960FB6F894DEBF0FBECDBFDF91B7
:1037C000CF911F910F91FF90EF90DF90BF90AF903E
:1037D0009F908F900895CF92DF92EF92FF920F9378
:1037E0001F93CF93DF93EC016A017B012115310513
:1037F00079F4E881F9810190F081E02D642FDF9167
:10380000CF911F910F91FF90EF90DF90CF9009948F
:103810002A303105E9F477FF1AC06DE20E946D1B72
:103820008C0144275527BA014C195D096E097F099F
:103830002AE0CE010E949C1B800F911FDF91CF9147
:103840001F910F91FF90EF90DF90CF9008952AE0A5
:10385000B701A601CE01DF91CF911F910F91FF908B
:10386000EF90DF90CF900C949C1B0F931F93CF93FE
:10387000DF93EC019A01AB01662757FD6095762F27
:103880000E94EB1B8C01CE010E94741B800F911FC4
:10389000DF91CF911F910F9108954F925F926F9298
:1038A0007F92AF92BF92CF92DF92EF92FF920F93EF
:1038B0001F93CF93DF93CDB7DEB729013A01621B87
:1038C000730B840B950B29893A894B895C892A19DA
:1038D0003B094C095D09298B3A8B4B8B5C8B9B0117
:1038E000AC0169897A898B899C890E947E21E418C0
:1038F000F50806091709A80197010E94D8212A0D89
:103900003B1D4C1D5D1DCA01B901DF91CF911F9177
:103910000F91FF90EF90DF90CF90BF90AF907F908E
:103920006F905F904F900895FC01808191810C947D
:10393000D022CF93DF93EC0188819981009711F019
:103940000E94D022198218821D821C821B821A8238
:10395000DF91CF9108950F931F93CF93DF93EC01E5
:103960008B016F5F7F4F888199810E945F23009751
:1039700031F0998388831B830A8381E001C080E052
:10398000DF91CF911F910F910895CF93DF93EC01B9
:1039900088819981892B29F08A819B8186179707D5
:1039A00060F4CE010E94AB1C882341F08C819D8184
:1039B000892B19F4E881F981108281E0DF91CF91A0
:1039C0000895EF92FF920F931F93CF93DF93EC0133
:1039D0007B018A01BA010E94C51C811104C0CE017D
:1039E0000E94991C07C01D830C83B70188819981AF
:1039F0000E944524CE01DF91CF911F910F91FF903E
:103A0000EF900895FC0111821082138212821582B8
:103A100014826115710559F0FB0101900020E9F74E
:103A2000AF0141505109461B570B0C94E11C0895FE
:103A3000CF93DF93EC01FB018617970761F060815C
:103A400071816115710529F0448155810E94E11C45
:103A500002C00E94991CCE01DF91CF910895FC0114
:103A60001182108213821282158214820C94181D06
:103A7000CF93DF93EC016115710561F0FB010190BB
:103A80000020E9F7AF0141505109461B570B0E9436
:103A9000E11C02C00E94991CCE01DF91CF910895D4
:103AA000EF92FF920F931F93CF93DF93CDB7DEB7C3
:103AB000A1970FB6F894DEBF0FBECDBF7C01CB013E
:103AC000BA01F701118210821382128215821482C8
:103AD00042E0420F8E010F5F1F4F0E941722BC0170
:103AE000C7010E94381DA1960FB6F894DEBF0FBE25
:103AF000CDBFDF91CF911F910F91FF90EF9008956F
:103B0000EF92FF920F931F93CF93DF93EC017B0112
:103B10000C811D816115710511F480E016C04115FD
:103B2000510591F0040F151FB8010E94C51C882390
:103B3000A1F3288139818C819D81B701820F931F68
:103B40000E9445241D830C8381E0DF91CF911F915A
:103B50000F91FF90EF900895CF93DF93EC01FB015D
:103B600044815581608171810E94801D811103C053
:103B7000CE010E94991CCE01DF91CF910895CF9381
:103B8000DF93EC016115710569F0FB0101900020E4
:103B9000E9F7AF0141505109461B570B0E94801DA8
:103BA000811103C0CE010E94991CCE01DF91CF91FB
:103BB000089508955058BB27AA270ED083C24CD22F
:103BC00030F051D220F031F49F3F11F41EF41CC2AA
:103BD0000EF4E095E7FB04C2E92F96D280F3BA1702
:103BE000620773078407950718F071F49EF5AEC25B
:103BF0000EF4E0950B2EBA2FA02D0B01B901900108
:103C00000C01CA01A0011124FF27591B99F0593F4B
:103C100050F4503E68F11A16F040A22F232F342F93
:103C20004427585FF3CF469537952795A795F040E1
:103C30005395C9F77EF41F16BA0B620B730B840BF6
:103C4000BAF09150A1F0FF0FBB1F661F771F881FAE
:103C5000C2F70EC0BA0F621F731F841F48F4879506
:103C600077956795B795F7959E3F08F0B3CF9395F5
:103C7000880F08F09927EE0F979587950895ECD156
:103C800058F080E891E009F49EEFEDD128F040E88B
:103C900051E059F45EEF09C0B7C158C2E92FE0788E
:103CA00033D268F3092E052AC1F3261737074807D0
:103CB000590738F00E2E07F8E02569F0E025E0649A
:103CC0000AC0EF6307F8009407FADB01B9019D0110
:103CD000DC01CA01AD01EF934AD0F4D10AD05F9163
:103CE000552331F02BED3FE049E450FD49EC63CF23
:103CF0000895DF93DD27B92FBF7740E85FE31616FD
:103D0000170648075B0710F4D92F2BD29F938F9388
:103D10007F936F93D8D2E8E6F0E079D1D3D12F9199
:103D20003F914F915F9130D2DD2349F09058A2EA44
:103D30002AED3FE049EC5FE3D0785D274DDFDF916E
:103D4000C1C12AD108F481E0089595D1E395CBC192
:103D50000CD0B8C188D140F07FD130F021F45F3F62
:103D600019F03EC15111F3C14FC1CED198F399233F
:103D7000C9F35523B1F3951B550BBB27AA2762172F
:103D80007307840738F09F5F5F4F220F331F441F74
:103D9000AA1FA9F333D00E2E3AF0E0E830D09150AC
:103DA0005040E695001CCAF729D0FE2F27D0660F99
:103DB000771F881FBB1F261737074807AB07B0E8D8
:103DC00009F0BB0B802DBF01FF2793585F4F2AF0EE
:103DD0009E3F510568F004C1BAC15F3FECF3983EC5
:103DE000DCF3869577956795B795F7959F5FC9F74B
:103DF000880F911D9695879597F90895E1E0660FD4
:103E0000771F881FBB1F621773078407BA0720F04C
:103E1000621B730B840BBA0BEE1F88F7E0950895B5
:103E200004D06894B11193C1089576D188F09F575A
:103E300090F0B92F9927B751A0F0D1F0660F771FF6
:103E4000881F991F1AF0BA95C9F712C0B13081F0D6
:103E50007DD1B1E008957AC1672F782F8827B85FA8
:103E600039F0B93FCCF3869577956795B395D9F737
:103E70003EF490958095709561957F4F8F4F9F4F41
:103E80000895E89409C097FB3EF49095809570954D
:103E900061957F4F8F4F9F4F9923A9F0F92F96E996
:103EA000BB279395F695879577956795B795F1110B
:103EB000F8CFFAF4BB0F11F460FF1BC06F5F7F4FA8
:103EC0008F4F9F4F16C0882311F096E911C07723BA
:103ED00021F09EE8872F762F05C0662371F096E8C3
:103EE000862F70E060E02AF09A95660F771F881F92
:103EF000DAF7880F9695879597F90895ADD018F061
:103F000011F0B1D038F480C022C1E92FFDD0B0F358
:103F10005523C9F3E7FB6217730784079507A8F1D8
:103F200099F3E92FFF2788232AF03197660F771F2F
:103F3000881FDAF7952F5527442332F091505040CF
:103F4000220F331F441FD2F7BB27E91BF50B621B5F
:103F5000730B840BB109C1F222F4620F731F841F2B
:103F6000B11D31972AF0660F771F881FBB1FEFCF57
:103F7000915050405AF041F0882332F0660F771F7D
:103F8000881F91505040C1F7939530C08695779522
:103F900067959F5FD9F7F8CF990F0008550FAA0BC7
:103FA000E0E8FEEF16161706E807F907C0F012164C
:103FB0001306E407F50798F0621B730B840B950B4F
:103FC00039F40A2661F0232B242B252B21F40895A4
:103FD0000A2609F4A140A6958FEF811D811D089541
:103FE00097F99F6780E870E060E008959F3F31F0A7
:103FF000915020F4879577956795B795880F911D17
:104000009695879597F908959FEF80EC0895DF9333
:10401000CF931F930F93FF92EF92DF927B018C015E
:10402000689405C0DA2EEF01AFD0FE01E894A591A7
:104030002591359145915591AEF3EF01CDDDFE010E
:104040009701A801DA9479F7DF90EF90FF900F9134
:104050001F91CF91DF91089500240A941616170638
:1040600018060906089500240A9412161306140669
:1040700005060895C9CF50D0E8F3E894E0E0BB27E7
:104080009F57F0F02AED3FE049EC06C0EE0FBB0F62
:10409000661F771F881F28F0B23A620773078407EC
:1040A00028F0B25A620B730B840BE3959A9572F762
:1040B000803830F49A95BB0F661F771F881FD2F7A0
:1040C000904896CF092E0394000C11F4882352F0E7
:1040D000BB0F40F4BF2B11F460FF04C06F5F7F4F34
:1040E0008F4F9F4F0895EF93E0FF06C0A2EA2AED9D
:1040F0003FE049EC5FEB70DDE5DF0F90039401FCDE
:104100009058E5E9F0E0E9C057FD9058440F551F7D
:1041100059F05F3F71F04795880F97FB991F61F049
:104120009F3F79F087950895121613061406551FC0
:10413000F2CF4695F1DF08C0161617061806991F2C
:10414000F1CF86957105610508940895E894BB2721
:1041500066277727CB0197F908951EDF08F48FEFC4
:1041600008959B01AC0160E070E080E89FE3F0CD32
:104170000BD0A8CF71DF28F076DF18F0952309F077
:104180002FCF42CF1124E3CFBFDFA0F3959FD1F310
:10419000950F50E0551F629FF001729FBB27F00DF5
:1041A000B11D639FAA27F00DB11DAA1F649F66274A
:1041B000B00DA11D661F829F2227B00DA11D621F99
:1041C000739FB00DA11D621F839FA00D611D221F53
:1041D000749F3327A00D611D231F849F600D211D37
:1041E000822F762F6A2F11249F5750408AF0E1F0DA
:1041F00088234AF0EE0FFF1FBB1F661F771F881F23
:1042000091505040A9F79E3F510570F0E9CE9FCFE5
:104210005F3FECF3983EDCF3869577956795B7950D
:10422000F795E7959F5FC1F7FE2B880F911D969537
:10423000879597F908959F931EDF0F9007FCEE5F17
:1042400052CF11F40EF4E0CED1CE66DFD0F3992335
:10425000D9F3CEF39F57550B87FF38D00024A0E643
:1042600040EA900180585695979528F4805C660F37
:10427000771F881F20F026173707480730F4621B86
:10428000730B840B202931294A2BA6951794079488
:10429000202531254A2758F7660F771F881F20F001
:1042A00026173707480730F4620B730B840B200D79
:1042B000311D411DA09581F7B901842F9158880FB8
:1042C0009695879508959B01AC0152CF915050402F
:1042D000660F771F881FD2F708959F938F937F9360
:1042E0006F93FF93EF939B01AC0142DFEF91FF913E
:1042F0008EDE2F913F914F915F913ACFDB018F93EB
:104300009F930E94F721BF91AF91A29F800D911DB5
:10431000A39F900DB29F900D11240895AA1BBB1B63
:1043200051E107C0AA1FBB1FA617B70710F0A61BB5
:10433000B70B881F991F5A95A9F780959095BC01D6
:10434000CD01089597FB072E16F4009407D077FD52
:1043500009D00E948E2107FC05D03EF490958195EE
:104360009F4F0895709561957F4F0895A1E21A2E91
:10437000AA1BBB1BFD010DC0AA1FBB1FEE1FFF1F09
:10438000A217B307E407F50720F0A21BB30BE40B59
:10439000F50B661F771F881F991F1A9469F76095A0
:1043A0007095809590959B01AC01BD01CF0108955A
:1043B000052E97FB1EF400940E94EF2157FD07D0B5
:1043C0000E94B62107FC03D04EF40C94EF215095C7
:1043D0004095309521953F4F4F4F5F4F08959095F1
:1043E0008095709561957F4F8F4F9F4F08950E94E4
:1043F0000822A59F900DB49F900DA49F800D911D44
:1044000011240895EE0FFF1F0590F491E02D0994FB
:10441000A29FB001B39FC001A39F700D811D112405
:10442000911DB29F700D811D1124911D0895EF9271
:104430000F931F93CF93DF93E80147FF02C034E14E
:1044400001C034E0E42FFF27E7FDF095F7FF03C03C
:10445000F195E195F109E32E022F2E2FAE010E9476
:104460004C24CE01DF91CF911F910F91EF900895D1
:10447000CF93DF938230910510F482E090E0E091D9
:10448000FF05F091000620E030E0A0E0B0E03097BA
:1044900039F14081518148175907B8F04817590739
:1044A00071F482819381109729F013969C938E93D7
:1044B00012972CC0909300068093FF0527C021150A
:1044C000310531F04217530718F0A901DB0101C093
:1044D000EF019A01BD01DF010280F381E02DD7CF0A
:1044E00021153105F9F0281B390B2430310580F4F2
:1044F0008A819B816115710521F0FB019383828381
:1045000004C0909300068093FF05FE01329644C0DC
:10451000FE01E20FF31F81939193225031093983F9
:1045200028833AC02091FD053091FE05232B41F4EC
:1045300020910201309103013093FE052093FD0587
:1045400020910001309101012115310541F42DB771
:104550003EB74091040150910501241B350BE091B9
:10456000FD05F091FE05E217F307A0F42E1B3F0BAB
:104570002817390778F0AC014E5F5F4F24173507D5
:1045800048F04E0F5F1F5093FE054093FD05819349
:10459000919302C0E0E0F0E0CF01DF91CF91089568
:1045A000CF93DF93009709F487C0FC013297138201
:1045B0001282C091FF05D0910006209781F42081DE
:1045C0003181280F391F8091FD059091FE058217DA
:1045D000930779F5F093FE05E093FD056DC0DE01CC
:1045E00020E030E0AE17BF0750F412964D915C9179
:1045F00013979D014115510509F1DA01F3CFB383FA
:10460000A28340815181840F951F8A179B0771F403
:104610008D919C911197840F951F029691838083B1
:1046200012968D919C911397938382832115310566
:1046300029F4F0930006E093FF053EC0D9011396DC
:10464000FC93EE9312974D915D91A40FB51FEA175D
:10465000FB0779F480819181840F951F0296D9011F
:1046600011969C938E938281938113969C938E9343
:104670001297E0E0F0E08A819B81009719F0FE013B
:10468000EC01F9CFCE01029628813981820F931F68
:104690002091FD053091FE052817390769F4309700
:1046A00029F4109200061092FF0502C013821282B4
:1046B000D093FE05C093FD05DF91CF910895A0E052
:1046C000B0E0E5E6F3E20C942428EC01CB0120975E
:1046D00019F40E943822B8C0FE01E60FF71F9E01B0
:1046E00022503109E217F30708F4ACC0D9010D914B
:1046F0001C91119706171707B8F00530110508F43B
:104700009FC0A801445051094617570708F498C0A4
:1047100002501109061B170B019311936D937C93A3
:10472000CF010E94D0228CC05B01A01AB10A4E01B9
:10473000800E911EA091FF05B0910006612C712C96
:1047400060E070E0109709F449C0A815B905C9F5F3
:10475000ED90FC901197670142E0C40ED11CCA1481
:10476000DB0478F147018A189B08640142E0C40E1B
:10477000D11C1296BC9012971396AC91B5E0CB1653
:10478000D10440F0B282A38391828082D9018D93BB
:104790009C9309C00E5F1F4F0E0D1F1DF901118361
:1047A0000083EB2DFA2F6115710531F0DB011396B3
:1047B000FC93EE93129744C0F0930006E093FF053C
:1047C0003FC06D917C9111976616770608F43B0106
:1047D000BD0112960D90BC91A02DB4CF6091FD0546
:1047E0007091FE0568157905E9F468167906D0F42C
:1047F00040910001509101014115510541F44DB71F
:104800005EB76091040170910501461B570BE417D8
:10481000F507C0F4F093FE05E093FD05F9019183DF
:1048200080830EC00E9438227C01009759F0A801B5
:10483000BE010E943524CE010E94D022C70104C0CF
:10484000CE0102C080E090E0CDB7DEB7EEE00C9480
:104850004028662777270C94CA259111D6C3803249
:1048600019F089508550D0F70895FB01DC0102C092
:1048700001900D9241505040D8F70895DC0101C0DD
:104880006D9341505040E0F70895FB01DC01019029
:104890000D920020E1F708956F927F929F92AF9260
:1048A000BF92CF92DF92EF92FF920F931F93CF931D
:1048B000DF93CDB7DEB729970FB6F894DEBF0FBEF2
:1048C000CDBF6A01B22E102F0C3320F4FF24F394D5
:1048D000F00E02C04CE3F42E0F2D27E0AE014F5F27
:1048E0005F4F0E942D277981272F2970213031F0C9
:1048F000E1FC06C0E0FC06C060E005C06DE203C05C
:104900006BE201C060E2AE2DA07173FF36C066237A
:1049100011F084E001C083E08B1510F4B81A01C0D7
:10492000B12CA1110BC0F6018B2D90E2882319F058
:1049300091938150FBCFCB0CD11CB12C662331F06D
:10494000F601608396012F5F3F4F6901C601039610
:10495000E2FE05C02EE4F601208331E404C02EE619
:10496000F601208331E631832283FC012B2D30E2D6
:104970002223F1F131932150FBCF72FF40C0662317
:1049800011F084E001C083E08B1510F4B81A01C067
:10499000B12CA1110BC0F6018B2D90E2882319F0E8
:1049A00091938150FBCFCB0CD11CB12C662331F0FD
:1049B000F601608396012F5F3F4F6901C6010396A0
:1049C000E2FE07C029E4F60120832EE4218326E4D9
:1049D00006C029E6F60120832EE6218326E62283FF
:1049E000FC012B2D30E2222319F031932150FBCF13
:1049F000FC01EB0DF11D10828EEF9FEFB7C0B1E00F
:104A0000611101C0B0E04B2F50E01816190624F4D4
:104A10009C012F5F3F4F02C021E030E0240F351F83
:104A2000112329F0412F50E04F5F5F4F02C040E05B
:104A300050E0420F531F2B2D30E04217530714F460
:104A4000B41A01C0B12C2E2D287159F4F6012B2D6A
:104A500030E2222319F031932150FBCFCB0CD11C33
:104A6000B12CBB2331F0F601608396012F5F3F4FDD
:104A70006901A1110BC0F6012B2D30E3222319F09F
:104A800031932150FBCFCB0CD11CB12CF80E0A81F5
:104A9000372F3071A32E74FF03C0013309F4FA9449
:104AA0001F142CF42F2D293018F028E001C021E02C
:104AB000682F392F97FF02C060E030E0462F532F58
:104AC000612C712C3EE2932EBC01621B71099B018B
:104AD000DC01A41BB50BE1E0F0E0EC0FFD1FAE0F15
:104AE000BF1FE12EF12CF194E194F1084F3FFFEF4D
:104AF0005F0731F4F6019082B6016F5F7F4F6B0163
:104B0000841795074CF02417350734F4BD01660D62
:104B1000771DFB01118101C010E341505109FFEFE6
:104B20006F1A7F0AB6016F5F7F4F4E155F0524F045
:104B3000F60110836B01DACF4817590739F40633B1
:104B400020F4053319F4A11001C011E3F60110831C
:104B5000FB018B2D90E2882319F091938150FBCFBC
:104B6000FB01EB0DF11D108280E090E029960FB65D
:104B7000F894DEBF0FBECDBFDF91CF911F910F9193
:104B8000FF90EF90DF90CF90BF90AF909F907F907D
:104B90006F900895A0E0B0E0E0EDF5E20C942628D7
:104BA0008B016115710521F0DB018C9311969C93AB
:104BB000EC015E01BFEFAB1ABB0A7501C8808C2DFA
:104BC00090E00E942D24892B11F0E501F2CFEDE257
:104BD000CE1208C07E01F2E0EF0EF11CC980DD2488
:104BE000D39409C02BE2C21205C07E0142E0E40E5C
:104BF000F11CC980D12CE701219743E050E066E128
:104C000071E0CE010E940828892BC1F4239645E06B
:104C100050E061E171E0CE010E940828892B09F47F
:104C200025960115110519F0D801CD93DC93D1100B
:104C300006C160E070E080E89FE70AC143E050E011
:104C40006EE071E0CE010E940828892B59F401150D
:104C5000110509F4F9C0B2E0EB0EF11CF801F18284
:104C6000E082F2C0F70160E070E0CB01C0E0D0E08C
:104C70007F01A0EDAA2EAC0C29E02A1530F14D2DB4
:104C80004260B42E2D2D2870D2FE04C0211125C003
:104C9000219623C021112197A5E0B0E09B01AC0132
:104CA0000E94F721660F771F881F991F6A0D711DDB
:104CB000811D911D6839A9E97A078A07A9E19A0738
:104CC00060F0BD2DB660BB2E08C02EEFA2120AC048
:104CD000D3FC50C04D2D4860B42E3196D701CC90F6
:104CE000DB2CC6CF2C2D2F7D253409F043C0A081AD
:104CF000AD3241F4BD2DB061DB2E7F0122E0E20E2A
:104D0000F11C0CC07F01AB3231F04FEFE41AF40A12
:104D100021E030E006C0A2E0EA0EF11CA18122E011
:104D200030E0A053AA3018F0E21AF30A23C0F701CA
:104D300020E030E02038BCE03B075CF4A901440FE0
:104D4000551F440F551F240F351F220F331F2A0FE5
:104D5000311DAF014F5F5F4F7A01A081A053AA3090
:104D600010F4FA01E7CFD4FE03C031952195310943
:104D7000C20FD31FD1FE09C00115110531F0E1E0CA
:104D8000EE1AF108D801ED92FC920E94411F2D2DE0
:104D90002370233019F04B015C0106C04B015C010C
:104DA000B7FAB094B7F8B09420E030E0A901C5019B
:104DB000B4010E94A11E882309F43EC0D7FF06C09B
:104DC000D195C195D1090DE211E002C005E411E0D1
:104DD0006801B8E1CB1AD10890E2E92EF12CCE158A
:104DE000DF0574F0F8012591359145915491C50185
:104DF000B4010E94B8204B015C01CE19DF09EFCF4E
:104E000004501109F594E7940C151D0541F78A2DFE
:104E1000880F8B2D881F8F3F49F020E030E0A901DB
:104E2000C501B4010E94A11E811106C082E290E07A
:104E30009093020680930106C501B40109C060E0A9
:104E400070E080E89FEF04C060E070E080EC9FE7D6
:104E5000CDB7DEB7ECE00C944228283008F027E00C
:104E60003327DA01990F311D87FD916000966105A6
:104E7000710539F432602E5F3D9330E32A95E1F7F6
:104E800008959F3F30F080387105610509F03C5F5F
:104E90003C5F3D93913008F08068911DDF93CF9384
:104EA0001F930F93FF92EF92192F987F9695E92FFA
:104EB00096959695E90FFF27ED55FE4F99273327D5
:104EC000EE24FF24A701E70105900894079428F435
:104ED000360FE71EF81E491F511D660F771F881FEA
:104EE000991F0694A1F70590079428F4E70EF81E81
:104EF000491F561FC11D770F881F991F661F0694F3
:104F0000A1F70590079428F4F80E491F561FC71FF4
:104F1000D11D880F991F661F771F0694A1F7059072
:104F2000079420F4490F561FC71FD81F990F661FFB
:104F3000771F881F0694A9F784911095177041F088
:104F4000D695C79557954795F794E7941A95C1F765
:104F5000E9E4F1E06894159015913591659195918A
:104F600005907FE27395E118F10A430B560BC90BCC
:104F7000D009C0F7E10CF11E431F561FC91FD01DF9
:104F80007EF4703311F48A95E6CFE894015030F046
:104F9000080F0AF40027021708F4202F2395022F88
:104FA0007A3328F079E37D932A95E9F710C07D9351
:104FB0002A9589F6069497956795379517951794CE
:104FC000E118F10A430B560BC90BD00998F0239551
:104FD0007E9173957A3308F070E37C932013B8F7D1
:104FE0007E9170617D9330F0839571E37D9370E3E2
:104FF0002A95E1F71124EF90FF900F911F91CF9127
:10500000DF91992787FD909508959927882708951E
:10501000FB01DC014150504088F08D9181341CF03F
:105020008B350CF4805E659161341CF06B350CF4AB
:10503000605E861B611171F3990B0895881BFCCF8C
:105040002F923F924F925F926F927F928F929F9298
:10505000AF92BF92CF92DF92EF92FF920F931F9386
:10506000CF93DF93CDB7DEB7CA1BDB0B0FB6F89437
:10507000DEBF0FBECDBF09942A88398848885F8477
:105080006E847D848C849B84AA84B984C884DF80E8
:10509000EE80FD800C811B81AA81B981CE0FD11DCC
:1050A0000FB6F894DEBF0FBECDBFED01089512E03C
:1050B000CCE4D2E004C0FE010E9404222296CE3449
:0850C000D107C9F7F894FFCFF6
:1050C800000003068000010000000300FFFFFFFF4F
:1050D80001244750524D432C3036343935312E3067
:1050E80030302C412C323330372E313235362C4E7D
:1050F8002C31323031362E343433382C452C302E86
:1051080030332C3136352E34382C32363034303674
:105118002C332E30352C572C412A324300536574DA
:1051280020546172676574004750204D6573736140
:105138006765200055746374696D65200053746158
:1051480074757320004C617420004C617449200010
:105158004C6F6E6720004C6F6E6749200053706576
:1051680065642000436F757273652000446174653F
:1051780020004D61677661722000574520004D6F11
:105188006465200050617273696E6700536574200E
:1051980044697374616E636520616E642042656161
:1051A80072696E6700000000001D0B330BD50B6D94
:1051B8000B770B4E0B000000002E12211B00000085
:1051C80000A519211B27194019321983190D0A0046
:0E51D8006E616E00696E66006F7666002E00D6
:00000001FF
