:100000000C9466000C948E000C948E000C942402C8
:100010000C9424020C9424020C948E000C948E00F8
:100020000C948E000C948E000C948E000C948E0018
:100030000C948E000C948E000C948E000C948E0008
:100040000C94980B0C948E000C942F0E0C94610E53
:100050000C948E000C948E000C948E000C948E00E8
:100060000C948E000C948E00000000080002010029
:100070000003040700000000000000000102040863
:100080001020408001020408102001020408102002
:10009000040404040404040402020202020203032E
:1000A00003030303000000002300260029000000D2
:1000B0000000250028002B0000000000240027007D
:1000C0002A00C700B5030C06910ECE0011241FBEF6
:1000D000CFEFD8E0DEBFCDBF11E0A0E0B1E0EAE3B2
:1000E000F2E202C005900D92A23AB107D9F725E0DD
:1000F000A2EAB1E001C01D92A638B207E1F710E014
:10010000CAECD0E004C02297FE010E94AE0FC23CB0
:10011000D107C9F70E94D50E0C9410110C94000061
:1001200026E040E052EC61E070E087EE94E00E944F
:10013000CD0D40E855E260E070E082EA91E00E9477
:1001400027036CE071E082EA91E00E94260F6DE1E6
:1001500071E082EA91E00E94260F66E371E082EA94
:1001600091E00C94260F1F93CF93DF93182FC8EEC6
:10017000D3E0812F0E94C10C892B21F42197C9F76C
:1001800081E001C080E0DF91CF911F91089520E0D0
:1001900047E068E082EA91E00C94F70282EA91E09D
:1001A0000C949E02CF93DF9380E8E2ECF1E0DF0154
:1001B0001D928A95E9F7C0E082EA91E00E94B501BC
:1001C0000196D1F382EA91E00E944101AC2FB0E0A8
:1001D000AE53BE4F8C93CC2329F0843219F4809314
:1001E000C201C0E08091C201843231F781E08C0FFE
:1001F000EC2FF0E0EE53FE4F90819A3011F0C82FB3
:10020000DBCF90E0FC01E054FE4F1082EC0125971B
:10021000FE01EE53FE4F20812A3269F640E150E0A4
:1002200060E070E082549E4F0E94C10F21E0822F57
:1002300090E08C179D073CF4FC01EE53FE4F80814B
:1002400068272F5FF4CF6111B6CFDF91CF9108956A
:1002500080910601909107010E94B300882349F024
:100260008091C1018F5F8093C101843010F01092A2
:10027000C1010E94D20062EC71E087EE94E00C9420
:10028000260F209187023091880228173907B9F488
:100290009091450280914602981789F0E0914502BD
:1002A000F0E0E95BFD4F80812091450230E02F5F57
:1002B0003F4F2F7333272093450290E008958FEF2F
:1002C0009FEF08951F93CF93DF93DC015C968D9190
:1002D0009C915D97009749F481E090E013969C9380
:1002E0008E93129780E090E03BC05196ED91FC9187
:1002F000529750962C915097322F30951FB75E969B
:100300004C915E9741FB772770F941FD6095F89419
:100310004081772311F0422B01C043234083EC013D
:100320002197F1F748E0508160FF02C0522B01C0D5
:1003300053235083EC012197F1F76695415099F7CB
:100340008081772311F0832301C0822B80831FBF1C
:100350005C968D919C915D970197F1F781E090E01B
:10036000DF91CF911F9108950895209187023091D8
:1003700088022817390771F490914502809146024E
:10038000981741F0E0914502F0E0E95BFD4F808174
:1003900090E008958FEF9FEF0895209187023091AC
:1003A00088022817390771F480914602209145028E
:1003B00090E0805C9F4F821B910960E470E00E9496
:1003C000380F089580E090E00895E0918702F09161
:1003D0008802E817F90769F4A389B4899C91858993
:1003E000809589238C93109288021092870281E075
:1003F000089580E00895CF93DF93EC018A8D9B8D63
:10040000892BF1F080918702909188028C179D07CB
:10041000B9F0009711F00E94E5018E8D8E7F8E8FCE
:100420001092460210924502D0938802C093870230
:10043000EB89FC8980819D89892B808381E001C0C3
:1004400080E0DF91CF9108951F920F920FB60F9227
:1004500011242F933F934F935F936F937F938F93C9
:100460009F93AF93BF93EF93FF93E0918702F09137
:100470008802309709F451C0868DA685B785958589
:1004800081FF04C08C91892329F447C08C91892372
:1004900009F043C0A389B4899C91858980958923FB
:1004A0008C93868997890197F1F7208D318DA685E8
:1004B000B785758558E040E0C9010197F1F7842FB1
:1004C00090E095958795482F6C91672309F04068D7
:1004D000515091F7868D81FD40958091460290E0C4
:1004E00001968F73992720914502281749F0A09112
:1004F0004602B0E0A95BBD4F4C938093460203C017
:10050000868D8160868F828D938D0197F1F7A38907
:10051000B4898C919589892B8C93FF91EF91BF9130
:10052000AF919F918F917F916F915F914F913F918B
:100530002F910F900FBE0F901F9018952CE631E071
:10054000FC01318320830C94E5011F93CF93DF934B
:10055000EC01162F6E8D6695617081E06827812F02
:100560000E948B0C61E0812F0E94520C812F90E041
:10057000FC01E458FF4FE491E88BFC01E057FF4F8A
:10058000E491F0E0EE0FFF1FE255FF4F859194914B
:100590009A8B898BDF91CF911F9108951F93CF93F1
:1005A000DF93EC01162F60E0812F0E94520C8E8D9C
:1005B00081FD04C061E0812F0E948B0C1C87812F7C
:1005C00090E0FC01E458FF4FE491ED87FC01E05717
:1005D000FF4FE491F0E0EE0FFF1FEC55FF4F8591C8
:1005E00094919F878E87DF91CF911F910895FF92FD
:1005F0000F931F93CF93DF93EC01F62E522F1B82A4
:100600001A8208EE13E020E030E00C831D832E8375
:100610003F838CE691E0998388831F8A1E8A198E16
:10062000188E1B8E1A8E1D8E1C8E8E8D8E7F50FB0B
:1006300081F98E8F642FCE010E94A5026F2DCE010D
:10064000DF91CF911F910F91FF900C94CE02CF9329
:10065000DF93EC019A01AB011B8E1A8E198E188E56
:100660001F8A1E8A60E079E08DE390E00E946E0FA1
:10067000C9012430310520F0B9016350710902C06D
:1006800061E070E07D8F6C8FEC85E63108F068C02A
:10069000B901769567956431710518F06351710958
:1006A00002C061E070E07F8B6E8B069718F0C90185
:1006B000059702C081E090E0998F888FC901880F6B
:1006C000991F820F931F96958795969587958D30E4
:1006D000910510F00C9702C081E090E09B8F8A8F0B
:1006E00020916800E83050F091E0EE3008F490E09E
:1006F00081E001C0880F9A95EAF701C084E0822B5F
:10070000809368002C85283038F02E3040F0263158
:1007100048F48CE690E008C08DE690E005C08BE6DA
:1007200090E002C080E090E09C8B8B8B283030F40E
:1007300081E001C0880F2A95EAF70DC0822F90E072
:100740002E3010F4089701C00E9791E001C0990F68
:100750008A95EAF7892F8D8B8C8D9D8D0197F1F706
:10076000CE01DF91CF910C94FB0110928E0210927A
:100770008F02109292021092940282E090E0A0E028
:10078000B0E08093950290939602A0939702B09365
:1007900098021092AC021092B6021092B5028CE749
:1007A00091E09093B4028093B3021092B80208953E
:1007B0009FB7F8942091440280914202213019F4AD
:1007C0008DBB9FBF08958FBF0895209144022223BF
:1007D00099F03FB7F89420914402213059F42DB399
:1007E000209342024DB320914302209524232DBB38
:1007F0003FBF02C0309342028CBD9DBD08958EBDA7
:1008000000000DB407FEFDCF8EB508958FEF0C9458
:10081000FF0361E0FC0184810E948B0C8091D20275
:10082000882339F01092D2028091440281110C94F5
:10083000D8030895CF93DF93EC018091D202811108
:1008400009C081E08093D2028091D3029091D402BA
:100850000E94E50360E08C81DF91CF910C948B0CBA
:10086000CF93DF93EC018E81882389F08F81988567
:100870009C012F5F3F4F38872F838230924018F4BE
:100880000E940604F3CFCE010E9409041E82DF916C
:10089000CF9108950F931F93CF93DF93EB010E94A5
:1008A000E20B8B010E9406048F3F49F00E94E20B8D
:1008B000601B710B6C177D07A8F380E001C081E01D
:1008C000DF91CF911F910F910895CF92DF92FF9208
:1008D0000F931F93CF93DF9300D000D0CDB7DEB737
:1008E0006C01F62E29833A834B835C830E9430048B
:1008F000C6010E941A046CE271E0C6010E944A041B
:100900008F2D80640E94FF0308E110E05C814B8121
:100910003A812981DA01C901002E04C0B695A79554
:10092000979587950A94D2F729833A834B835C8302
:100930000E94FF030850110929813A814B815C8193
:10094000083F8FEF180731F7FF2029F0E8E0FE1687
:1009500021F08FEF03C085E901C087E80E94FF0303
:1009600010E00E940604F601828787FF04C01F3F43
:1009700011F01F5FF6CF0F900F900F900F90DF9147
:10098000CF911F910F91FF90DF90CF9008950F931B
:100990001F93CF93DF93EC010E94E20B8B010E9427
:1009A00006048A878F3F49F40E94E20B601B710B9B
:1009B0006D327140A0F38FE003C08E3F39F08DE0BF
:1009C0008D83CE010E94090480E001C081E0DF91A7
:1009D000CF911F910F910895CF92DF92EF92FF92E6
:1009E0000F931F93CF93DF93EC016901011511055C
:1009F00009F462C0C801820F931F8130924008F051
:100A00005DC08E81882371F088819981AA81BB8124
:100A1000481759076A077B0729F48F819885C816FC
:100A2000D90610F5488359836A837B838B8583308D
:100A300039F039E0440F551F661F771F3A95D1F7FB
:100A40009A01AB0161E1CE010E946504882319F08F
:100A500083E08D8333C0CE010E94C704882371F1E7
:100A600018861F8281E08E838F8198858C159D0565
:100A700040F40E9406048F819885019698878F83A1
:100A8000F3CF6701E00EF11ECE14DF0431F00E94B7
:100A90000604F60181936F01F7CF8F819885800F4F
:100AA000911F98878F832985222319F08115924001
:100AB00018F0CE010E94300481E004C0CE010E94F3
:100AC000090480E0DF91CF911F910F91FF90EF908B
:100AD000DF90CF900895EF92FF920F931F937901CB
:100AE00000E012E020E030E00E94EC041F910F9142
:100AF000FF90EF900895CF92DF92EF92FF920F93C5
:100B00001F93CF93DF9300D0CDB7DEB78C01862F34
:100B100049835A830E94FF034981C42E5A81D52EEE
:100B2000E12CF12CF60181916F010E94FF03FFEF90
:100B3000EF1AFF0AE11482E0F806A1F78FEF0E9496
:100B4000FF038FEF0E94FF030E940604F8018287D3
:100B50008F71853039F081E18583C8010E940904D5
:100B600080E001C081E00F900F90DF91CF911F9145
:100B70000F91FF90EF90DF90CF9008950F931F9308
:100B8000CF93DF93EC018901411551056105710592
:100B900011F482E132C08B85833039F089E0440F53
:100BA000551F661F771F8A95D1F79A01AB0168E13F
:100BB000CE010E946504882311F084E01EC0A801C4
:100BC0006EEFCE010E947B058823C1F068E572E0DC
:100BD000CE010E944A04811102C085E10EC020E0CE
:100BE00030E0A9016DE0CE010E946504811104C0CE
:100BF0000E940604882339F084E18D83CE010E948F
:100C0000090480E004C0CE010E94090481E0DF9164
:100C1000CF911F910F91089580E58093D302109298
:100C2000D4020895CF93DF93EC019C012A5F3F4FDC
:100C300041E050E060E070E08B8D9C8D0E94830A63
:100C40008823A1F04F89588D698D7A8D452B462BCD
:100C5000472B71F44E815F81688579854F8B588F62
:100C6000698F7A8F8C8180688C8302C080E001C09C
:100C700081E0DF91CF910895CF93DF93EC01462F70
:100C80006E857F85888999890E942309882341F090
:100C90008A8920E2829FC001112482529D4F02C0A6
:100CA00080E090E0DF91CF9108954F925F926F9234
:100CB0007F92AF92BF92CF92DF92EF92FF920F930B
:100CC0001F93CF93DF93EC016A017B012D812223D7
:100CD00009F457C08B899C89AD89BE898417950713
:100CE000A607B70708F44DC04EC08A859B85AC8522
:100CF000BD85EB8DFC8DE585F0E03996AC01BD013D
:100D000041505109610971090E2E04C0769567950D
:100D1000579547950A94D2F797018601015011091A
:100D20002109310904C03695279517950795EA954D
:100D3000D2F70417150726073707B0F58F89988D66
:100D4000A98DBA8D8E839F83A887B9872801390121
:100D50005E0186E0A80EB11C4114510461047104C7
:100D600061F14E815F816885798595018B8D9C8DC0
:100D70000E945E0991E0491A5108610871088111C9
:100D8000EBCF80E01FC02230C1F0C114D104E104D8
:100D9000F10409F0AACF1E821F82188619861A86CE
:100DA0001B861C861D860DC0892B8A2B8B2B31F24E
:100DB000041B150B260B370BC9CFCA86DB86EC86C6
:100DC000FD8681E0DF91CF911F910F91FF90EF9011
:100DD000DF90CF90BF90AF907F906F905F904F90DB
:100DE00008950F931F93CF93DF93EC018D81882398
:100DF000C9F18C8187FF30C061E0CE010E943C06C2
:100E00008C01009779F18D81823048F44B895C899F
:100E10006D897E89F801448F558F668F778F4F8952
:100E2000588D698D7A8DF801538F428F758B648B45
:100E3000E091D502F091D602309759F0B8016A5E80
:100E40007F4FC80148960995F801808D918D938B4D
:100E5000828B8C818F778C83DF91CF911F910F9143
:100E60000C94E80880E0DF91CF911F910F910895D5
:100E70002F923F924F925F926F927F928F929F92AA
:100E8000AF92BF92CF92DF92EF92FF920F931F9398
:100E9000CF93DF9300D000D01F92CDB7DEB78C0187
:100EA0007B013A01DC0115968C9115978130C9F4CC
:100EB00014968C9181FF15C082FF1BC0F8014389F5
:100EC00054896589768982859385A485B58584173B
:100ED0009507A607B70769F0C8010E94550681115A
:100EE00008C081E090E0F8019383828380E090E085
:100EF00046C1630180C0D8015B968D919C915C973F
:100F0000FC01F481F150B501A40129E076956795C3
:100F1000579547952A95D1F7F423FD8321E0922236
:100F2000FF2309F474C080E092E088199909560102
:100F30008C159D0508F45C01D8015B96ED91FC9140
:100F40005C9716962D903D904D905C901997B2E06D
:100F50002B1A310841085108058404C0220C331CA7
:100F6000441C551C0A94D2F786859785A089B189BF
:100F7000280E391E4A1E5B1EED812E0E311C411CAF
:100F8000511CA114F2E0BF0609F088C0809108014D
:100F900090910901A0910A01B0910B01821593056E
:100FA000A405B50559F48FEF9FEFDC01809308018C
:100FB00090930901A0930A01B0930B019701B2012C
:100FC000A1018091DC029091DD020E94BE05882380
:100FD00009F487CF9EEFF91ACA18DB08F801828559
:100FE0009385A485B5858A0D9B1DA11DB11D8287A2
:100FF0009387A487B587D8011A968D909D90AD9060
:10100000BC901D97C114D10409F075CF8AC081141A
:10101000910409F088CF16964D915D916D917C9168
:101020001997411551056105710559F457968D9130
:101030009D910D90BC91A02D0097A105B10541F5A2
:1010400021C09E012F5F3F4F0E945E09882309F453
:101050004ECF89819A81AB81BC81F801238D348D7B
:10106000F9012789203129F448EF5FEF60E070E053
:1010700004C048EF5FEF6FEF7FE084179507A60786
:10108000B70730F0C8010E94120681114CCF29CF5A
:10109000F80186839783A087B18745CF8114910497
:1010A00029F5D8011A964D915D916D917C911D970E
:1010B00053968D919D910D90BC91A02D4817590785
:1010C0006A077B0798F00E94E808882309F409CF93
:1010D000209208013092090140920A0150920B01BE
:1010E0008091DB0281608093DB0208C041E0C20195
:1010F000B1010E942309882309F4F3CEC40182526E
:101100009D4FD7019C012A0D3B1DFC01E217F307FF
:1011100019F04D914193FACFE81BF90BEE0EFF1E2B
:101120005BCF53968D919D910D90BC91A02DF801B0
:10113000248188159905AA05BB0538F4838A948A09
:10114000A58AB68A206824830CC08091D50290912C
:10115000D602892B31F06114710419F02068F8016E
:101160002483D80114968C9183FD02C0C30107C06B
:10117000C8010E94F106882309F4B3CEF7CF0F907F
:101180000F900F900F900F90DF91CF911F910F91C3
:10119000FF90EF90DF90CF90BF90AF909F908F9097
:1011A0007F906F905F904F903F902F900895CF93D6
:1011B000DF931F92CDB7DEB7698341E050E0BE01F7
:1011C0006F5F7F4F0E9438070F90DF91CF91089596
:1011D0008091DB02882399F1409108015091090127
:1011E00060910A0170910B012EED32E08091DC02DA
:1011F0009091DD020E94BE05882319F14091D7022B
:101200005091D8026091D9027091DA0241155105CE
:101210006105710591F02EED32E08091DC02909134
:10122000DD020E94BE05882361F01092D702109261
:10123000D8021092D9021092DA021092DB0281E0F9
:10124000089580E00895CF92DF92EF92FF92CF93BE
:101250006B017C01C42F8091080190910901A0913C
:101260000A01B0910B018C159D05AE05BF05D1F0AB
:101270000E94E808811102C080E01AC02EED32E021
:10128000B701A6018091DC029091DD020E946B05FE
:10129000882391F3C0920801D0920901E0920A01DB
:1012A000F0920B018091DB028C2B8093DB0281E0BA
:1012B000CF91FF90EF90DF90CF9008958F929F9203
:1012C000AF92BF92CF92DF92EF92FF920F931F9354
:1012D000CF93DF938C016A017B01E901FC018185D9
:1012E0009285A385B4850196A11DB11D841795072C
:1012F000A607B70710F480E058C0F8014389548965
:10130000658976898789803129F4BB27AF2D9E2D89
:101310008D2D09C0D701C60127E0B695A7959795F1
:1013200087952A95D1F74C015D01840E951EA61E66
:10133000B71EC501B4018090080190900901A090EA
:101340000A01B0900B01681579058A059B0589F49F
:10135000F8018789803199F4DD24EE24FF24F60119
:10136000EE0FFF1FE252FD4F80819181A0E0B0E0BF
:1013700017C040E00E9423098111EACFBCCFE89456
:10138000C7F8DD24EE24FF24F601EE0FFF1FEE0F59
:10139000FF1FE252FD4F80819181A281B381BF7016
:1013A00088839983AA83BB8381E0DF91CF911F91CA
:1013B0000F91FF90EF90DF90CF90BF90AF909F90F4
:1013C0008F9008954F925F926F927F928F929F922B
:1013D000AF92BF92CF92DF92EF92FF920F931F9343
:1013E000CF93DF93EC016A017B0128013901423080
:1013F00051056105710508F474C049855A856B85EE
:101400007C854F5F5F4F6F4F7F4F4C155D056E05BD
:101410007F0508F466C08B889C88AD88BE888F895C
:10142000803129F477276F2D5E2D4D2D09C0B7012E
:10143000A601E7E07695679557954795EA95D1F728
:10144000840E951EA61EB71E4091080150910901F9
:1014500060910A0170910B0184169506A606B706E5
:1014600071F48F89803199F4DD24EE24FF24F60194
:10147000EE0FFF1FE252FD4F5182408218C040E044
:10148000C501B4010E9423098111EBCF2AC0E89461
:10149000C7F8DD24EE24FF24F601EE0FFF1FEE0F48
:1014A000FF1FE252FD4F408251826282738280911F
:1014B000DB0281608093DB028A89823080F08D813B
:1014C0009E81AF81B885880D991DAA1DBB1D809393
:1014D000D7029093D802A093D902B093DA0281E0A8
:1014E00001C080E0DF91CF911F910F91FF90EF90AD
:1014F000DF90CF90BF90AF909F908F907F906F9034
:101500005F904F9008952F923F924F925F926F920B
:101510007F929F92AF92BF92CF92DF92EF92FF9213
:101520000F931F93CF93DF93CDB7DEB760970FB6BE
:10153000F894DEBF0FBECDBF5C014D875E876F871D
:10154000788B1901D9014D905D906D907C9041147C
:1015500051046104710431F0BFEF4B1A5B0A6B0A4E
:101560007B0A10C0FC014080518062807380992406
:1015700093940D851E852F8538890130110521052D
:10158000310509F0912CD50119962D913D914D9180
:101590005C911C972F5F3F4F4F4F5F4F29873A87D2
:1015A0004B875C87730162011D821E821F82188631
:1015B000F50181859285A385B4850D811E812F81DA
:1015C0003885081719072A073B0708F056C02985F0
:1015D0003A854B855C852C153D054E055F0550F41D
:1015E000A2E0CA2ED12CE12CF12CB2E04B2E512CD2
:1015F000612C712C9E012F5F3F4FB701A601C501E1
:101600000E945E098823C9F149815A816B817C81DE
:10161000D701C6010196A11DB11D452B462B472BB5
:1016200019F02C013D010FC0AC01BD014419550951
:10163000660977090D851E852F8538894017510762
:101640006207730779F02D813E814F8158852F5FA6
:101650003F4F4F4F5F4F2D833E834F8358876C0121
:101660007D01A6CF0FEF1FEF2FEF3FE0B701A601DF
:10167000C5010E94E209811118C080E041C0D70174
:10168000C6010197A109B1098D839E83AF83B887F5
:1016900097018601AC01BD01C5010E94E2098823C2
:1016A00061F3CD80DE80EF80F8844C145D046E041D
:1016B0007F0428F3D1014D915D916D917C9141158D
:1016C00051056105710599F4F101408251826282F0
:1016D00073829920A1F0FFEF4F1A5F0A6F0A7F0A09
:1016E000D5014D925D926D927C92139708C0930143
:1016F0008201C5010E94E2098111E6CFBECF81E0DF
:1017000060960FB6F894DEBF0FBECDBFDF91CF91CC
:101710001F910F91FF90EF90DF90CF90BF90AF900F
:101720009F907F906F905F904F903F902F90089583
:101730001F920F920FB60F9211242F933F938F9306
:101740009F93AF93BF938091DF049091E004A091A9
:10175000E104B091E2043091DE0423E0230F2D3741
:1017600020F40196A11DB11D05C026E8230F0296A5
:10177000A11DB11D2093DE048093DF049093E0044B
:10178000A093E104B093E2048091E3049091E40417
:10179000A091E504B091E6040196A11DB11D8093CE
:1017A000E3049093E404A093E504B093E604BF91AE
:1017B000AF919F918F913F912F910F900FBE0F90FE
:1017C0001F9018952FB7F8946091DF047091E00492
:1017D0008091E1049091E2042FBF0895789484B53C
:1017E000826084BD84B5816084BD85B5826085BD1D
:1017F00085B5816085BDEEE6F0E080818160808303
:10180000E1E8F0E0108280818260808380818160E5
:101810008083E0E8F0E0808181608083E1EBF0E0AC
:10182000808184608083E0EBF0E080818160808350
:10183000EAE7F0E080818460808380818260808339
:101840008081816080838081806880831092C10064
:101850000895833081F028F4813099F08230A1F02E
:1018600008958730A9F08830B9F08430D1F48091A0
:1018700080008F7D03C0809180008F7780938000EF
:10188000089584B58F7702C084B58F7D84BD089597
:101890008091B0008F7703C08091B0008F7D8093DE
:1018A000B0000895CF93DF9390E0FC01E458FF4F20
:1018B0002491FC01E057FF4F8491882349F190E087
:1018C000880F991FFC01E854FF4FA591B4918255F0
:1018D0009F4FFC01C591D4919FB7611108C0F89446
:1018E0008C91209582238C93888182230AC0623058
:1018F00051F4F8948C91322F309583238C93888106
:10190000822B888304C0F8948C91822B8C939FBF88
:10191000DF91CF9108950F931F93CF93DF931F9281
:10192000CDB7DEB7282F30E0F901E859FF4F849199
:10193000F901E458FF4F1491F901E057FF4F04916A
:101940000023C9F0882321F069830E94290C698152
:10195000E02FF0E0EE0FFF1FE255FF4FA591B4918D
:101960009FB7F8948C91611103C01095812301C039
:10197000812B8C939FBF0F90DF91CF911F910F917F
:101980000895CF93DF93282F30E0F901E859FF4FF6
:101990008491F901E458FF4FD491F901E057FF4FCA
:1019A000C491CC2391F081110E94290CEC2FF0E01E
:1019B000EE0FFF1FEC55FF4FA591B4912C912D23F5
:1019C00081E090E021F480E002C080E090E0DF91CF
:1019D000CF910895FC01818D228D90E0805C9F4F16
:1019E000821B91098F7399270895FC01918D828D37
:1019F000981731F0828DE80FF11D858D90E00895E4
:101A00008FEF9FEF0895FC01918D828D981761F003
:101A1000828DDF01A80FB11D5D968C91928D9F5F25
:101A20009F73928F90E008958FEF9FEF089587E85E
:101A30009EE0892B49F080E090E0892B29F00E94FC
:101A4000870E81110C9400000895FC01848DDF0144
:101A5000A80FB11DA35ABF4F2C91848D90E0019621
:101A60008F739927848FA689B7892C93A089B18910
:101A70008C9180648C93938D848D981306C002881A
:101A8000F389E02D80818F7D80830895CF93DF934C
:101A9000EC01888D8823C9F0EA89FB89808185FD66
:101AA00005C0A889B9898C9186FD0FC00FB607FCC7
:101AB000F5CF808185FFF2CFA889B9898C9185FF08
:101AC000EDCFCE010E94250DE7CFDF91CF91089594
:101AD000CF92DF92FF920F931F93CF93DF931F92CA
:101AE000CDB7DEB76C0181E0D60158968C9358973C
:101AF0005B969C915B975C968C915C97981307C062
:101B00005096ED91FC915197808185FD2EC0F60194
:101B1000038D10E00F5F1F4F0F731127F02EF6019A
:101B2000848DF81211C00FB607FCF9CFD60150967C
:101B3000ED91FC915197808185FFF1CFC6016983BA
:101B40000E94250D6981EBCF838DE80FF11DE35ACB
:101B5000FF4F6083D6015B960C935B975296ED9195
:101B6000FC915397808180620CC0D6015696ED910E
:101B7000FC91579760835096ED91FC91519780812D
:101B80008064808381E090E00F90DF91CF911F917E
:101B90000F91FF90DF90CF900895BF92CF92DF9288
:101BA000EF92FF92CF93DF93EC016A017B01B22E9B
:101BB000E889F98982E08083411581EE5807610543
:101BC0007105A1F060E079E08DE390E0A701960156
:101BD0000E944C0F215031094109510956954795F2
:101BE00037952795211580E1380798F0E889F9891C
:101BF000108260E874E88EE190E0A70196010E94EF
:101C00004C0F215031094109510956954795379597
:101C10002795EC85FD853083EE85FF852083188E22
:101C2000EC89FD89B082EA89FB89808180618083AB
:101C3000EA89FB89808188608083EA89FB898081C9
:101C400080688083EA89FB8980818F7D8083DF9132
:101C5000CF91FF90EF90DF90CF90BF9008951F92AB
:101C60000F920FB60F9211242F938F939F93EF93A0
:101C7000FF93E091F704F091F8048081E091FD0476
:101C8000F091FE0482FD12C09081809100058F5F6B
:101C90008F7320910105821751F0E0910005F0E06B
:101CA000E951FB4F958F8093000501C08081FF9122
:101CB000EF919F918F912F910F900FBE0F901F90DA
:101CC00018951F920F920FB60F9211242F933F93E6
:101CD0004F935F936F937F938F939F93AF93BF9334
:101CE000EF93FF9387EE94E00E94250DFF91EF9113
:101CF000BF91AF919F918F917F916F915F914F9124
:101D00003F912F910F900FBE0F901F90189587EE67
:101D100094E00E94EA0C21E0892B09F420E0822F54
:101D200008951092EA041092E90488EE93E0A0E08E
:101D3000B0E08093EB049093EC04A093ED04B09397
:101D4000EE0484E891E09093E8048093E70485EC46
:101D500090E09093F4048093F30484EC90E09093EB
:101D6000F6048093F50480EC90E09093F80480935F
:101D7000F70481EC90E09093FA048093F90482ECEC
:101D800090E09093FC048093FB0486EC90E09093A9
:101D9000FE048093FD04109200051092010510923C
:101DA000020510920305089508950E94EE0B0E940B
:101DB000D40E0E949000C7E1DDE00E942801209728
:101DC000E1F30E94170DF9CFCF92DF92EF92FF92CD
:101DD0000F931F93CF93DF937C016A01EB0100E027
:101DE00010E00C151D0571F06991D701ED91FC9182
:101DF0000190F081E02DC7010995892B19F00F5F43
:101E00001F4FEFCFC801DF91CF911F910F91FF902E
:101E1000EF90DF90CF9008956115710581F0DB019F
:101E20000D900020E9F7AD0141505109461B570BB9
:101E3000DC01ED91FC910280F381E02D099480E0BA
:101E400090E0089560E971E00C940C0F0F931F93DC
:101E5000CF93DF93EC010E940C0F8C01CE010E9406
:101E6000220F800F911FDF91CF911F910F91089545
:101E700097FB072E16F4009407D077FD09D00E9437
:101E8000980F07FC05D03EF4909581959F4F0895DB
:101E9000709561957F4F0895A1E21A2EAA1BBB1B76
:101EA000FD010DC0AA1FBB1FEE1FFF1FA217B30726
:101EB000E407F50720F0A21BB30BE40BF50B661F3C
:101EC000771F881F991F1A9469F760957095809500
:101ED00090959B01AC01BD01CF010895052E97FBA4
:101EE0001EF400940E94850F57FD07D00E944C0FEE
:101EF00007FC03D04EF40C94850F50954095309517
:101F000021953F4F4F4F5F4F089590958095709565
:101F100061957F4F8F4F9F4F08950E94B20FA59FED
:101F2000900DB49F900DA49F800D911D11240895D4
:101F3000AA1BBB1B51E107C0AA1FBB1FA617B707EF
:101F400010F0A61BB70B881F991F5A95A9F780950B
:101F50009095BC01CD010895EE0FFF1F0590F491FF
:101F6000E02D0994A29FB001B39FC001A39F700D03
:101F7000811D1124911DB29F700D811D1124911D91
:101F800008952F923F925F926F927F928F929F92CD
:101F9000AF92BF92CF92DF92EF92FF920F931F9377
:101FA000CF93DF938B01EA016115710521F0DB010D
:101FB0008C9311969C93209739F09E012250310901
:101FC0002332310508F0FBC07C016701BFEFCB1A5B
:101FD000DB0A5601F7016080862D90E00E94F51023
:101FE000892B11F07601F1CFFDE26F120AC0570183
:101FF00082E0A80EB11CD70111966C9077247394DF
:102000000BC0BBE26B1207C05701E2E0AE0EB11C81
:10201000D70111966C90712CCE018F7E892B89F49B
:10202000B0E36B1222C0F50180818F7D883541F5C8
:102030006180F2E0AF0EB11C872D8260782EC0E186
:10204000D0E0C830D105F1F04CF4C230D10511F523
:10205000C12CD12CE12CB0E4FB2E2FC0CA30D1050D
:1020600031F0C031D10521F115C0209751F7CAE0F8
:10207000D0E0ACECCA2EDC2CEC2CACE0FA2E1DC06F
:102080002097F9F6C8E0D0E0C12CD12CE12CF0E18A
:10209000FF2E13C060E070E080E090E89E014427CE
:1020A00037FD4095542F0E944C0F69017A0105C0FD
:1020B000C12CD12CE12CE8E0FE2EF50160E020E0FF
:1020C00030E0A9014E01AA2497FCA094BA2C1F016C
:1020D00070ED572E560CA9E0A51570F48FEB860D08
:1020E0008A3118F499EC592E06C08FE9860D8A3191
:1020F00030F589EA582E560C852D90E08C179D07F7
:10210000F4F467FD18C0C216D306E406F50680F0A5
:10211000C501B4010E9400119B01AC01250D311DC8
:10212000411D511D213031054105B0E85B0710F01C
:102130006FEF01C061E03196D1016C90C8CF872D5F
:1021400081700115110571F0662329F03197D801CE
:10215000ED93FC9307C071FE19C03297D801ED933F
:10216000FC9314C067FF12C0882329F020E030E000
:1021700040E050E804C02FEF3FEF4FEF5FE782E20F
:1021800090E0909385058093840516C0882341F0E4
:1021900050954095309521953F4F4F4F5F4F0CC064
:1021A00057FF0AC082E290E09093850580938405F2
:1021B0002FEF3FEF4FEF5FE7B901CA0104C060E0C6
:1021C00070E080E090E0DF91CF911F910F91FF9040
:1021D000EF90DF90CF90BF90AF909F908F907F90C7
:1021E0006F905F903F902F900895911106C08032BC
:1021F00019F089508550D0F70895992788270895B8
:10220000DB018F939F930E948D0FBF91AF91A29F8F
:10221000800D911DA39F900DB29F900D11240895E4
:1022200010E0CAECD0E004C0FE010E94AE0F22967E
:0A223000CC3CD107C9F7F894FFCFAA
:10223A000000860580000F00FFFFFFFF24504D5469
:10224A004B3232302C313030302A31460024504D56
:10225A00544B3330302C313030302C302C302C3041
:10226A002C302A31430024504D544B3331342C3016
:10227A002C312C302C302C302C302C302C302C3073
:10228A002C302C302C302C302C302C302C302C3064
:10229A002C302C302A323900000000006201E40E92
:1022AA00CD014101B501B40100000000D708E40ED8
:1022BA0000000000680DE40EEA0C030DF50C460D53
:1022CA000D0A006E616E00696E66006F7666002EFA
:0222DA00000002
:00000001FF
