:100000000C942F010C9457010C9457010C940D0B78
:100010000C940D0B0C940D0B0C9457010C94570180
:100020000C9457010C9457010C9457010C945701F0
:100030000C9457010C9457010C9457010C945701E0
:100040000C94F2210C9457010C94AC240C94DE24F3
:100050000C9457010C9457010C9457010C945701C0
:100060000C9457010C945701084AD73B3BCE016EC4
:1000700084BCBFFDC12F3D6C74319ABD56833DDAFF
:100080003D00C77F11BED9E4BB4C3E916BAAAABE0E
:10009000000000803F05A84CCDB2D44EB93836A937
:1000A000020C50B9918688083CA6AAAA2ABE000074
:1000B00000803F007C3C3E5E2B3D3F2F5B5D3B2C38
:1000C0002A225C000000000800020100000304076F
:1000D0000000000000000000010204081020408021
:1000E0000102040810200102040810200404040482
:1000F00004040404020202020202030303030303D2
:100100000000000023002600290000000000250058
:1001100028002B0000000000240027002A004E4188
:100120004E494E495459494E46CDCCCC3D0AD72371
:100130003C17B7D13877CC2B329595E6241FB14FB9
:100140000A000020410000C84200401C4620BCBEFE
:100150004CCA1B0E5AAEC59D7400407A10F35A006B
:10016000A0724E18090010A5D4E80000E8764817E0
:100170000000E40B54020000CA9A3B000000E1F5C5
:1001800005000080969800000040420F000000A08B
:100190008601000000102700000000E803000000B6
:1001A000006400000000000A0000000000010000E0
:1001B0000000002C76D888DC674F0823DFC1DFAE53
:1001C00059E1B1B796E5E3E453C63AE6519976961C
:1001D000E8E6C28426EB898C9B62ED407C6FFCEFE5
:1001E000BC9C9F40F2BAA56FA5F490055A2AF75C13
:1001F000936B6CF9676DC11BFCE0E40D47FEF520C5
:10020000E6B500D0ED902E0300943577050080848C
:100210001E080000204E0A000000C80C33333333A0
:100220000F986E12831141EF8D2114893BE655160C
:10023000CFFEE6DB18D1844B381BF77C1D901DA444
:10024000BBE424203284725E228100C9F124ECA137
:10025000E53D2700A5076510AA130E25B90711244F
:100260001FBECFEFD8E0DEBFCDBF12E0A0E0B1E00F
:10027000E6E0F8E602C005900D92AA32B107D9F780
:1002800026E0AAE2B2E001C01D92AF36B207E1F764
:1002900012E0CCE5D2E004C02297FE010E94ED2BD3
:1002A000C435D107C9F70E9452250C94F6330C943B
:1002B00000008F929F92AF92BF92CF92DF92EF9207
:1002C000FF920F931F93CF93DF93EC01CB010E941A
:1002D000462F6B017C010E940929CB0164E670E086
:1002E0000E948B2B8B0184E6809FB001819F700D53
:1002F0001124882777FD8095982F0E943C299B0127
:10030000AC01C701B6010E94D32720E030E040E7EE
:1003100052E40E94A1286B017C01B801882777FD77
:100320008095982F0E943C29A70196010E94D4270E
:100330004B015C0120E030E041E655E4C701B60125
:100340000E94A1289B01AC01C501B4010E94D427E1
:1003500028812B7F233509F49058DF91CF911F918D
:100360000F91FF90EF90DF90CF90BF90AF909F9054
:100370008F9008954F925F926F927F928F929F928B
:10038000AF92BF92CF92DF92EF92FF920F931F93A3
:10039000CF93DF93CDB7DEB760970FB6F894DEBF8B
:1003A0000FBECDBF2B013C0129873A874B875C8765
:1003B000E982FA820B831C839B01AC01C801B7015F
:1003C0000E94D32725E33AEF4EE85CE30E94B12A6E
:1003D00020E030E040E05FE30E94B12A0E94142B4D
:1003E0006D837E838F83988725E33AEF4EE85CE345
:1003F000C301B2010E94B12A0E949E282B013C0138
:1004000025E33AEF4EE85CE3C801B7010E94B12A48
:100410000E949E2869837A838B839C8329853A85F1
:100420004B855C85C601B5010E94D32725E33AEFD1
:100430004EE85CE30E94B12A20E030E040E05FE358
:100440000E94B12A0E94142B4B015C012D813E8138
:100450004F815885CA01B9010E94B12A6B017C0104
:1004600029813A814B815C81C301B2010E94B12A8A
:10047000A50194010E94B12AA50194010E94B12A0C
:100480009B01AC01C701B6010E94D4276B017C011E
:100490009B01AC0160E070E080E89FE30E94D327FD
:1004A0000E941E2B9B01AC01C701B6012D873E8720
:1004B0004F87588B0E941E2B2D853E854F8558896E
:1004C0000E9447289B01AC010E94D4272CEA38E700
:1004D0004FE95BE40E94B12A60960FB6F894DEBF44
:1004E0000FBECDBFDF91CF911F910F91FF90EF9085
:1004F000DF90CF90BF90AF909F908F907F906F9044
:100500005F904F9008954F925F926F927F928F927B
:100510009F92AF92BF92CF92DF92EF92FF920F9392
:100520001F93CF93DF93CDB7DEB760970FB6F894E4
:10053000DEBF0FBECDBF69837A838B839C83C601E8
:10054000B5010E94D32725E33AEF4EE85CE30E9411
:10055000B12A4B015C010E94142B6D837E838F8333
:10056000988725E33AEF4EE85CE3C801B7010E94A3
:10057000B12A2B013C010E949E286B017C0125E3DE
:100580003AEF4EE85CE369817A818B819C810E941D
:10059000B12A69837A838B839C830E949E28698712
:1005A0007A878B879C87C301B2010E94142B9B0121
:1005B000AC0169817A818B819C812D873E874F8731
:1005C000588B0E94142B2B013C01C501B4010E94E1
:1005D0009E2869837A838B839C832D853E854F85F6
:1005E000588969857A858B859C850E94B12A4B0143
:1005F0005C01A7019601C301B2010E94B12AA701C3
:1006000096010E94B12A29813A814B815C810E9426
:10061000B12A9B01AC01C501B4010E94D3274B0153
:100620005C01A70196016D817E818F8198850E9472
:10063000B12AA50194010E94472821EE3EE245E639
:1006400052E40E94B12A6B017C0120E030E0A90154
:100650000E949A2887FF24C020E030E044EB53E456
:10066000C701B6010E94D42720E030E044EB53E4F8
:1006700060960FB6F894DEBF0FBECDBFDF91CF916D
:100680001F910F91FF90EF90DF90CF90BF90AF90B0
:100690009F908F907F906F905F904F900C947E29E9
:1006A000C701B60160960FB6F894DEBF0FBECDBF8E
:1006B000DF91CF911F910F91FF90EF90DF90CF903E
:1006C000BF90AF909F908F907F906F905F904F9072
:1006D00008957F928F929F92AF92BF92CF92DF92B6
:1006E000EF92FF920F931F93CF93DF93CDB7DEB7B7
:1006F0002C970FB6F894DEBF0FBECDBF782E4A01FF
:100700005B016801790189E492E00E94E92121E01E
:100710007216E1F0721640F082E07816D1F023E014
:1007200072121BC04FEF1AC040E063E585EE0E94D5
:100730009F219B01AC0160E070E089E492E00E949F
:100740003A2189E492E00E941E2014C040E06FEF3D
:1007500002C04FEF60E080E003C040E060E08FEF58
:100760000E949F219B01AC0160E070E089E492E06F
:100770000E943A2120E030E040E751E4C701B60191
:100780000E94A62A87FD0DC040E060E08FEF0E9426
:100790009F219B01AC0160E270E089E492E00E943D
:1007A0003A2120E030E048E452E4C701B6010E945B
:1007B000A62A87FD0DC040E060E08FEF0E949F21D8
:1007C0009B01AC0161E270E089E492E00E943A2171
:1007D00020E030E048E453E4C701B6010E94A62AB5
:1007E00087FD0DC040E060E08FEF0E949F219B01DC
:1007F000AC0162E270E089E492E00E943A2120E0DC
:1008000030E048EC53E4C701B6010E94A62A87FDF8
:100810000DC040E060E08FEF0E949F219B01AC0182
:1008200063E270E089E492E00E943A2120E030E047
:100830004AE754E4C701B6010E94A62A87FD0DC00D
:1008400040E060E08FEF0E949F219B01AC0164E2D9
:1008500070E089E492E00E943A2120E030E04AEF23
:1008600054E4C701B6010E94A62A87FD0DC040E0EE
:1008700060E08FEF0E949F219B01AC0165E270E078
:1008800089E492E00E943A2120E030E04AE755E412
:10089000C701B6010E94A62A87FD0DC040E060E0B6
:1008A0008FEF0E949F219B01AC0166E270E089E41A
:1008B00092E00E943A2120E030E045EA55E4C70189
:1008C000B6010E94A62A87FD0DC040E060E08FEFD0
:1008D0000E949F219B01AC0167E270E089E492E0F5
:1008E0000E943A2120912A0230912B0240912C0241
:1008F00050912D02C501B4010E94D3270E940929FD
:100900007B0177FF05C028E9E21A2EEFF20A09C041
:10091000693621E072072CF07B0128E6E21A21E01B
:10092000F20A4AE0B701CE0107960E9491266CE0D8
:1009300071E0CE0101960E944326BE01695F7F4FA0
:10094000CE0101960E948A27BC018CEC95E00E94A2
:10095000B125CE0101960E94D525CE0107960E94B1
:10096000D525C70106978E3521E09207A8F4873375
:100970009105A8F0C7978C339105A0F0CC978238E9
:10098000910598F08BEFE81AF10822E3E216F104E2
:1009900078F484E090E00EC080E090E00BC081E04D
:1009A00090E008C082E090E005C083E090E002C0E3
:1009B00085E090E08330910509F4BDC044F48130B6
:1009C000910509F463C0029709F4ABC007C08430F5
:1009D000910509F4FBC0059709F41CC14FEF6FEFB7
:1009E00080E00E949F219B01AC0163E070E089E4FC
:1009F00092E00E943A214FEF6FEF80E00E949F212A
:100A00009B01AC0164E070E089E492E00E943A212D
:100A10004FEF6FEF80E00E949F219B01AC016BE0E4
:100A200070E089E492E00E943A214FEF6FEF80E09E
:100A30000E949F219B01AC016CE070E089E492E090
:100A40000E943A214FEF6FEF80E00E949F219B01AF
:100A5000AC0163E170E089E492E00E943A214FEF3B
:100A60006FEF80E00E949F219B01AC0164E170E088
:100A700089E492E00E943A214FEF6FEF80E00E94FC
:100A80009F219B01AC016BE170E03DC04FEF6FEF28
:100A900080E00E949F219B01AC0166E070E089E448
:100AA00092E00E943A214FEF6FEF80E00E949F2179
:100AB0009B01AC0167E070E089E492E00E943A217A
:100AC0004FEF6FEF80E00E949F219B01AC016EE031
:100AD00070E089E492E00E943A214FEF6FEF80E0EE
:100AE0000E949F219B01AC016FE070E089E492E0DD
:100AF0000E943A214FEF6FEF80E00E949F219B01FF
:100B0000AC0165E170E089E492E00E943A214FEF88
:100B10006FEF80E00E949F219B01AC016CE170E0CF
:100B2000B6C04FEF6FEF80E00E949F219B01AC01A8
:100B30006CE170E023C04FEF6FEF80E00E949F21D7
:100B40009B01AC0168E170E089E492E00E943A21E7
:100B50004FEF6FEF80E00E949F219B01AC0169E1A4
:100B600070E089E492E00E943A214FEF6FEF80E05D
:100B70000E949F219B01AC016AE170E089E492E050
:100B80000E943A214FEF6FEF80E00E949F219B016E
:100B9000AC016DE170E089E492E00E943A214FEFF0
:100BA0006FEF80E00E949F219B01AC016EE170E03D
:100BB00089E492E00E943A214FEF6FEF80E00E94BB
:100BC0009F219B01AC016FE170E061C04FEF6FEFBF
:100BD00080E00E949F219B01AC0168E170E089E404
:100BE00092E00E943A214FEF6FEF80E00E949F2138
:100BF0009B01AC0169E170E089E492E00E943A2136
:100C00004FEF6FEF80E00E949F219B01AC016AE1F2
:100C100070E030C04FEF6FEF80E00E949F219B019A
:100C2000AC0169E070E089E492E00E943A214FEF64
:100C30006FEF80E00E949F219B01AC016AE070E0B1
:100C400089E492E00E943A214FEF6FEF80E00E942A
:100C50009F219B01AC0161E170E089E492E00E9478
:100C60003A214FEF6FEF80E00E949F219B01AC0182
:100C700062E170E089E492E00E943A214FEF6FEF69
:100C800080E00E949F219B01AC016BE170E089E450
:100C900092E00E943A2189E492E00E941E202C9664
:100CA0000FB6F894DEBF0FBECDBFDF91CF911F917D
:100CB0000F91FF90EF90DF90CF90BF90AF909F90FB
:100CC0008F907F9008950F931F93CF93DF93CDB7AD
:100CD000DEB7A7970FB6F894DEBF0FBECDBF26E0F4
:100CE00040E052EC61E070E08CEC95E00E944A2418
:100CF00089E492E00E949A1F6AE089E492E00E94EF
:100D0000A82189E492E00E941E206AE08EE693E02A
:100D10000E94B30E811106C06FE171E08CEC95E08A
:100D20000E94C3256BE371E08CEC95E00E94C32523
:100D30006DE172E0CE0182960E94432600E010E051
:100D40004AE0B801CE014C960A30110528F40E9401
:100D5000BD266DE471E004C00E94BD266AE571E025
:100D6000CE0101960E944326BE01645E7F4FCE01F4
:100D700001960E948A2765E571E00E949D27BC01CB
:100D8000CE0182960E945926CE0101960E94D52559
:100D9000CE014C960E94D5256AA17BA18EE693E0F8
:100DA0000E945A10882329F00F5F1F4F0436110547
:100DB00039F64AA15BA123E16EE673E0CE0101960C
:100DC0000E94CC0F8B819C819093310280933002E2
:100DD0008D819E81AF81B8858093320290933302DA
:100DE000A0933402B093350289859A85AB85BC8582
:100DF0008093360290933702A0933802B093390261
:100E00008DE0FE013D96AAE3B2E001900D928A9535
:100E1000E1F78A8D9B8D909348028093470240E8CA
:100E200055E260E070E08EE592E00E94100C61E611
:100E300071E08EE592E00E94C32562E771E08EE5E5
:100E400092E00E94C3256BE871E08EE592E00E947B
:100E5000C32562E0809106010E94CF228FED9BE9BD
:100E6000A2EAB2EC80937D0290937E02A0937F026F
:100E7000B09380028AE991ECA4EEB1E48093810200
:100E800090938202A0938302B09384028FED9BE93A
:100E9000A0EAB2EC8093850290938602A093870229
:100EA000B09388028093890290938A02A0938B0268
:100EB000B0938C028FED9BE9AEE9B2EC80938D028A
:100EC00090938E02A0938F02B09390028093910230
:100ED00090939202A0939302B09394028FED9BE9BA
:100EE000ACE9B2EC8093950290939602A09397029E
:100EF000B09398028093990290939A02A0939B02D8
:100F0000B0939C02CE0182960E94D525A7960FB67B
:100F1000F894DEBF0FBECDBFDF91CF911F910F912F
:100F200008951F93CF93DF93182FC8EED3E0812F3E
:100F30000E943E23892B21F42197C9F781E001C04B
:100F400080E0DF91CF911F91089520E047E068E0B5
:100F50008EE592E00E94E00B22E530E046E068E298
:100F600070E089E492E00E9412218EE292E00C94FB
:100F70005C0D89E492E00E94861F8EE592E00C945D
:100F8000870BCF93DF9380E8E6EAF2E0DF011D9262
:100F90008A95E9F7C0E08EE592E00E949E0A0196EC
:100FA000D1F38EE592E00E942A0AAC2FB0E0AA5558
:100FB000BD4F8C93CC2329F0843219F48093A60280
:100FC000C0E08091A602843231F781E08C0FEC2FD3
:100FD000F0E0EA55FD4F90819A3011F0C82FDBCF39
:100FE00090E0FC01EC55FD4F1082EC012597FE01CD
:100FF000EA55FD4F20812A3269F640E150E060E079
:1010000070E08E559D4F0E94122E21E0822F90E0BD
:101010008C179D073CF4FC01EA55FD4F8081682741
:101020002F5FF4CF6111B6CFDF91CF9108952F924A
:101030003F924F925F926F927F928F929F92AF9268
:10104000BF92CF92DF92EF92FF920F931F93CF93B5
:10105000DF93CDB7DEB7E7970FB6F894DEBF0FBECC
:10106000CDBF80910601909107010E9491078823CE
:1010700091F02091A502822F90E003971CF010922E
:10108000A50203C02F5F2093A5026DEB71E08CECED
:1010900095E00E94C3250E94C1078091A902823574
:1010A00009F06FC18091B802813409F06AC18BE008
:1010B0004E012CE0820E911CF401282F11922A95EA
:1010C000E9F71BAA1AAAFE0131961F0111928A950F
:1010D000E9F719AA18AACE01479627E0FC01119258
:1010E0002A95E9F7E6EAF2E09F01265A324041915B
:1010F0004C32D1F72F5F3F4FF901EA55FD4F408148
:101100002F5F3F4F4C32C1F7F901EA55FD4F408147
:101110002F5F3F4F4C32C1F7F401D901AA55BD4FA3
:101120004C912F5F3F4F4C3211F04193F6CFFE01AF
:10113000F296D901AA55BD4F4C912F5F3F4F4C32CB
:1011400011F04193F6CFF101D901AA55BD4F4C9151
:101150002F5F3F4F4C3211F04193F6CFFE01F096D6
:10116000D901AA55BD4F4C912F5F3F4F4C3211F022
:101170004193F6CFF901EA55FD4F40812F5F3F4F74
:101180004C32C1F7FC01D901AA55BD4F4C914C32EC
:1011900021F041932F5F3F4FF6CF0E94462F60937F
:1011A0002A0270932B0280932C0290932D02E091DF
:1011B000A50228E0E29FF0011124E358FD4FA08032
:1011C000B180C280D3804480558066807780B10131
:1011D000CE01C0960E9459019B01AC01B401CE0121
:1011E000C2962CAB3DAB4EAB5FAB0E945901830165
:1011F00072012CA93DA94EA95FA90E9483026093A8
:101200009D0270939E0280939F029093A002E091B2
:10121000A50238E0E39FF0011124E358FD4FA080C0
:10122000B180C280D3804480558066807780B101D0
:10123000CE01C0960E9459019B01AC01B401CE01C0
:10124000C2962CAB3DAB4EAB5FAB0E945901830104
:1012500072012CA93DA94EA95FA90E94BA01609311
:10126000A1027093A2028093A3029093A40268EC5F
:1012700071E08CEC95E00E94C32540919D02509155
:101280009E0260919F027091A00222E0CE014E96D4
:101290000E94E9264091A1025091A2026091A3020E
:1012A0007091A40222E0CE018A960E94E926BE0136
:1012B000665D7F4FCE0184960E9470266CE172E0DD
:1012C000CE0184960E949D27BE01625E7F4F0E94E0
:1012D0008A27BC018CEC95E00E94B125CE01849652
:1012E0000E94D525CE018A960E94D525CE014E9624
:1012F0000E94D5258C85882309F443C089818823E1
:1013000009F43FC04090A1025090A2026090A30255
:101310007090A402B401CE014E960E944326B10102
:10132000CE018A960E944326BE01665D7F4FCE01A4
:1013300084960E9470266CE2CE0184960E94B727A4
:10134000BE01625E7F4F0E948A276CE20E94B7272F
:10135000B301A2010E94C527BC018EE292E00E9467
:10136000B125CE0184960E94D525CE018A960E9491
:10137000D525CE014E960E94D5258EE292E00E94A0
:10138000CF0C0091A1021091A2022091A3023091F2
:10139000A40240919D0250919E0260919F02709123
:1013A000A0028091A5020E94690366EA72E08CECBB
:1013B00095E00E94C325E7960FB6F894DEBF0FBEF6
:1013C000CDBFDF91CF911F910F91FF90EF90DF90F4
:1013D000CF90BF90AF909F908F907F906F905F90D5
:1013E0004F903F902F900895CF93CFB7F89480916E
:1013F0002903811127C0E6EFF0E08491E2EEF0E0EE
:101400009491E82FF0E0EE0FFF1FEC5EFE4FA591E8
:10141000B4918C91892321F461E08AE00E94082331
:1014200061E08AE00E94CF228CB580618CBD8CB5D2
:1014300080648CBD61E08DE00E94CF2261E08BE092
:101440000E94CF22809129038F5F80932903CFBF11
:10145000CF91089520916C0330916D0328173907BF
:10146000B9F490912A0380912B03981789F0E091A9
:101470002A03F0E0E45DFC4F808120912A0330E0F4
:101480002F5F3F4F2F73332720932A0390E0089557
:101490008FEF9FEF08951F93CF93DF93DC015C964E
:1014A0008D919C915D97009749F481E090E01396AF
:1014B0009C938E93129780E090E03BC05196ED9103
:1014C000FC91529750962C915097322F30951FB720
:1014D0005E964C915E9741FB772770F941FD6095D0
:1014E000F8944081772311F0422B01C043234083BD
:1014F000EC012197F1F748E0508160FF02C0522BC8
:1015000001C053235083EC012197F1F766954150B8
:1015100099F78081772311F0832301C0822B808388
:101520001FBF5C968D919C915D970197F1F781E0CB
:1015300090E0DF91CF911F910895089520916C0361
:1015400030916D032817390771F490912A03809127
:101550002B03981741F0E0912A03F0E0E45DFC4F83
:10156000808190E008958FEF9FEF089520916C03A4
:1015700030916D032817390771F480912B03209166
:101580002A0390E0805C9F4F821B910960E470E029
:101590000E948B2B089580E090E00895E0916C0309
:1015A000F0916D03E817F90769F4A389B4899C9158
:1015B0008589809589238C9310926D0310926C031A
:1015C00081E0089580E00895CF93DF93EC018A8D48
:1015D0009B8D892BF1F080916C0390916D038C179A
:1015E0009D07B9F0009711F00E94CE0A8E8D8E7F74
:1015F0008E8F10922B0310922A03D0936D03C09309
:101600006C03EB89FC8980819D89892B808381E033
:1016100001C080E0DF91CF9108951F920F920FB625
:101620000F9211242F933F934F935F936F937F9368
:101630008F939F93AF93BF93EF93FF93E0916C03CE
:10164000F0916D03309709F451C0868DA685B7855A
:10165000958581FF04C08C91892329F447C08C9122
:10166000892309F043C0A389B4899C918589809519
:1016700089238C93868997890197F1F7208D318D85
:10168000A685B785758558E040E0C9010197F1F757
:10169000842F90E095958795482F6C91672309F0EA
:1016A0004068515091F7868D81FD409580912B03C4
:1016B00090E001968F73992720912A03281749F00B
:1016C000A0912B03B0E0A45DBC4F4C9380932B03FF
:1016D00003C0868D8160868F828D938D0197F1F78F
:1016E000A389B4898C919589892B8C93FF91EF9173
:1016F000BF91AF919F918F917F916F915F914F912A
:101700003F912F910F900FBE0F901F90189525EECF
:1017100031E0FC01318320830C94CE0A1F93CF93D8
:10172000DF93EC01162F6E8D6695617081E068275E
:10173000812F0E94082361E0812F0E94CF22812FF8
:1017400090E0FC01E852FF4FE491E88BFC01E4518A
:10175000FF4FE491F0E0EE0FFF1FE65FFE4F859133
:1017600094919A8B898BDF91CF911F9108951F934C
:10177000CF93DF93EC01162F60E0812F0E94CF22E0
:101780008E8D81FD04C061E0812F0E9408231C879B
:10179000812F90E0FC01E852FF4FE491ED87FC01BE
:1017A000E451FF4FE491F0E0EE0FFF1FE050FF4FD8
:1017B000859194919F878E87DF91CF911F91089596
:1017C000FF920F931F93CF93DF93EC01F62E522FCE
:1017D0001B821A8208EE13E020E030E00C831D83A8
:1017E0002E833F8385EE91E0998388831F8A1E8A2A
:1017F000198E188E1B8E1A8E1D8E1C8E8E8D8E7FCE
:1018000050FB81F98E8F642FCE010E948E0B6F2DBD
:10181000CE01DF91CF911F910F91FF900C94B70BE8
:10182000CF93DF93EC019A01AB011B8E1A8E198EB8
:10183000188E1F8A1E8A60E079E08DE390E00E9496
:10184000C12BC9012430310520F0B9016350710961
:1018500002C061E070E07D8F6C8FEC85E63108F0AE
:1018600068C0B901769567956431710518F06351C8
:10187000710902C061E070E07F8B6E8B069718F0F3
:10188000C901059702C081E090E0998F888FC90156
:10189000880F991F820F931F969587959695879528
:1018A0008D30910510F00C9702C081E090E09B8F85
:1018B0008A8F20916800E83050F091E0EE3008F413
:1018C00090E081E001C0880F9A95EAF701C084E0BA
:1018D000822B809368002C85283038F02E3040F021
:1018E000263148F48CE690E008C08DE690E005C013
:1018F0008BE690E002C080E090E09C8B8B8B2830E0
:1019000030F481E001C0880F2A95EAF70DC0822FDC
:1019100090E02E3010F4089701C00E9791E001C0BE
:10192000990F8A95EAF7892F8D8B8C8D9D8D019764
:10193000F1F7CE01DF91CF910C94E40ACF93DF93BE
:101940001F92CDB7DEB76983DC01ED91FC91028077
:10195000F381E02D41E050E0BE016F5F7F4F0995BC
:101960000F90DF91CF910895CF93DF93EC01898D94
:101970009A8D009759F0FC01138212820E942B1954
:10198000E98DFA8D22813381232B31F081E090E0C3
:101990009B838A8380E090E0DF91CF910895FC01E2
:1019A000818D928D009711F00C94CB160895CF93F2
:1019B000DF931F92CDB7DEB741E050E0BE016F5F0D
:1019C0007F4F0E94DC14019719F4898190E002C0D6
:1019D0008FEF9FEF0F90DF91CF910895FC01818DE4
:1019E000928D009711F00C94D70C8FEF9FEF089514
:1019F0000F931F93CF93DF938C01FC01818D928D08
:101A00000097B9F00E94D70CEC018F3FFFEF9F07C2
:101A100099F0F801818D928DFC0142855385648592
:101A2000758541505109610971090E942F16CE0137
:101A300005C080E090E002C08FEF9FEFDF91CF9173
:101A40001F910F910895CF92DF92EF92FF920F9323
:101A50001F93CF93DF93EC017B016A011B821A82F3
:101A600008EE13E020E030E00C831D832E833F83DB
:101A700085EF91E0998388838DE190E00E94212C8D
:101A80009A8F898F009779F02DE1F701DC010190A1
:101A90000D922A95E1F74CE050E0B601CE010C968C
:101AA0000E94812F188EDF91CF911F910F91FF908F
:101AB000EF90DF90CF900895FC011382128248EEE0
:101AC00053E060E070E0448355836683778385EF5D
:101AD00091E091838083128E118E14860895DC012B
:101AE0005996ED91FC915A97309729F0628573854C
:101AF0008485958508956FEF7FEFCB010895DC0114
:101B00005996ED91FC915A97309729F06389748921
:101B100085899689089560E070E0CB010895CF92A1
:101B2000DF92EF92FF92CF93DF93EC01898D9A8D34
:101B3000892BD9F0CE010E947F0D6B017C01CE0173
:101B40000E946F0DA7019601261B370B480B590BFE
:101B5000DA01C901811530E89307A105B10538F014
:101B60008FEF9FE7A0E0B0E002C080E090E0DF915F
:101B7000CF91FF90EF90DF90CF9008951F93CF9378
:101B8000DF93CDB7DEB76D970FB6F894DEBF0FBE0B
:101B9000CDBFAB011C821B8227E032E03A83298350
:101BA0001E8221E0BC01CE0101960E94461811E080
:101BB000811102C010E004C0CE0101960E941217EC
:101BC000812F6D960FB6F894DEBF0FBECDBFDF91AB
:101BD000CF911F910895CF93DF93FB012081318135
:101BE000FC01E20FF31FE081EF3211F42F5F3F4F52
:101BF000DA01E0E0F0E0EC01C20FD31FC881CF3280
:101C000049F0CC2339F031962F5F3F4FCD93EC3024
:101C1000F10589F7E40FF51F1082FC01E20FF31FB5
:101C200040814F3211F42F5F3F4FFB0131832083FE
:101C3000FC01E20FF31F81E09081911101C080E06F
:101C4000DF91CF9108954F925F926F927F928F9222
:101C50009F92AF92BF92CF92DF92EF92FF920F933B
:101C60001F93CF93DF93CDB7DEB7C954D1090FB619
:101C7000F894DEBF0FBECDBF5C016B013A01490194
:101C800019A218A287E092E09F8F8E8F1BA21C8260
:101C90001B829A8389831E822A961FAE1EAE2A97C4
:101CA0008B017E018EE1E80EF11C44244394AE01C9
:101CB000455C5F4FBE01685B7F4FC5010E94EB0D25
:101CC000582E482F44259401BE01655C7F4FC80102
:101CD000F3010995811108C00C151D0519F0C80103
:101CE0000E94121780E027C05520B9F021E0AE0114
:101CF000455C5F4FB801C7010E944618582E0C156D
:101D00001D0599F0C8010E941217552059F3902F14
:101D1000812F8701E92EF82ECACF0C151D0519F069
:101D2000C8010E94121781E006C08823D9F28E01F3
:101D30000F5F1F4FECCFC75BDF4F0FB6F894DEBFCE
:101D40000FBECDBFDF91CF911F910F91FF90EF900C
:101D5000DF90CF90BF90AF909F908F907F906F90CB
:101D60005F904F9008950F931F93CF93DF93EC01F3
:101D7000462F61E00E94A211811102C080E01DC0C7
:101D80008E01045F1F4F41E0BE01C8010E94721E18
:101D9000882359F0B801CE018A960E948C1491E0F4
:101DA000811101C090E0892F08C040E0BE01C80148
:101DB0000E94721E882311F3EDCFDF91CF911F9106
:101DC0000F910895FC01DB0112968D919C91139760
:101DD0009383828387E092E09183808314968C9131
:101DE0001497848315968C911597858316964D913B
:101DF0005D916D917C9119974683578360877187B8
:101E00001A964D915D916D917C911D9742875387F4
:101E1000648775871E964D915D916D917C91519768
:101E200046875787608B718B52968C915297828B25
:101E300053964D915D916D917C915697438B548B48
:101E4000658B768B57964D915D916D917C915A97EC
:101E5000478B508F618F728F5B968D919C915C97B1
:101E6000948F838F08954F925F926F927F928F929B
:101E70009F92AF92BF92CF92DF92EF92FF920F9319
:101E80001F93CF93DF93CDB7DEB7C754D1090FB6F9
:101E9000F894DEBF0FBECDBF6C014A013901665D0B
:101EA0007F4F5E018EE1A80EB11CC5010E94E20EBB
:101EB0001C821B8287E092E09A8389831E828401C0
:101EC000FE0131967F015A2C4B2C6FE270E0C80165
:101ED0000E946F2F0097E9F1F80120812F3219F449
:101EE0000F5F1F4FF2CF801B8D3008F08CE0A82EC3
:101EF000B12CA501B801CE01CB960E94812FEBE356
:101F0000F0E0EC0FFD1FEA0DFB1D1082C7010E94DF
:101F1000121721E0AE01455C5F4F652D742DC7019E
:101F20000E944618811109C0F6011382128287E0CF
:101F300092E091838083158216C00A0D1B1D852DAA
:101F4000942D0E941217C2015E2C4F2CE92EF82E00
:101F5000BCCF08191909F30111830083652D742D75
:101F6000C6010E94E20EC601C95BDF4F0FB6F894AE
:101F7000DEBF0FBECDBFDF91CF911F910F91FF90BC
:101F8000EF90DF90CF90BF90AF909F908F907F9019
:101F90006F905F904F9008959F92AF92BF92CF92B3
:101FA000DF92EF92FF920F931F93CF93DF93CDB702
:101FB000DEB7C955D1090FB6F894DEBF0FBECDBF4D
:101FC0007C016B015A01922E9E01285A3F4FCE018F
:101FD000CB960E94330F6A960EAD1FAD6A970A0D1D
:101FE0001B1DF801808181110AC0BE01655C7F4F15
:101FF000CE0101960E94E20E41E052E041C019A2DA
:1020000018A287E092E09F8F8E8F1BA221968FAD42
:102010002197811104C0C7010E945C0D37C0825016
:10202000823060F4B601665D7F4F292DA801CE0194
:102030004E960E944618811110C0EDCF292DA8019F
:10204000BE01655C7F4FCE014E960E9446188823E4
:1020500011F3CE01CB960E941217892D867041F0A4
:1020600049A95AA96BA97CA9CE014E960E942F16A8
:10207000BE01625E7F4FCE0101960E94E20EA80172
:10208000BE016F5F7F4FC7010E94230DC701C75A72
:10209000DF4F0FB6F894DEBF0FBECDBFDF91CF91FB
:1020A0001F910F91FF90EF90DF90CF90BF90AF9076
:1020B0009F900895FB01BC01665D7F4F20E030E0FA
:1020C0004EEB5DE0CF010C94230E1092730310923F
:1020D0007403109277031092790382E090E0A0E0FD
:1020E000B0E080937A0390937B03A0937C03B0933A
:1020F0007D031092910310929B0310929A0387E044
:1021000092E0909399038093980310929D03089511
:102110009FB7F8942091280380912603213019F469
:102120008DBB9FBF08958FBF089520912803222360
:1021300099F03FB7F89420912803213059F42DB33A
:10214000209326034DB320912703209524232DBBF4
:102150003FBF02C0309326038CBD9DBD08958EBD48
:1021600000000DB407FEFDCF8EB508958FEF0C94DF
:10217000AF1061E0FC0184810E9408238091B703C5
:10218000882339F01092B7038091280381110C94B1
:1021900088100895CF93DF93EC018091B7038111EC
:1021A00009C081E08093B7038091B8039091B9038F
:1021B0000E94951060E08C81DF91CF910C940823F0
:1021C000CF93DF93EC018E81882389F08F819885EE
:1021D0009C012F5F3F4F38872F838230924018F445
:1021E0000E94B610F3CFCE010E94B9101E82DF917B
:1021F000CF910895673028F026E1FC01258380E027
:102200000895623081F030F4662359F06130B1F402
:1022100080E515C0643059F040F0653079F482E50E
:102220000EC080E505C081E503C081E508C082E5F8
:102230008093B80381E08093B903089583E5809388
:10224000B8031092B90381E008950F931F93CF93C1
:10225000DF93EB010E943C228B010E94B6108F3F5E
:1022600049F00E943C22601B710B6C177D07A8F39C
:1022700080E001C081E0DF91CF911F910F9108951F
:10228000CF92DF92FF920F931F93CF93DF9300D0F3
:1022900000D0CDB7DEB76C01F62E29833A834B838D
:1022A0005C830E94E010C6010E94CA106CE271E0DB
:1022B000C6010E9425118F2D80640E94AF1008E195
:1022C00010E05C814B813A812981DA01C901002E3D
:1022D00004C0B695A795979587950A94D2F7298358
:1022E0003A834B835C830E94AF1008501109298107
:1022F0003A814B815C81083F8FEF180731F7FF204F
:1023000029F0E8E0FE1621F08FEF03C085E901C057
:1023100087E80E94AF1010E00E94B610F601828795
:1023200087FF04C01F3F11F01F5FF6CF0F900F9083
:102330000F900F90DF91CF911F910F91FF90DF9041
:10234000CF900895BF92CF92DF92EF92FF920F93BA
:102350001F93CF93DF93EC01B62E1B8619861E8246
:102360001D824C830E943C228B0161E08C810E9483
:10237000CF2261E08C810E9408230E94F40982E54B
:102380008093B8031092B9038091B8039091B90378
:102390000E9495102AE0F22E8FEF0E94AF10FA945F
:1023A000D9F78091280381110E948810CE010E94E4
:1023B000CA1020E030E0A90160E0CE010E94401187
:1023C000F82E8A8781E0F81649F00E943C22601BB3
:1023D000710B613D774068F381E04BC02AEA31E040
:1023E00040E050E068E0CE010E94401182FF02C050
:1023F000FB860DC094E0F92E0E94B6108A87FA94ED
:10240000D9F78A3A11F082E034C082E08B878B855D
:10241000823031F4C12CD12CE12C80E4F82E03C0A1
:10242000C12CD12C760120E030E0A90167E3CE0178
:102430000E944011A701960169E2CE010E9440115D
:102440008A87882349F00E943C22601B710B613D02
:10245000774048F388E00DC08B85823031F520E06D
:1024600030E0A9016AE3CE010E944011882381F087
:1024700086E08D83CE010E94B91080E0DF91CF917C
:102480001F910F91FF90EF90DF90CF90BF90089534
:102490000E94B610807C803C11F483E08B870E9400
:1024A000B6100E94B6100E94B610CE010E94B9105C
:1024B0006B2DCE01DF91CF911F910F91FF90EF9087
:1024C000DF90CF90BF900C94FA100F931F93CF938F
:1024D000DF93EC010E943C228B010E94B6108A8798
:1024E0008F3F49F40E943C22601B710B6D3271409A
:1024F000A0F38FE003C08E3F39F08DE08D83CE01D5
:102500000E94B91080E001C081E0DF91CF911F915E
:102510000F910895CF92DF92EF92FF920F931F9346
:10252000CF93DF93EC0169010115110509F462C035
:10253000C801820F931F8130924008F05DC08E81E8
:10254000882371F088819981AA81BB814817590736
:102550006A077B0729F48F819885C816D90610F57C
:10256000488359836A837B838B85833039F039E0D4
:10257000440F551F661F771F3A95D1F79A01AB019B
:1025800061E1CE010E944011882319F083E08D8320
:1025900033C0CE010E946512882371F118861F8214
:1025A00081E08E838F8198858C159D0540F40E9473
:1025B000B6108F819885019698878F83F3CF670136
:1025C000E00EF11ECE14DF0431F00E94B610F601C9
:1025D00081936F01F7CF8F819885800F911F988726
:1025E0008F832985222319F08115924018F0CE019E
:1025F0000E94E01081E004C0CE010E94B91080E08A
:10260000DF91CF911F910F91FF90EF90DF90CF90CE
:102610000895EF92FF920F931F93790100E012E06B
:1026200020E030E00E948A121F910F91FF90EF90FE
:102630000895CF92DF92EF92FF920F931F93CF9363
:10264000DF9300D0CDB7DEB78C01862F49835A8344
:102650000E94AF104981C42E5A81D52EE12CF12C55
:10266000F60181916F010E94AF10FFEFEF1AFF0A90
:10267000E11482E0F806A1F78FEF0E94AF108FEF10
:102680000E94AF100E94B610F80182878F718530CA
:1026900039F081E18583C8010E94B91080E001C052
:1026A00081E00F900F90DF91CF911F910F91FF90DC
:1026B000EF90DF90CF9008950F931F93CF93DF9308
:1026C000EC018901411551056105710511F482E1A3
:1026D00032C08B85833039F089E0440F551F661F67
:1026E000771F8A95D1F79A01AB0168E1CE010E946C
:1026F0004011882311F084E01EC0A8016EEFCE01C6
:102700000E9419138823C1F068E572E0CE010E948F
:102710002511811102C085E10EC020E030E0A90141
:102720006DE0CE010E944011811104C00E94B610DC
:10273000882339F084E18D83CE010E94B91080E0B6
:1027400004C0CE010E94B91081E0DF91CF911F91AA
:102750000F91089580E58093B8031092B90308950E
:10276000CF93DF93EC019C012A5F3F4F41E050E0A3
:1027700060E070E08B8D9C8D0E94071D8823A1F086
:102780004F89588D698D7A8D452B462B472B71F4D7
:102790004E815F81688579854F8B588F698F7A8FDD
:1027A0008C8180688C8302C080E001C081E0DF9171
:1027B000CF910895CF92DF92EF92FF921F93CF9324
:1027C000DF93EC010E94B013811102C080E04BC086
:1027D000EB8DFC8DCE80DF80E884F98482E0C81A1E
:1027E000D108E108F108058404C0CC0CDD1CEE1C06
:1027F000FF1C0A94D2F74685578560897189C40EFB
:10280000D51EE61EF71E148181E0C81AD108E10822
:10281000F108112361F0C701B601610F711D811D1F
:10282000911D0E94511B882389F21150F2CFEB8D2C
:10283000FC8DC12C82E0D82EE12CF12C058404C043
:10284000CC0CDD1CEE1CFF1C0A94D2F74B895C8972
:102850006D897E894C0D5D1D6E1D7F1D4B8B5C8BC4
:102860006D8B7E8B81E0DF91CF911F91FF90EF9078
:10287000DF90CF900895CF93DF93EC01462F6E85C4
:102880007F85888999890E94161B882341F08A894F
:1028900020E2829FC00111248D539C4F02C080E032
:1028A00090E0DF91CF910895282FFB018BE030E27B
:1028B00031938150E9F7A22FB92F20E037E09D91A5
:1028C000992319F19E3219F0E4EBF0E008C03A3098
:1028D00011F128E03AE0F3CF31964917E1F0449145
:1028E0004111FACF3217B8F04FED490F4E3598F439
:1028F00041E0420FFB01E20FF11D2FE9290F2A31C0
:1029000008F490529083242FDACF81E0FB0190816C
:10291000903209F480E008950F931F93CF93DF93D3
:10292000EC018B018D81882311F080E040C0FB0118
:1029300087898031B1F482E08D831F8A188E198EC9
:102940001A8E408D518D60E070E095E0440F551F68
:10295000661F771F9A95D1F74B8B5C8B6D8B7E8BA7
:1029600015C0803211F783E08D83FB01428D538DBA
:10297000648D758D4F8B588F698F7A8F9E012D5E78
:102980003F4FC8010E94FB1B882379F21C8F0B8FDD
:1029900081E08C831E821F82188619861A861B8608
:1029A0001C861D861E861F86188A198A1A8ADF9140
:1029B000CF911F910F9108952F923F924F925F9266
:1029C0006F927F928F929F92AF92BF92CF92DF923F
:1029D000EF92FF920F931F93CF93DF93EC016B0164
:1029E0005A018D81811103C08FEF9FEFDAC08C8176
:1029F00080FFFACF4B895C896D897E898A859B85AA
:102A0000AC85BD852501612C712C8A019B01081BB9
:102A1000190B2A0B3B0B041515052605370518F471
:102A20005A01A81AB90A25011E0126E0220E311CFE
:102A30004114510409F47BC04A855B856C857D8512
:102A40004A0181E09822ED818A019B01F9E03695E7
:102A5000279517950795FA95D1F78B8D9C8DE230C8
:102A600051F4FC01628D738D848D958D600F711F03
:102A7000821F931F3EC0FC0174807A9470228114DF
:102A80009104C9F4711017C0452B462B472B49F40C
:102A90008F89988DA98DBA8D8E839F83A887B987DA
:102AA0000AC04E815F816885798591010E94771BFC
:102AB000882309F499CFEB8DFC8D6E817F81888509
:102AC00099856250710981099109058404C0660FD6
:102AD000771F881F991F0A94D2F7068517852089CA
:102AE0003189600F711F821F931F670D711D811D3A
:102AF000911D20E032E028193909320124153505ED
:102B000008F439012C8126FD04C06114F2E07F062F
:102B1000A1F5009108011091090120910A0130915D
:102B20000B01601771078207930719F426C0C501CE
:102B300038C0760183019401AB01BC018091C103CF
:102B40009091C2030E948A12882309F44DCFC60CCB
:102B5000D71C04C0E81BF90BCE0EDF1E8A859B85AF
:102B6000AC85BD85860D971DA11DB11D8A879B87EC
:102B7000AC87BD87461857085BCF40E00E94161B04
:102B8000882309F431CFC4018D539C4FD6019C0199
:102B9000260D371DFC01E217F307E1F241914D9339
:102BA000FACFDF91CF911F910F91FF90EF90DF90BF
:102BB000CF90BF90AF909F908F907F906F905F90DD
:102BC0004F903F902F900895FF920F931F93CF93B4
:102BD000DF931F92CDB7DEB78C01FC018581823077
:102BE00018F480E090E034C0F80142855385648594
:102BF0007585A5E07695679557954795AA95D1F780
:102C0000F42FFF70FF2E41E050E0BE016F5F7F4F59
:102C1000C8010E94DC14019719F4298130E002C038
:102C20002FEF3FEF2F3F3F4FE1F2F80142855385F1
:102C300064857585415E5F4F6F4F7F4F4287538735
:102C400064877587F0E2FF9EC00111248D539C4F6D
:102C50000F90DF91CF911F910F91FF9008954F92A8
:102C60005F926F927F92AF92BF92CF92DF92EF927C
:102C7000FF920F931F93CF93DF93EC016A017B01C7
:102C80002D81222309F457C08B899C89AD89BE8987
:102C900084179507A607B70708F44DC04EC08A856C
:102CA0009B85AC85BD85EB8DFC8DE585F0E0399687
:102CB000AC01BD0141505109610971090E2E04C0DA
:102CC00076956795579547950A94D2F797018601AF
:102CD000015011092109310904C03695279517952E
:102CE0000795EA95D2F70417150726073707B0F5B9
:102CF0008F89988DA98DBA8D8E839F83A887B98778
:102D0000280139015E0186E0A80EB11C411451046E
:102D10006104710461F14E815F8168857985950157
:102D20008B8D9C8D0E94771B91E0491A5108610898
:102D300071088111EBCF80E01FC02230C1F0C114B7
:102D4000D104E104F10409F0AACF1E821F82188683
:102D500019861A861B861C861D860DC0892B8A2B18
:102D60008B2B31F2041B150B260B370BC9CFCA86F0
:102D7000DB86EC86FD8681E0DF91CF911F910F917C
:102D8000FF90EF90DF90CF90BF90AF907F906F90CB
:102D90005F904F9008950F931F93CF93DF93EC01B3
:102DA0008D818823C9F18C8187FF30C061E0CE011D
:102DB0000E943B148C01009779F18D81823048F498
:102DC0004B895C896D897E89F801448F558F668FA8
:102DD000778F4F89588D698D7A8DF801538F428F87
:102DE000758B648BE091BA03F091BB03309759F077
:102DF000B8016A5E7F4FC80148960995F801808D39
:102E0000918D938B828B8C818F778C83DF91CF9187
:102E10001F910F910C94DB1A80E0DF91CF911F91ED
:102E20000F910895CF93DF93EC010E94CB16882376
:102E300019F01D8281E001C080E0DF91CF910895FB
:102E40004F925F926F927F92AF92BF92CF92DF923A
:102E5000EF92FF920F931F93CF93DF9300D000D098
:102E6000CDB7DEB75C016A017B01FC018581813051
:102E7000F1F4848181FF1BC0F50183899489A589C0
:102E8000B68984179507A607B70788F0892B8A2B80
:102E90008B2B09F479C0F5014284538464847584D2
:102EA000B701A601C5010E942F16811102C080E062
:102EB0006CC0F501838D948DC114D104E104F1043B
:102EC00071F44789508D618D728D0E941C1E88237C
:102ED00071F3F501178A108E118E128E3AC0F5012A
:102EE00046815781608571859E012F5F3F4F0E940B
:102EF000771B8823E1F249815A816B817C81F5013E
:102F0000838D948DFC012789203129F408EF1FEF70
:102F100020E030E004C008EF1FEF2FEF3FE0401744
:102F2000510762077307A8F40E941C1E882309F446
:102F3000BECFF50146815781608571850FEF1FEF88
:102F40002FEF3FE0838D948D0E94661C882309F447
:102F5000AECFF501C38AD48AE58AF68A8481806877
:102F60008483C5010E94CB16882309F4A0CFB70142
:102F7000A6014C145D046E047F0410F4B301A20199
:102F8000C5010E942F1601C081E00F900F900F9095
:102F90000F90DF91CF911F910F91FF90EF90DF90F5
:102FA000CF90BF90AF907F906F905F904F900895BB
:102FB000FF920F931F93CF93DF93EC01F42E80E2E7
:102FC000689FF0011124ED53FC4F8385817129F036
:102FD000842F827411F080E053C06A8B80910801C5
:102FE00090910901A0910A01B0910B018E879F87F2
:102FF000A88BB98B4489558960E070E0BA015527E8
:103000004427028D138D20E030E0402B512B622BA2
:10301000732B4F8B588F698F7A8F8385887151F40A
:10302000048D158D268D378D0B8B1C8B2D8B3E8B38
:1030300081E00CC0803179F69E012D5E3F4F8B8D73
:103040009C8D0E94FB1B882331F284E08D838F2DA1
:103050008F708C831E821F82188619861A861B86A3
:103060001C861D86F6FE0BC040E050E0BA01CE0182
:10307000DF91CF911F910F91FF900C94201781E069
:10308000DF91CF911F910F91FF900895AF92BF9262
:10309000CF92DF92EF92FF920F931F93CF93DF9324
:1030A000CDB7DEB72B970FB6F894DEBF0FBECDBFFE
:1030B0007C016B01CA01B22EF70125812111B9C033
:1030C000BE016F5F7F4F0E945414882309F4B1C082
:1030D000F601838D948DF701948F838FF60116820C
:1030E0001782108611861286138614861586A12CE7
:1030F000F601028513852485358583899489A58900
:10310000B689081719072A073B07E8F545E0369501
:103110002795179507954A95D1F70F70C6010E941C
:10312000E415009709F485C0FC012081222311F0E9
:10313000253EB9F4A1100EC0F701028B40910801A1
:103140005091090160910A0170910B0146875787E0
:10315000608B718BFC018081AA24A3948111C8CF5C
:1031600012C04BE050E0BC01CE0101960E94522FEC
:10317000892B09F0BDCF8B2D8073803309F459C0A2
:103180004B2D602F52C08B2D8271823109F051C0BE
:10319000AA2041F061E0C7010E943B148C01009716
:1031A00079F447C0F6018581823009F442C0C60136
:1031B0000E94DA138823E9F1F701128A03EC13E085
:1031C00080E2F80111928A95E9F78BE0FE013196D1
:1031D000D80101900D928A95E1F7E091BA03F09140
:1031E000BB03309739F0B801625F7F4FC80140964A
:1031F000099509C081E298E2F801918B808B80E00B
:1032000098E097878687F80180899189938B828BD4
:10321000918F808F86859785978B868B0E94DB1A8E
:10322000882339F04B2DF7016289C7010E94D81716
:1032300001C080E02B960FB6F894DEBF0FBECDBF65
:10324000DF91CF911F910F91FF90EF90DF90CF9082
:10325000BF90AF9008952F923F924F925F926F92DE
:103260007F928F929F92AF92BF92CF92DF92EF9216
:10327000FF920F931F93CF93DF9300D000D01F9244
:10328000CDB7DEB78C017B013A01DC0115968C913C
:1032900015978130C9F414968C9181FF15C082FF77
:1032A0001BC0F80143895489658976898285938595
:1032B000A485B58584179507A607B70769F0C801E7
:1032C0000E942F16811108C081E090E0F8019383DD
:1032D000828380E090E046C1630180C0D8015B96A4
:1032E0008D919C915C97FC01F481F150B501A40192
:1032F00029E076956795579547952A95D1F7F42358
:10330000FD8321E09222FF2309F474C080E092E063
:103310008819990956018C159D0508F45C01D8019E
:103320005B96ED91FC915C9716962D903D904D909B
:103330005C901997B2E02B1A3108410851080584B6
:1033400004C0220C331C441C551C0A94D2F78685F9
:103350009785A089B189280E391E4A1E5B1EED8112
:103360002E0E311C411C511CA114F2E0BF0609F0C5
:1033700088C08091080190910901A0910A01B09143
:103380000B0182159305A405B50559F48FEF9FEF46
:10339000DC018093080190930901A0930A01B09386
:1033A0000B019701B201A1018091C1039091C20369
:1033B0000E945C13882309F487CF9EEFF91ACA187C
:1033C000DB08F80182859385A485B5858A0D9B1D50
:1033D000A11DB11D82879387A487B587D8011A964E
:1033E0008D909D90AD90BC901D97C114D10409F0B3
:1033F00075CF8AC08114910409F088CF16964D913B
:103400005D916D917C91199741155105610571058B
:1034100059F457968D919D910D90BC91A02D0097D8
:10342000A105B10541F521C09E012F5F3F4F0E94CC
:10343000771B882309F44ECF89819A81AB81BC81A7
:10344000F801238D348DF9012789203129F448EFC3
:103450005FEF60E070E004C048EF5FEF6FEF7FE088
:1034600084179507A607B70730F0C8010E94B0136C
:1034700081114CCF29CFF80186839783A087B1872C
:1034800045CF8114910429F5D8011A964D915D918B
:103490006D917C911D9753968D919D910D90BC914E
:1034A000A02D481759076A077B0798F00E94DB1A7E
:1034B000882309F409CF2092080130920901409233
:1034C0000A0150920B018091C00381608093C00378
:1034D00008C041E0C201B1010E94161B882309F413
:1034E000F3CEC4018D539C4FD7019C012A0D3B1D87
:1034F000FC01E217F30719F04D914193FACFE81B55
:10350000F90BEE0EFF1E5BCF53968D919D910D90A2
:10351000BC91A02DF801248188159905AA05BB0549
:1035200038F4838A948AA58AB68A206824830CC0DA
:103530008091BA039091BB03892B31F0611471041F
:1035400019F02068F8012483D80114968C9183FD2A
:1035500002C0C30107C0C8010E94CB16882309F42A
:10356000B3CEF7CF0F900F900F900F900F90DF9189
:10357000CF911F910F91FF90EF90DF90CF90BF9070
:10358000AF909F908F907F906F905F904F903F9003
:103590002F900895CF93DF931F92CDB7DEB7698345
:1035A00041E050E0BE016F5F7F4F0E942B190F90EA
:1035B000DF91CF9108958091C003882399F14091C4
:1035C00008015091090160910A0170910B0123ECEF
:1035D00033E08091C1039091C2030E945C13882361
:1035E00019F14091BC035091BD036091BE037091ED
:1035F000BF03411551056105710591F023EC33E0DE
:103600008091C1039091C2030E945C13882361F0F2
:103610001092BC031092BD031092BE031092BF0320
:103620001092C00381E0089580E00895CF92DF9268
:10363000EF92FF92CF936B017C01C42F8091080120
:1036400090910901A0910A01B0910B018C159D0583
:10365000AE05BF05D1F00E94DB1A811102C080E0E7
:103660001AC023EC33E0B701A6018091C103909109
:10367000C2030E940913882391F3C0920801D092DB
:103680000901E0920A01F0920B018091C0038C2B9A
:103690008093C00381E0CF91FF90EF90DF90CF90B7
:1036A0000895CF92DF92EF92FF926B017C010E940E
:1036B000DB1A8823B1F0E3ECF3E0119285E0E33C00
:1036C000F807D9F7C0920801D0920901E0920A01E7
:1036D000F0920B018091C00381608093C00381E070
:1036E00001C080E0FF90EF90DF90CF9008958F921F
:1036F0009F92AF92BF92CF92DF92EF92FF920F9381
:103700001F93CF93DF938C016A017B01E901FC01D8
:1037100081859285A385B4850196A11DB11D84176D
:103720009507A607B70710F480E058C0F801438951
:103730005489658976898789803129F4BB27AF2D23
:103740009E2D8D2D09C0D701C60127E0B695A795FE
:10375000979587952A95D1F74C015D01840E951EAA
:10376000A61EB71EC501B401809008019090090102
:10377000A0900A01B0900B01681579058A059B0598
:1037800089F4F8018789803199F4DD24EE24FF243F
:10379000F601EE0FFF1FED53FC4F80819181A0E0F9
:1037A000B0E017C040E00E94161B8111EACFBCCFE9
:1037B000E894C7F8DD24EE24FF24F601EE0FFF1F86
:1037C000EE0FFF1FED53FC4F80819181A281B381E9
:1037D000BF7088839983AA83BB8381E0DF91CF91F7
:1037E0001F910F91FF90EF90DF90CF90BF90AF901F
:1037F0009F908F9008954F925F926F927F92AF92B9
:10380000BF92CF92DF92EF92FF920F931F93CF93CD
:10381000DF9300D000D0CDB7DEB78C0149835A8347
:103820006B837C835901C12CD12C7601412C42E061
:10383000542E612C712C49815A816B817C819E01AF
:103840002F5F3F4FC8010E94771B882359F1D30196
:10385000C201F801058404C0880F991FAA1FBB1F6D
:103860000A94D2F7C80ED91EEA1EFB1E49815A815E
:103870006B817C818789803129F488EF9FEFA0E0FC
:10388000B0E004C088EF9FEFAFEFBFE048175907E3
:103890006A077B0780F2F501C082D182E282F3825F
:1038A00081E001C080E00F900F900F900F90DF91AA
:1038B000CF911F910F91FF90EF90DF90CF90BF902D
:1038C000AF907F906F905F904F9008954F925F926E
:1038D0006F927F928F929F92AF92BF92CF92DF9220
:1038E000EF92FF920F931F93CF93DF93EC016A0146
:1038F0007B0128013901423051056105710508F449
:1039000074C049855A856B857C854F5F5F4F6F4FCB
:103910007F4F4C155D056E057F0508F466C08B88EA
:103920009C88AD88BE888F89803129F477276F2DD8
:103930005E2D4D2D09C0B701A601E7E0769567958C
:1039400057954795EA95D1F7840E951EA61EB71E8A
:10395000409108015091090160910A0170910B0199
:1039600084169506A606B70671F48F89803199F4FE
:10397000DD24EE24FF24F601EE0FFF1FED53FC4F74
:103980005182408218C040E0C501B4010E94161B5C
:103990008111EBCF2AC0E894C7F8DD24EE24FF2480
:1039A000F601EE0FFF1FEE0FFF1FED53FC4F40829D
:1039B0005182628273828091C00381608093C003D0
:1039C0008A89823080F08D819E81AF81B885880D93
:1039D000991DAA1DBB1D8093BC039093BD03A093AA
:1039E000BE03B093BF0381E001C080E0DF91CF91BF
:1039F0001F910F91FF90EF90DF90CF90BF90AF900D
:103A00009F908F907F906F905F904F9008952F922E
:103A10003F924F925F926F927F929F92AF92BF922E
:103A2000CF92DF92EF92FF920F931F93CF93DF938A
:103A3000CDB7DEB760970FB6F894DEBF0FBECDBF2F
:103A40005C014D875E876F87788B1901D9014D9096
:103A50005D906D907C90411451046104710431F0CB
:103A6000BFEF4B1A5B0A6B0A7B0A10C0FC01408057
:103A7000518062807380992493940D851E852F85D3
:103A80003889013011052105310509F0912CD50146
:103A900019962D913D914D915C911C972F5F3F4F51
:103AA0004F4F5F4F29873A874B875C8773016201CD
:103AB0001D821E821F821886F50181859285A3854D
:103AC000B4850D811E812F813885081719072A07B3
:103AD0003B0708F056C029853A854B855C852C1537
:103AE0003D054E055F0550F4A2E0CA2ED12CE12C15
:103AF000F12CB2E04B2E512C612C712C9E012F5FCA
:103B00003F4FB701A601C5010E94771B8823C9F169
:103B100049815A816B817C81D701C6010196A11D23
:103B2000B11D452B462B472B19F02C013D010FC031
:103B3000AC01BD0144195509660977090D851E853B
:103B40002F853889401751076207730779F02D8157
:103B50003E814F8158852F5F3F4F4F4F5F4F2D83E1
:103B60003E834F8358876C017D01A6CF0FEF1FEF77
:103B70002FEF3FE0B701A601C5010E94661C81112D
:103B800018C080E041C0D701C6010197A109B10961
:103B90008D839E83AF83B88797018601AC01BD01F9
:103BA000C5010E94661C882361F3CD80DE80EF8012
:103BB000F8844C145D046E047F0428F3D1014D9108
:103BC0005D916D917C91411551056105710599F4E7
:103BD000F10140825182628273829920A1F0FFEF4D
:103BE0004F1A5F0A6F0A7F0AD5014D925D926D925E
:103BF0007C92139708C093018201C5010E94661C44
:103C00008111E6CFBECF81E060960FB6F894DEBF9B
:103C10000FBECDBFDF91CF911F910F91FF90EF901D
:103C2000DF90CF90BF90AF909F907F906F905F900C
:103C30004F903F902F900895AF92BF92CF92DF9216
:103C4000EF92FF920F931F93CF93DF9300D000D09A
:103C5000CDB7DEB75C016A017B0182E090E0A0E0B5
:103C6000B0E0F50180839183A283B3839E012F5F2F
:103C70003F4FB701A601C5010E94771B882311F1B0
:103C800000E010E09801B701A601C5010E94661C82
:103C90008823C1F0C980DA80EB80FC80F501878938
:103CA000803129F488EF9FEFA0E0B0E004C088EFF6
:103CB0009FEFAFEFBFE0C816D906EA06FB06B0F2E9
:103CC00081E001C080E00F900F900F900F90DF9186
:103CD000CF911F910F91FF90EF90DF90CF90BF9009
:103CE000AF9008958F929F92AF92BF92CF92DF9242
:103CF000EF92FF920F931F93CF93DF93EC01142F5A
:103D00007093C2036093C103442341F1453010F026
:103D100080E0EFC040E060E070E0CB010E94161B45
:103D20008823B1F320E1129FF0011124EF58FA4FDC
:103D300080818F7769F784859585A685B7858436D8
:103D40009105A105B10520F3C084D184E284F384F8
:103D5000C114D104E104F10421F4DACFC12CD12C37
:103D6000760140E0C701B6010E94161B882381F24C
:103D70008091CE039091CF038115924049F6309106
:103D8000D303332329F28091D1039091D203892B5D
:103D900009F4BECF2091D003222309F4B9CF3A8B86
:103DA0002C831D8630E041E050E06D85062FCA016E
:103DB000062E02C0880F991F0A94E2F728173907C8
:103DC00031F081E0860F8D87683078F3A1CF2091A4
:103DD000D9033091DA032115310519F040E050E0A4
:103DE00008C02091E7033091E8034091E903509126
:103DF000EA032D833E834F8358878091D1039091AE
:103E0000D20346015701880E991EA11CB11C8B8A52
:103E10009C8AAD8ABE8AE091D403F091D503F98FD4
:103E2000E88FA091D303B0E00E94E02B680D791DCC
:103E30008A1D9B1D6A8F7B8F8C8F9D8F15E0EE0FE7
:103E4000FF1F1A95E1F7E150FE4FEF2FFF27E69590
:103E5000DC01CB018E0F9F1FA11DB11D8E879F8797
:103E6000A88BB98B8090D6039090D70381149104CE
:103E700019F0A12CB12C08C08090E3039090E403CA
:103E8000A090E503B090E603A7019601281B390B2B
:103E90004A0B5B0BDA01C901880D991DAA1DBB1DD8
:103EA00004C0B695A795979587950A95D2F7898707
:103EB0009A87AB87BC87853F3FE09307A105B10593
:103EC00010F48CE014C0853F9F4FA105B10510F49C
:103ED00080E10DC08091EF039091F003A091F10378
:103EE000B091F2038A8F9B8FAC8FBD8F80E28F8B56
:103EF00081E0DF91CF911F910F91FF90EF90DF90C4
:103F0000CF90BF90AF909F908F900895CF93DF9305
:103F1000EC0188859985009711F00E94B92C8E815B
:103F200087FD05C060E0DF91CF910C94CF22DF9137
:103F3000CF910895CF93DF93EC018E8187FD07C069
:103F400061E00E94CF2260E08E810E94082381E020
:103F50008983DF91CF910895EF92FF920F931F9382
:103F6000CF93DF93EC017B0188859985009711F051
:103F70000E94B92C9D858A85981303C083E090E048
:103F800002C084E090E08E9D80018F9D100D9E9D6B
:103F9000100D11241D830C83C8010E94212C9987C8
:103FA0008887009741F0A80160E070E00E94682FC8
:103FB000FB82EA8204C01D821C821B821A82DF916E
:103FC000CF911F910F91FF90EF900895FC0121E098
:103FD00095858285981320E0CB0136E096958795EC
:103FE0003A95E1F7482F43704587CB0154E0969509
:103FF00087955A95E1F7382F33703287CB01969524
:1040000087959695879583708387862F837084879D
:1040100081E06F3F710511F008F080E080838085BA
:104020009185892B51F091E0431390E0921729F08C
:1040300062817381CF010C94AC1F0895CF92DF92FF
:10404000EF92FF920F931F93CF93DF93CDB7DEB71D
:1040500029970FB6F894DEBF0FBECDBF8C01DC01EF
:1040600018968D919C911997892B09F49AC00E94FA
:104070004822F801C684D784E088F1886C197D094C
:104080008E099F09623371058105910580F3F894CB
:10409000848195819A838983A085B1857D01EFEF25
:1040A000EE1AFE0A8C918987D8019C9152960D9048
:1040B000BC91A02DF8018489992309F42EC09C910C
:1040C000982B98879C91809589238F838F818E83ED
:1040D00088E08D8358856F8149853D812E81898156
:1040E0009A81F7015C9347FD252F3A952C93262F53
:1040F00039F0441F00C000006C93000000C0F2CFF4
:1041000038E041916C930000019761F7F801B38B9F
:10411000A28B49873D832E8338C09C91982B98872A
:104120009C91809589238F838F818C8388E08B83FA
:1041300058856F8149853B812C8189819A81F7015E
:104140005C9347FD252F00C000C02C9300C000C029
:1041500000C000C000C06C930000262F3A9541F0CB
:10416000441F000000C000C000C000C000C0E8CF75
:1041700038E0419100C06C9300C0019709F7F80145
:10418000B38BA28B49873B832C839A838983789452
:104190000E944822D8011E966D937D938D939C9327
:1041A000519729960FB6F894DEBF0FBECDBFDF91B1
:1041B000CF911F910F91FF90EF90DF90CF900895D6
:1041C0001F93CF93DF93EC01162F8981882331F061
:1041D0008E8187FD03C060E00E94CF221E8389810B
:1041E000882341F061E0812F0E94CF2260E0812F7F
:1041F0000E940823812F90E0FC01E451FF4FE491DD
:10420000F0E0EE0FFF1FE65FFE4F259134913B8BF0
:104210002A8BFC01E852FF4F84918C8BDF91CF9168
:104220001F910895EF92FF920F931F93CF93DF9307
:104230001F92CDB7DEB77C018B01FC011182178282
:104240001186108616861786108A118AB90149834D
:104250000E94E61FB801C7010E94AC1F4981642F6C
:10426000C7010F90DF91CF911F910F91FF90EF90B9
:104270000C94E020CF92DF92EF92FF920F931F9366
:10428000CF93DF93FC01828193816817790708F04F
:104290004DC0CA01AA27BB27182FC32ED42EE52E46
:1042A000FF24DC2DC22F0781002361F0809FC00115
:1042B0001124192FC09E60011124DD2D209FC00103
:1042C0001124C92FF5848285A085B185F81208C014
:1042D000CB01880F991F860F971F8A0F9B1F17C04E
:1042E000CB01880F991F880F991F8A0F9B1F452F9D
:1042F000552766277727DC01AF0DB11D002329F074
:10430000409F90011124232F01C0242F2C9322853C
:10431000DC01A20FB11D1C932385DC01A20FB11D8E
:10432000DC932485FC01E20FF11DC083DF91CF9166
:104330001F910F91FF90EF90DF90CF900895962FEF
:1043400050E060E070E0592B682BCB01BA01089572
:10435000FF920F931F93CF93DF93EC01FF24F3940D
:10436000F60E2F81F21679F1088519852150B9F0E2
:104370006F3F59F430E040E050E06FEF7FEF80E0B6
:1043800090E00E94C12BB9010CC08F2D90E0982FB6
:1043900088270197622F70E00E94772B02C060E0AF
:1043A00070E0F8018C819D81AF01401B510B4817D3
:1043B000590740F44081469FC001479F900D11244A
:1043C0009193F0CFFF82DF91CF911F910F91FF90DA
:1043D0000895FC014481558160E070E080859185FD
:1043E0000C94682F1F920F920FB60F9211242F93E7
:1043F0003F938F939F93AF93BF938091C405909108
:10440000C505A091C605B091C7053091C30523E04D
:10441000230F2D3720F40196A11DB11D05C026E8FC
:10442000230F0296A11DB11D2093C3058093C405DF
:104430009093C505A093C605B093C7058091C805A4
:104440009091C905A091CA05B091CB050196A11D17
:10445000B11D8093C8059093C905A093CA05B09378
:10446000CB05BF91AF919F918F913F912F910F906D
:104470000FBE0F901F9018952FB7F8946091C40548
:104480007091C5058091C6059091C7052FBF08950D
:104490003FB7F8948091C8059091C905A091CA05CD
:1044A000B091CB0526B5A89B05C02F3F19F001960A
:1044B000A11DB11D3FBF6627782F892F9A2F620F4C
:1044C000711D811D911D42E0660F771F881F991F86
:1044D0004A95D1F70895789484B5826084BD84B5F7
:1044E000816084BD85B5826085BD85B5816085BDEF
:1044F000EEE6F0E0808181608083E1E8F0E0108208
:10450000808182608083808181608083E0E8F0E048
:10451000808181608083E1EBF0E080818460808332
:10452000E0EBF0E0808181608083EAE7F0E0808169
:1045300084608083808182608083808181608083C9
:104540008081806880831092C1000895833081F05B
:1045500028F4813099F08230A1F008958730A9F0D5
:104560008830B9F08430D1F4809180008F7D03C011
:10457000809180008F7780938000089584B58F7735
:1045800002C084B58F7D84BD08958091B0008F777F
:1045900003C08091B0008F7D8093B0000895CF93C9
:1045A000DF9390E0FC01E852FF4F2491FC01E451BD
:1045B000FF4F8491882349F190E0880F991FFC01F7
:1045C000EC5EFE4FA591B491865F9E4FFC01C591B4
:1045D000D4919FB7611108C0F8948C9120958223E3
:1045E0008C93888182230AC0623051F4F8948C91B4
:1045F000322F309583238C938881822B888304C04B
:10460000F8948C91822B8C939FBFDF91CF9108956A
:104610000F931F93CF93DF931F92CDB7DEB7282F51
:1046200030E0F901EC53FF4F8491F901E852FF4F5C
:104630001491F901E451FF4F04910023C9F088233C
:1046400021F069830E94A6226981E02FF0E0EE0F3D
:10465000FF1FE65FFE4FA591B4919FB7F8948C9130
:10466000611103C01095812301C0812B8C939FBFE2
:104670000F90DF91CF911F910F910895CF93DF930A
:10468000282F30E0F901EC53FF4F8491F901E852F3
:10469000FF4FD491F901E451FF4FC491CC2391F025
:1046A00081110E94A622EC2FF0E0EE0FFF1FE050D8
:1046B000FF4FA591B4912C912D2381E090E021F43E
:1046C00080E002C080E090E0DF91CF910895FC018E
:1046D000818D228D90E0805C9F4F821B91098F73AA
:1046E00099270895FC01918D828D981731F0828D64
:1046F000E80FF11D858D90E008958FEF9FEF0895ED
:10470000FC01918D828D981761F0828DDF01A80FD9
:10471000B11D5D968C91928D9F5F9F73928F90E0FB
:1047200008958FEF9FEF089584E095E2892B49F07B
:1047300080E090E0892B29F00E94042581110C94DF
:1047400000000895FC01848DDF01A80FB11DA35A5C
:10475000BF4F2C91848D90E001968F739927848FA1
:10476000A689B7892C93A089B1898C9180648C9398
:10477000938D848D981306C00288F389E02D808183
:104780008F7D80830895CF93DF93EC01888D8823FC
:10479000C9F0EA89FB89808185FD05C0A889B989AE
:1047A0008C9186FD0FC00FB607FCF5CF808185FF89
:1047B000F2CFA889B9898C9185FFEDCFCE010E94F7
:1047C000A223E7CFDF91CF910895CF92DF92FF929E
:1047D0000F931F93CF93DF931F92CDB7DEB76C017A
:1047E00081E0D60158968C9358975B969C915B9785
:1047F0005C968C915C97981307C05096ED91FC9154
:104800005197808185FD2EC0F601038D10E00F5F6A
:104810001F4F0F731127F02EF601848DF81211C06F
:104820000FB607FCF9CFD6015096ED91FC91519748
:10483000808185FFF1CFC60169830E94A22369812F
:10484000EBCF838DE80FF11DE35AFF4F6083D60154
:104850005B960C935B975296ED91FC9153978081F8
:1048600080620CC0D6015696ED91FC9157976083FB
:104870005096ED91FC91519780818064808381E016
:1048800090E00F90DF91CF911F910F91FF90DF90FB
:10489000CF900895BF92CF92DF92EF92FF92CF9385
:1048A000DF93EC016A017B01B22EE889F98982E08D
:1048B0008083411581EE580761057105A1F060E024
:1048C00079E08DE390E0A70196010E949F2B215093
:1048D0003109410951095695479537952795211575
:1048E00080E1380798F0E889F989108260E874E877
:1048F0008EE190E0A70196010E949F2B2150310983
:10490000410951095695479537952795EC85FD85C1
:104910003083EE85FF852083188EEC89FD89B08277
:10492000EA89FB89808180618083EA89FB898081B3
:1049300088608083EA89FB89808180688083EA8936
:10494000FB8980818F7D8083DF91CF91FF90EF90F5
:10495000DF90CF90BF9008951F920F920FB60F92E5
:1049600011242F938F939F93EF93FF93E091DC0596
:10497000F091DD058081E091E205F091E30582FD93
:1049800012C090818091E5058F5F8F732091E605BD
:10499000821751F0E091E505F0E0E453FA4F958F6E
:1049A0008093E50501C08081FF91EF919F918F91E8
:1049B0002F910F900FBE0F901F9018951F920F927E
:1049C0000FB60F9211242F933F934F935F936F93E2
:1049D0007F938F939F93AF93BF93EF93FF938CEC51
:1049E00095E00E94A223FF91EF91BF91AF919F911B
:1049F0008F917F916F915F914F913F912F910F9088
:104A00000FBE0F901F9018958CEC95E00E946723C5
:104A100021E0892B09F420E0822F08951092CF0520
:104A20001092CE0588EE93E0A0E0B0E08093D00530
:104A30009093D105A093D205B093D3058FE092E077
:104A40009093CD058093CC0585EC90E09093D905AB
:104A50008093D80584EC90E09093DB058093DA0591
:104A600080EC90E09093DD058093DC0581EC90E094
:104A70009093DF058093DE0582EC90E09093E10552
:104A80008093E00586EC90E09093E3058093E20547
:104A90001092E5051092E6051092E7051092E805E0
:104AA000089508950E946B220E9451250E9463067A
:104AB000C4E9D3E20E9417082097E1F30E949423EF
:104AC000F9CFCF92DF92EF92FF920F931F93CF9384
:104AD000DF937C016A01EB0100E010E00C151D057D
:104AE00071F06991D701ED91FC910190F081E02D79
:104AF000C7010995892B19F00F5F1F4FEFCFC80130
:104B0000DF91CF911F910F91FF90EF90DF90CF90A9
:104B100008956115710581F0DB010D900020E9F722
:104B2000AD0141505109461B570BDC01ED91FC9141
:104B30000280F381E02D099480E090E00895DC018B
:104B4000ED91FC91DB0114964D915C9115976D915F
:104B50007C910280F381E02D09946BE172E00C946A
:104B600089250F931F93CF93DF93EC010E949F251C
:104B70008C01CE010E94AD25800F911FDF91CF9156
:104B80001F910F9108950F931F93CF93DF93EC0123
:104B90000E9489258C01CE010E94AD25800F911FB6
:104BA000DF91CF911F910F910895FC018081918138
:104BB0000C94B92CCF93DF93EC01888199810097F5
:104BC00011F00E94B92C198218821D821C821B824E
:104BD0001A82DF91CF9108950F931F93CF93DF93A4
:104BE000EC018B016F5F7F4F888199810E94482D76
:104BF000009731F0998388831B830A8381E001C089
:104C000080E0DF91CF911F910F910895CF93DF93B3
:104C1000EC0188819981892B29F08A819B818617F3
:104C2000970760F4CE010E94EC25882341F08C8127
:104C30009D81892B19F4E881F981108281E0DF914F
:104C4000CF910895EF92FF920F931F93CF93DF932D
:104C5000EC017B018A01BA010E940626811104C081
:104C6000CE010E94DA2507C01D830C83B70188811D
:104C700099810E947A2FCE01DF91CF911F910F91E0
:104C8000FF90EF900895FC0111821082138212822E
:104C9000158214826115710559F0FB010190002005
:104CA000E9F7AF0141505109461B570B0C942226DE
:104CB0000895CF93DF93EC01FB018617970761F00E
:104CC000608171816115710529F0448155810E94CF
:104CD000222602C00E94DA25CE01DF91CF910895ED
:104CE000FC011182108213821282158214820C94AC
:104CF0005926CF93DF93EC016115710561F0FB013B
:104D000001900020E9F7AF0141505109461B570BB4
:104D10000E94222602C00E94DA25CE01DF91CF91A7
:104D200008950F931F93CF93DF93CDB7DEB76297AC
:104D30000FB6F894DEBF0FBECDBF8C01CB01F801DA
:104D400011821082138212821582148250E0BE01F9
:104D50006F5F7F4F0E94902FBE016F5F7F4FC80132
:104D60000E94792662960FB6F894DEBF0FBECDBFC3
:104D7000DF91CF911F910F9108950F931F93CF93C0
:104D8000DF93CDB7DEB761970FB6F894DEBF0FBEE5
:104D9000CDBF8C01CB01F8011182108213821282E7
:104DA0001582148250E0BE016F5F7F4F0E94A62FD4
:104DB000BE016F5F7F4FC8010E94792661960FB6D2
:104DC000F894DEBF0FBECDBFDF91CF911F910F9141
:104DD0000895EF92FF920F931F93CF93DF93CDB778
:104DE000DEB7A1970FB6F894DEBF0FBECDBF7C0132
:104DF000CB01BA01F701118210821382128215824F
:104E0000148242E0420F8E010F5F1F4F0E94002C60
:104E1000BC01C7010E947926A1960FB6F894DEBFA7
:104E20000FBECDBFDF91CF911F910F91FF90EF90FB
:104E30000895EF92FF920F931F93CF93DF93EC01AE
:104E40007B010C811D816115710511F480E016C094
:104E50004115510591F0040F151FB8010E94062657
:104E60008823A1F3288139818C819D81B701820F2C
:104E7000931F0E947A2F1D830C8381E0DF91CF91D5
:104E80001F910F91FF90EF900895CF93DF9300D083
:104E9000CDB7DEB769831A8241E050E0BE016F5F93
:104EA0007F4F0E9419270F900F90DF91CF910895A7
:104EB000EF92FF920F931F93CF93DF93CDB7DEB79F
:104EC00064970FB6F894DEBF0FBECDBF7C01CB0157
:104ED000BA018E010F5F1F4F22E044E00E94002CB8
:104EE000FC0101900020E9F7AF0141505109481B36
:104EF000590BBC01C7010E94192764960FB6F8949C
:104F0000DEBF0FBECDBFDF91CF911F910F91FF90FC
:104F1000EF900895CF93DF93EC01FB01448155811D
:104F2000608171810E941927811103C0CE010E9406
:104F3000DA25CE01DF91CF910895CF93DF93EC0175
:104F40006115710569F0FB0101900020E9F7AF01DF
:104F500041505109461B570B0E941927811103C06C
:104F6000CE010E94DA25CE01DF91CF910895CF9333
:104F7000DF93EC010E944527811103C0CE010E94FE
:104F8000DA25CE01DF91CF910895CF93DF93EC0125
:104F90000E945827811103C0CE010E94DA25CE015C
:104FA000DF91CF9108955058BB27AA270ED083C216
:104FB0004CD230F051D220F031F49F3F11F41EF466
:104FC0001CC20EF4E095E7FB04C2E92F96D280F3F1
:104FD000BA17620773078407950718F071F49EF5F6
:104FE000AEC20EF4E0950B2EBA2FA02D0B01B90125
:104FF00090010C01CA01A0011124FF27591B99F04F
:10500000593F50F4503E68F11A16F040A22F232F5A
:10501000342F4427585FF3CF469537952795A795AA
:10502000F0405395C9F77EF41F16BA0B620B730B51
:10503000840BBAF09150A1F0FF0FBB1F661F771FC2
:10504000881FC2F70EC0BA0F621F731F841F48F477
:10505000879577956795B795F7959E3F08F0B3CFFD
:105060009395880F08F09927EE0F979587950895E7
:10507000ECD158F080E891E009F49EEFEDD128F0F2
:1050800040E851E059F45EEF09C0B7C158C2E92FBA
:10509000E07833D268F3092E052AC1F326173707C3
:1050A0004807590738F00E2E07F8E02569F0E0258B
:1050B000E0640AC0EF6307F8009407FADB01B90166
:1050C0009D01DC01CA01AD01EF934AD0F4D10AD0B1
:1050D0005F91552331F02BED3FE049E450FD49EC61
:1050E00063CF0895DF93DD27B92FBF7740E85FE3F3
:1050F0001616170648075B0710F4D92F2BD29F937B
:105100008F937F936F93D8D2E8E6F0E079D1D3D133
:105110002F913F914F915F9130D2DD2349F090580C
:10512000A2EA2AED3FE049EC5FE3D0785D274DDF4E
:10513000DF91C1C12AD108F481E0089595D1E395AA
:10514000CBC10CD0B8C188D140F07FD130F021F470
:105150005F3F19F03EC15111F3C14FC1CED198F359
:105160009923C9F35523B1F3951B550BBB27AA27E8
:1051700062177307840738F09F5F5F4F220F331F5A
:10518000441FAA1FA9F333D00E2E3AF0E0E830D026
:1051900091505040E695001CCAF729D0FE2F27D029
:1051A000660F771F881FBB1F261737074807AB07F7
:1051B000B0E809F0BB0B802DBF01FF2793585F4F6C
:1051C0002AF09E3F510568F004C1BAC15F3FECF37D
:1051D000983EDCF3869577956795B795F7959F5F31
:1051E000C9F7880F911D9695879597F90895E1E085
:1051F000660F771F881FBB1F621773078407BA07E4
:1052000020F0621B730B840BBA0BEE1F88F7E0953E
:10521000089504D06894B11193C1089576D188F0AF
:105220009F5790F0B92F9927B751A0F0D1F0660F92
:10523000771F881F991F1AF0BA95C9F712C0B130AD
:1052400081F07DD1B1E008957AC1672F782F88274A
:10525000B85F39F0B93FCCF3869577956795B395EC
:10526000D9F73EF490958095709561957F4F8F4F5B
:105270009F4F0895E89409C097FB3EF49095809560
:10528000709561957F4F8F4F9F4F9923A9F0F92F0C
:1052900096E9BB279395F695879577956795B7958A
:1052A000F111F8CFFAF4BB0F11F460FF1BC06F5F70
:1052B0007F4F8F4F9F4F16C0882311F096E911C082
:1052C000772321F09EE8872F762F05C0662371F0A3
:1052D00096E8862F70E060E02AF09A95660F771FB7
:1052E000881FDAF7880F9695879597F90895ADD0BE
:1052F00018F011F0B1D038F480C022C1E92FFDD0F0
:10530000B0F35523C9F3E7FB6217730784079507CA
:10531000A8F199F3E92FFF2788232AF03197660F28
:10532000771F881FDAF7952F5527442332F09150C5
:105330005040220F331F441FD2F7BB27E91BF50B48
:10534000621B730B840BB109C1F222F4620F731F4D
:10535000841FB11D31972AF0660F771F881FBB1F6E
:10536000EFCF915050405AF041F0882332F0660F51
:10537000771F881F91505040C1F7939530C0869594
:10538000779567959F5FD9F7F8CF990F0008550F6C
:10539000AA0BE0E8FEEF16161706E807F907C0F0BB
:1053A00012161306E407F50798F0621B730B840BC3
:1053B000950B39F40A2661F0232B242B252B21F49D
:1053C00008950A2609F4A140A6958FEF811D811D3D
:1053D000089597F99F6780E870E060E008959F3F27
:1053E00031F0915020F4879577956795B795880FA0
:1053F000911D9695879597F908959FEF80EC0895F4
:10540000DF93CF931F930F93FF92EF92DF927B0175
:105410008C01689405C0DA2EEF01AFD0FE01E8944C
:10542000A5912591359145915591AEF3EF01CDDDD3
:10543000FE019701A801DA9479F7DF90EF90FF90D1
:105440000F911F91CF91DF91089500240A941616B1
:10545000170618060906089500240A941216130662
:10546000140605060895C9CF50D0E8F3E894E0E0AB
:10547000BB279F57F0F02AED3FE049EC06C0EE0F46
:10548000BB0F661F771F881F28F0B23A62077307A9
:10549000840728F0B25A620B730B840BE3959A953C
:1054A00072F7803830F49A95BB0F661F771F881FFC
:1054B000D2F7904896CF092E0394000C11F488235C
:1054C00052F0BB0F40F4BF2B11F460FF04C06F5FBC
:1054D0007F4F8F4F9F4F0895EF93E0FF06C0A2EAE2
:1054E0002AED3FE049EC5FEB70DDE5DF0F900394C0
:1054F00001FC9058E5E9F0E0E9C057FD9058440FF1
:10550000551F59F05F3F71F04795880F97FB991F22
:1055100061F09F3F79F087950895121613061406DF
:10552000551FF2CF4695F1DF08C01616170618066C
:10553000991FF1CF86957105610508940895E89447
:10554000BB2766277727CB0197F908951EDF08F45C
:105550008FEF08959B01AC0160E070E080E89FE36D
:10556000F0CD0BD0A8CF71DF28F076DF18F09523AF
:1055700009F02FCF42CF1124E3CFBFDFA0F3959FD7
:10558000D1F3950F50E0551F629FF001729FBB272A
:10559000F00DB11D639FAA27F00DB11DAA1F649FD6
:1055A0006627B00DA11D661F829F2227B00DA11D89
:1055B000621F739FB00DA11D621F839FA00D611D0F
:1055C000221F749F3327A00D611D231F849F600D30
:1055D000211D822F762F6A2F11249F5750408AF069
:1055E000E1F088234AF0EE0FFF1FBB1F661F771FF5
:1055F000881F91505040A9F79E3F510570F0E9CEA9
:105600009FCF5F3FECF3983EDCF3869577956795E7
:10561000B795F795E7959F5FC1F7FE2B880F911D12
:105620009695879597F908959F931EDF0F9007FC35
:10563000EE5F52CF11F40EF4E0CED1CE66DFD0F3A0
:105640009923D9F3CEF39F57550B87FF38D0002409
:10565000A0E640EA900180585695979528F4805C22
:10566000660F771F881F20F026173707480730F48A
:10567000621B730B840B202931294A2BA6951794A2
:105680000794202531254A2758F7660F771F881F72
:1056900020F026173707480730F4620B730B840B92
:1056A000200D311D411DA09581F7B901842F91581E
:1056B000880F9695879508959B01AC0152CF915024
:1056C0005040660F771F881FD2F708959F938F93DE
:1056D0007F936F93FF93EF939B01AC0142DFEF91B8
:1056E000FF918EDE2F913F914F915F913ACFAA1B90
:1056F000BB1B51E107C0AA1FBB1FA617B70710F0BD
:10570000A61BB70B881F991F5A95A9F780959095EE
:10571000BC01CD01089597FB072E16F4009407D025
:1057200077FD09D00E94772B07FC05D03EF49095B9
:1057300081959F4F0895709561957F4F0895A1E2DF
:105740001A2EAA1BBB1BFD010DC0AA1FBB1FEE1FFB
:10575000FF1FA217B307E407F50720F0A21BB30B46
:10576000E40BF50B661F771F881F991F1A9469F7C2
:1057700060957095809590959B01AC01BD01CF011E
:105780000895052E97FB1EF400940E94D82B57FD18
:1057900007D00E949F2B07FC03D04EF40C94D82B0B
:1057A00050954095309521953F4F4F4F5F4F08954D
:1057B00090958095709561957F4F8F4F9F4F08957D
:1057C0000E94F12BA59F900DB49F900DA49F800D7A
:1057D000911D11240895EE0FFF1F0590F491E02D07
:1057E0000994A29FB001B39FC001A39F700D811DBA
:1057F0001124911DB29F700D811D1124911D0895DA
:10580000EF920F931F93CF93DF93E80147FF02C0FE
:1058100034E101C034E0E42FFF27E7FDF095F7FF06
:1058200003C0F195E195F109E32E022F2E2FAE0171
:105830000E94CB2FCE01DF91CF911F910F91EF905E
:105840000895CF93DF938230910510F482E090E0C9
:10585000E0916B06F0916C0620E030E0A0E0B0E053
:10586000309739F14081518148175907B8F04817EE
:10587000590771F482819381109729F013969C93B4
:105880008E9312972CC090936C0680936B0627C062
:105890002115310531F04217530718F0A901DB013A
:1058A00001C0EF019A01BD01DF010280F381E02D0B
:1058B000D7CF21153105F9F0281B390B24303105DC
:1058C00080F48A819B816115710521F0FB0193832E
:1058D000828304C090936C0680936B06FE0132961F
:1058E00044C0FE01E20FF31F8193919322503109CE
:1058F000398328833AC02091690630916A06232BA8
:1059000041F4209102013091030130936A06209303
:10591000690620910001309101012115310541F402
:105920002DB73EB74091040150910501241B350B62
:10593000E0916906F0916A06E217F307A0F42E1BC6
:105940003F0B2817390778F0AC014E5F5F4F2417E3
:10595000350748F04E0F5F1F50936A064093690663
:105960008193919302C0E0E0F0E0CF01DF91CF910D
:105970000895CF93DF93009709F487C0FC01329715
:1059800013821282C0916B06D0916C06209781F42D
:1059900020813181280F391F8091690690916A0614
:1059A0008217930779F5F0936A06E09369066DC054
:1059B000DE0120E030E0AE17BF0750F412964D91A3
:1059C0005C9113979D014115510509F1DA01F3CF5F
:1059D000B383A28340815181840F951F8A179B074F
:1059E00071F48D919C911197840F951F029691836C
:1059F000808312968D919C911397938382832115B6
:105A0000310529F4F0936C06E0936B063EC0D90192
:105A10001396FC93EE9312974D915D91A40FB51FD1
:105A2000EA17FB0779F480819181840F951F029614
:105A3000D90111969C938E938281938113969C93A6
:105A40008E931297E0E0F0E08A819B81009719F035
:105A5000FE01EC01F9CFCE01029628813981820F37
:105A6000931F2091690630916A062817390769F457
:105A7000309729F410926C0610926B0602C01382C4
:105A80001282D0936A06C0936906DF91CF91089580
:105A9000A0E0B0E0EEE4FDE20C94C333EC01CB01F6
:105AA000209719F40E94212CB8C0FE01E60FF71FC1
:105AB0009E0122503109E217F30708F4ACC0D90166
:105AC0000D911C91119706171707B8F005301105B5
:105AD00008F49FC0A801445051094617570708F41D
