:100000000C9466000C948E000C948E000C94A20547
:100010000C94A2050C94A2050C948E000C948E00F6
:100020000C948E000C948E000C948E000C948E0018
:100030000C948E000C948E000C948E000C948E0008
:100040000C9471130C948E000C942B160C945D166A
:100050000C948E000C948E000C948E000C948E00E8
:100060000C948E000C948E00000000080002010029
:100070000003040700000000000000000102040863
:100080001020408001020408102001020408102002
:10009000040404040404040402020202020203032E
:1000A00003030303000000002300260029000000D2
:1000B0000000250028002B0000000000240027007D
:1000C0002A0091031A08710A8D16A50311241FBE78
:1000D000CFEFD8E0DEBFCDBF11E0A0E0B1E0ECEAA9
:1000E000F6E302C005900D92A63BB107D9F725E0D3
:1000F000A6EBB1E001C01D92AE3DB207E1F710E002
:10010000CAECD0E004C02297FE010E94B918C23C9C
:10011000D107C9F70E94D1160C94491B0C9400001A
:10012000CF92DF92EF92FF920F931F93CF93C82F3E
:10013000680179018EEB91E00E946813C130C9F02B
:1001400030F0C230C9F0C330D9F44FEF1AC040E0EC
:1001500063E585EE0E941E139B01AC0160E070E038
:100160008EEB91E00E94B9128EEB91E00E949D11FE
:1001700014C040E06FEF02C04FEF60E080E003C0CA
:1001800040E060E08FEF0E941E139B01AC0160E035
:1001900070E08EEB91E00E94B91220E030E040E781
:1001A00051E4C701B6010E943F1887FD0DC040E031
:1001B00060E08FEF0E941E139B01AC0160E270E0D3
:1001C0008EEB91E00E94B91220E030E048E452E466
:1001D000C701B6010E943F1887FD0DC040E060E0F6
:1001E0008FEF0E941E139B01AC0161E270E08EEB69
:1001F00091E00E94B91220E030E048E453E4C701E6
:10020000B6010E943F1887FD0DC040E060E08FEF0F
:100210000E941E139B01AC0162E270E08EEB91E044
:100220000E94B91220E030E048EC53E4C701B60167
:100230000E943F1887FD0DC040E060E08FEF0E94F4
:100240001E139B01AC0163E270E08EEB91E00E9413
:10025000B91220E030E04AE754E4C701B6010E9439
:100260003F1887FD0DC040E060E08FEF0E941E1335
:100270009B01AC0164E270E08EEB91E00E94B91248
:1002800020E030E04AEF54E4C701B6010E943F1875
:1002900087FD0DC040E060E08FEF0E941E139B01C0
:1002A000AC0165E270E08EEB91E00E94B91220E0B3
:1002B00030E04AE755E4C701B6010E943F1887FDC8
:1002C0000DC040E060E08FEF0E941E139B01AC0167
:1002D00066E270E08EEB91E00E94B91220E030E01F
:1002E00045EA55E4C701B6010E943F1887FD0DC0DD
:1002F00040E060E08FEF0E941E139B01AC0167E2BB
:1003000070E08EEB91E00E94B9122091B60130911D
:10031000B7014091B8015091B9016091BA01709153
:10032000BB018091BC019091BD010E9434170E94D5
:1003300099179B0177FF02C028593E4FC9010697C4
:100340008E3541E0940798F48733910598F0C7976C
:100350008C33910590F0CC978238910588F02B5F13
:1003600031092233310578F484E090E00EC080E05A
:1003700090E00BC081E090E008C082E090E005C012
:1003800083E090E002C085E090E08330910509F4BD
:10039000BDC044F48130910509F463C0029709F4AB
:1003A000ABC007C08430910509F4FBC0059709F480
:1003B0001CC14FEF6FEF80E00E941E139B01AC0148
:1003C00063E070E08EEB91E00E94B9124FEF6FEFA7
:1003D00080E00E941E139B01AC0164E070E08EEB94
:1003E00091E00E94B9124FEF6FEF80E00E941E1360
:1003F0009B01AC016BE070E08EEB91E00E94B912C2
:100400004FEF6FEF80E00E941E139B01AC016CE088
:1004100070E08EEB91E00E94B9124FEF6FEF80E039
:100420000E941E139B01AC0163E170E08EEB91E032
:100430000E94B9124FEF6FEF80E00E941E139B01E4
:10044000AC0164E170E08EEB91E00E94B9124FEFD5
:100450006FEF80E00E941E139B01AC016BE170E026
:100460003DC04FEF6FEF80E00E941E139B01AC0177
:1004700066E070E08EEB91E00E94B9124FEF6FEFF3
:1004800080E00E941E139B01AC0167E070E08EEBE0
:1004900091E00E94B9124FEF6FEF80E00E941E13AF
:1004A0009B01AC016EE070E08EEB91E00E94B9120E
:1004B0004FEF6FEF80E00E941E139B01AC016FE0D5
:1004C00070E08EEB91E00E94B9124FEF6FEF80E089
:1004D0000E941E139B01AC0165E170E08EEB91E080
:1004E0000E94B9124FEF6FEF80E00E941E139B0134
:1004F000AC016CE170E0B6C04FEF6FEF80E00E949E
:100500001E139B01AC016CE170E023C04FEF6FEF55
:1005100080E00E941E139B01AC0168E170E08EEB4D
:1005200091E00E94B9124FEF6FEF80E00E941E131E
:100530009B01AC0169E170E08EEB91E00E94B91281
:100540004FEF6FEF80E00E941E139B01AC016AE148
:1005500070E08EEB91E00E94B9124FEF6FEF80E0F8
:100560000E941E139B01AC016DE170E08EEB91E0E7
:100570000E94B9124FEF6FEF80E00E941E139B01A3
:10058000AC016EE170E08EEB91E00E94B9124FEF8A
:100590006FEF80E00E941E139B01AC016FE170E0E1
:1005A00061C04FEF6FEF80E00E941E139B01AC0112
:1005B00068E170E08EEB91E00E94B9124FEF6FEFAF
:1005C00080E00E941E139B01AC0169E170E08EEB9C
:1005D00091E00E94B9124FEF6FEF80E00E941E136E
:1005E0009B01AC016AE170E030C04FEF6FEF80E03B
:1005F0000E941E139B01AC0169E070E08EEB91E05C
:100600000E94B9124FEF6FEF80E00E941E139B0112
:10061000AC016AE070E08EEB91E00E94B9124FEFFE
:100620006FEF80E00E941E139B01AC0161E170E05E
:100630008EEB91E00E94B9124FEF6FEF80E00E94C5
:100640001E139B01AC0162E170E08EEB91E00E9411
:10065000B9124FEF6FEF80E00E941E139B01AC01B7
:100660006BE170E08EEB91E00E94B9128EEB91E0AD
:10067000CF911F910F91FF90EF90DF90CF900C944E
:100680009D1180E090E8ABEBB5E48093110290936C
:100690001202A0931302B093140226E040E052EC41
:1006A00061E070E08BE395E00E94C9158EEB91E06C
:1006B0000E9419116AE08EEB91E00E9427138EEBE5
:1006C00091E00E949D1140E855E260E070E083ED0A
:1006D00091E00E94A50660E171E083ED91E00E9447
:1006E000221761E271E083ED91E00E9422176AE334
:1006F00071E083ED91E00C9422171F93CF93DF9369
:10070000182FC8EED3E0812F0E94BD14892B21F44D
:100710002197C9F781E001C080E0DF91CF911F915F
:10072000089582EF91E00E94B80720E047E068E07A
:1007300083ED91E00E94750622E530E046E068E234
:1007400070E08EEB91E00C9491128EEB91E00E94A0
:10075000051183ED91E00C941C06CF93DF9380E8A4
:10076000E6E1F2E0DF011D928A95E9F7C0E083ED52
:1007700091E00E9433050196D1F383ED91E00E9450
:10078000BF04AC2FB0E0AA5EBD4F8C93CC2329F000
:10079000843219F480931602C0E0809116028432EC
:1007A00031F781E08C0FEC2FF0E0EA5EFD4F908195
:1007B0009A3011F0C82FDBCF90E0FC01EC5EFD4FCA
:1007C0001082EC012597FE01EA5EFD4F20812A325E
:1007D00069F640E150E060E070E08E5E9D4F0E945F
:1007E000F31921E0822F90E08C179D073CF4FC0167
:1007F000EA5EFD4F808168272F5FF4CF6111B6CF8D
:10080000DF91CF9108950F931F93809106019091EE
:1008100007010E947D03882359F08091150291E021
:10082000980F90931502843018F48E5F8093150210
:100830000E94AD03809119028235E1F0009111020E
:1008400010911202209113023091140240910D0276
:1008500050910E0260910F0270911002809115026A
:100860000E94900066E172E08BE395E01F910F918A
:100870000C942217E6E1F2E0CF01865192402191DB
:100880002C3219F020930000F7CF0196FC01EA5EAC
:10089000FD4F208101962C3219F020930000F6CFF5
:1008A000FC01EA5EFD4F208101962C3219F0209365
:1008B0000000F6CFFC01EA5EFD4F208101962C324C
:1008C00019F020930000F6CFFC01EA5EFD4F208175
:1008D00001962C3219F020930000F6CFFC01EA5E5D
:1008E000FD4F208101962C3219F020930000F6CFA5
:1008F000FC01EA5EFD4F208101962C3219F0209315
:100900000000F6CFFC01EA5EFD4F208101962C32FB
:1009100019F020930000F6CFFC01EA5EFD4F208124
:1009200001962C3219F020930000F6CFFC01EA5E0C
:10093000FD4F208101962C3219F020930000F6CF54
:10094000FC01EA5EFD4F208101962C3219F02093C4
:100950000000F6CFFC01EA5EFD4F208101962C32AB
:1009600019F020930000F6CFFC01EA5EFD4F2081D4
:100970002C3209F463CF209300000196F5CF20912B
:10098000DB023091DC0228173907B9F49091990203
:1009900080919A02981789F0E0919902F0E0E5566B
:1009A000FD4F80812091990230E02F5F3F4F2F73E0
:1009B00033272093990290E008958FEF9FEF0895D9
:1009C0001F93CF93DF93DC015C968D919C915D9793
:1009D000009749F481E090E013969C938E931297D0
:1009E00080E090E03BC05196ED91FC91529750967B
:1009F0002C915097322F30951FB75E964C915E9791
:100A000041FB772770F941FD6095F8944081772389
:100A100011F0422B01C043234083EC012197F1F7F1
:100A200048E0508160FF02C0522B01C05323508325
:100A3000EC012197F1F76695415099F78081772372
:100A400011F0832301C0822B80831FBF5C968D91A0
:100A50009C915D970197F1F781E090E0DF91CF9154
:100A60001F91089508952091DB023091DC02281730
:100A7000390771F49091990280919A02981741F088
:100A8000E0919902F0E0E556FD4F808190E00895F5
:100A90008FEF9FEF08952091DB023091DC02281741
:100AA000390771F480919A022091990290E0805C5C
:100AB0009F4F821B910960E470E00E9457180895CF
:100AC00080E090E00895E091DB02F091DC02E8170D
:100AD000F90769F4A389B4899C9185898095892354
:100AE0008C931092DC021092DB0281E0089580E08A
:100AF0000895CF93DF93EC018A8D9B8D892BF1F0C4
:100B00008091DB029091DC028C179D07B9F0009771
:100B100011F00E9463058E8D8E7F8E8F10929A0247
:100B200010929902D093DC02C093DB02EB89FC891E
:100B300080819D89892B808381E001C080E0DF91E5
:100B4000CF9108951F920F920FB60F9211242F93F9
:100B50003F934F935F936F937F938F939F93AF9345
:100B6000BF93EF93FF93E091DB02F091DC023097AB
:100B700009F451C0868DA685B785958581FF04C08F
:100B80008C91892329F447C08C91892309F043C0B3
:100B9000A389B4899C918589809589238C938689C2
:100BA00097890197F1F7208D318DA685B7857585D9
:100BB00058E040E0C9010197F1F7842F90E0959546
:100BC0008795482F6C91672309F04068515091F741
:100BD000868D81FD409580919A0290E001968F73F9
:100BE000992720919902281749F0A0919A02B0E024
:100BF000A556BD4F4C9380939A0203C0868D8160A9
:100C0000868F828D938D0197F1F7A389B4898C919A
:100C10009589892B8C93FF91EF91BF91AF919F9113
:100C20008F917F916F915F914F913F912F910F9095
:100C30000FBE0F901F90189520E731E0FC01318323
:100C400020830C9463051F93CF93DF93EC01162F41
:100C50006E8D6695617081E06827812F0E948714F0
:100C600061E0812F0E944E14812F90E0FC01E45836
:100C7000FF4FE491E88BFC01E057FF4FE491F0E077
:100C8000EE0FFF1FE255FF4F859194919A8B898B50
:100C9000DF91CF911F9108951F93CF93DF93EC01C4
:100CA000162F60E0812F0E944E148E8D81FD04C0AE
:100CB00061E0812F0E9487141C87812F90E0FC0146
:100CC000E458FF4FE491ED87FC01E057FF4FE491BA
:100CD000F0E0EE0FFF1FEC55FF4F859194919F8739
:100CE0008E87DF91CF911F910895FF920F931F93ED
:100CF000CF93DF93EC01F62E522F1B821A8208EE5F
:100D000013E020E030E00C831D832E833F8380E7D7
:100D100091E0998388831F8A1E8A198E188E1B8EF4
:100D20001A8E1D8E1C8E8E8D8E7F50FB81F98E8FBC
:100D3000642FCE010E9423066F2DCE01DF91CF914B
:100D40001F910F91FF900C944C06CF93DF93EC0111
:100D50009A01AB011B8E1A8E198E188E1F8A1E8A5D
:100D600060E079E08DE390E00E948D18C9012430A5
:100D7000310520F0B9016350710902C061E070E0F3
:100D80007D8F6C8FEC85E63108F068C0B9017695EF
:100D900067956431710518F06351710902C061E013
:100DA00070E07F8B6E8B069718F0C901059702C023
:100DB00081E090E0998F888FC901880F991F820F79
:100DC000931F96958795969587958D30910510F090
:100DD0000C9702C081E090E09B8F8A8F2091680081
:100DE000E83050F091E0EE3008F490E081E001C08E
:100DF000880F9A95EAF701C084E0822B80936800FF
:100E00002C85283038F02E3040F0263148F48CE61E
:100E100090E008C08DE690E005C08BE690E002C04F
:100E200080E090E09C8B8B8B283030F481E001C017
:100E3000880F2A95EAF70DC0822F90E02E3010F42B
:100E4000089701C00E9791E001C0990F8A95EAF7C3
:100E5000892F8D8B8C8D9D8D0197F1F7CE01DF91C0
:100E6000CF910C947905CF93DF931F92CDB7DEB766
:100E70006983DC01ED91FC910280F381E02D41E07A
:100E800050E0BE016F5F7F4F09950F90DF91CF91CA
:100E90000895CF93DF93EC01898D9A8D009759F0D7
:100EA000FC01138212820E94A50CE98DFA8D228129
:100EB0003381232B31F081E090E09B838A8380E0B3
:100EC00090E0DF91CF910895FC01818D928D009784
:100ED00011F00C945E0C0895CF93DF931F92CDB761
:100EE000DEB741E050E0BE016F5F7F4F0E94BA0A5B
:100EF000019719F4898190E002C08FEF9FEF0F9066
:100F0000DF91CF910895FC01818D928D009711F0B2
:100F10000C946C078FEF9FEF08950F931F93CF935F
:100F2000DF938C01FC01818D928D0097B9F00E94B6
:100F30006C07EC018F3FFFEF9F0799F0F801818D5F
:100F4000928DFC0142855385648575854150510918
:100F5000610971090E94C20BCE0105C080E090E0DA
:100F600002C08FEF9FEFDF91CF911F910F910895F6
:100F7000FC011382128248EE53E060E070E044838B
:100F800055836683778380E891E091838083128E16
:100F9000118E14860895DC015996ED91FC915A97B3
:100FA000309729F0628573858485958508956FEF64
:100FB0007FEFCB010895DC015996ED91FC915A9792
:100FC000309729F06389748985899689089560E04E
:100FD00070E0CB010895CF92DF92EF92FF92CF9312
:100FE000DF93EC01898D9A8D892BD9F0CE010E9477
:100FF000DB076B017C01CE010E94CB07A7019601A4
:10100000261B370B480B590BDA01C901811530E853
:101010009307A105B10538F08FEF9FE7A0E0B0E09E
:1010200002C080E090E0DF91CF91FF90EF90DF90E1
:10103000CF9008951092E2021092E3021092E6021D
:101040001092E80282E090E0A0E0B0E08093E90234
:101050009093EA02A093EB02B093EC02109200038B
:1010600010920A031092090380E991E0909308031B
:101070008093070310920C0308959FB7F894209172
:10108000980280919602213019F48DBB9FBF08957C
:101090008FBF089520919802222399F03FB7F894CA
:1010A00020919802213059F42DB3209396024DB32C
:1010B00020919702209524232DBB3FBF02C030937F
:1010C00096028CBD9DBD08958EBD00000DB407FE37
:1010D000FDCF8EB508958FEF0C94640861E0FC019C
:1010E00084810E94871480912603882339F010920E
:1010F00026038091980281110C943D080895CF93A6
:10110000DF93EC0180912603811109C081E0809377
:10111000260380912703909128030E944A0860E0EB
:101120008C81DF91CF910C948714CF93DF93EC01E6
:101130008E81882389F08F8198859C012F5F3F4F96
:1011400038872F838230924018F40E946B08F3CFC7
:10115000CE010E946E081E82DF91CF9108950F93F9
:101160001F93CF93DF93EB010E94BB138B010E946F
:101170006B088F3F49F00E94BB13601B710B6C170B
:101180007D07A8F380E001C081E0DF91CF911F913E
:101190000F910895CF92DF92FF920F931F93CF93F9
:1011A000DF9300D000D0CDB7DEB76C01F62E2983D7
:1011B0003A834B835C830E949508C6010E947F0896
:1011C0006CE271E0C6010E94AF088F2D80640E941E
:1011D000640808E110E05C814B813A812981DA01E1
:1011E000C901002E04C0B695A795979587950A94D6
:1011F000D2F729833A834B835C830E9464080850AA
:10120000110929813A814B815C81083F8FEF1807D2
:1012100031F7FF2029F0E8E0FE1621F08FEF03C040
:1012200085E901C087E80E94640810E00E946B080D
:10123000F601828787FF04C01F3F11F01F5FF6CFC2
:101240000F900F900F900F90DF91CF911F910F9102
:10125000FF90DF90CF9008950F931F93CF93DF936C
:10126000EC010E94BB138B010E946B088A878F3FA1
:1012700049F40E94BB13601B710B6D327140A0F3E7
:101280008FE003C08E3F39F08DE08D83CE010E9448
:101290006E0880E001C081E0DF91CF911F910F9136
:1012A0000895CF92DF92EF92FF920F931F93CF9307
:1012B000DF93EC0169010115110509F462C0C80151
:1012C000820F931F8130924008F05DC08E81882389
:1012D00071F088819981AA81BB81481759076A07F3
:1012E0007B0729F48F819885C816D90610F54883A5
:1012F00059836A837B838B85833039F039E0440FCF
:10130000551F661F771F3A95D1F79A01AB0161E12E
:10131000CE010E94CA08882319F083E08D8333C070
:10132000CE010E942C09882371F118861F8281E06A
:101330008E838F8198858C159D0540F40E946B08E3
:101340008F819885019698878F83F3CF6701E00E90
:10135000F11ECE14DF0431F00E946B08F601819378
:101360006F01F7CF8F819885800F911F98878F83AA
:101370002985222319F08115924018F0CE010E9490
:10138000950881E004C0CE010E946E0880E0DF91E4
:10139000CF911F910F91FF90EF90DF90CF90089524
:1013A000EF92FF920F931F93790100E012E020E08B
:1013B00030E00E9451091F910F91FF90EF90089526
:1013C000CF92DF92EF92FF920F931F93CF93DF9311
:1013D00000D0CDB7DEB78C01862F49835A830E9497
:1013E00064084981C42E5A81D52EE12CF12CF601D6
:1013F00081916F010E946408FFEFEF1AFF0AE11468
:1014000082E0F806A1F78FEF0E9464088FEF0E9438
:1014100064080E946B08F80182878F71853039F06B
:1014200081E18583C8010E946E0880E001C081E0EF
:101430000F900F90DF91CF911F910F91FF90EF9040
:10144000DF90CF9008950F931F93CF93DF93EC011C
:101450008901411551056105710511F482E132C020
:101460008B85833039F089E0440F551F661F771F45
:101470008A95D1F79A01AB0168E1CE010E94CA08B2
:10148000882311F084E01EC0A8016EEFCE010E94F7
:10149000E0098823C1F068E572E0CE010E94AF0840
:1014A000811102C085E10EC020E030E0A9016DE0AD
:1014B000CE010E94CA08811104C00E946B088823D3
:1014C00039F084E18D83CE010E946E0880E004C073
:1014D000CE010E946E0881E0DF91CF911F910F91A4
:1014E000089580E580932703109228030895CF93F1
:1014F000DF93EC019C012A5F3F4F41E050E060E048
:1015000070E08B8D9C8D0E94F00F8823A1F04F8995
:10151000588D698D7A8D452B462B472B71F44E8162
:101520005F81688579854F8B588F698F7A8F8C8121
:1015300080688C8302C080E001C081E0DF91CF91A0
:101540000895CF93DF93EC01462F6E857F858889C0
:1015500099890E94900E882341F08A8920E2829F17
:10156000C00111248E5C9C4F02C080E090E0DF91AE
:10157000CF9108952F923F924F925F926F927F92F8
:101580008F929F92AF92BF92CF92DF92EF92FF9293
:101590000F931F93CF93DF93EC016B015A018D8161
:1015A000811103C08FEF9FEFDAC08C8180FFFACFEB
:1015B0004B895C896D897E898A859B85AC85BD85D3
:1015C0002501612C712C8A019B01081B190B2A0B28
:1015D0003B0B041515052605370518F45A01A81A02
:1015E000B90A25011E0126E0220E311C41145104C6
:1015F00009F47BC04A855B856C857D854A0181E065
:101600009822ED818A019B01F9E03695279517957F
:101610000795FA95D1F78B8D9C8DE23051F4FC0142
:10162000628D738D848D958D600F711F821F931F46
:101630003EC0FC0174807A94702281149104C9F434
:10164000711017C0452B462B472B49F48F89988D75
:10165000A98DBA8D8E839F83A887B9870AC04E81D2
:101660005F816885798591010E94CB0E882309F4FA
:1016700099CFEB8DFC8D6E817F8188859985625035
:10168000710981099109058404C0660F771F881FBD
:10169000991F0A94D2F70685178520893189600F32
:1016A000711F821F931F670D711D811D911D20E009
:1016B00032E02819390932012415350508F43901B9
:1016C0002C8126FD04C06114F2E07F06A1F5009193
:1016D00008011091090120910A0130910B01601756
:1016E00071078207930719F426C0C50138C0760137
:1016F00083019401AB01BC018091300390913103CF
:101700000E945109882309F44DCFC60CD71C04C090
:10171000E81BF90BCE0EDF1E8A859B85AC85BD8547
:10172000860D971DA11DB11D8A879B87AC87BD873C
:10173000461857085BCF40E00E94900E882309F4BA
:1017400031CFC4018E5C9C4FD6019C01260D371D04
:10175000FC01E217F307E1F241914D93FACFDF91DB
:10176000CF911F910F91FF90EF90DF90CF90BF909E
:10177000AF909F908F907F906F905F904F903F9031
:101780002F9008954F925F926F927F92AF92BF9287
:10179000CF92DF92EF92FF920F931F93CF93DF933D
:1017A000EC016A017B012D81222309F457C08B894A
:1017B0009C89AD89BE8984179507A607B70708F4E9
:1017C0004DC04EC08A859B85AC85BD85EB8DFC8D5B
:1017D000E585F0E03996AC01BD0141505109610940
:1017E00071090E2E04C076956795579547950A9412
:1017F000D2F797018601015011092109310904C06E
:101800003695279517950795EA95D2F7041715078A
:1018100026073707B0F58F89988DA98DBA8D8E83ED
:101820009F83A887B987280139015E0186E0A80E49
:10183000B11C411451046104710461F14E815F8156
:101840006885798595018B8D9C8D0E94CB0E91E0EA
:10185000491A5108610871088111EBCF80E01FC05F
:101860002230C1F0C114D104E104F10409F0AACF7F
:101870001E821F82188619861A861B861C861D8664
:101880000DC0892B8A2B8B2B31F2041B150B260BD9
:10189000370BC9CFCA86DB86EC86FD8681E0DF91F7
:1018A000CF911F910F91FF90EF90DF90CF90BF905D
:1018B000AF907F906F905F904F9008950F931F931C
:1018C000CF93DF93EC018D818823C9F18C8187FF51
:1018D00030C061E0CE010E94A10A8C01009779F12D
:1018E0008D81823048F44B895C896D897E89F8014D
:1018F000448F558F668F778F4F89588D698D7A8D7C
:10190000F801538F428F758B648BE0912903F0911E
:101910002A03309759F0B8016A5E7F4FC801489694
:101920000995F801808D918D938B828B8C818F77B7
:101930008C83DF91CF911F910F910C94550E80E015
:10194000DF91CF911F910F9108952F923F924F9267
:101950005F926F927F928F929F92AF92BF92CF923F
:10196000DF92EF92FF920F931F93CF93DF9300D0FC
:1019700000D01F92CDB7DEB78C017B013A01DC01AC
:1019800015968C9115978130C9F414968C9181FF2E
:1019900015C082FF1BC0F801438954896589768987
:1019A00082859385A485B58584179507A607B70713
:1019B00069F0C8010E94C20B811108C081E090E06B
:1019C000F8019383828380E090E046C1630180C088
:1019D000D8015B968D919C915C97FC01F481F1504C
:1019E000B501A40129E076956795579547952A9505
:1019F000D1F7F423FD8321E09222FF2309F474C080
:101A000080E092E08819990956018C159D0508F42B
:101A10005C01D8015B96ED91FC915C9716962D9038
:101A20003D904D905C901997B2E02B1A3108410817
:101A30005108058404C0220C331C441C551C0A9414
:101A4000D2F786859785A089B189280E391E4A1E4E
:101A50005B1EED812E0E311C411C511CA114F2E0C5
:101A6000BF0609F088C08091080190910901A091FA
:101A70000A01B0910B0182159305A405B50559F42F
:101A80008FEF9FEFDC018093080190930901A093F1
:101A90000A01B0930B019701B201A10180913003BB
:101AA000909131030E94230A882309F487CF9EEF87
:101AB000F91ACA18DB08F80182859385A485B585D3
:101AC0008A0D9B1DA11DB11D82879387A487B587B1
:101AD000D8011A968D909D90AD90BC901D97C11421
:101AE000D10409F075CF8AC08114910409F088CF20
:101AF00016964D915D916D917C9119974115510507
:101B00006105710559F457968D919D910D90BC9189
:101B1000A02D0097A105B10541F521C09E012F5FC1
:101B20003F4F0E94CB0E882309F44ECF89819A81C2
:101B3000AB81BC81F801238D348DF90127892031D7
:101B400029F448EF5FEF60E070E004C048EF5FEF1A
:101B50006FEF7FE084179507A607B70730F0C8013D
:101B60000E94770A81114CCF29CFF8018683978391
:101B7000A087B18745CF8114910429F5D8011A9621
:101B80004D915D916D917C911D9753968D919D9195
:101B90000D90BC91A02D481759076A077B0798F054
:101BA0000E94550E882309F409CF20920801309233
:101BB000090140920A0150920B0180912F0381602C
:101BC00080932F0308C041E0C201B1010E94900E32
:101BD000882309F4F3CEC4018E5C9C4FD7019C018D
:101BE0002A0D3B1DFC01E217F30719F04D914193BB
:101BF000FACFE81BF90BEE0EFF1E5BCF53968D91CB
:101C00009D910D90BC91A02DF80124818815990516
:101C1000AA05BB0538F4838A948AA58AB68A206807
:101C200024830CC08091290390912A03892B31F0E1
:101C30006114710419F02068F8012483D801149606
:101C40008C9183FD02C0C30107C0C8010E945E0CD5
:101C5000882309F4B3CEF7CF0F900F900F900F9019
:101C60000F90DF91CF911F910F91FF90EF90DF9038
:101C7000CF90BF90AF909F908F907F906F905F902C
:101C80004F903F902F900895CF93DF931F92CDB741
:101C9000DEB7698341E050E0BE016F5F7F4F0E9475
:101CA000A50C0F90DF91CF91089580912F03882389
:101CB00099F1409108015091090160910A017091D8
:101CC0000B0122E333E080913003909131030E94B5
:101CD000230A882319F140912B0350912C03609122
:101CE0002D0370912E03411551056105710591F089
:101CF00022E333E080913003909131030E94230A64
:101D0000882361F010922B0310922C0310922D0364
:101D100010922E0310922F0381E0089580E0089521
:101D2000CF92DF92EF92FF92CF936B017C01C42F91
:101D30008091080190910901A0910A01B0910B01D5
:101D40008C159D05AE05BF05D1F00E94550E811181
:101D500002C080E01AC022E333E0B701A6018091FF
:101D60003003909131030E94D009882391F3C092EF
:101D70000801D0920901E0920A01F0920B018091D2
:101D80002F038C2B80932F0381E0CF91FF90EF9056
:101D9000DF90CF9008958F929F92AF92BF92CF9293
:101DA000DF92EF92FF920F931F93CF93DF938C01FB
:101DB0006A017B01E901FC0181859285A385B485D7
:101DC0000196A11DB11D84179507A607B70710F44A
:101DD00080E058C0F80143895489658976898789EC
:101DE000803129F4BB27AF2D9E2D8D2D09C0D70141
:101DF000C60127E0B695A795979587952A95D1F7BF
:101E00004C015D01840E951EA61EB71EC501B401CE
:101E10008090080190900901A0900A01B0900B01F8
:101E2000681579058A059B0589F4F8018789803151
:101E300099F4DD24EE24FF24F601EE0FFF1FEE5C83
:101E4000FC4F80819181A0E0B0E017C040E00E948B
:101E5000900E8111EACFBCCFE894C7F8DD24EE24C0
:101E6000FF24F601EE0FFF1FEE0FFF1FEE5CFC4F8D
:101E700080819181A281B381BF7088839983AA8375
:101E8000BB8381E0DF91CF911F910F91FF90EF9085
:101E9000DF90CF90BF90AF909F908F9008954F921A
:101EA0005F926F927F928F929F92AF92BF92CF92EA
:101EB000DF92EF92FF920F931F93CF93DF93EC018A
:101EC0006A017B0128013901423051056105710524
:101ED00008F474C049855A856B857C854F5F5F4FD8
:101EE0006F4F7F4F4C155D056E057F0508F466C08A
:101EF0008B889C88AD88BE888F89803129F47727AC
:101F00006F2D5E2D4D2D09C0B701A601E7E0769536
:101F1000679557954795EA95D1F7840E951EA61EAD
:101F2000B71E409108015091090160910A0170911A
:101F30000B0184169506A606B70671F48F898031C9
:101F400099F4DD24EE24FF24F601EE0FFF1FEE5C72
:101F5000FC4F5182408218C040E0C501B4010E948C
:101F6000900E8111EBCF2AC0E894C7F8DD24EE244F
:101F7000FF24F601EE0FFF1FEE0FFF1FEE5CFC4F7C
:101F8000408251826282738280912F0381608093AC
:101F90002F038A89823080F08D819E81AF81B88540
:101FA000880D991DAA1DBB1D80932B0390932C03B4
:101FB000A0932D03B0932E0381E001C080E0DF9158
:101FC000CF911F910F91FF90EF90DF90CF90BF9036
:101FD000AF909F908F907F906F905F904F900895FB
:101FE0002F923F924F925F926F927F929F92AF9209
:101FF000BF92CF92DF92EF92FF920F931F93CF93F6
:10200000DF93CDB7DEB760970FB6F894DEBF0FBE93
:10201000CDBF5C014D875E876F87788B1901D90131
:102020004D905D906D907C90411451046104710459
:1020300031F0BFEF4B1A5B0A6B0A7B0A10C0FC0140
:102040004080518062807380992493940D851E8511
:102050002F853889013011052105310509F0912CB2
:10206000D50119962D913D914D915C911C972F5F53
:102070003F4F4F4F5F4F29873A874B875C877301EC
:1020800062011D821E821F821886F501818592855C
:10209000A385B4850D811E812F8138850817190706
:1020A0002A073B0708F056C029853A854B855C8591
:1020B0002C153D054E055F0550F4A2E0CA2ED12C2B
:1020C000E12CF12CB2E04B2E512C612C712C9E0195
:1020D0002F5F3F4FB701A601C5010E94CB0E882399
:1020E000C9F149815A816B817C81D701C601019672
:1020F000A11DB11D452B462B472B19F02C013D018D
:102100000FC0AC01BD0144195509660977090D8559
:102110001E852F853889401751076207730779F0AC
:102120002D813E814F8158852F5F3F4F4F4F5F4F2D
:102130002D833E834F8358876C017D01A6CF0FEF1F
:102140001FEF2FEF3FE0B701A601C5010E944F0F1F
:10215000811118C080E041C0D701C6010197A109D3
:10216000B1098D839E83AF83B88797018601AC0147
:10217000BD01C5010E944F0F882361F3CD80DE8031
:10218000EF80F8844C145D046E047F0428F3D101C1
:102190004D915D916D917C914115510561057105E0
:1021A00099F4F10140825182628273829920A1F0F8
:1021B000FFEF4F1A5F0A6F0A7F0AD5014D925D92B9
:1021C0006D927C92139708C093018201C5010E9411
:1021D0004F0F8111E6CFBECF81E060960FB6F89425
:1021E000DEBF0FBECDBFDF91CF911F910F91FF904A
:1021F000EF90DF90CF90BF90AF909F907F906F90C7
:102200005F904F903F902F900895CF93DF93EC0114
:1022100088859985009711F00E9464198E8187FD49
:1022200005C060E0DF91CF910C944E14DF91CF9107
:102230000895CF93DF93EC018E8187FD07C061E0A5
:102240000E944E1460E08E810E94871481E0898391
:10225000DF91CF910895EF92FF920F931F93CF9349
:10226000DF93EC017B0188859985009711F00E942E
:1022700064199D858A85981303C083E090E002C0AD
:1022800084E090E08E9D80018F9D100D9E9D100D2D
:1022900011241D830C83C8010E94CC18998788875C
:1022A000009741F0A80160E070E00E942F1BFB82C4
:1022B000EA8204C01D821C821B821A82DF91CF91A8
:1022C0001F910F91FF90EF900895FC0121E09585FB
:1022D0008285981320E0CB0136E0969587953A9554
:1022E000E1F7482F43704587CB0154E096958795D9
:1022F0005A95E1F7382F33703287CB019695879541
:102300009695879583708387862F8370848781E075
:102310006F3F710511F008F080E080838085918522
:10232000892B51F091E0431390E0921729F06281DC
:102330007381CF010C942B110895CF92DF92EF920D
:10234000FF920F931F93CF93DF93CDB7DEB72997FB
:102350000FB6F894DEBF0FBECDBF8C01DC0118961E
:102360008D919C911997892B09F49AC00E94C713EB
:10237000F801C684D784E088F1886C197D098E093C
:102380009F09623371058105910580F3F89484817A
:1023900095819A838983A085B1857D01EFEFEE1A3F
:1023A000FE0A8C918987D8019C9152960D90BC9120
:1023B000A02DF8018489992309F42EC09C91982BB3
:1023C00098879C91809589238F838F818E8388E065
:1023D0008D8358856F8149853D812E8189819A81C0
:1023E000F7015C9347FD252F3A952C93262F39F062
:1023F000441F00C000006C93000000C0F2CF38E022
:1024000041916C930000019761F7F801B38BA28BA7
:1024100049873D832E8338C09C91982B98879C9147
:10242000809589238F838F818C8388E08B83588567
:102430006F8149853B812C8189819A81F7015C9369
:1024400047FD252F00C000C02C9300C000C000C075
:1024500000C000C06C930000262F3A9541F0441F45
:10246000000000C000C000C000C000C0E8CF38E0DD
:10247000419100C06C9300C0019709F7F801B38B3C
:10248000A28B49873B832C839A83898378940E940B
:10249000C713D8011E966D937D938D939C9351978E
:1024A00029960FB6F894DEBF0FBECDBFDF91CF9156
:1024B0001F910F91FF90EF90DF90CF9008951F93A1
:1024C000CF93DF93EC01162F8981882331F08E8121
:1024D00087FD03C060E00E944E141E83898188231B
:1024E00041F061E0812F0E944E1460E0812F0E9434
:1024F0008714812F90E0FC01E057FF4FE491F0E05A
:10250000EE0FFF1FE255FF4F259134913B8B2A8B35
:10251000FC01E458FF4F84918C8BDF91CF911F9188
:102520000895EF92FF920F931F93CF93DF931F9223
:10253000CDB7DEB77C018B01FC01118217821186B9
:10254000108616861786108A118AB90149830E945F
:102550006511B801C7010E942B114981642FC70181
:102560000F90DF91CF911F910F91FF90EF900C94FE
:102570005F12CF92DF92EF92FF920F931F93CF9350
:10258000DF93FC01828193816817790708F04DC0C1
:10259000CA01AA27BB27182FC32ED42EE52EFF244D
:1025A000DC2DC22F0781002361F0809FC001112420
:1025B000192FC09E60011124DD2D209FC001112420
:1025C000C92FF5848285A085B185F81208C0CB019A
:1025D000880F991F860F971F8A0F9B1F17C0CB016B
:1025E000880F991F880F991F8A0F9B1F452F55270A
:1025F00066277727DC01AF0DB11D002329F0409F2E
:1026000090011124232F01C0242F2C932285DC015B
:10261000A20FB11D1C932385DC01A20FB11DDC9319
:102620002485FC01E20FF11DC083DF91CF911F9142
:102630000F91FF90EF90DF90CF900895962F50E08C
:1026400060E070E0592B682BCB01BA010895FF922E
:102650000F931F93CF93DF93EC01FF24F394F60EB7
:102660002F81F21679F1088519852150B9F06F3F55
:1026700059F430E040E050E06FEF7FEF80E090E011
:102680000E948D18B9010CC08F2D90E0982F8827DB
:102690000197622F70E00E94431802C060E070E072
:1026A000F8018C819D81AF01401B510B48175907E0
:1026B00040F44081469FC001479F900D11249193A3
:1026C000F0CFFF82DF91CF911F910F91FF9008957E
:1026D000FC014481558160E070E0808591850C9417
:1026E0002F1B1F920F920FB60F9211242F933F931F
:1026F0008F939F93AF93BF9380913305909134054F
:10270000A0913505B09136053091320523E0230FB5
:102710002D3720F40196A11DB11D05C026E8230F19
:102720000296A11DB11D209332058093330590932D
:102730003405A0933505B093360580913705909107
:102740003805A0913905B0913A050196A11DB11D3A
:102750008093370590933805A0933905B0933A05D7
:10276000BF91AF919F918F913F912F910F900FBE8D
:102770000F901F9018952FB7F894609133057091C2
:10278000340580913505909136052FBF08953FB7E8
:10279000F8948091370590913805A0913905B09152
:1027A0003A0526B5A89B05C02F3F19F00196A11D3B
:1027B000B11D3FBF6627782F892F9A2F620F711D99
:1027C000811D911D42E0660F771F881F991F4A9552
:1027D000D1F70895789484B5826084BD84B5816012
:1027E00084BD85B5826085BD85B5816085BDEEE619
:1027F000F0E0808181608083E1E8F0E010828081F8
:1028000082608083808181608083E0E8F0E0808165
:1028100081608083E1EBF0E0808184608083E0EB85
:10282000F0E0808181608083EAE7F0E0808184606D
:1028300080838081826080838081816080838081C9
:10284000806880831092C1000895833081F028F45D
:10285000813099F08230A1F008958730A9F0883056
:10286000B9F08430D1F4809180008F7D03C08091D5
:1028700080008F7780938000089584B58F7702C0A1
:1028800084B58F7D84BD08958091B0008F7703C09B
:102890008091B0008F7D8093B0000895CF93DF9337
:1028A00090E0FC01E458FF4F2491FC01E057FF4FFA
:1028B0008491882349F190E0880F991FFC01E85426
:1028C000FF4FA591B49182559F4FFC01C591D491C2
:1028D0009FB7611108C0F8948C91209582238C9346
:1028E000888182230AC0623051F4F8948C91322F8F
:1028F000309583238C938881822B888304C0F8943D
:102900008C91822B8C939FBFDF91CF9108950F9371
:102910001F93CF93DF931F92CDB7DEB7282F30E000
:10292000F901E859FF4F8491F901E458FF4F1491E0
:10293000F901E057FF4F04910023C9F0882321F0EB
:1029400069830E9425146981E02FF0E0EE0FFF1FDC
:10295000E255FF4FA591B4919FB7F8948C91611106
:1029600003C01095812301C0812B8C939FBF0F90D2
:10297000DF91CF911F910F910895CF93DF93282F6F
:1029800030E0F901E859FF4F8491F901E458FF4F15
:10299000D491F901E057FF4FC491CC2391F08111FC
:1029A0000E942514EC2FF0E0EE0FFF1FEC55FF4FB7
:1029B000A591B4912C912D2381E090E021F480E049
:1029C00002C080E090E0DF91CF910895FC01818DFD
:1029D000228D90E0805C9F4F821B91098F73992715
:1029E0000895FC01918D828D981731F0828DE80F4A
:1029F000F11D858D90E008958FEF9FEF0895FC0104
:102A0000918D828D981761F0828DDF01A80FB11D25
:102A10005D968C91928D9F5F9F73928F90E0089549
:102A20008FEF9FEF089583E896E1892B49F080E0CE
:102A300090E0892B29F00E94831681110C940000EC
:102A40000895FC01848DDF01A80FB11DA35ABF4F6B
:102A50002C91848D90E001968F739927848FA6899D
:102A6000B7892C93A089B1898C9180648C93938DC4
:102A7000848D981306C00288F389E02D80818F7DB4
:102A800080830895CF93DF93EC01888D8823C9F06C
:102A9000EA89FB89808185FD05C0A889B9898C9167
:102AA00086FD0FC00FB607FCF5CF808185FFF2CF02
:102AB000A889B9898C9185FFEDCFCE010E9421159F
:102AC000E7CFDF91CF910895CF92DF92FF920F93DE
:102AD0001F93CF93DF931F92CDB7DEB76C0181E0D8
:102AE000D60158968C9358975B969C915B975C9611
:102AF0008C915C97981307C05096ED91FC9151977B
:102B0000808185FD2EC0F601038D10E00F5F1F4F01
:102B10000F731127F02EF601848DF81211C00FB635
:102B200007FCF9CFD6015096ED91FC915197808129
:102B300085FFF1CFC60169830E9421156981EBCF22
:102B4000838DE80FF11DE35AFF4F6083D6015B963A
:102B50000C935B975296ED91FC9153978081806224
:102B60000CC0D6015696ED91FC9157976083509614
:102B7000ED91FC91519780818064808381E090E0A9
:102B80000F90DF91CF911F910F91FF90DF90CF9029
:102B90000895BF92CF92DF92EF92FF92CF93DF938F
:102BA000EC016A017B01B22EE889F98982E0808319
:102BB000411581EE580761057105A1F060E079E0EB
:102BC0008DE390E0A70196010E946B182150310916
:102BD000410951095695479537952795211580E16B
:102BE000380798F0E889F989108260E874E88EE186
:102BF00090E0A70196010E946B182150310941090C
:102C000051095695479537952795EC85FD85308375
:102C1000EE85FF852083188EEC89FD89B082EA89D4
:102C2000FB89808180618083EA89FB89808188605B
:102C30008083EA89FB89808180688083EA89FB89B7
:102C400080818F7D8083DF91CF91FF90EF90DF9027
:102C5000CF90BF9008951F920F920FB60F9211243C
:102C60002F938F939F93EF93FF93E0914B05F091F8
:102C70004C058081E0915105F091520582FD12C012
:102C80009081809154058F5F8F7320915505821735
:102C900051F0E0915405F0E0E55CFA4F958F809398
:102CA000540501C08081FF91EF919F918F912F91E9
:102CB0000F900FBE0F901F9018951F920F920FB696
:102CC0000F9211242F933F934F935F936F937F93B2
:102CD0008F939F93AF93BF93EF93FF938BE395E015
:102CE0000E942115FF91EF91BF91AF919F918F911C
:102CF0007F916F915F914F913F912F910F900FBEF8
:102D00000F901F9018958BE395E00E94E61421E048
:102D1000892B09F420E0822F089510923E0510922D
:102D20003D0588EE93E0A0E0B0E080933F059093EE
:102D30004005A0934105B093420588E991E0909346
:102D40003C0580933B0585EC90E09093480580938B
:102D5000470584EC90E090934A058093490580EC08
:102D600090E090934C0580934B0581EC90E090931C
:102D70004E0580934D0582EC90E090935005809332
:102D80004F0586EC90E09093520580935105109288
:102D90005405109255051092560510925705089546
:102DA00008950E94EA130E94D0160E944103C3E1D5
:102DB000D5E10E9403042097E1F30E941315F9CF97
:102DC000CF92DF92EF92FF920F931F93CF93DF93F7
:102DD0007C016A01EB0100E010E00C151D0571F0AB
:102DE0006991D701ED91FC910190F081E02DC7012F
:102DF0000995892B19F00F5F1F4FEFCFC801DF91A5
:102E0000CF911F910F91FF90EF90DF90CF90089599
:102E10006115710581F0DB010D900020E9F7AD012E
:102E200041505109461B570BDC01ED91FC9102808A
:102E3000F381E02D099480E090E0089564EA71E068
:102E40000C9408170F931F93CF93DF93EC010E940C
:102E500008178C01CE010E941E17800F911FDF9171
:102E6000CF911F910F9108955058BB27AA270ED0DC
:102E7000CCC0BDD030F0C2D020F031F49F3F11F46F
:102E80001EF4B2C00EF4E095E7FBA8C0E92FCED047
:102E900080F3BA17620773078407950718F071F477
:102EA0009EF5E6C00EF4E0950B2EBA2FA02D0B0177
:102EB000B90190010C01CA01A0011124FF27591B7F
:102EC00099F0593F50F4503E68F11A16F040A22F85
:102ED000232F342F4427585FF3CF469537952795F6
:102EE000A795F0405395C9F77EF41F16BA0B620BF5
:102EF000730B840BBAF09150A1F0FF0FBB1F661F3C
:102F0000771F881FC2F70EC0BA0F621F731F841F7E
:102F100048F4879577956795B795F7959E3F08F0A4
:102F2000B3CF9395880F08F09927EE0F9795879563
:102F3000089504D06894B1119CC008957FD088F0A2
:102F40009F5790F0B92F9927B751A0F0D1F0660F95
:102F5000771F881F991F1AF0BA95C9F712C0B130B0
:102F600081F086D0B1E0089583C0672F782F88273D
:102F7000B85F39F0B93FCCF3869577956795B395EF
:102F8000D9F73EF490958095709561957F4F8F4F5E
:102F90009F4F0895990F0008550FAA0BE0E8FEEF28
:102FA00016161706E807F907C0F012161306E4070D
:102FB000F50798F0621B730B840B950B39F40A2606
:102FC00061F0232B242B252B21F408950A2609F4E4
:102FD000A140A6958FEF811D811D089597F99F67E8
:102FE00080E870E060E008959FEF80EC0895002491
:102FF0000A941616170618060906089500240A945E
:1030000012161306140605060895092E0394000CE3
:1030100011F4882352F0BB0F40F4BF2B11F460FF72
:1030200004C06F5F7F4F8F4F9F4F089557FD90589B
:10303000440F551F59F05F3F71F04795880F97FB7C
:10304000991F61F09F3F79F0879508951216130636
:103050001406551FF2CF4695F1DF08C01616170665
:103060001806991FF1CF869571056105089408959A
:10307000E894BB2766277727CB0197F908958ADF65
:1030800008F48FEF0895AA1BBB1B51E107C0AA1FCC
:10309000BB1FA617B70710F0A61BB70B881F991FF9
:1030A0005A95A9F780959095BC01CD01089597FB9D
:1030B000072E16F4009407D077FD09D00E9443181C
:1030C00007FC05D03EF4909581959F4F089570952B
:1030D00061957F4F0895A1E21A2EAA1BBB1BFD012B
:1030E0000DC0AA1FBB1FEE1FFF1FA217B307E407E7
:1030F000F50720F0A21BB30BE40BF50B661F771F3F
:10310000881F991F1A9469F760957095809590951E
:103110009B01AC01BD01CF010895052E97FB1EF464
:1031200000940E94A41857FD07D00E946B1807FC5A
:1031300003D04EF40C94A4185095409530952195E9
:103140003F4F4F4F5F4F08959095809570956195D3
:103150007F4F8F4F9F4F08950E94BD18A59F900DE0
:10316000B49F900DA49F800D911D11240895EE0F22
:10317000FF1F0590F491E02D0994A29FB001B39F29
:10318000C001A39F700D811D1124911DB29F700D70
:10319000811D1124911D0895CF93DF9382309105F5
:1031A00010F482E090E0E091DA05F091DB0520E098
:1031B00030E0A0E0B0E0309739F14081518148170C
:1031C0005907B8F04817590771F482819381109715
:1031D00029F013969C938E9312972CC09093DB0545
:1031E0008093DA0527C02115310531F042175307C6
:1031F00018F0A901DB0101C0EF019A01BD01DF0157
:103200000280F381E02DD7CF21153105F9F0281B7D
:10321000390B2430310580F48A819B816115710559
:1032200021F0FB019383828304C09093DB0580939C
:10323000DA05FE01329644C0FE01E20FF31F8193CE
:10324000919322503109398328833AC02091D805BF
:103250003091D905232B41F42091020130910301D3
:103260003093D9052093D8052091000130910101B8
:103270002115310541F42DB73EB74091040150911D
:103280000501241B350BE091D805F091D905E21713
:10329000F307A0F42E1B3F0B2817390778F0AC0179
:1032A0004E5F5F4F2417350748F04E0F5F1F509356
:1032B000D9054093D8058193919302C0E0E0F0E0F6
:1032C000CF01DF91CF910895CF93DF93009709F459
:1032D00087C0FC01329713821282C091DA05D09127
:1032E000DB05209781F420813181280F391F8091DF
:1032F000D8059091D9058217930779F5F093D905F0
:10330000E093D8056DC0DE0120E030E0AE17BF07C6
:1033100050F412964D915C9113979D014115510502
:1033200009F1DA01F3CFB383A28340815181840F85
:10333000951F8A179B0771F48D919C911197840FAB
:10334000951F02969183808312968D919C9113977D
:10335000938382832115310529F4F093DB05E093F3
:10336000DA053EC0D9011396FC93EE9312974D9166
:103370005D91A40FB51FEA17FB0779F48081918155
:10338000840F951F0296D90111969C938E9382818A
:10339000938113969C938E931297E0E0F0E08A81DC
:1033A0009B81009719F0FE01EC01F9CFCE01029646
:1033B00028813981820F931F2091D8053091D9053A
:1033C0002817390769F4309729F41092DB05109219
:1033D000DA0502C013821282D093D905C093D805B2
:1033E000DF91CF9108952F923F925F926F927F92DB
:1033F0008F929F92AF92BF92CF92DF92EF92FF9205
:103400000F931F93CF93DF938B01EA016115710531
:1034100021F0DB018C9311969C93209739F09E014B
:10342000225031092332310508F0FBC07C016701CD
:10343000BFEFCB1ADB0A5601F7016080862D90E0C2
:103440000E94271B892B11F07601F1CFFDE26F124C
:103450000AC0570182E0A80EB11CD70111966C90EA
:10346000772473940BC0BBE26B1207C05701E2E0F4
:10347000AE0EB11CD70111966C90712CCE018F7ECF
:10348000892B89F4B0E36B1222C0F50180818F7D16
:10349000883541F56180F2E0AF0EB11C872D826066
:1034A000782EC0E1D0E0C830D105F1F04CF4C23044
:1034B000D10511F5C12CD12CE12CB0E4FB2E2FC08D
:1034C000CA30D10531F0C031D10521F115C02097A6
:1034D00051F7CAE0D0E0ACECCA2EDC2CEC2CACE00E
:1034E000FA2E1DC02097F9F6C8E0D0E0C12CD12CEF
:1034F000E12CF0E1FF2E13C060E070E080E090E886
:103500009E01442737FD4095542F0E946B18690196
:103510007A0105C0C12CD12CE12CE8E0FE2EF5018A
:1035200060E020E030E0A9014E01AA2497FCA094BD
:10353000BA2C1F0170ED572E560CA9E0A51570F49A
:103540008FEB860D8A3118F499EC592E06C08FE95D
:10355000860D8A3130F589EA582E560C852D90E07B
:103560008C179D07F4F467FD18C0C216D306E40655
:10357000F50680F0C501B4010E94391B9B01AC0126
:10358000250D311D411D511D213031054105B0E88A
:103590005B0710F06FEF01C061E03196D1016C90D4
:1035A000C8CF872D81700115110571F0662329F0B0
:1035B0003197D801ED93FC9307C071FE19C0329783
:1035C000D801ED93FC9314C067FF12C0882329F043
:1035D00020E030E040E050E804C02FEF3FEF4FEF35
:1035E0005FE782E290E09093DD058093DC0516C0F2
:1035F000882341F050954095309521953F4F4F4F8E
:103600005F4F0CC057FF0AC082E290E09093DD0547
:103610008093DC052FEF3FEF4FEF5FE7B901CA0161
:1036200004C060E070E080E090E0DF91CF911F91F6
:103630000F91FF90EF90DF90CF90BF90AF909F9051
:103640008F907F906F905F903F902F900895911191
:103650000DC0803219F089508550D0F70895DC01F3
:1036600001C06D9341505040E0F708959927882795
:103670000895DB018F939F930E94AC18BF91AF9187
:10368000A29F800D911DA39F900DB29F900D1124BC
:10369000089510E0CAECD0E004C0FE010E94B91801
:0C36A0002296CC3CD107C9F7F894FFCF6C
:1036AC000000DE0580000F00FFFFFFFF57005300F6
:1036BC0024504D544B3232302C313030302A31467C
:1036CC000024504D544B3330302C313030302C30B2
:1036DC002C302C302C302A31430024504D544B3399
:1036EC0031342C302C312C302C302C302C302C30E4
:1036FC002C302C302C302C302C302C302C302C30DE
:10370C002C302C302C302C302A32390000000000A8
:10371C00E004E0164B05BF04330532050000000041
:10372C0033074907EB0783078D0764070000000088
:10373C00440EE016000000006415E016E614FF14B9
:10374C00F11442150D0A006E616E00696E66006F11
:06375C007666002E00005D
:00000001FF
