:100000000C94A7000C94CF000C94CF000C944E0BD2
:100010000C944E0B0C944E0B0C94CF000C94CF0010
:100020000C94CF000C94CF000C94CF000C94CF0014
:100030000C94CF000C94CF000C94CF000C94CF0004
:100040000C941F050C94CF000C94ED020C94C70285
:100050000C94CF000C94CF000C94CF000C94CF00E4
:100060000C94CF000C94CF00084AD73B3BCE016ED6
:1000700084BCBFFDC12F3D6C74319ABD56833DDAFF
:100080003D00C77F11BED9E4BB4C3E916BAAAABE0E
:10009000000000803F05A84CCDB2D44EB93836A937
:1000A000020C50B9918688083CA6AAAA2ABE000074
:1000B00000803F0000000000240027002A0000000C
:1000C0000008000201000003040700000000000017
:1000D000000000000000250028002B0000000000A8
:1000E000230026002900040404040404040402027A
:1000F00002020202030303030303010204081020A7
:1001000040800102040810200102040810204E4122
:100110004E494E495459494E46CDCCCC3D0AD72381
:100120003C17B7D13877CC2B329595E6241FB14FC9
:100130000A000020410000C84200401C4620BCBE0E
:100140004CCA1B0E5AAEC59D74001D15000F11241C
:100150001FBECFEFD8E0DEBFCDBF11E0A0E0B1E021
:10016000E0E1FEE302C005900D92AA3AB107D9F78B
:1001700025E0AAEAB1E001C01D92A53EB207E1F771
:1001800010E0C6EAD0E004C02197FE010E9492165A
:10019000C53AD107C9F70E94190F0C94FB1E0C94A5
:1001A0000000FC01918D828D981761F0828DDF0136
:1001B000A80FB11D5D968C91928D9F5F9F73928F5A
:1001C00090E008958FEF9FEF0895FC01918D828D4F
:1001D000981731F0828DE80FF11D858D90E008951C
:1001E0008FEF9FEF0895FC01918D228D892F90E074
:1001F000805C9F4F821B91098F739927089588EA2D
:1002000094E00E94F30021E0892B09F420E0822F82
:100210000895FC01848DDF01A80FB11DA35ABF4FC3
:100220002C91848D90E001968F739927848FA689F5
:10023000B7892C93A089B1898C9180648C93938D1C
:10024000848D981306C00288F389E02D80818F7D0C
:1002500080830895EF92FF920F931F93CF93DF93C4
:10026000EC0181E0888F9B8D8C8D981305C0E88907
:10027000F989808185FD24C0F62E0B8D10E00F5F7B
:100280001F4F0F731127E02E8C8DE8120CC00FB694
:1002900007FCFACFE889F989808185FFF5CFCE0187
:1002A0000E940901F1CF8B8DFE01E80FF11DE35A89
:1002B000FF4FF0820B8FEA89FB898081806207C043
:1002C000EE89FF896083E889F98980818064808371
:1002D00081E090E0DF91CF911F910F91FF90EF901F
:1002E0000895CF93DF93EC01888D8823C9F0EA89C4
:1002F000FB89808185FD05C0A889B9898C9186FD1F
:100300000FC00FB607FCF5CF808185FFF2CFA8891B
:10031000B9898C9185FFEDCFCE010E940901E7CF0D
:10032000DF91CF91089580E090E0892B29F00E9421
:10033000FF0081110C94000008952FB7F89460918C
:10034000F1017091F2018091F3019091F4012FBFBE
:1003500008958EBD00000DB407FEFDCF8EB5089543
:100360008FEF0C94A9010F931F93CF93DF93EB01B1
:100370000E949D018B010E94B0018F3F49F00E94B5
:100380009D01601B710B6C177D07A8F380E001C015
:1003900081E0DF91CF911F910F910895DC01599673
:1003A000ED91FC915A973097B9F083899489A5898A
:1003B000B6894285538564857585841B950BA60B8C
:1003C000B70B811520E89207A105B10538F08FEF32
:1003D0009FE7A0E0B0E0089580E090E00895CF931B
:1003E000DF931F92CDB7DEB76983DC01ED91FC91FD
:1003F0000280F381E02D41E050E0BE016F5F7F4F4E
:1004000009950F90DF91CF9108952091FB013091D4
:10041000FC012817390771F49091F9018091FA01D4
:10042000981741F0E091F901F0E0E655FE4F808128
:1004300090E008958FEF9FEF089508951F93CF9355
:10044000DF93DC015C962D913C915D972115310580
:1004500039F481E090E013969C938E9312973DC0FF
:100460005196ED91FC91529750969C915097892FFF
:1004700080951FB75E964C915E9741FB772770F988
:1004800041FD6095F8944081772311F0492B01C01C
:1004900048234083E9012197F1F748E0508160FF4C
:1004A00002C0592B01C058235083E9012197F1F76D
:1004B0006695415099F7772321F0908189238083B5
:1004C00003C08081982B90831FBF5C968D919C9177
:1004D0005D970197F1F721E030E0C901DF91CF91FD
:1004E0001F9108952091FB013091FC0128173907D5
:1004F00071F48091FA012091F90190E0805C9F4FA6
:10050000821B910960E470E00E947716089580E0F4
:1005100090E008952091FB013091FC0128173907E4
:10052000B9F49091F9018091FA01981789F0E0915E
:10053000F901F0E0E655FE4F80812091F90130E0AD
:100540002F5F3F4F2F7333272093F90190E00895D9
:100550008FEF9FEF08950E94931ACF93DF931F921E
:10056000CDB7DEB7FC01818D928D009751F0BE01B1
:100570006F5F7F4F0E94EC0D019719F4898190E025
:1005800002C08FEF9FEF0F90DF91CF9108951F92E0
:100590000F920FB60F9211242F933F934F935F93B7
:1005A0006F937F938F939F93AF93BF93EF93FF933B
:1005B00088EA94E00E940901FF91EF91BF91AF9109
:1005C0009F918F917F916F915F914F913F912F916B
:1005D0000F900FBE0F901F9018951F920F920FB69D
:1005E0000F9211242F938F939F93EF93FF93E0919A
:1005F000B804F091B9048081E091BE04F091BF0489
:1006000082FD12C090818091C1048F5F8F73209111
:10061000C204821751F0E091C104F0E0E855FB4FAD
:10062000958F8093C10401C08081FF91EF919F91CC
:100630008F912F910F900FBE0F901F9018958330C0
:1006400081F028F4813099F08230A1F0089587304C
:10065000A9F08830B9F08430D1F4809180008F7D8A
:1006600003C0809180008F7780938000089584B5C7
:100670008F7702C084B58F7D84BD08958091B000CE
:100680008F7703C08091B0008F7D8093B000089574
:100690001F93CF93DF93282F30E0F901E254FF4FEF
:1006A0008491F901E650FF4FD491F901EA51FF4FCF
:1006B000C491CC23C9F0162F81110E941F03EC2F87
:1006C000F0E0EE0FFF1FEE52FF4FA591B4918FB7F0
:1006D000F894111105C09C91ED2FE095E92302C01B
:1006E000EC91ED2BEC938FBFDF91CF911F9108958B
:1006F00061E0FC0184810E9448038091EA0181113C
:100700001092EA010895CF93DF93EC018E81882344
:1007100089F08F8198859C012F5F3F4F38872F8309
:100720008230924018F40E94B001F3CFCE010E94B3
:1007300078031E82DF91CF910895CF92DF92FF92CE
:100740000F931F93CF93DF9300D000D0CDB7DEB7C8
:100750006C01F62E29833A834B835C830E948303CA
:100760008091EA0129813A814B815C81811109C024
:1007700081E08093EA0190914505809146059CBDFA
:100780008DBD60E0F601848129833A834B835C83CD
:100790000E9448036CE271E0C6010E94B3018F2DF4
:1007A00080640E94A90108E110E05C814B813A81DC
:1007B0002981DA01C901002E04C0B695A795979545
:1007C00087950A94D2F729833A834B835C830E94EE
:1007D000A9010850110929813A814B815C81083FA8
:1007E000FFEF1F0731F7FF2029F088E0F81204C05F
:1007F00087E803C085E901C08FEF0E94A90110E0DE
:100800000E94B001F601828787FF04C01F3F11F0EC
:100810001F5FF6CF0F900F900F900F90DF91CF9149
:100820001F910F91FF90DF90CF900895EF92FF926C
:100830000F931F93CF93DF93EC017901411551057D
:100840006105710511F482E13CC08B85833039F07C
:1008500089E0440F551F661F771F8A95D1F79A01CB
:10086000AB0168E1CE010E949D03882311F084E072
:1008700028C08EEF0E94A90187018EEFF81AF801B7
:1008800081918F010E94A9010E151F05C1F78FEFFD
:100890000E94A9018FEF0E94A9010E94B0018A87DE
:1008A0008F71853031F081E18D83CE010E94780314
:1008B00009C068E572E0CE010E94B301811107C052
:1008C00085E18D83CE010E94780380E013C020E093
:1008D00030E0A9016DE0CE010E949D03811104C0AA
:1008E0000E94B001882311F084E1EBCFCE010E9479
:1008F000780381E0DF91CF911F910F91FF90EF90EE
:100900000895CF93DF938091EB01882399F1C091F3
:10091000A602D091A702409100015091010160917F
:1009200002017091030128EA32E0CE010E94160410
:10093000811102C080E01FC04091EC015091ED0197
:100940006091EE017091EF0141155105610571054E
:1009500079F028EA32E0CE010E941604882351F390
:100960001092EC011092ED011092EE011092EF0145
:100970001092EB0181E0DF91CF910895CF93DF9347
:1009800090E0FC01E650FF4F2491FC01EA51FF4F3B
:100990008491882361F190E0880F991FFC01EC5449
:1009A000FF4FC591D491FC01EE52FF4FA591B49138
:1009B000611109C09FB7F8948881209582238883AC
:1009C000EC912E230BC0623061F49FB7F89438810C
:1009D000822F809583238883EC912E2B2C939FBFAD
:1009E00006C08FB7F894E8812E2B28838FBFDF9144
:1009F000CF9108953FB7F8948091F5019091F60159
:100A0000A091F701B091F80126B5A89B05C02F3F32
:100A100019F00196A11DB11D3FBFBA2FA92F982F24
:100A20008827820F911DA11DB11DBC01CD0142E09F
:100A3000660F771F881F991F4A95D1F708951F9257
:100A40000F920FB60F9211242F933F938F939F9382
:100A5000AF93BF938091F1019091F201A091F301C6
:100A6000B091F4013091F00123E0230F2D3720F4F1
:100A70000196A11DB11D05C026E8230F0296A11DF8
:100A8000B11D2093F0018093F1019093F201A093A6
:100A9000F301B093F4018091F5019091F601A091DA
:100AA000F701B091F8010196A11DB11D8093F501E8
:100AB0009093F601A093F701B093F801BF91AF9125
:100AC0009F918F913F912F910F900FBE0F901F908C
:100AD0001895AF92BF92CF92DF92EF92FF920F9351
:100AE0001F93CF93DF93EC016901C801820F931F1D
:100AF0008130924008F070C08E81882371F0888127
:100B00009981AA81BB81481759076A077B0729F495
:100B10008F819885C816D906B0F5488359836A83B2
:100B20007B838B85833039F089E0440F551F661F26
:100B3000771F8A95D1F79A01AB0161E1CE010E943E
:100B40009D03882319F083E08D8346C00E949D0198
:100B50005B010E94B0018A878F3F49F40E949D018A
:100B60006A197B096D327140A0F38FE003C08E3F9C
:100B700031F08DE08D83CE010E9478032DC0188660
:100B80001F8281E08E838F8198858C159D0540F4AE
:100B90000E94B0018F819885019698878F83F3CF4B
:100BA0006701E00EF11ECE14DF0431F00E94B001A7
:100BB000F60181936F01F7CF8F819885080F191F78
:100BC00018870F838985882319F00115124048F092
:100BD000CE010E94830305C0CE010E94780380E00D
:100BE00001C081E0DF91CF911F910F91FF90EF90B5
:100BF000DF90CF90BF90AF9008958F929F92AF9269
:100C0000BF92EF92FF920F931F93CF934B015C0122
:100C1000C42F8091000190910101A0910201B09137
:100C2000030188159905AA05BB0501F10E948104FD
:100C3000811102C080E020C088EAE82E82E0F82E10
:100C400000E012E020E030E0B501A4018091A602AE
:100C50009091A7020E946905882361F380920001A8
:100C600090920101A0920201B09203018091EB01E8
:100C7000C82BC093EB0181E0CF911F910F91FF90A2
:100C8000EF90BF90AF909F908F9008954F925F929A
:100C90006F927F928F929F92AF92BF92CF92DF928C
:100CA000EF92FF920F931F93CF93DF93EC016A01B2
:100CB0007B0128013901423051056105710510F4AD
:100CC00080E073C089859A85AB85BC850196A11D9E
:100CD000B11D84179507A607B70790F38B889C88EA
:100CE000AD88BE888F89803129F4BB27AF2D9E2D1A
:100CF0008D2D09C0DB01CA0147E0B695A7959795F0
:100D000087954A95D1F7880E991EAA1EBB1E809121
:100D1000000190910101A0910201B0910301881698
:100D20009906AA06BB0679F48F898031A1F4DD24E7
:100D3000EE24FF24C601880F991FFC01E855FD4FE2
:100D40005182408219C040E0C501B4010E94FD05F6
:100D50008111EACFB5CFE894C7F8DD24EE24FF2453
:100D6000C601880F991F880F991FFC01E855FD4F98
:100D700040825182628273828091EB018160809314
:100D8000EB018A89823080F08D819E81AF81B885A8
:100D9000880E991EAA1EBB1E8092EC019092ED0156
:100DA000A092EE01B092EF0181E0DF91CF911F910F
:100DB0000F91FF90EF90DF90CF90BF90AF909F90FA
:100DC0008F907F906F905F904F9008958F929F9239
:100DD000AF92BF92CF92DF92EF92FF920F931F9349
:100DE000CF93DF93FC0181859285A385B48501961D
:100DF000A11DB11D84179507A607B70710F480E061
:100E00005CC083899489A589B689C789C03129F4D2
:100E1000852E962EA72EBB2409C04A015B01C7E090
:100E2000B694A79497948794CA95D1F7E9016A017B
:100E30007B018F01BC01CD01680D791D8A1D9B1DB1
:100E40008090000190900101A0900201B0900301F8
:100E5000681579058A059B0599F4F8018789803121
:100E6000A9F4B701A601552766277727440F551F18
:100E7000FA01E855FD4F80819181A0E0B0E018C0F3
:100E800040E00E94FD058111E8CFB9CFB701A6016E
:100E90004F77552766277727440F551F440F551F57
:100EA000FA01E855FD4F80819181A281B381BF7025
:100EB00088839983AA83BB8381E0DF91CF911F91BF
:100EC0000F91FF90EF90DF90CF90BF90AF909F90E9
:100ED0008F9008958F929F92AF92BF92CF92DF92A0
:100EE000EF92FF920F931F93CF93DF93EC018D81CD
:100EF000811102C080E077C00B891C892D893E8951
:100F00000417150726073707A8F36A017B0182300B
:100F100029F4CA86DB86EC86FD860DC0C114D10497
:100F2000E104F10451F41E821F82188619861A8684
:100F30001B861C861D8681E056C08A849B84AC84F7
:100F4000BD84EB8DFC8D258530E0275F3F4FB501DB
:100F5000A4014150510961097109022E04C076951E
:100F60006795579547950A94D2F7D701C60101971F
:100F7000A109B10904C0B695A795979587952A95BB
:100F8000D2F784179507A607B70720F089288A2883
:100F90008B2849F44F89588D698D7A8D4E835F83F4
:100FA0006887798704C0841B950BA60BB70B4C018F
:100FB0005D018E010A5F1F4F81149104A104B104E9
:100FC00009F4A7CF4E815F816885798598018B8D63
:100FD0009C8D0E94E60691E0891A9108A108B1084B
:100FE0008111EACF87CFDF91CF911F910F91FF90B1
:100FF000EF90DF90CF90BF90AF909F908F9008952B
:10100000EF92FF920F931F93CF93DF931F92CDB771
:10101000DEB7FC01818D928D009701F17F01BE0149
:101020006F5F7F4F0E94EC0D019719F4098110E06A
:1010300002C00FEF1FEF0F3F8FEF180789F0F70186
:10104000818D928DFC014285538564857585415063
:101050005109610971090E946A0702C000E010E0AD
:10106000C8010F90DF91CF911F910F91FF90EF90EA
:1010700008953F924F925F926F927F928F929F92CC
:10108000AF92BF92CF92DF92EF92FF920F931F9396
:10109000CF93DF93CDB7DEB72C970FB6F894DEBFB2
:1010A0000FBECDBF5C01DC015B968D909C905C9780
:1010B0001696CD90DD90ED90FC901997C114D10457
:1010C000E104F10439F0BFEFCB1ADB0AEB0AFB0AAB
:1010D000312C07C0F401C080D180E280F38033243A
:1010E0003394F40181859285A385B4859C01AD017B
:1010F0002F5F3F4F4F4F5F4F29873A874B875C8762
:10110000260137011D821E821F821886F401818507
:101110009285A385B4852D813E814F8158852817FE
:1011200039074A075B0708F063C089859A85AB8554
:10113000BC858C159D05AE05BF0550F482E0C82E18
:10114000D12CE12CF12C92E0492E512C612C712CE8
:101150009E012F5F3F4FB701A601C4010E94E60622
:10116000882309F445C089819A81AB81BC81892B90
:101170008A2B8B2B41F0260137019FEF491A590A20
:10118000690A790A05C0C414D504E604F70491F08D
:101190002D813E814F8158852F5F3F4F4F4F5F4FCD
:1011A0002D833E834F8358873FEFC31AD30AE30A48
:1011B000F30AACCF0FEF1FEF2FEF3FE0B301A20117
:1011C000C4010E944606882399F0D50116964D91D8
:1011D0005D916D917C9119974115510561057105DE
:1011E00049F093018201C4010E944606811102C0A8
:1011F00080E02AC0D50116964D925D926D927C9248
:101200001997332051F0D301C2010196A11DB11DE0
:10121000F40180839183A283B383F5018789908D44
:10122000A18DB28D892B8A2B8B2B69F4D501579612
:101230004D925D926D927C925A9714968C91149770
:10124000806814968C9381E02C960FB6F894DEBFDC
:101250000FBECDBFDF91CF911F910F91FF90EF9007
:10126000DF90CF90BF90AF909F908F907F906F90C6
:101270005F904F903F900895CF93DF93FC012481BE
:1012800027FF2EC0EC01668577858089918941E032
:101290000E94FD05882341F1EA8980E2E89FF00180
:1012A0001124DF01A855BD4F1097F1F08D818230D8
:1012B00050F44B895C896D897E895C964D935D9372
:1012C0006D937C935F978F89988DA98DBA8DE85522
:1012D000FD4F938F828FB58BA48B8C818F778C83FE
:1012E000DF91CF910C94810480E0DF91CF9108953C
:1012F000FC01818D928D009729F0FC01258121113F
:101300000C943C0908952F923F924F925F926F92F6
:101310007F928F929F92AF92BF92CF92DF92EF9285
:10132000FF920F931F93CF93DF9300D000D000D094
:10133000CDB7DEB78C015B011A01DC0115968C91EB
:1013400015978130C9F414968C9181FF15C082FFE6
:101350001DC0F80143895489658976898285938502
:10136000A485B58584179507A607B70779F0C80146
:101370000E946A0781110AC081E090E0D8011396AB
:101380009C938E93129780E090E042C1610120917E
:10139000A6023091A7023E832D8382C0D8015B96BE
:1013A0008D919C915C97FC0174802FEF270D2A0191
:1013B0003B0139E076946794579447943A95D1F776
:1013C000722E74207A01F1E0FF22772009F474C0B4
:1013D00080E092E08E199F0946018C159D0508F466
:1013E0004C01D8015B962D913C915C9716968D919E
:1013F0009D910D90BC91A02D0297A109B109F90111
:10140000058404C0880F991FAA1FBB1F0A94D2F736
:101410004685578560897189840F951FA61FB71F60
:101420009C01AD01270D311D411D511D29013A01BE
:10143000811432E0930609F086C0809100019091FA
:101440000101A0910201B091030184159505A60543
:10145000B70559F48FEF9FEFDC0180930001909363
:101460000101A0930201B09303019501B301A20110
:101470008D819E810E941604882309F47DCF9EEF02
:10148000B91AC818D908F80182859385A485B5854D
:10149000880D991DA11DB11D82879387A487B587EB
:1014A000D8011A964D915D916D917C911D97C11453
:1014B000D10409F073CF87C0E114F10409F088CF9B
:1014C00016964D915D916D917C911997411551053D
:1014D0006105710559F457968D919D910D90BC91C0
:1014E000A02D0097A105B10541F521C09E012F5FF8
:1014F0003F4F0E94E606882309F446CF89819A81EE
:10150000AB81BC81F801238D348DF901278920310D
:1015100029F048EF5FEF6FEF7FE004C048EF5FEF27
:1015200060E070E084179507A607B70730F0C801A0
:101530000E94390881114CCF1FCFF8018683978311
:10154000A087B18745CFE114F10429F5D8011A9697
:101550004D915D916D917C911D9753968D919D91CB
:101560000D90BC91A02D481759076A077B0798F08A
:101570000E948104882309F4FFCE4092000150921A
:10158000010160920201709203018091EB01816080
:101590008093EB0108C041E0C301B2010E94FD0548
:1015A000882309F4E9CED501F701E855FD4FCF01B5
:1015B000880D991DE817F90719F02D912193FACF9D
:1015C000A80CB91C5ECF53968D919D910D90BC9146
:1015D000A02D84179507A607B70740F4F801438BA1
:1015E000548B658B768B848180688483D8011496B4
:1015F0008C9183FD02C0C1010BC0F8018581882355
:1016000009F4BACEC8010E943C098111F4CFB4CECE
:1016100026960FB6F894DEBF0FBECDBFDF91CF91F7
:101620001F910F91FF90EF90DF90CF90BF90AF9000
:101630009F908F907F906F905F904F903F902F90F2
:101640000895CF93DF931F92CDB7DEB7698341E052
:1016500050E0BE016F5F7F4F0E9483090F90DF91C2
:10166000CF910895CF93DF93EC01898D9A8D0097E8
:1016700039F481E090E09B838A8380E090E00BC0A6
:10168000FC01138212820E948309E98DFA8D228166
:101690003381232B71F7DF91CF9108951F920F9221
:1016A0000FB60F9211242F933F934F935F936F9335
:1016B0007F938F939F93AF93BF93EF93FF93E091AB
:1016C000FB01F091FC01309709F451C0968DA6857D
:1016D000B785858591FF04C09C91892329F447C073
:1016E0009C91892309F043C0A389B4899C91858981
:1016F000809589238C93868997890197F1F7608D6E
:10170000718DA685B785558538E020E0CB0101971E
:10171000F1F7822F90E095958795282F4C914523DE
:1017200009F02068315091F7868D81FD20958091D8
:10173000FA0190E001968F7399273091F9013817DB
:1017400049F0A091FA01B0E0A655BE4F2C938093CA
:10175000FA0103C0868D8160868F828D938D0197FB
:10176000F1F7A389B4899C918589892B8C93FF918A
:10177000EF91BF91AF919F918F917F916F915F9109
:101780004F913F912F910F900FBE0F901F90189582
:10179000E091FB01F091FC01E817F90769F4A389D6
:1017A000B4899C918589809589238C931092FC0142
:1017B0001092FB0181E0089580E008958F929F923E
:1017C000AF92BF92CF92DF92EF92FF920F931F934F
:1017D000CF93DF938C01CB010E94B01B6B017C0186
:1017E0000E94EE17CB0164E670E00E947716EB01D1
:1017F00024E6269FC001279F900D1124BC01990F5C
:10180000880B990B0E943C1D9B01AC01C701B601DE
:101810000E94981620E030E040E752E40E947C17D6
:101820006B017C01BE01DD0F880B990B0E943C1DF2
:10183000A70196010E9499164B015C0120E030E05F
:1018400041E655E4C701B6010E947C179B01AC013B
:10185000C501B4010E94991621E00634120719F05F
:101860000854114009F49058DF91CF911F910F91C6
:10187000FF90EF90DF90CF90BF90AF909F908F90B0
:101880000895CF92DF92EF92FF920F931F93CF9321
:10189000DF936C017A018B01C0E0D0E0CE15DF054B
:1018A00089F0D8016D918D01D601ED91FC910190E7
:1018B000F081E02DC6010995892B11F47E0102C04B
:1018C0002196ECCFC701DF91CF911F910F91FF902F
:1018D000EF90DF90CF9008956115710579F0FB01CD
:1018E00001900020E9F73197AF01461B570BDC014F
:1018F000ED91FC910280F381E02D099480E090E06D
:1019000008950F931F93CF93DF93CDB7DEB7299739
:101910000FB6F894DEBF0FBECDBF80914F059091FA
:101920005005892B09F4A1C00E94FA0400915505C5
:10193000109156052091570530915805DC01CB01D7
:10194000801B910BA20BB30BC297A105B10560F3ED
:10195000F89480914B0590914C059A838983E0918E
:101960004F05F0915005DF01119680818987909194
:101970004705E0915905F0915A0580915B0599233F
:1019800009F42EC09081982B9887908180958923A7
:101990008F838F818C8388E08B8358856F81498505
:1019A0003B812C8189819A81508347FD252F3A956F
:1019B0002083262F39F0441F00C000006083000000
:1019C00000C0F2CF38E04D9160830000019761F7CD
:1019D000F0935A05E093590549873B832C8338C01F
:1019E0009081982B98879081809589238F838F8110
:1019F0008E8388E08D8358856F8149853D812E8156
:101A000089819A81508347FD252F00C000C0208323
:101A100000C000C000C000C000C060830000262FCE
:101A20003A9541F0441F000000C000C000C000C053
:101A300000C0E8CF38E04D9100C0608300C001973E
:101A400009F7F0935A05E093590549873D832E83A2
:101A50009A83898378940E94FA0460935505709361
:101A60005605809357059093580529960FB6F8941C
:101A7000DEBF0FBECDBFDF91CF911F910F910895B3
:101A80008F929F92AF92BF92CF92DF92EF92FF928E
:101A90002091490530914A058217930708F052C0FA
:101AA0004B01AA24BB24E82DC52ED62EE72EFF24F9
:101AB000FC2D342F20914E05222361F0829E40019F
:101AC0001124E92DC29E60011124FD2D429FD001F9
:101AD00011243B2FF0905405E0905105A0914F0543
:101AE000B0915005FE1008C0AC01440F551F840F83
:101AF000951F8A0F9B1F14C0880F991F880F991F6D
:101B00008A0F9B1F472F552766277727DC01AF0DCC
:101B1000B11D222321F0429FA0011124452F4C9397
:101B200020915105DC01A20FB11DEC9320915205CB
:101B3000DC01A20FB11DFC9320915305FC01E20FC3
:101B4000F11D3083FF90EF90DF90CF90BF90AF906A
:101B50009F908F9008951F93CF93DF9311E0180FFC
:101B600020914E051217A1F1C0914F05D09150055B
:101B70002150B9F08F3F59F430E040E050E06FEF72
:101B80007FEF80E090E00E948B1EB9010CC0812F96
:101B900090E0982F88270197622F70E00E946316CB
:101BA00002C060E070E0FE0140914B0550914C0591
:101BB000CF018C1B9D0B8417950740F44081469FF5
:101BC000C001479F900D11249193EECF10934E05C5
:101BD000DF91CF911F9108954F925F926F927F9204
:101BE0008F929F92AF92BF92CF92DF92EF92FF922D
:101BF0000F931F93CF93DF933C016B01DC0115968C
:101C00008C91811103C08FEF9FEFD5C0F3018481C8
:101C100080FFF9CF81E083889488A588B6884285C3
:101C200053856485758584169506A606B70609F45E
:101C300080E090E02C014301B6E08B0E911CA09057
:101C4000A602B090A702892B09F480C0D3011A968E
:101C50004D915D916D917C911D97EA01D170159622
:101C60002C9115977A018B0189E016950795F794C9
:101C7000E7948A95D1F75B968D919C915C97223081
:101C800061F4FC01828D938DA48DB58DBC01CD01D5
:101C90006E0D7F1D801F911F46C0DC0114962C9194
:101CA0002150122F1E212097E9F411111BC0452B42
:101CB000462B472B51F4F3018789908DA18DB28D6E
:101CC00086839783A087B1870DC0D30116964D9167
:101CD0005D916D917C91199794010E94E60688238D
:101CE00009F491CFF301238D348D86819781A085EE
:101CF000B1850297A109B109F901058404C0880FD3
:101D0000991FAA1FBB1F0A94D2F746855785608981
:101D10007189840F951FA61FB71FBC01CD01610FEC
:101D2000711D811D911DD30114962C9126FF10C0A9
:101D300000910001109101012091020130910301F5
:101D4000601771078207930731F502C0C20133C0E3
:101D500040E00E94FD05882309F455CFC855DD4FAA
:101D6000F601CE010196C817D90719F029912193E0
:101D7000FACFEFEFCE1ADE0AF30182859385A485B0
:101D8000B5850196A11DB11D82879387A487B5876C
:101D900080E090E058CF760101E010E09E01AB01B9
:101DA000BC01C5010E946905882309F42CCFBFEF4F
:101DB000CB1ADB0AE1CFDF91CF911F910F91FF90FA
:101DC000EF90DF90CF90BF90AF909F908F907F90DB
:101DD0006F905F904F9008950F931F93CF93DF9371
:101DE000EC010E946C0C8C0166EA71E0CE010E944D
:101DF0006C0C800F911FDF91CF911F910F9108956F
:101E000080914F0590915005009711F00E94FB19A9
:101E100080914D0587FD03C060E00E94BE048AE208
:101E200091E090935D0580935C058CE595E00C94C2
:101E3000C80BCF93DF93CDB7DEB7E5970FB6F89415
:101E4000DEBF0FBECDBF789484B5826084BD84B5FB
:101E5000816084BD85B5826085BD85B5816085BDA5
:101E600080916E00816080936E001092810080915D
:101E700081008260809381008091810081608093E5
:101E80008100809180008160809380008091B1000A
:101E900084608093B1008091B00081608093B00035
:101EA00080917A00846080937A0080917A008260C9
:101EB00080937A0080917A00816080937A0080918B
:101EC0007A00806880937A001092C100E091B80493
:101ED000F091B90482E08083E091B404F091B504FC
:101EE0001082E091B604F091B70480E180831092F3
:101EF000C004E091BC04F091BD0486E08083E091D1
:101F0000BA04F091BB04808180618083E091BA04BF
:101F1000F091BB04808188608083E091BA04F091E5
:101F2000BB04808180688083E091BA04F091BB0497
:101F300080818F7D808380914D0587FD08C061E0A1
:101F40000E94BE0460E080914D050E94480381E03C
:101F5000809348058AE00E94AB0D0E94810C10928C
:101F600077051092760510927505109274051092FF
:101F70007305109272058DE991E090937905809335
:101F8000780590916805963108F057C02DEB30E048
:101F900030937305209372052BE931E0309375057A
:101FA000209374052CE231E0309377052093760579
:101FB00020916800983050F031E09E3008F430E015
:101FC00081E001C0880F3A95EAF701C084E0822BD6
:101FD00080936800983038F09E3040F0963148F099
:101FE00020E030E008C02DE630E005C02BE630E010
:101FF00002C02CE630E03093700520936F059830D6
:1020000030F481E001C0880F9A95EAF70EC0292FBD
:1020100030E09E3018F42850310902C02E503109AA
:1020200081E001C0880F2A95EAF7809371058091BD
:102030007805909179050197F1F780917605909157
:102040007705892B21F18091FB019091FC0125E01E
:102050008C359207E1F0009711F00E94C80B809137
:102060007A058E7F80937A051092FA011092F90119
:102070008CE595E09093FC018093FB01E0916F0566
:10208000F0917005908180917105892B80836AE4BD
:1020900071E08CE595E00E94EC0E6BE571E08CE55B
:1020A00095E00E94EC0E64E771E08CE595E00E94FB
:1020B000EC0E62E083E00E94BE048FED9BE9A2EA91
:1020C000B2EC8093050290930602A0930702B093AE
:1020D00008028AE991ECA4EEB1E480931102909396
:1020E0001202A0931302B09314021E0137E1230ED3
:1020F000311C8E01045F1F4FCE0101969DA38CA35E
:1021000098EEC92E93E0D92E2CEEE22E20E0F22E8E
:10211000E4ECF0E08491E0E0F1E0B490F701A49009
:10212000AA2071F081110E941F03EA2DF0E0EE0F4A
:10213000FF1FE452FF4FA591B4918C91B82279F41E
:10214000E1E0CE1AD10821F78091A50291E0980F25
:102150009093A502843018F48E5F8093A50280E4EA
:1021600080937C0080917A00806480937A008091D3
:102170007A0086FDFCCFA091780080917900B0E0D4
:10218000B82B2FEF30E00E948B162FEF33E040E0AA
:1021900050E00E948B1E822F0E94AB0D80E8E5E28A
:1021A000F2E0DF011D928A95E9F7F12C8CE595E0CC
:1021B0000E9405020196D1F38CE595E00E948A0207
:1021C000EF2DF0E0EB5DFD4F8083FF2029F084329E
:1021D00019F480932502F12C80912502843231F785
:1021E00081E08F0DEF2DF0E0EB5DFD4F90819A3097
:1021F00011F0F82EDBCF90E0FC01ED5DFD4F108279
:102200007C01F5E0EF1AF108F701EB5DFD4F20814D
:102210002A3259F640E150E060E070E08F5D9D4F5A
:102220000E949F1A21E0822F90E08E159F053CF4BA
:10223000FC01EB5DFD4F808168272F5FF4CF6111BA
:10224000B4CF80912802823509F0E5C18BE0F1011D
:10225000282F11922A95E9F71BA21AA2D801E82F7C
:102260001D92EA95E9F7ACA1BDA11D928A95E9F707
:10227000E5E2F2E0CF018552924021912C32D1F774
:102280000196FC01EB5DFD4F208101962C32C9F7D0
:10229000FC01EB5DFD4F208101962C32C9F7D10185
:1022A000AD01421953099C012B5D3D4FF90120817D
:1022B00001962C3211F02D93F3CFE2E2F0E0EC0F17
:1022C000FD1FE40FF51FDC01AB5DBD4F2C910196A6
:1022D0002C3211F02083F7CFF801AF01401B510BD6
:1022E0009C012B5D3D4FD9012C9101962C3211F0B0
:1022F0002193F3CFFC01EB5DFD4FA1E0B0E0AC0F0B
:10230000BD1FA40FB51F81918C3211F08C93FBCFB0
:10231000E091A502B8E0EB9FF0011124EB5FFD4FC7
:10232000448055806680778080809180A280B380D1
:10233000B101CE0182960E94DE0B9B01AC01B80177
:10234000CE0101962DAB3AAB4BAB5CAB0E94DE0BE2
:102350006B017C012DA93AA94BA95CA9C301B2016B
:102360000E94981625E33AEF4EE85CE30E949B1D1D
:102370002B013C010E94F9186AA77BA78CA79DA797
:1023800025E33AEF4EE85CE3C501B4010E949B1DD2
:102390004B015C010E9477176EA37FA388A799A7C2
:1023A00025E33AEF4EE85CE3C701B6010E949B1DAE
:1023B0006B017C010E9477176EA77FA788AB99AB52
:1023C000C501B4010E94F9189B01AC01C701B60117
:1023D0002DAB3AAB4BAB5CAB0E94F9186B017C01A7
:1023E000C301B2010E9477174B015C012DA93AA9E4
:1023F0004BA95CA96EA57FA588A999A90E949B1DE0
:102400002B013C012EA13FA148A559A5C701B6014A
:102410000E949B1D2EA13FA148A559A50E949B1D6E
:10242000A50194010E949B1D9B01AC01C301B20157
:102430000E9498166B017C012EA13FA148A559A5C9
:102440006AA57BA58CA59DA50E949B1DA701960151
:102450000E94181721EE3EE245E652E40E949B1DC1
:102460006B017C0120E030E0A9010E94351D87FF4F
:1024700010C020E030E044EB53E4C701B6010E94F5
:10248000991620E030E044EB53E40E942F186B01D2
:102490007C01C0920102D0920202E0920302F0920B
:1024A0000402E091A50228E0E29FF0011124EB5F15
:1024B000FD4F84819581A681B7818EA39FA3A8A794
:1024C000B9A7C080D180E280F380B101CE018296AD
:1024D0000E94DE0B6AA77BA78CA79DA7B801CE013F
:1024E00001960E94DE0B2B013C019B01AC01C70150
:1024F000B6010E94981620E030E040E05FE30E94C1
:102500009B1D25E33AEF4EE85CE30E949B1D0E9471
:10251000F9184B015C0125E33AEF4EE85CE3C30197
:10252000B2010E949B1D0E9477172B013C0125E3FD
:102530003AEF4EE85CE3C701B6010E949B1D0E9482
:1025400077176EA77FA788AB99AB2AA53BA54CA5AB
:102550005DA56EA17FA188A599A50E94981620E08F
:1025600030E040E05FE30E949B1D25E33AEF4EE838
:102570005CE30E949B1D0E94F9186B017C01A50180
:102580009401C501B4010E949B1D4B015C012EA565
:102590003FA548A959A9C301B2010E949B1DA701EB
:1025A00096010E949B1DA70196010E949B1D9B0105
:1025B000AC01C501B4010E9499166B017C019B011D
:1025C000AC0160E070E080E89FE30E9498160E94F2
:1025D00007199B01AC01C701B6012DAB3AAB4BAB60
:1025E0005CAB0E9407192DA93AA94BA95CA90E94CE
:1025F00018179B01AC010E94991620E030E04AE1D7
:1026000055EC0E949B1D6093FD017093FE01809329
:10261000FF0190930002C090FD01D090FE01E09078
:10262000FF01F09000028090010290900202A090C1
:102630000302B09004022091A50240914B055091F5
:102640004C0560E070E080914F05909150052DABF6
:102650000E94981A2DA92130A1F040F02230B1F04B
:102660002330C9F44FEF50E0BA0119C040E053E500
:1026700065EE70E080E090E00E94400D0E94810CC9
:1026800012C040E05FEF60E070E009C04FEF50E043
:1026900060E070E004C040E050E06FEF70E080E088
:1026A00090E00E94400D20E030E040E751E4C70197
:1026B000B6010E94EC1887FD08C040E050E06FEFC3
:1026C00070E080E290E00E94400D20E030E048E4BD
:1026D00052E4C701B6010E94EC1887FD08C040E033
:1026E00050E06FEF70E081E290E00E94400D20E04A
:1026F00030E048E453E4C701B6010E94EC1887FDBE
:1027000008C040E050E06FEF70E082E290E00E948D
:10271000400D20E030E048EC53E4C701B6010E94D0
:10272000EC1887FD08C040E050E06FEF70E083E2F6
:1027300090E00E94400D20E030E04AE754E4C701F9
:10274000B6010E94EC1887FD08C040E050E06FEF32
:1027500070E084E290E00E94400D20E030E04AEF1B
:1027600054E4C701B6010E94EC1887FD08C040E0A0
:1027700050E06FEF70E085E290E00E94400D20E0B5
:1027800030E04AE755E4C701B6010E94EC1887FD26
:1027900008C040E050E06FEF70E086E290E00E94F9
:1027A000400D20E030E045EA55E4C701B6010E9443
:1027B000EC1887FD08C040E050E06FEF70E087E262
:1027C00090E00E94400D20E030E0A901C501B40175
:1027D0000E9499160E94EE17AB0177FF03C048597B
:1027E0005E4F07C06936A1E07A071CF0AB0148567E
:1027F00051409A01265031092E35B1E03B07A8F42B
:1028000027333105A8F0275331092C33310598F0CF
:102810002C5331092238310588F0CA018B5F9109A8
:10282000C29778F085E090E00EC080E090E00BC0A9
:1028300081E090E008C082E090E005C083E090E095
:1028400002C084E090E08330910509F47DC044F437
:102850008130910509F442C0029709F46EC007C0A7
:102860008430910509F49FC0059709F4B3C04FEF78
:102870005FEF60E070E083E090E00E94400D4FEF7A
:102880005FEF60E070E084E090E00E94400D4FEF69
:102890005FEF60E070E08BE090E00E94400D4FEF52
:1028A0005FEF60E070E08CE090E00E94400D4FEF41
:1028B0005FEF60E070E083E190E00E94400D4FEF39
:1028C0005FEF60E070E084E190E00E94400D4FEF28
:1028D0005FEF60E070E08BE190E026C04FEF5FEFCC
:1028E00060E070E086E090E00E94400D4FEF5FEF07
:1028F00060E070E087E090E00E94400D4FEF5FEFF6
:1029000060E070E08EE090E00E94400D4FEF5FEFDE
:1029100060E070E08FE090E00E94400D4FEF5FEFCD
:1029200060E070E085E190E00E94400D4FEF5FEFC6
:1029300060E070E08CE190E073C04FEF5FEF60E02B
:1029400070E08CE190E016C04FEF5FEF60E070E068
:1029500088E190E00E94400D4FEF5FEF60E070E093
:1029600089E190E00E94400D4FEF5FEF60E070E082
:102970008AE190E00E94400D4FEF5FEF60E070E071
:102980008DE190E00E94400D4FEF5FEF60E070E05E
:102990008EE190E00E94400D4FEF5FEF60E070E04D
:1029A0008FE190E03DC04FEF5FEF60E070E088E1C5
:1029B00090E00E94400D4FEF5FEF60E070E089E132
:1029C00090E00E94400D4FEF5FEF60E070E08AE121
:1029D00090E01EC04FEF5FEF60E070E089E090E0B4
:1029E0000E94400D4FEF5FEF60E070E08AE090E002
:1029F0000E94400D4FEF5FEF60E070E081E190E0FA
:102A00000E94400D4FEF5FEF60E070E082E190E0E8
:102A10000E94400D4FEF5FEF60E070E08BE190E0CF
:102A20000E94400D0E94810C65E272E088EA94E009
:102A30000E94EC0E0E94930163CB1092AB041092A3
:102A4000AA0488EE93E0A0E0B0E08093AC049093F9
:102A5000AD04A093AE04B093AF0422E131E0309313
:102A6000A9042093A80425EC30E03093B50420930A
:102A7000B40424EC30E03093B7042093B60420EC87
:102A800030E03093B9042093B80421EC30E0309367
:102A9000BB042093BA0422EC30E03093BD042093B1
:102AA000BC0426EC30E03093BF042093BE041092A7
:102AB000C1041092C2041092C3041092C40420E511
:102AC000209345051092460510929B0510929C0597
:102AD00010929F051092A10542E050E060E070E086
:102AE0004093A2055093A3056093A4057093A50598
:102AF0001092B9051092C3051092C20522E231E08E
:102B00003093C1052093C0051092C50510927E0533
:102B100010927D0580937F0590938005A093810599
:102B2000B09382052AE331E030937C0520937B0546
:102B300010929505109294051092870510925F05EA
:102B400010925E058093600590936105A0936205E5
:102B5000B09363058AE291E090935D0580935C05F4
:102B600010927305109272051092750510927405FB
:102B700010927705109276051092790510927805DB
:102B800060917A056E7F6D7F60937A0566956170BE
:102B900081E0682787E00E94480361E087E00E94A7
:102BA000BE04E1E0F1E0E491E0936C05EDEEF0E0CD
:102BB000E491F0E0EE0FFF1FEE52FF4F85919491EC
:102BC00090936E0580936D0560E088E00E94BE04DE
:102BD00080917A0581FD04C061E088E00E9448038D
:102BE00088E080936805E2E0F1E0E491E093690514
:102BF000EEEEF0E0E491F0E0EE0FFF1FE452FF4F45
:102C00008591949190936B0580936A051092480585
:102C100010924E05109255051092560510925705C8
:102C20001092580581E080935405809351051092CD
:102C3000520592E0909353058093470588E790E012
:102C400090934C0580934B050E9466199093500514
:102C500080934F05009761F028E7FC0111922A95B7
:102C6000E9F788E290E090934A058093490508C00F
:102C700010924C0510924B0510924A05109249058E
:102C800086E080934D0580914805882341F061E0FE
:102C900086E00E94BE0460E086E00E944803ECEEFD
:102CA000F0E0E491F0E0EE0FFF1FEE52FF4F859150
:102CB000949190935A0580935905E0E0F1E0E491F6
:102CC000E0935B050895AA1BBB1B51E107C0AA1F37
:102CD000BB1FA617B70710F0A61BB70B881F991FBD
:102CE0005A95A9F780959095BC01CD01089597FB61
:102CF000072E16F4009407D077FD09D00E946316C2
:102D000007FC05D03EF4909581959F4F08957095EE
:102D100061957F4F08950E94EC1EB7FF0895821BB6
:102D2000930B0895EE0FFF1F0590F491E02D099489
:102D30005058BB27AA270E94B0160C941F1E0E9451
:102D4000111E38F00E94181E20F039F49F3F19F42C
:102D500026F40C940E1E0EF4E095E7FB0C94081E6E
:102D6000E92F0E94301E58F3BA17620773078407D1
:102D7000950720F079F4A6F50C94521E0EF4E09518
:102D80000B2EBA2FA02D0B01B90190010C01CA0125
:102D9000A0011124FF27591B99F0593F50F4503ED0
:102DA00068F11A16F040A22F232F342F4427585FC2
:102DB000F3CF469537952795A795F0405395C9F7DA
:102DC0007EF41F16BA0B620B730B840BBAF0915092
:102DD000A1F0FF0FBB1F661F771F881FC2F70EC031
:102DE000BA0F621F731F841F48F487957795679504
:102DF000B795F7959E3F08F0B0CF9395880F08F0F0
:102E00009927EE0F9795879508950E94111E60F0FF
:102E100080E891E009F49EEF0E94181E28F040E837
:102E200051E071F45EEF0CC00C940E1E0C94521E17
:102E3000E92FE0780E94301E40F3092E052AB1F3F5
:102E4000261737074807590738F00E2E07F8E025F0
:102E500069F0E025E0640AC0EF6307F8009407FA20
:102E6000DB01B9019D01DC01CA01AD01EF930E94B4
:102E700093170E941F1E0E9448175F91552339F037
:102E80002BED3FE049E450FD49EC0C949916089570
:102E9000DF93DD27B92FBF7740E85FE316161706EB
:102EA00048075B0718F4D92F0E94F1189F938F935E
:102EB0007F936F930E944719E8E6F0E00E9486181E
:102EC0000E941F1E2F913F914F915F910E94AE1D56
:102ED000DD2351F09058A2EA2AED3FE049EC5FE390
:102EE000D0785D270E94B016DF910C941F1E0E94BF
:102EF000AF18E3950C94D8180E9490170C941F1EDD
:102F00000E94181E58F00E94111E40F029F45F3FE5
:102F100029F00C94081E51110C94531E0C940E1E93
:102F20000E94301E68F39923B1F3552391F3951B4A
:102F3000550BBB27AA2762177307840738F09F5FDA
:102F40005F4F220F331F441FAA1FA9F335D00E2E47
:102F50003AF0E0E832D091505040E695001CCAF7B4
:102F60002BD0FE2F29D0660F771F881FBB1F261777
:102F700037074807AB07B0E809F0BB0B802DBF014E
:102F8000FF2793585F4F3AF09E3F510578F00C941D
:102F9000081E0C94531E5F3FE4F3983ED4F38695CD
:102FA00077956795B795F7959F5FC9F7880F911D3E
:102FB0009695879597F90895E1E0660F771F881F2A
:102FC000BB1F621773078407BA0720F0621B730BDD
:102FD000840BBA0BEE1F88F7E09508950E94F51751
:102FE0006894B1110C94531E08950E94381E88F005
:102FF0009F5798F0B92F9927B751B0F0E1F0660FBD
:10300000771F881F991F1AF0BA95C9F714C0B130FD
:1030100091F00E94521EB1E008950C94521E672F49
:10302000782F8827B85F39F0B93FCCF3869577952C
:103030006795B395D9F73EF4909580957095619515
:103040007F4F8F4F9F4F08950E94111E20F019F05F
:103050000E94181E50F40C940E1E0C94531EE92F5F
:103060000E94301E88F35523B1F3E7FB6217730704
:1030700084079507A8F189F3E92FFF2788232AF011
:103080003197660F771F881FDAF7952F552744234E
:1030900032F091505040220F331F441FD2F7BB270C
:1030A000E91BF50B621B730B840BB109B1F222F41F
:1030B000620F731F841FB11D31972AF0660F771FAF
:1030C000881FBB1FEFCF9150504062F041F0882322
:1030D00032F0660F771F881F91505040C1F79395CB
:1030E0000C9478188695779567959F5FD9F7F7CFF9
:1030F0009F3F31F0915020F4879577956795B7956C
:10310000880F911D9695879597F90895DF93CF9332
:103110001F930F93FF92EF92DF927B018C016894D3
:1031200006C0DA2EEF010E94AE1DFE01E894A591C3
:103130002591359145915591A6F3EF010E94B01666
:10314000FE019701A801DA9469F7DF90EF90FF90F4
:103150000F911F91CF91DF9108950C940E1E0E9444
:10316000381ED8F3E894E0E0BB279F57F0F02AED33
:103170003FE049EC06C0EE0FBB0F661F771F881FAC
:1031800028F0B23A62077307840728F0B25A620B3C
:10319000730B840BE3959A9572F7803830F49A9507
:1031A000BB0F661F771F881FD2F790480C947A18C0
:1031B000EF93E0FF07C0A2EA2AED3FE049EC5FEBA6
:1031C0000E94B0160E941F1E0F90039401FC90589D
:1031D000E5E9F0E00C9452190E94771D08F48FEF96
:1031E00008959B01AC0160E070E080E89FE30C94DF
:1031F0007C179F930E94AF180F9007FCEE5F0C9412
:10320000D81819F416F40C940E1E0C9478180E9419
:10321000381EB8F39923C9F3B6F39F57550B87FFB0
:103220000E944B190024A0E640EA90018058569570
:10323000979528F4805C660F771F881F20F026176B
:103240003707480730F4621B730B840B20293129A0
:103250004A2BA69517940794202531254A2758F71D
:10326000660F771F881F20F026173707480730F4AE
:10327000620B730B840B200D311D411DA09581F74E
:10328000B901842F9158880F9695879508959B01D1
:10329000AC010C949B1D91505040660F771F881F06
:1032A000D2F708959F938F937F936F93FF93EF933C
:1032B0009B01AC010E949B1DEF91FF910E9486181B
:1032C0002F913F914F915F910C949B1DCF93DF9372
:1032D0008230910510F482E090E0E091E105F091F8
:1032E000E20520E030E0C0E0D0E0309711F140810D
:1032F000518148175907C0F04817590761F4828176
:103300009381209719F09B838A832BC09093E205C9
:103310008093E10526C02115310519F042175307A6
:1033200018F49A01BE01DF01EF010280F381E02D64
:10333000DCCF2115310509F1281B390B243031056B
:1033400090F412968D919C9113976115710521F05F
:10335000FB019383828304C09093E2058093E1058F
:10336000FD01329644C0FD01E20FF31F819391935A
:10337000225031092D933C933AC02091DF053091C2
:10338000E005232B41F42091060130910701309391
:10339000E0052093DF0520910401309105012115FE
:1033A000310541F42DB73EB7409108015091090114
:1033B000241B350BE091DF05F091E005E217F307E0
:1033C000A0F42E1B3F0B2817390778F0AC014E5F95
:1033D0005F4F2417350748F04E0F5F1F5093E005ED
:1033E0004093DF058193919302C0E0E0F0E0CF01CC
:1033F000DF91CF9108950F931F93CF93DF930097A1
:1034000009F48CC0FC013297138212820091E1050D
:103410001091E2050115110581F420813181820F9F
:10342000931F2091DF053091E0052817390779F5C2
:10343000F093E005E093DF0571C0D80140E050E073
:10344000AE17BF0750F412962D913C911397AD0122
:103450002115310509F1D901F3CF9D01DA0133833B
:10346000228360817181860F971F8217930769F409
:10347000EC0128813981260F371F2E5F3F4F3183A2
:1034800020838A819B8193838283452B29F4F09347
:10349000E205E093E10542C01396FC93EE93129788
:1034A000ED01499159919E01240F351FE217F30751
:1034B00071F480819181840F951F029611969C93DF
:1034C0008E938281938113969C938E931297E0E062
:1034D000F0E0D80112968D919C911397009719F006
:1034E000F8018C01F6CF8D919C9198012E5F3F4F92
:1034F000820F931F2091DF053091E00528173907CF
:1035000069F4309729F41092E2051092E10502C0A7
:10351000138212821093E0050093DF05DF91CF91B3
:103520001F910F91089581E090E0F8940C94FB1E98
:10353000DC0101C06D9341505040E0F70895A0E0D8
:10354000B0E0E5EAFAE10C94B51E5C016B017A018A
:103550006115710519F0FB0191838083E114F10479
:1035600029F0C7010297839708F0F1C0E501219681
:10357000F5011081812F90E00E94B41B892B11F07E
:103580005E01F4CF1D3229F42196F501118101E08D
:1035900007C01B3221F4E5012296F501118100E0FC
:1035A000E114F10459F1F0E1EF16F10461F4103384
:1035B000E1F488818F7D883569F519812296026052
:1035C00070E1E72EF12C88E0E816F10439F12CF4D3
:1035D000F2E0EF16F104C9F12AC08AE0E816F1041E
:1035E00079F0E0E1EE16F10411F550E1E52EF12C51
:1035F000812C912CA12C68E0B62E2CC01033C9F27E
:103600003AE0E32EF12C4CEC842E982CA82C4CE0C4
:10361000B42E20C010E3E114F104A9F698E0E92EDD
:10362000F12C812C912CA12C20E1B22E13C060E052
:1036300070E080E090E897010F2C000C440B550BD4
:103640000E94691E49015A0105C0812C912CA12CB0
:1036500080E4B82E60E020E030E0A90127010F2CC3
:10366000000C660877081E01E0EDE10FEA3060F01B
:103670008FEB810F8A3110F4E9EC05C08FE9810FDF
:103680008A3128F5E9EAE10F8E2F90E08E159F052B
:10369000F4F467FD18C082169306A406B50690F0F0
:1036A000C301B2010E94591E9B01AC012E0F311DB6
:1036B000411D511D213031054105F0E85F0710F42F
:1036C00061E001C06FEF2196F1011081CCCF802F16
:1036D0008170C114D10471F0662329F02197F6019D
:1036E000D183C08307C001FF19C02297F601D1839F
:1036F000C08314C067FF12C0811105C02FEF3FEFD8
:103700004FEF5FE704C020E030E040E050E882E2A5
:1037100090E09093E4058093E30516C0882341F080
:1037200050954095309521953F4F4F4F5F4F0CC0BE
:1037300057FF0AC082E290E09093E4058093E3058E
:103740002FEF3FEF4FEF5FE7B901CA0104C060E020
:1037500070E080E090E0CDB7DEB7E2E10C94D11EDE
:10376000662777270C94BD1B91110C941A1D80328B
:1037700019F089508550C8F70895A0E0B0E0E3EC57
:10378000FBE10C94B91EEC017B016115710519F088
:10379000DB018D939C938E010F5F1F4F7880872DE7
:1037A00090E00E94B41B892B11F0E801F4CFBDE238
:1037B0007B1205C00F5F1F4F7980C1E008C0EBE2AC
:1037C0007E1204C08E010E5F1F4F7980C0E0680139
:1037D000F1E0CF1AD10843E050E066E171E0C601A4
:1037E0000E941D1D892BF1F4680122E0C20ED11C3C
:1037F00045E050E061E171E0C6010E941D1D892B8A
:1038000021F4680187E0C80ED11CE114F10419F01D
:10381000D701CD92DC92C111FFC060E070E080E87A
:103820009FE703C143E050E06EE071E0C6010E94F3
:103830001D1D892B51F4E114F10409F4F2C00E5F4F
:103840001F4FF70111830083ECC0680160E070E056
:10385000CB0100E010E0F601D0EDD70DDA3058F5DD
:103860002C2F2260622E2C2F2870C2FF05C0211140
:1038700028C00F5F1F4F25C0222311F001501109EE
:10388000A5E0B0E09B01AC010E94AA1E4B015C01C7
:10389000880C991CAA1CBB1CC501B4016D0F711DBD
:1038A000811D911D6839A9E97A078A07A9E19A075C
:1038B00040F0C66005C0DE3F51F4C3FD44C0C8609F
:1038C0006C2EBFEFCB1ADB0A7080C62DC4CF2D2F14
:1038D0002F7D2531C1F540814D3211F4C06106C004
:1038E0004B3221F0319621E030E006C03296D6010D
:1038F00011964C9122E030E0A0EDA40FAA3018F010
:10390000E21BF30B20C040E050E04038BCE05B0716
:103910005CF49A01220F331F220F331F420F531FF3
:10392000440F551F4A0F511D3196DF0111972C91FD
:10393000A0EDA20FAA3048F3C4FF03C051954195F2
:103940005109040F151FC1FF07C0E114F10421F054
:103950003197D701ED93FC930E943A1DC370C33099
:1039600019F06B017C0106C06B017C01F7FAF09441
:10397000F7F8F09420E030E0A901C701B6010E94F9
:10398000351D882309F445C017FF06C01195019520
:103990001109CDE2D1E002C0C5E4D1E05E01B8E199
:1039A000AB1AB1084601BE2DAF2D90E2E92EF12CE5
:1039B0000E151F0584F0FE01259135914591549116
:1039C000B4018B2F9A2F0E949B1D4B01B82FA92F5A
:1039D0000E191F09EDCF2497F594E794CA15DB055E
:1039E00039F76401EB2EFA2E8E2D880F8F2D881F4C
:1039F0008F3F49F020E030E0A901C701B6010E94E5
:103A0000351D811106C082E290E09093E405809319
:103A1000E305C701B60109C060E070E080E89FEFF0
:103A200004C060E070E080EC9FE7CDB7DEB7EEE069
:103A30000C94D51E992788270895FB01DC0141507D
:103A4000504088F08D9181341CF08B350CF4805EF1
:103A5000659161341CF06B350CF4605E861B61115E
:103A600071F3990B0895881BFCCF0E94771D08F411
:103A700081E00895E89409C097FB3EF49095809505
:103A8000709561957F4F8F4F9F4F9923A9F0F92F24
:103A900096E9BB279395F695879577956795B795A2
:103AA000F111F8CFFAF4BB0F11F460FF1BC06F5F88
:103AB0007F4F8F4F9F4F16C0882311F096E911C09A
:103AC000772321F09EE8872F762F05C0662371F0BB
:103AD00096E8862F70E060E02AF09A95660F771FCF
:103AE000881FDAF7880F9695879597F90895990FAB
:103AF0000008550FAA0BE0E8FEEF16161706E807B8
:103B0000F907C0F012161306E407F50798F0621BD8
:103B1000730B840B950B39F40A2661F0232B242BAD
:103B2000252B21F408950A2609F4A140A6958FEFCC
:103B3000811D811D08950E94AE1D0C941F1E0E94C0
:103B4000111E38F00E94181E20F0952311F00C94DD
:103B5000081E0C940E1E11240C94531E0E94301E3D
:103B600070F3959FC1F3950F50E0551F629FF001D0
:103B7000729FBB27F00DB11D639FAA27F00DB11DE9
:103B8000AA1F649F6627B00DA11D661F829F222772
:103B9000B00DA11D621F739FB00DA11D621F839FF9
:103BA000A00D611D221F749F3327A00D611D231FCF
:103BB000849F600D211D822F762F6A2F11249F571D
:103BC00050409AF0F1F088234AF0EE0FFF1FBB1F20
:103BD000661F771F881F91505040A9F79E3F5105DF
:103BE00080F00C94081E0C94531E5F3FE4F3983E43
:103BF000D4F3869577956795B795F795E7959F5F89
:103C0000C1F7FE2B880F911D9695879597F908951A
:103C100097F99F6780E870E060E008959FEF80EC7F
:103C2000089500240A941616170618060906089522
:103C300000240A9412161306140605060895092E88
:103C40000394000C11F4882352F0BB0F40F4BF2BF7
:103C500011F460FF04C06F5F7F4F8F4F9F4F089537
:103C600057FD9058440F551F59F05F3F71F047952D
:103C7000880F97FB991F61F09F3F79F08795089512
:103C8000121613061406551FF2CF4695F1DF08C031
:103C9000161617061806991FF1CF8695710561054E
:103CA00008940895E894BB2766277727CB0197F9F6
:103CB0000895DB018F939F930E94AA1EBF91AF913D
:103CC000A29F800D911DA39F900DB29F900D112476
:103CD0000895A1E21A2EAA1BBB1BFD010DC0AA1F4D
:103CE000BB1FEE1FFF1FA217B307E407F50720F065
:103CF000A21BB30BE40BF50B661F771F881F991FE0
:103D00001A9469F760957095809590959B01AC0128
:103D1000BD01CF010895052E97FB1EF400940E946B
:103D2000A21E57FD07D00E94691E07FC03D04EF467
:103D30000C94A21E50954095309521953F4F4F4FC2
:103D40005F4F089590958095709561957F4F8F4F47
:103D50009F4F08950E94EC1EA59F900DB49F900D5B
:103D6000A49F800D911D112408952F923F924F9290
:103D70005F926F927F928F929F92AF92BF92CF92FB
:103D8000DF92EF92FF920F931F93CF93DF93CDB704
:103D9000DEB7CA1BDB0B0FB6F894DEBF0FBECDBF7C
:103DA00009942A88398848885F846E847D848C844D
:103DB0009B84AA84B984C884DF80EE80FD800C8156
:103DC0001B81AA81B981CE0FD11D0FB6F894DEBF39
:103DD0000FBECDBFED010895A29FB001B39FC001FA
:103DE000A39F700D811D1124911DB29F700D811D27
:103DF0001124911D089510E0C6EAD0E004C0FE0130
:103E00000E9492162196C73AD107C9F7F894FFCFBE
:103E1000FFFFFFFF0000E50580000100000000003B
:103E200000002A01410CF300D100E50071010000FF
:103E30000000210B410C000000001E02410C720228
:103E40008A0205021D0200000000EF01320BCE01C4
:103E5000AD02000878095700530024504D544B32EE
:103E600032302C313030302A31460024504D544B02
:103E70003330302C313030302C302C302C302C3052
:103E80002A31430024504D544B3331342C302C31E3
:103E90002C302C302C302C302C302C302C302C3042
:103EA0002C302C302C302C302C302C302C302C3032
:0A3EB0002C302A3239000D0A000000
:00000001FF
