:100000000C942F010C9457010C9457010C948D0AF9
:100010000C948D0A0C948D0A0C9457010C94570182
:100020000C9457010C9457010C9457010C945701F0
:100030000C9457010C9457010C9457010C945701E0
:100040000C9472210C9457010C942C240C945E2473
:100050000C9457010C9457010C9457010C945701C0
:100060000C9457010C945701084AD73B3BCE016EC4
:1000700084BCBFFDC12F3D6C74319ABD56833DDAFF
:100080003D00C77F11BED9E4BB4C3E916BAAAABE0E
:10009000000000803F05A84CCDB2D44EB93836A937
:1000A000020C50B9918688083CA6AAAA2ABE000074
:1000B00000803F007C3C3E5E2B3D3F2F5B5D3B2C38
:1000C0002A225C000000000800020100000304076F
:1000D0000000000000000000010204081020408021
:1000E0000102040810200102040810200404040482
:1000F00004040404020202020202030303030303D2
:100100000000000023002600290000000000250058
:1001100028002B0000000000240027002A004E4188
:100120004E494E495459494E46CDCCCC3D0AD72371
:100130003C17B7D13877CC2B329595E6241FB14FB9
:100140000A000020410000C84200401C4620BCBEFE
:100150004CCA1B0E5AAEC59D7400407A10F35A006B
:10016000A0724E18090010A5D4E80000E8764817E0
:100170000000E40B54020000CA9A3B000000E1F5C5
:1001800005000080969800000040420F000000A08B
:100190008601000000102700000000E803000000B6
:1001A000006400000000000A0000000000010000E0
:1001B0000000002C76D888DC674F0823DFC1DFAE53
:1001C00059E1B1B796E5E3E453C63AE6519976961C
:1001D000E8E6C28426EB898C9B62ED407C6FFCEFE5
:1001E000BC9C9F40F2BAA56FA5F490055A2AF75C13
:1001F000936B6CF9676DC11BFCE0E40D47FEF520C5
:10020000E6B500D0ED902E0300943577050080848C
:100210001E080000204E0A000000C80C33333333A0
:100220000F986E12831141EF8D2114893BE655160C
:10023000CFFEE6DB18D1844B381BF77C1D901DA444
:10024000BBE424203284725E228100C9F124ECA137
:10025000E53D27006607E50F2A138E247A0711244F
:100260001FBECFEFD8E0DEBFCDBF11E0A0E0B1E010
:10027000E2E8F6E602C005900D92A83CB107D9F776
:1002800026E0A8ECB1E001C01D92AD30B207E1F765
:1002900012E0CCE5D2E004C02297FE010E94412B7F
:1002A000C435D107C9F70E94D2240C9434330C947E
:1002B00000008F929F92AF92BF92CF92DF92EF9207
:1002C000FF920F931F93CF93DF93EC01CB010E941A
:1002D0009A2E6B017C010E945D28CB0164E670E0E0
:1002E0000E94DF2A8B0184E6809FB001819F700D00
:1002F0001124882777FD8095982F0E9490289B01D4
:10030000AC01C701B6010E94272720E030E040E79A
:1003100052E40E94F5276B017C01B801882777FD24
:100320008095982F0E949028A70196010E94282767
:100330004B015C0120E030E041E655E4C701B60125
:100340000E94F5279B01AC01C501B4010E9428273A
:1003500028812B7F233509F49058DF91CF911F918D
:100360000F91FF90EF90DF90CF90BF90AF909F9054
:100370008F9008954F925F926F927F928F929F928B
:10038000AF92BF92CF92DF92EF92FF920F931F93A3
:10039000CF93DF93CDB7DEB760970FB6F894DEBF8B
:1003A0000FBECDBF2B013C0129873A874B875C8765
:1003B000E982FA820B831C839B01AC01C801B7015F
:1003C0000E94272725E33AEF4EE85CE30E94052AC6
:1003D00020E030E040E05FE30E94052A0E94682AA6
:1003E0006D837E838F83988725E33AEF4EE85CE345
:1003F000C301B2010E94052A0E94F2272B013C0191
:1004000025E33AEF4EE85CE3C801B7010E94052AF4
:100410000E94F22769837A838B839C8329853A859E
:100420004B855C85C601B5010E94272725E33AEF7D
:100430004EE85CE30E94052A20E030E040E05FE304
:100440000E94052A0E94682A4B015C012D813E8191
:100450004F815885CA01B9010E94052A6B017C01B0
:1004600029813A814B815C81C301B2010E94052A36
:10047000A50194010E94052AA50194010E94052A64
:100480009B01AC01C701B6010E9428276B017C01CA
:100490009B01AC0160E070E080E89FE30E942727A9
:1004A0000E94722A9B01AC01C701B6012D873E87CD
:1004B0004F87588B0E94722A2D853E854F8558891B
:1004C0000E949B279B01AC010E9428272CEA38E759
:1004D0004FE95BE40E94052A60960FB6F894DEBFF0
:1004E0000FBECDBFDF91CF911F910F91FF90EF9085
:1004F000DF90CF90BF90AF909F908F907F906F9044
:100500005F904F9008954F925F926F927F928F927B
:100510009F92AF92BF92CF92DF92EF92FF920F9392
:100520001F93CF93DF93CDB7DEB760970FB6F894E4
:10053000DEBF0FBECDBF69837A838B839C83C601E8
:10054000B5010E94272725E33AEF4EE85CE30E94BD
:10055000052A4B015C010E94682A6D837E838F838C
:10056000988725E33AEF4EE85CE3C801B7010E94A3
:10057000052A2B013C010E94F2276B017C0125E337
:100580003AEF4EE85CE369817A818B819C810E941D
:10059000052A69837A838B839C830E94F22769876B
:1005A0007A878B879C87C301B2010E94682A9B01CE
:1005B000AC0169817A818B819C812D873E874F8731
:1005C000588B0E94682A2B013C01C501B4010E948E
:1005D000F22769837A838B839C832D853E854F85A3
:1005E000588969857A858B859C850E94052A4B01EF
:1005F0005C01A7019601C301B2010E94052AA7016F
:1006000096010E94052A29813A814B815C810E94D2
:10061000052A9B01AC01C501B4010E9427274B01AB
:100620005C01A70196016D817E818F8198850E9472
:10063000052AA50194010E949B2721EE3EE245E692
:1006400052E40E94052A6B017C0120E030E0A90100
:100650000E94EE2787FF24C020E030E044EB53E403
:10066000C701B6010E94282720E030E044EB53E4A4
:1006700060960FB6F894DEBF0FBECDBFDF91CF916D
:100680001F910F91FF90EF90DF90CF90BF90AF90B0
:100690009F908F907F906F905F904F900C94D22896
:1006A000C701B60160960FB6F894DEBF0FBECDBF8E
:1006B000DF91CF911F910F91FF90EF90DF90CF903E
:1006C000BF90AF909F908F907F906F905F904F9072
:1006D00008958F929F92AF92BF92CF92DF92EF9246
:1006E000FF920F931F93CF93C82F4A015B016801BC
:1006F000790187EE91E00E946921C130C9F030F0A4
:10070000C230C9F0C330D9F44FEF1AC040E063E5FE
:1007100085EE0E941F219B01AC0160E070E087EE36
:1007200091E00E94BA2087EE91E00E949E1F14C0C3
:1007300040E06FEF02C04FEF60E080E003C040E0B8
:1007400060E08FEF0E941F219B01AC0160E070E030
:1007500087EE91E00E94BA2020E030E048EC51E4BE
:10076000C701B6010E94FA2987FD0DC040E060E094
:100770008FEF0E941F219B01AC0160E270E087EEC9
:1007800091E00E94BA2020E030E048E452E4C70142
:10079000B6010E94FA2987FD0DC040E060E08FEFAE
:1007A0000E941F219B01AC0161E270E087EE91E0A5
:1007B0000E94BA2020E030E048EC52E4C701B601C4
:1007C0000E94FA2987FD0DC040E060E08FEF0E9493
:1007D0001F219B01AC0162E270E087EE91E00E9474
:1007E000BA2020E030E048E453E4C701B6010E949B
:1007F000FA2987FD0DC040E060E08FEF0E941F21C5
:100800009B01AC0163E270E087EE91E00E94BA20A8
:1008100020E030E048EC53E4C701B6010E94FA2919
:1008200087FD0DC040E060E08FEF0E941F219B011B
:10083000AC0164E270E087EE91E00E94BA2020E013
:1008400030E048E454E4C701B6010E94FA2987FD6C
:100850000DC040E060E08FEF0E941F219B01AC01C2
:1008600065E270E087EE91E00E94BA2020E030E07F
:1008700048EC54E4C701B6010E94FA2987FD0DC077
:1008800040E060E08FEF0E941F219B01AC0166E217
:1008900070E087EE91E00E94BA2020E030E048E46A
:1008A00055E4C701B6010E94FA2987FD0DC040E05A
:1008B00060E08FEF0E941F219B01AC0167E270E0B6
:1008C00087EE91E00E94BA202091C8013091C901C1
:1008D0004091CA015091CB01C501B4010E94272764
:1008E0000E945D289B0177FF03C028593E4F07C037
:1008F000693641E074071CF09B0128563140C9015C
:1009000006978E3541E0940798F48733910598F067
:10091000C7978C33910590F0CC978238910588F079
:100920002B5F31092233310578F484E090E00EC06A
:1009300080E090E00BC081E090E008C082E090E0B1
:1009400005C083E090E002C085E090E0833091052F
:1009500009F4BDC044F48130910509F463C00297E5
:1009600009F4ABC007C08430910509F4FBC00597BA
:1009700009F41CC14FEF6FEF80E00E941F219B0123
:10098000AC0163E070E087EE91E00E94BA204FEF87
:100990006FEF80E00E941F219B01AC0164E070E0DA
:1009A00087EE91E00E94BA204FEF6FEF80E00E9447
:1009B0001F219B01AC016BE070E087EE91E00E948B
:1009C000BA204FEF6FEF80E00E941F219B01AC0126
:1009D0006CE070E087EE91E00E94BA204FEF6FEF7D
:1009E00080E00E941F219B01AC0163E170E087EE73
:1009F00091E00E94BA204FEF6FEF80E00E941F212C
:100A00009B01AC0164E170E087EE91E00E94BA20A6
:100A10004FEF6FEF80E00E941F219B01AC016BE163
:100A200070E03DC04FEF6FEF80E00E941F219B01FF
:100A3000AC0166E070E087EE91E00E94BA204FEFD3
:100A40006FEF80E00E941F219B01AC0167E070E026
:100A500087EE91E00E94BA204FEF6FEF80E00E9496
:100A60001F219B01AC016EE070E087EE91E00E94D7
:100A7000BA204FEF6FEF80E00E941F219B01AC0175
:100A80006FE070E087EE91E00E94BA204FEF6FEFC9
:100A900080E00E941F219B01AC0165E170E087EEC0
:100AA00091E00E94BA204FEF6FEF80E00E941F217B
:100AB0009B01AC016CE170E0B6C04FEF6FEF80E0DE
:100AC0000E941F219B01AC016CE170E023C04FEF3D
:100AD0006FEF80E00E941F219B01AC0168E170E094
:100AE00087EE91E00E94BA204FEF6FEF80E00E9406
:100AF0001F219B01AC0169E170E087EE91E00E944B
:100B0000BA204FEF6FEF80E00E941F219B01AC01E4
:100B10006AE170E087EE91E00E94BA204FEF6FEF3C
:100B200080E00E941F219B01AC016DE170E087EE27
:100B300091E00E94BA204FEF6FEF80E00E941F21EA
:100B40009B01AC016EE170E087EE91E00E94BA205B
:100B50004FEF6FEF80E00E941F219B01AC016FE11E
:100B600070E061C04FEF6FEF80E00E941F219B019A
:100B7000AC0168E170E087EE91E00E94BA204FEF8F
:100B80006FEF80E00E941F219B01AC0169E170E0E2
:100B900087EE91E00E94BA204FEF6FEF80E00E9455
:100BA0001F219B01AC016AE170E030C04FEF6FEF95
:100BB00080E00E941F219B01AC0169E070E087EE9C
:100BC00091E00E94BA204FEF6FEF80E00E941F215A
:100BD0009B01AC016AE070E087EE91E00E94BA20D0
:100BE0004FEF6FEF80E00E941F219B01AC0161E19C
:100BF00070E087EE91E00E94BA204FEF6FEF80E047
:100C00000E941F219B01AC0162E170E087EE91E040
:100C10000E94BA204FEF6FEF80E00E941F219B01DE
:100C2000AC016BE170E087EE91E00E94BA2087EEA4
:100C300091E0CF911F910F91FF90EF90DF90CF90B7
:100C4000BF90AF909F908F900C949E1F0F931F9317
:100C5000CF93DF93CDB7DEB7A7970FB6F894DEBF7B
:100C60000FBECDBF26E040E052EC61E070E08AE6C6
:100C700095E00E94CA2387EE91E00E941A1F6AE065
:100C800087EE91E00E94282187EE91E00E949E1F4E
:100C90006AE08CE093E00E94330E68EB71E0CE01D5
:100CA00082960E94C32500E010E04AE0B801CE0120
:100CB0004C960A30110528F40E9411266CE071E070
:100CC00004C00E94112669E171E0CE0101960E94E4
:100CD000C325BE01645E7F4FCE0101960E94DE26D1
:100CE00064E171E00E94F126BC01CE0182960E946F
:100CF000D925CE0101960E945525CE014C960E9421
:100D000055256AA17BA18CE093E00E94DA0F88232D
:100D100029F00F5F1F4F0436110539F64AA15BA178
:100D200023E16CE073E0CE0101960E944C0F8B81B1
:100D30009C819093CF018093CE018D819E81AF8164
:100D4000B8858093D0019093D101A093D201B09344
:100D5000D30189859A85AB85BC858093D401909316
:100D6000D501A093D601B093D7018DE0FE013D9649
:100D7000A8EDB1E001900D928A95E1F78A8D9B8DE7
:100D80009093E6018093E50140E855E260E070E071
:100D90008CEF91E00E94900B60E271E08CEF91E0AB
:100DA0000E94432561E371E08CEF91E00E944325AE
:100DB0006AE471E08CEF91E00E94432562E080914B
:100DC00006010E944F2286E793ECA4EEB1E48093E3
:100DD0001F0290932002A0932102B093220282EA84
:100DE0009BE9A2EAB2EC80931B0290931C02A093B1
:100DF0001D02B0931E0284E99CEBA4EEB1E4809343
:100E0000270290932802A0932902B0932A028FEA26
:100E10009BE9A2EAB2EC8093230290932402A09370
:100E20002502B093260280E196ECA4EEB1E4809313
:100E30002F0290933002A0933102B093320286EADF
:100E40009AE9A2EAB2EC80932B0290932C02A09331
:100E50002D02B0932E0285E095ECA4EEB1E48093D0
:100E6000370290933802A0933902B0933A028BE58F
:100E70009CE9A2EAB2EC8093330290933402A093EF
:100E80003502B0933602CE0182960E945525A79670
:100E90000FB6F894DEBF0FBECDBFDF91CF911F918B
:100EA0000F9108951F93CF93DF93182FC8EED3E0CF
:100EB000812F0E94BE22892B21F42197C9F781E05E
:100EC00001C080E0DF91CF911F91089520E047E0BD
:100ED00068E08CEF91E00E94600B22E530E046E094
:100EE00068E270E087EE91E00E9492208CEC91E045
:100EF0000C94DC0C87EE91E00E94061F8CEF91E0D1
:100F00000C94070BCF93DF9380E8E4E4F2E0DF0179
:100F10001D928A95E9F7C0E08CEF91E00E941E0ACD
:100F20000196D1F38CEF91E00E94AA09AC2FB0E0BA
:100F3000AC5BBD4F8C93CC2329F0843219F48093A1
:100F40004402C0E080914402843231F781E08C0F8A
:100F5000EC2FF0E0EC5BFD4F90819A3011F0C82F40
:100F6000DBCF90E0FC01EE5BFD4F1082EC0125979A
:100F7000FE01EC5BFD4F20812A3269F640E150E032
:100F800060E070E0805C9D4F0E94662D21E0822F22
:100F900090E08C179D073CF4FC01EC5BFD4F8081D9
:100FA00068272F5FF4CF6111B6CFDF91CF910895FD
:100FB0002F923F924F925F926F927F928F929F9269
:100FC000AF92BF92CF92DF92EF92FF920F931F9357
:100FD000CF93DF93CDB7DEB7E7970FB6F894DEBFB8
:100FE0000FBECDBF80910601909107010E9452076C
:100FF000882361F020914302822F90E003971CF038
:101000001092430203C02F5F209343020E94820785
:1010100080914702823509F034C1809156028134B3
:1010200009F02FC18BE04E012CE0820E911CF401DF
:10103000282F11922A95E9F71BAA1AAAFE013196C8
:101040001F0111928A95E9F719AA18AACE014796AD
:1010500027E0FC0111922A95E9F7E4E4F2E09F0110
:101060002454324041914C32D1F72F5F3F4FF90168
:10107000EC5BFD4F40812F5F3F4F4C32C1F7F901D0
:10108000EC5BFD4F40812F5F3F4F4C32C1F7F401C5
:10109000D901AC5BBD4F4C912F5F3F4F4C3211F0EB
:1010A0004193F6CFFE01F296D901AC5BBD4F4C9156
:1010B0002F5F3F4F4C3211F04193F6CFF101D90130
:1010C000AC5BBD4F4C912F5F3F4F4C3211F04193C1
:1010D000F6CFFE01F096D901AC5BBD4F4C912F5F6E
:1010E0003F4F4C3211F04193F6CFF901EC5BFD4FCD
:1010F00040812F5F3F4F4C32C1F7FC01D901AC5BFF
:10110000BD4F4C914C3221F041932F5F3F4FF6CFB2
:101110000E949A2E6093C8017093C9018093CA01FE
:101120009093CB01E091430228E0E29FF00111246B
:10113000E55EFD4FA080B180C280D38044805580A1
:1011400066807780B101CE01C0960E9459019B0153
:10115000AC01B401CE01C2962CAB3DAB4EAB5FAB44
:101160000E945901830172012CA93DA94EA95FA9D2
:101170000E94830260933B0270933C0280933D0285
:1011800090933E02E091430238E0E39FF001112486
:10119000E55EFD4FA080B180C280D3804480558041
:1011A00066807780B101CE01C0960E9459019B01F3
:1011B000AC01B401CE01C2962CAB3DAB4EAB5FABE4
:1011C0000E945901830172012CA93DA94EA95FA972
:1011D0000E94BA012B013C0160933F0270934002D0
:1011E00080934102909342028C85882309F449C080
:1011F0008981882309F445C0B401CE01C2960E94BA
:101200005901AB01BC0122E0CE014E960E943D2661
:10121000B101CE01C0960E945901AB01BC0122E090
:10122000CE018A960E943D26BE01665D7F4FCE01AB
:1012300084960E94F0256CE2CE0184960E940B27D2
:10124000BE01625E7F4F0E94DE266CE20E940B2789
:10125000B301A2010E941927BC018CEC91E00E940D
:101260003125CE0184960E945525CE018A960E9492
:101270005525CE014E960E9455258CEC91E00E949A
:101280004F0C00913F021091400220914102309199
:10129000420240913B0250913C0260913D027091AC
:1012A0003E02809143020E94690364E472E08AE690
:1012B00095E00E944325E7960FB6F894DEBF0FBE77
:1012C000CDBFDF91CF911F910F91FF90EF90DF90F5
:1012D000CF90BF90AF909F908F907F906F905F90D6
:1012E0004F903F902F900895CF93CFB7F89480916F
:1012F000C702811127C0E6EFF0E08491E2EEF0E052
:101300009491E82FF0E0EE0FFF1FEC5EFE4FA591E9
:10131000B4918C91892321F461E08AE00E948822B3
:1013200061E08AE00E944F228CB580618CBD8CB553
:1013300080648CBD61E08DE00E944F2261E08BE013
:101340000E944F228091C7028F5F8093C702CFBF58
:10135000CF91089520910A0330910B032817390784
:10136000B9F49091C8028091C902981789F0E09170
:10137000C802F0E0E653FD4F80812091C80230E0C2
:101380002F5F3F4F2F7333272093C80290E00895BB
:101390008FEF9FEF08951F93CF93DF93DC015C964F
:1013A0008D919C915D97009749F481E090E01396B0
:1013B0009C938E93129780E090E03BC05196ED9104
:1013C000FC91529750962C915097322F30951FB721
:1013D0005E964C915E9741FB772770F941FD6095D1
:1013E000F8944081772311F0422B01C043234083BE
:1013F000EC012197F1F748E0508160FF02C0522BC9
:1014000001C053235083EC012197F1F766954150B9
:1014100099F78081772311F0832301C0822B808389
:101420001FBF5C968D919C915D970197F1F781E0CC
:1014300090E0DF91CF911F910895089520910A03C4
:1014400030910B032817390771F49091C8028091ED
:10145000C902981741F0E091C802F0E0E653FD4F51
:10146000808190E008958FEF9FEF089520910A0307
:1014700030910B032817390771F48091C90220912C
:10148000C80290E0805C9F4F821B910960E470E08D
:101490000E94DF2A089580E090E00895E0910A0319
:1014A000F0910B03E817F90769F4A389B4899C91BB
:1014B0008589809589238C9310920B0310920A03DF
:1014C00081E0089580E00895CF93DF93EC018A8D49
:1014D0009B8D892BF1F080910A0390910B038C175F
:1014E0009D07B9F0009711F00E944E0A8E8D8E7FF5
:1014F0008E8F1092C9021092C802D0930B03C09332
:101500000A03EB89FC8980819D89892B808381E096
:1015100001C080E0DF91CF9108951F920F920FB626
:101520000F9211242F933F934F935F936F937F9369
:101530008F939F93AF93BF93EF93FF93E0910A0331
:10154000F0910B03309709F451C0868DA685B785BD
:10155000958581FF04C08C91892329F447C08C9123
:10156000892309F043C0A389B4899C91858980951A
:1015700089238C93868997890197F1F7208D318D86
:10158000A685B785758558E040E0C9010197F1F758
:10159000842F90E095958795482F6C91672309F0EB
:1015A0004068515091F7868D81FD40958091C90228
:1015B00090E001968F7399272091C802281749F06F
:1015C000A091C902B0E0A653BD4F4C938093C902CD
:1015D00003C0868D8160868F828D938D0197F1F790
:1015E000A389B4898C919589892B8C93FF91EF9174
:1015F000BF91AF919F918F917F916F915F914F912B
:101600003F912F910F900FBE0F901F90189520E8DB
:1016100031E0FC01318320830C944E0A1F93CF9359
:10162000DF93EC01162F6E8D6695617081E068275F
:10163000812F0E94882261E0812F0E944F22812FFA
:1016400090E0FC01E852FF4FE491E88BFC01E4518B
:10165000FF4FE491F0E0EE0FFF1FE65FFE4F859134
:1016600094919A8B898BDF91CF911F9108951F934D
:10167000CF93DF93EC01162F60E0812F0E944F2261
:101680008E8D81FD04C061E0812F0E9488221C871D
:10169000812F90E0FC01E852FF4FE491ED87FC01BF
:1016A000E451FF4FE491F0E0EE0FFF1FE050FF4FD9
:1016B000859194919F878E87DF91CF911F91089597
:1016C000FF920F931F93CF93DF93EC01F62E522FCF
:1016D0001B821A8208EE13E020E030E00C831D83A9
:1016E0002E833F8380E891E0998388831F8A1E8A36
:1016F000198E188E1B8E1A8E1D8E1C8E8E8D8E7FCF
:1017000050FB81F98E8F642FCE010E940E0B6F2D3E
:10171000CE01DF91CF911F910F91FF900C94370B69
:10172000CF93DF93EC019A01AB011B8E1A8E198EB9
:10173000188E1F8A1E8A60E079E08DE390E00E9497
:10174000152BC9012430310520F0B901635071090E
:1017500002C061E070E07D8F6C8FEC85E63108F0AF
:1017600068C0B901769567956431710518F06351C9
:10177000710902C061E070E07F8B6E8B069718F0F4
:10178000C901059702C081E090E0998F888FC90157
:10179000880F991F820F931F969587959695879529
:1017A0008D30910510F00C9702C081E090E09B8F86
:1017B0008A8F20916800E83050F091E0EE3008F414
:1017C00090E081E001C0880F9A95EAF701C084E0BB
:1017D000822B809368002C85283038F02E3040F022
:1017E000263148F48CE690E008C08DE690E005C014
:1017F0008BE690E002C080E090E09C8B8B8B2830E1
:1018000030F481E001C0880F2A95EAF70DC0822FDD
:1018100090E02E3010F4089701C00E9791E001C0BF
:10182000990F8A95EAF7892F8D8B8C8D9D8D019765
:10183000F1F7CE01DF91CF910C94640ACF93DF933F
:101840001F92CDB7DEB76983DC01ED91FC91028078
:10185000F381E02D41E050E0BE016F5F7F4F0995BD
:101860000F90DF91CF910895CF93DF93EC01898D95
:101870009A8D009759F0FC01138212820E94AB18D6
:10188000E98DFA8D22813381232B31F081E090E0C4
:101890009B838A8380E090E0DF91CF910895FC01E3
:1018A000818D928D009711F00C944B160895CF9373
:1018B000DF931F92CDB7DEB741E050E0BE016F5F0E
:1018C0007F4F0E945C14019719F4898190E002C057
:1018D0008FEF9FEF0F90DF91CF910895FC01818DE5
:1018E000928D009711F00C94570C8FEF9FEF089595
:1018F0000F931F93CF93DF938C01FC01818D928D09
:101900000097B9F00E94570CEC018F3FFFEF9F0743
:1019100099F0F801818D928DFC0142855385648593
:10192000758541505109610971090E94AF15CE01B9
:1019300005C080E090E002C08FEF9FEFDF91CF9174
:101940001F910F910895CF92DF92EF92FF920F9324
:101950001F93CF93DF93EC017B016A011B821A82F4
:1019600008EE13E020E030E00C831D832E833F83DC
:1019700080E991E0998388838DE190E00E94752B46
:101980009A8F898F009779F02DE1F701DC010190A2
:101990000D922A95E1F74CE050E0B601CE010C968D
:1019A0000E94D52E188EDF91CF911F910F91FF903D
:1019B000EF90DF90CF900895FC011382128248EEE1
:1019C00053E060E070E0448355836683778380E969
:1019D00091E091838083128E118E14860895DC012C
:1019E0005996ED91FC915A97309729F0628573854D
:1019F0008485958508956FEF7FEFCB010895DC0115
:101A00005996ED91FC915A97309729F06389748922
:101A100085899689089560E070E0CB010895CF92A2
:101A2000DF92EF92FF92CF93DF93EC01898D9A8D35
:101A3000892BD9F0CE010E94FF0C6B017C01CE01F5
:101A40000E94EF0CA7019601261B370B480B590B80
:101A5000DA01C901811530E89307A105B10538F015
:101A60008FEF9FE7A0E0B0E002C080E090E0DF9160
:101A7000CF91FF90EF90DF90CF9008951F93CF9379
:101A8000DF93CDB7DEB76D970FB6F894DEBF0FBE0C
:101A9000CDBFAB011C821B8222EA31E03A8329834D
:101AA0001E8221E0BC01CE0101960E94C61711E002
:101AB000811102C010E004C0CE0101960E9492166E
:101AC000812F6D960FB6F894DEBF0FBECDBFDF91AC
:101AD000CF911F910895CF93DF93FB012081318136
:101AE000FC01E20FF31FE081EF3211F42F5F3F4F53
:101AF000DA01E0E0F0E0EC01C20FD31FC881CF3281
:101B000049F0CC2339F031962F5F3F4FCD93EC3025
:101B1000F10589F7E40FF51F1082FC01E20FF31FB6
:101B200040814F3211F42F5F3F4FFB0131832083FF
:101B3000FC01E20FF31F81E09081911101C080E070
:101B4000DF91CF9108954F925F926F927F928F9223
:101B50009F92AF92BF92CF92DF92EF92FF920F933C
:101B60001F93CF93DF93CDB7DEB7C954D1090FB61A
:101B7000F894DEBF0FBECDBF5C016B013A01490195
:101B800019A218A282EA91E09F8F8E8F1BA21C825D
:101B90001B829A8389831E822A961FAE1EAE2A97C5
:101BA0008B017E018EE1E80EF11C44244394AE01CA
:101BB000455C5F4FBE01685B7F4FC5010E946B0DA6
:101BC000582E482F44259401BE01655C7F4FC80103
:101BD000F3010995811108C00C151D0519F0C80104
:101BE0000E94921680E027C05520B9F021E0AE0196
:101BF000455C5F4FB801C7010E94C617582E0C15EF
:101C00001D0599F0C8010E949216552059F3902F96
:101C1000812F8701E92EF82ECACF0C151D0519F06A
:101C2000C8010E94921681E006C08823D9F28E0175
:101C30000F5F1F4FECCFC75BDF4F0FB6F894DEBFCF
:101C40000FBECDBFDF91CF911F910F91FF90EF900D
:101C5000DF90CF90BF90AF909F908F907F906F90CC
:101C60005F904F9008950F931F93CF93DF93EC01F4
:101C7000462F61E00E942211811102C080E01DC048
:101C80008E01045F1F4F41E0BE01C8010E94F21D9A
:101C9000882359F0B801CE018A960E940C1491E075
:101CA000811101C090E0892F08C040E0BE01C80149
:101CB0000E94F21D882311F3EDCFDF91CF911F9188
:101CC0000F910895FC01DB0112968D919C91139761
:101CD0009383828382EA91E09183808314968C912E
:101CE0001497848315968C911597858316964D913C
:101CF0005D916D917C9119974683578360877187B9
:101D00001A964D915D916D917C911D9742875387F5
:101D1000648775871E964D915D916D917C91519769
:101D200046875787608B718B52968C915297828B26
:101D300053964D915D916D917C915697438B548B49
:101D4000658B768B57964D915D916D917C915A97ED
:101D5000478B508F618F728F5B968D919C915C97B2
:101D6000948F838F08954F925F926F927F928F929C
:101D70009F92AF92BF92CF92DF92EF92FF920F931A
:101D80001F93CF93DF93CDB7DEB7C754D1090FB6FA
:101D9000F894DEBF0FBECDBF6C014A013901665D0C
:101DA0007F4F5E018EE1A80EB11CC5010E94620E3C
:101DB0001C821B8282EA91E09A8389831E828401BD
:101DC000FE0131967F015A2C4B2C6FE270E0C80166
:101DD0000E94C32E0097E9F1F80120812F3219F4F7
:101DE0000F5F1F4FF2CF801B8D3008F08CE0A82EC4
:101DF000B12CA501B801CE01CB960E94D52EEBE304
:101E0000F0E0EC0FFD1FEA0DFB1D1082C7010E94E0
:101E1000921621E0AE01455C5F4F652D742DC70120
:101E20000E94C617811109C0F6011382128282EA4C
:101E300091E091838083158216C00A0D1B1D852DAC
:101E4000942D0E949216C2015E2C4F2CE92EF82E82
:101E5000BCCF08191909F30111830083652D742D76
:101E6000C6010E94620EC601C95BDF4F0FB6F8942F
:101E7000DEBF0FBECDBFDF91CF911F910F91FF90BD
:101E8000EF90DF90CF90BF90AF909F908F907F901A
:101E90006F905F904F9008959F92AF92BF92CF92B4
:101EA000DF92EF92FF920F931F93CF93DF93CDB703
:101EB000DEB7C955D1090FB6F894DEBF0FBECDBF4E
:101EC0007C016B015A01922E9E01285A3F4FCE0190
:101ED000CB960E94B30E6A960EAD1FAD6A970A0D9F
:101EE0001B1DF801808181110AC0BE01655C7F4F16
:101EF000CE0101960E94620E4CE951E041C019A248
:101F000018A282EA91E09F8F8E8F1BA221968FAD3F
:101F10002197811104C0C7010E94DC0C37C0825098
:101F2000823060F4B601665D7F4F292DA801CE0195
:101F30004E960E94C617811110C0EDCF292DA80121
:101F4000BE01655C7F4FCE014E960E94C617882366
:101F500011F3CE01CB960E949216892D867041F026
:101F600049A95AA96BA97CA9CE014E960E94AF152A
:101F7000BE01625E7F4FCE0101960E94620EA801F3
:101F8000BE016F5F7F4FC7010E94A30CC701C75AF4
:101F9000DF4F0FB6F894DEBF0FBECDBFDF91CF91FC
:101FA0001F910F91FF90EF90DF90CF90BF90AF9077
:101FB0009F900895FB01BC01665D7F4F20E030E0FB
:101FC0004EE35DE0CF010C94A30D1092110310922B
:101FD0001203109215031092170382E090E0A0E024
:101FE000B0E08093180390931903A0931A03B09361
:101FF0001B0310922F03109239031092380382EAC8
:1020000091E0909337038093360310923B03089539
:102010009FB7F8942091C6028091C402213019F430
:102020008DBB9FBF08958FBF08952091C6022223C4
:1020300099F03FB7F8942091C602213059F42DB39E
:102040002093C4024DB32091C502209524232DBBBB
:102050003FBF02C03093C4028CBD9DBD08958EBDAC
:1020600000000DB407FEFDCF8EB508958FEF0C94E0
:102070002F1061E0FC0184810E9488228091550329
:10208000882339F0109255038091C60281110C9477
:1020900008100895CF93DF93EC01809155038111CF
:1020A00009C081E0809355038091560390915703B6
:1020B0000E94151060E08C81DF91CF910C948822F2
:1020C000CF93DF93EC018E81882389F08F819885EF
:1020D0009C012F5F3F4F38872F838230924018F446
:1020E0000E943610F3CFCE010E9439101E82DF917C
:1020F000CF910895673028F026E1FC01258380E028
:102100000895623081F030F4662359F06130B1F403
:1021100080E515C0643059F040F0653079F482E50F
:102120000EC080E505C081E503C081E508C082E5F9
:102130008093560381E080935703089583E580934D
:1021400056031092570381E008950F931F93CF9386
:10215000DF93EB010E94BC218B010E9436108F3F60
:1021600049F00E94BC21601B710B6C177D07A8F31E
:1021700080E001C081E0DF91CF911F910F91089520
:10218000CF92DF92FF920F931F93CF93DF9300D0F4
:1021900000D0CDB7DEB76C01F62E29833A834B838E
:1021A0005C830E946010C6010E944A106CE271E0DC
:1021B000C6010E94A5108F2D80640E942F1008E197
:1021C00010E05C814B813A812981DA01C901002E3E
:1021D00004C0B695A795979587950A94D2F7298359
:1021E0003A834B835C830E942F1008501109298188
:1021F0003A814B815C81083F8FEF180731F7FF2050
:1022000029F0E8E0FE1621F08FEF03C085E901C058
:1022100087E80E942F1010E00E943610F601828796
:1022200087FF04C01F3F11F01F5FF6CF0F900F9084
:102230000F900F90DF91CF911F910F91FF90DF9042
:10224000CF900895BF92CF92DF92EF92FF920F93BB
:102250001F93CF93DF93EC01B62E1B8619861E8247
:102260001D824C830E94BC218B0161E08C810E9405
:102270004F2261E08C810E9488220E94740982E5CD
:102280008093560310925703809156039091570301
:102290000E9415102AE0F22E8FEF0E942F10FA9460
:1022A000D9F78091C60281110E940810CE010E94C8
:1022B0004A1020E030E0A90160E0CE010E94C01089
:1022C000F82E8A8781E0F81649F00E94BC21601B35
:1022D000710B613D774068F381E04BC02AEA31E041
:1022E00040E050E068E0CE010E94C01082FF02C0D2
:1022F000FB860DC094E0F92E0E9436108A87FA946E
:10230000D9F78A3A11F082E034C082E08B878B855E
:10231000823031F4C12CD12CE12C80E4F82E03C0A2
:10232000C12CD12C760120E030E0A90167E3CE0179
:102330000E94C010A701960169E2CE010E94C01060
:102340008A87882349F00E94BC21601B710B613D84
:10235000774048F388E00DC08B85823031F520E06E
:1023600030E0A9016AE3CE010E94C010882381F009
:1023700086E08D83CE010E94391080E0DF91CF91FD
:102380001F910F91FF90EF90DF90CF90BF90089535
:102390000E943610807C803C11F483E08B870E9481
:1023A00036100E9436100E943610CE010E9439105D
:1023B0006B2DCE01DF91CF911F910F91FF90EF9088
:1023C000DF90CF90BF900C947A100F931F93CF9310
:1023D000DF93EC010E94BC218B010E9436108A879A
:1023E0008F3F49F40E94BC21601B710B6D3271401C
:1023F000A0F38FE003C08E3F39F08DE08D83CE01D6
:102400000E94391080E001C081E0DF91CF911F91DF
:102410000F910895CF92DF92EF92FF920F931F9347
:10242000CF93DF93EC0169010115110509F462C036
:10243000C801820F931F8130924008F05DC08E81E9
:10244000882371F088819981AA81BB814817590737
:102450006A077B0729F48F819885C816D90610F57D
:10246000488359836A837B838B85833039F039E0D5
:10247000440F551F661F771F3A95D1F79A01AB019C
:1024800061E1CE010E94C010882319F083E08D83A2
:1024900033C0CE010E94E511882371F118861F8296
:1024A00081E08E838F8198858C159D0540F40E9474
:1024B00036108F819885019698878F83F3CF6701B7
:1024C000E00EF11ECE14DF0431F00E943610F6014A
:1024D00081936F01F7CF8F819885800F911F988727
:1024E0008F832985222319F08115924018F0CE019F
:1024F0000E94601081E004C0CE010E94391080E08B
:10250000DF91CF911F910F91FF90EF90DF90CF90CF
:102510000895EF92FF920F931F93790100E012E06C
:1025200020E030E00E940A121F910F91FF90EF907F
:102530000895CF92DF92EF92FF920F931F93CF9364
:10254000DF9300D0CDB7DEB78C01862F49835A8345
:102550000E942F104981C42E5A81D52EE12CF12CD6
:10256000F60181916F010E942F10FFEFEF1AFF0A11
:10257000E11482E0F806A1F78FEF0E942F108FEF91
:102580000E942F100E943610F80182878F718530CB
:1025900039F081E18583C8010E94391080E001C0D3
:1025A00081E00F900F90DF91CF911F910F91FF90DD
:1025B000EF90DF90CF9008950F931F93CF93DF9309
:1025C000EC018901411551056105710511F482E1A4
:1025D00032C08B85833039F089E0440F551F661F68
:1025E000771F8A95D1F79A01AB0168E1CE010E946D
:1025F000C010882311F084E01EC0A8016EEFCE0148
:102600000E9499128823C1F068E572E0CE010E9411
:10261000A510811102C085E10EC020E030E0A901C3
:102620006DE0CE010E94C010811104C00E943610DE
:10263000882339F084E18D83CE010E94391080E037
:1026400004C0CE010E94391081E0DF91CF911F912B
:102650000F91089580E580935603109257030895D3
:10266000CF93DF93EC019C012A5F3F4F41E050E0A4
:1026700060E070E08B8D9C8D0E94871C8823A1F008
:102680004F89588D698D7A8D452B462B472B71F4D8
:102690004E815F81688579854F8B588F698F7A8FDE
:1026A0008C8180688C8302C080E001C081E0DF9172
:1026B000CF910895CF92DF92EF92FF921F93CF9325
:1026C000DF93EC010E943013811102C080E04BC007
:1026D000EB8DFC8DCE80DF80E884F98482E0C81A1F
:1026E000D108E108F108058404C0CC0CDD1CEE1C07
:1026F000FF1C0A94D2F74685578560897189C40EFC
:10270000D51EE61EF71E148181E0C81AD108E10823
:10271000F108112361F0C701B601610F711D811D20
:10272000911D0E94D11A882389F21150F2CFEB8DAE
:10273000FC8DC12C82E0D82EE12CF12C058404C044
:10274000CC0CDD1CEE1CFF1C0A94D2F74B895C8973
:102750006D897E894C0D5D1D6E1D7F1D4B8B5C8BC5
:102760006D8B7E8B81E0DF91CF911F91FF90EF9079
:10277000DF90CF900895CF93DF93EC01462F6E85C5
:102780007F85888999890E94961A882341F08A89D1
:1027900020E2829FC00111248F599C4F02C080E02B
:1027A00090E0DF91CF910895282FFB018BE030E27C
:1027B00031938150E9F7A22FB92F20E037E09D91A6
:1027C000992319F19E3219F0E4EBF0E008C03A3099
:1027D00011F128E03AE0F3CF31964917E1F0449146
:1027E0004111FACF3217B8F04FED490F4E3598F43A
:1027F00041E0420FFB01E20FF11D2FE9290F2A31C1
:1028000008F490529083242FDACF81E0FB0190816D
:10281000903209F480E008950F931F93CF93DF93D4
:10282000EC018B018D81882311F080E040C0FB0119
:1028300087898031B1F482E08D831F8A188E198ECA
:102840001A8E408D518D60E070E095E0440F551F69
:10285000661F771F9A95D1F74B8B5C8B6D8B7E8BA8
:1028600015C0803211F783E08D83FB01428D538DBB
:10287000648D758D4F8B588F698F7A8F9E012D5E79
:102880003F4FC8010E947B1B882379F21C8F0B8F5E
:1028900081E08C831E821F82188619861A861B8609
:1028A0001C861D861E861F86188A198A1A8ADF9141
:1028B000CF911F910F9108952F923F924F925F9267
:1028C0006F927F928F929F92AF92BF92CF92DF9240
:1028D000EF92FF920F931F93CF93DF93EC016B0165
:1028E0005A018D81811103C08FEF9FEFDAC08C8177
:1028F00080FFFACF4B895C896D897E898A859B85AB
:10290000AC85BD852501612C712C8A019B01081BBA
:10291000190B2A0B3B0B041515052605370518F472
:102920005A01A81AB90A25011E0126E0220E311CFF
:102930004114510409F47BC04A855B856C857D8513
:102940004A0181E09822ED818A019B01F9E03695E8
:10295000279517950795FA95D1F78B8D9C8DE230C9
:1029600051F4FC01628D738D848D958D600F711F04
:10297000821F931F3EC0FC0174807A9470228114E0
:102980009104C9F4711017C0452B462B472B49F40D
:102990008F89988DA98DBA8D8E839F83A887B987DB
:1029A0000AC04E815F816885798591010E94F71A7E
:1029B000882309F499CFEB8DFC8D6E817F8188850A
:1029C00099856250710981099109058404C0660FD7
:1029D000771F881F991F0A94D2F7068517852089CB
:1029E0003189600F711F821F931F670D711D811D3B
:1029F000911D20E032E028193909320124153505EE
:102A000008F439012C8126FD04C06114F2E07F0630
:102A1000A1F5009108011091090120910A0130915E
:102A20000B01601771078207930719F426C0C501CF
:102A300038C0760183019401AB01BC0180915F0332
:102A4000909160030E940A12882309F44DCFC60CAE
:102A5000D71C04C0E81BF90BCE0EDF1E8A859B85B0
:102A6000AC85BD85860D971DA11DB11D8A879B87ED
:102A7000AC87BD87461857085BCF40E00E94961A86
:102A8000882309F431CFC4018F599C4FD6019C0192
:102A9000260D371DFC01E217F307E1F241914D933A
:102AA000FACFDF91CF911F910F91FF90EF90DF90C0
:102AB000CF90BF90AF909F908F907F906F905F90DE
:102AC0004F903F902F900895FF920F931F93CF93B5
:102AD000DF931F92CDB7DEB78C01FC018581823078
:102AE00018F480E090E034C0F80142855385648595
:102AF0007585A5E07695679557954795AA95D1F781
:102B0000F42FFF70FF2E41E050E0BE016F5F7F4F5A
:102B1000C8010E945C14019719F4298130E002C0B9
:102B20002FEF3FEF2F3F3F4FE1F2F80142855385F2
:102B300064857585415E5F4F6F4F7F4F4287538736
:102B400064877587F0E2FF9EC00111248F599C4F66
:102B50000F90DF91CF911F910F91FF9008954F92A9
:102B60005F926F927F92AF92BF92CF92DF92EF927D
:102B7000FF920F931F93CF93DF93EC016A017B01C8
:102B80002D81222309F457C08B899C89AD89BE8988
:102B900084179507A607B70708F44DC04EC08A856D
:102BA0009B85AC85BD85EB8DFC8DE585F0E0399688
:102BB000AC01BD0141505109610971090E2E04C0DB
:102BC00076956795579547950A94D2F797018601B0
:102BD000015011092109310904C03695279517952F
:102BE0000795EA95D2F70417150726073707B0F5BA
:102BF0008F89988DA98DBA8D8E839F83A887B98779
:102C0000280139015E0186E0A80EB11C411451046F
:102C10006104710461F14E815F8168857985950158
:102C20008B8D9C8D0E94F71A91E0491A510861081A
:102C300071088111EBCF80E01FC02230C1F0C114B8
:102C4000D104E104F10409F0AACF1E821F82188684
:102C500019861A861B861C861D860DC0892B8A2B19
:102C60008B2B31F2041B150B260B370BC9CFCA86F1
:102C7000DB86EC86FD8681E0DF91CF911F910F917D
:102C8000FF90EF90DF90CF90BF90AF907F906F90CC
:102C90005F904F9008950F931F93CF93DF93EC01B4
:102CA0008D818823C9F18C8187FF30C061E0CE011E
:102CB0000E94BB138C01009779F18D81823048F41A
:102CC0004B895C896D897E89F801448F558F668FA9
:102CD000778F4F89588D698D7A8DF801538F428F88
:102CE000758B648BE0915803F0915903309759F03C
:102CF000B8016A5E7F4FC80148960995F801808D3A
:102D0000918D938B828B8C818F778C83DF91CF9188
:102D10001F910F910C945B1A80E0DF91CF911F916E
:102D20000F910895CF93DF93EC010E944B168823F7
:102D300019F01D8281E001C080E0DF91CF910895FC
:102D40004F925F926F927F92AF92BF92CF92DF923B
:102D5000EF92FF920F931F93CF93DF9300D000D099
:102D6000CDB7DEB75C016A017B01FC018581813052
:102D7000F1F4848181FF1BC0F50183899489A589C1
:102D8000B68984179507A607B70788F0892B8A2B81
:102D90008B2B09F479C0F5014284538464847584D3
:102DA000B701A601C5010E94AF15811102C080E0E4
:102DB0006CC0F501838D948DC114D104E104F1043C
:102DC00071F44789508D618D728D0E949C1D8823FE
:102DD00071F3F501178A108E118E128E3AC0F5012B
:102DE00046815781608571859E012F5F3F4F0E940C
:102DF000F71A8823E1F249815A816B817C81F501C0
:102E0000838D948DFC012789203129F408EF1FEF71
:102E100020E030E004C008EF1FEF2FEF3FE0401745
:102E2000510762077307A8F40E949C1D882309F4C8
:102E3000BECFF50146815781608571850FEF1FEF89
:102E40002FEF3FE0838D948D0E94E61B882309F4C9
:102E5000AECFF501C38AD48AE58AF68A8481806878
:102E60008483C5010E944B16882309F4A0CFB701C3
:102E7000A6014C145D046E047F0410F4B301A2019A
:102E8000C5010E94AF1501C081E00F900F900F9017
:102E90000F90DF91CF911F910F91FF90EF90DF90F6
:102EA000CF90BF90AF907F906F905F904F900895BC
:102EB000FF920F931F93CF93DF93EC01F42E80E2E8
:102EC000689FF0011124EF59FC4F8385817129F02F
:102ED000842F827411F080E053C06A8B80910801C6
:102EE00090910901A0910A01B0910B018E879F87F3
:102EF000A88BB98B4489558960E070E0BA015527E9
:102F00004427028D138D20E030E0402B512B622BA3
:102F1000732B4F8B588F698F7A8F8385887151F40B
:102F2000048D158D268D378D0B8B1C8B2D8B3E8B39
:102F300081E00CC0803179F69E012D5E3F4F8B8D74
:102F40009C8D0E947B1B882331F284E08D838F2D22
:102F50008F708C831E821F82188619861A861B86A4
:102F60001C861D86F6FE0BC040E050E0BA01CE0183
:102F7000DF91CF911F910F91FF900C94A01681E0EB
:102F8000DF91CF911F910F91FF900895AF92BF9263
:102F9000CF92DF92EF92FF920F931F93CF93DF9325
:102FA000CDB7DEB72B970FB6F894DEBF0FBECDBFFF
:102FB0007C016B01CA01B22EF70125812111B9C034
:102FC000BE016F5F7F4F0E94D413882309F4B1C004
:102FD000F601838D948DF701948F838FF60116820D
:102FE0001782108611861286138614861586A12CE8
:102FF000F601028513852485358583899489A58901
:10300000B689081719072A073B07E8F545E0369502
:103010002795179507954A95D1F70F70C6010E941D
:103020006415009709F485C0FC012081222311F06A
:10303000253EB9F4A1100EC0F701028B40910801A2
:103040005091090160910A0170910B0146875787E1
:10305000608B718BFC018081AA24A3948111C8CF5D
:1030600012C04BE050E0BC01CE0101960E94A62E9A
:10307000892B09F0BDCF8B2D8073803309F459C0A3
:103080004B2D602F52C08B2D8271823109F051C0BF
:10309000AA2041F061E0C7010E94BB138C01009798
:1030A00079F447C0F6018581823009F442C0C60137
:1030B0000E945A138823E9F1F701128A01E613E00E
:1030C00080E2F80111928A95E9F78BE0FE013196D2
:1030D000D80101900D928A95E1F7E0915803F091A3
:1030E0005903309739F0B801625F7F4FC8014096AD
:1030F000099509C081E298E2F801918B808B80E00C
:1031000098E097878687F80180899189938B828BD5
:10311000918F808F86859785978B868B0E945B1A0F
:10312000882339F04B2DF7016289C7010E94581797
:1031300001C080E02B960FB6F894DEBF0FBECDBF66
:10314000DF91CF911F910F91FF90EF90DF90CF9083
:10315000BF90AF9008952F923F924F925F926F92DF
:103160007F928F929F92AF92BF92CF92DF92EF9217
:10317000FF920F931F93CF93DF9300D000D01F9245
:10318000CDB7DEB78C017B013A01DC0115968C913D
:1031900015978130C9F414968C9181FF15C082FF78
:1031A0001BC0F80143895489658976898285938596
:1031B000A485B58584179507A607B70769F0C801E8
:1031C0000E94AF15811108C081E090E0F80193835F
:1031D000828380E090E046C1630180C0D8015B96A5
:1031E0008D919C915C97FC01F481F150B501A40193
:1031F00029E076956795579547952A95D1F7F42359
:10320000FD8321E09222FF2309F474C080E092E064
:103210008819990956018C159D0508F45C01D8019F
:103220005B96ED91FC915C9716962D903D904D909C
:103230005C901997B2E02B1A3108410851080584B7
:1032400004C0220C331C441C551C0A94D2F78685FA
:103250009785A089B189280E391E4A1E5B1EED8113
:103260002E0E311C411C511CA114F2E0BF0609F0C6
:1032700088C08091080190910901A0910A01B09144
:103280000B0182159305A405B50559F48FEF9FEF47
:10329000DC018093080190930901A0930A01B09387
:1032A0000B019701B201A10180915F03909160032E
:1032B0000E94DC12882309F487CF9EEFF91ACA18FE
:1032C000DB08F80182859385A485B5858A0D9B1D51
:1032D000A11DB11D82879387A487B587D8011A964F
:1032E0008D909D90AD90BC901D97C114D10409F0B4
:1032F00075CF8AC08114910409F088CF16964D913C
:103300005D916D917C91199741155105610571058C
:1033100059F457968D919D910D90BC91A02D0097D9
:10332000A105B10541F521C09E012F5F3F4F0E94CD
:10333000F71A882309F44ECF89819A81AB81BC8129
:10334000F801238D348DF9012789203129F448EFC4
:103350005FEF60E070E004C048EF5FEF6FEF7FE089
:1033600084179507A607B70730F0C8010E943013ED
:1033700081114CCF29CFF80186839783A087B1872D
:1033800045CF8114910429F5D8011A964D915D918C
:103390006D917C911D9753968D919D910D90BC914F
:1033A000A02D481759076A077B0798F00E945B1AFF
:1033B000882309F409CF2092080130920901409234
:1033C0000A0150920B0180915E03816080935E033D
:1033D00008C041E0C201B1010E94961A882309F495
:1033E000F3CEC4018F599C4FD7019C012A0D3B1D80
:1033F000FC01E217F30719F04D914193FACFE81B56
:10340000F90BEE0EFF1E5BCF53968D919D910D90A3
:10341000BC91A02DF801248188159905AA05BB054A
:1034200038F4838A948AA58AB68A206824830CC0DB
:103430008091580390915903892B31F061147104E4
:1034400019F02068F8012483D80114968C9183FD2B
:1034500002C0C30107C0C8010E944B16882309F4AB
:10346000B3CEF7CF0F900F900F900F900F90DF918A
:10347000CF911F910F91FF90EF90DF90CF90BF9071
:10348000AF909F908F907F906F905F904F903F9004
:103490002F900895CF93DF931F92CDB7DEB7698346
:1034A00041E050E0BE016F5F7F4F0E94AB180F906C
:1034B000DF91CF91089580915E03882399F1409127
:1034C00008015091090160910A0170910B0121E6F8
:1034D00033E080915F03909160030E94DC128823A7
:1034E00019F140915A0350915B0360915C03709114
:1034F0005D03411551056105710591F021E633E049
:1035000080915F03909160030E94DC12882361F038
:1035100010925A0310925B0310925C0310925D03A9
:1035200010925E0381E0089580E00895CF92DF92CB
:10353000EF92FF92CF936B017C01C42F8091080121
:1035400090910901A0910A01B0910B018C159D0584
:10355000AE05BF05D1F00E945B1A811102C080E068
:103560001AC021E633E0B701A60180915F03909174
:1035700060030E948912882391F3C0920801D092BF
:103580000901E0920A01F0920B0180915E038C2BFD
:1035900080935E0381E0CF91FF90EF90DF90CF901A
:1035A0000895CF92DF92EF92FF926B017C010E940F
:1035B0005B1A8823B1F0E1E6F3E0119285E0E13691
:1035C000F807D9F7C0920801D0920901E0920A01E8
:1035D000F0920B0180915E03816080935E0381E035
:1035E00001C080E0FF90EF90DF90CF9008958F9220
:1035F0009F92AF92BF92CF92DF92EF92FF920F9382
:103600001F93CF93DF938C016A017B01E901FC01D9
:1036100081859285A385B4850196A11DB11D84176E
:103620009507A607B70710F480E058C0F801438952
:103630005489658976898789803129F4BB27AF2D24
:103640009E2D8D2D09C0D701C60127E0B695A795FF
:10365000979587952A95D1F74C015D01840E951EAB
:10366000A61EB71EC501B401809008019090090103
:10367000A0900A01B0900B01681579058A059B0599
:1036800089F4F8018789803199F4DD24EE24FF2440
:10369000F601EE0FFF1FEF59FC4F80819181A0E0F2
:1036A000B0E017C040E00E94961A8111EACFBCCF6B
:1036B000E894C7F8DD24EE24FF24F601EE0FFF1F87
:1036C000EE0FFF1FEF59FC4F80819181A281B381E2
:1036D000BF7088839983AA83BB8381E0DF91CF91F8
:1036E0001F910F91FF90EF90DF90CF90BF90AF9020
:1036F0009F908F9008954F925F926F927F92AF92BA
:10370000BF92CF92DF92EF92FF920F931F93CF93CE
:10371000DF9300D000D0CDB7DEB78C0149835A8348
:103720006B837C835901C12CD12C7601412C42E062
:10373000542E612C712C49815A816B817C819E01B0
:103740002F5F3F4FC8010E94F71A882359F1D30118
:10375000C201F801058404C0880F991FAA1FBB1F6E
:103760000A94D2F7C80ED91EEA1EFB1E49815A815F
:103770006B817C818789803129F488EF9FEFA0E0FD
:10378000B0E004C088EF9FEFAFEFBFE048175907E4
:103790006A077B0780F2F501C082D182E282F38260
:1037A00081E001C080E00F900F900F900F90DF91AB
:1037B000CF911F910F91FF90EF90DF90CF90BF902E
:1037C000AF907F906F905F904F9008954F925F926F
:1037D0006F927F928F929F92AF92BF92CF92DF9221
:1037E000EF92FF920F931F93CF93DF93EC016A0147
:1037F0007B0128013901423051056105710508F44A
:1038000074C049855A856B857C854F5F5F4F6F4FCC
:103810007F4F4C155D056E057F0508F466C08B88EB
:103820009C88AD88BE888F89803129F477276F2DD9
:103830005E2D4D2D09C0B701A601E7E0769567958D
:1038400057954795EA95D1F7840E951EA61EB71E8B
:10385000409108015091090160910A0170910B019A
:1038600084169506A606B70671F48F89803199F4FF
:10387000DD24EE24FF24F601EE0FFF1FEF59FC4F6D
:103880005182408218C040E0C501B4010E94961ADE
:103890008111EBCF2AC0E894C7F8DD24EE24FF2481
:1038A000F601EE0FFF1FEE0FFF1FEF59FC4F408296
:1038B00051826282738280915E03816080935E0395
:1038C0008A89823080F08D819E81AF81B885880D94
:1038D000991DAA1DBB1D80935A0390935B03A0936F
:1038E0005C03B0935D0381E001C080E0DF91CF9184
:1038F0001F910F91FF90EF90DF90CF90BF90AF900E
:103900009F908F907F906F905F904F9008952F922F
:103910003F924F925F926F927F929F92AF92BF922F
:10392000CF92DF92EF92FF920F931F93CF93DF938B
:10393000CDB7DEB760970FB6F894DEBF0FBECDBF30
:103940005C014D875E876F87788B1901D9014D9097
:103950005D906D907C90411451046104710431F0CC
:10396000BFEF4B1A5B0A6B0A7B0A10C0FC01408058
:10397000518062807380992493940D851E852F85D4
:103980003889013011052105310509F0912CD50147
:1039900019962D913D914D915C911C972F5F3F4F52
:1039A0004F4F5F4F29873A874B875C8773016201CE
:1039B0001D821E821F821886F50181859285A3854E
:1039C000B4850D811E812F813885081719072A07B4
:1039D0003B0708F056C029853A854B855C852C1538
:1039E0003D054E055F0550F4A2E0CA2ED12CE12C16
:1039F000F12CB2E04B2E512C612C712C9E012F5FCB
:103A00003F4FB701A601C5010E94F71A8823C9F1EB
:103A100049815A816B817C81D701C6010196A11D24
:103A2000B11D452B462B472B19F02C013D010FC032
:103A3000AC01BD0144195509660977090D851E853C
:103A40002F853889401751076207730779F02D8158
:103A50003E814F8158852F5F3F4F4F4F5F4F2D83E2
:103A60003E834F8358876C017D01A6CF0FEF1FEF78
:103A70002FEF3FE0B701A601C5010E94E61B8111AF
:103A800018C080E041C0D701C6010197A109B10962
:103A90008D839E83AF83B88797018601AC01BD01FA
:103AA000C5010E94E61B882361F3CD80DE80EF8094
:103AB000F8844C145D046E047F0428F3D1014D9109
:103AC0005D916D917C91411551056105710599F4E8
:103AD000F10140825182628273829920A1F0FFEF4E
:103AE0004F1A5F0A6F0A7F0AD5014D925D926D925F
:103AF0007C92139708C093018201C5010E94E61BC6
:103B00008111E6CFBECF81E060960FB6F894DEBF9C
:103B10000FBECDBFDF91CF911F910F91FF90EF901E
:103B2000DF90CF90BF90AF909F907F906F905F900D
:103B30004F903F902F900895AF92BF92CF92DF9217
:103B4000EF92FF920F931F93CF93DF9300D000D09B
:103B5000CDB7DEB75C016A017B0182E090E0A0E0B6
:103B6000B0E0F50180839183A283B3839E012F5F30
:103B70003F4FB701A601C5010E94F71A882311F132
:103B800000E010E09801B701A601C5010E94E61B04
:103B90008823C1F0C980DA80EB80FC80F501878939
:103BA000803129F488EF9FEFA0E0B0E004C088EFF7
:103BB0009FEFAFEFBFE0C816D906EA06FB06B0F2EA
:103BC00081E001C080E00F900F900F900F90DF9187
:103BD000CF911F910F91FF90EF90DF90CF90BF900A
:103BE000AF9008958F929F92AF92BF92CF92DF9243
:103BF000EF92FF920F931F93CF93DF93EC01142F5B
:103C00007093600360935F03442341F1453010F0EB
:103C100080E0EFC040E060E070E0CB010E94961AC7
:103C20008823B1F320E1129FF0011124E15FFA4FE4
:103C300080818F7769F784859585A685B7858436D9
:103C40009105A105B10520F3C084D184E284F384F9
:103C5000C114D104E104F10421F4DACFC12CD12C38
:103C6000760140E0C701B6010E94961A882381F2CE
:103C700080916C0390916D038115924049F63091CB
:103C80007103332329F280916F0390917003892B84
:103C900009F4BECF20916E03222309F4B9CF3A8BE9
:103CA0002C831D8630E041E050E06D85062FCA016F
:103CB000062E02C0880F991F0A94E2F728173907C9
:103CC00031F081E0860F8D87683078F3A1CF2091A5
:103CD0007703309178032115310519F040E050E069
:103CE00008C020918503309186034091870350914D
:103CF00088032D833E834F83588780916F03909173
:103D0000700346015701880E991EA11CB11C8B8AB5
:103D10009C8AAD8ABE8AE0917203F0917303F98F99
:103D2000E88FA0917103B0E00E94342B680D791DDB
:103D30008A1D9B1D6A8F7B8F8C8F9D8F15E0EE0FE8
:103D4000FF1F1A95E1F7E150FE4FEF2FFF27E69591
:103D5000DC01CB018E0F9F1FA11DB11D8E879F8798
:103D6000A88BB98B80907403909075038114910493
:103D700019F0A12CB12C08C080908103909082038F
:103D8000A0908303B0908403A7019601281B390BF0
:103D90004A0B5B0BDA01C901880D991DAA1DBB1DD9
:103DA00004C0B695A795979587950A95D2F7898708
:103DB0009A87AB87BC87853F3FE09307A105B10594
:103DC00010F48CE014C0853F9F4FA105B10510F49D
:103DD00080E10DC080918D0390918E03A0918F039F
:103DE000B09190038A8F9B8FAC8FBD8F80E28F8BB9
:103DF00081E0DF91CF911F910F91FF90EF90DF90C5
:103E0000CF90BF90AF909F908F900895CF93DF9306
:103E1000EC0188859985009711F00E940D2C8E8108
:103E200087FD05C060E0DF91CF910C944F22DF91B8
:103E3000CF910895CF93DF93EC018E8187FD07C06A
:103E400061E00E944F2260E08E810E94882281E022
:103E50008983DF91CF910895EF92FF920F931F9383
:103E6000CF93DF93EC017B0188859985009711F052
:103E70000E940D2C9D858A85981303C083E090E0F5
:103E800002C084E090E08E9D80018F9D100D9E9D6C
:103E9000100D11241D830C83C8010E94752B998776
:103EA0008887009741F0A80160E070E00E94BC2E76
:103EB000FB82EA8204C01D821C821B821A82DF916F
:103EC000CF911F910F91FF90EF900895FC0121E099
:103ED00095858285981320E0CB0136E096958795ED
:103EE0003A95E1F7482F43704587CB0154E096950A
:103EF00087955A95E1F7382F33703287CB01969525
:103F000087959695879583708387862F837084879E
:103F100081E06F3F710511F008F080E080838085BB
:103F20009185892B51F091E0431390E0921729F08D
:103F300062817381CF010C942C1F0895CF92DF9280
:103F4000EF92FF920F931F93CF93DF93CDB7DEB71E
:103F500029970FB6F894DEBF0FBECDBF8C01DC01F0
:103F600018968D919C911997892B09F49AC00E94FB
:103F7000C821F801C684D784E088F1886C197D09CE
:103F80008E099F09623371058105910580F3F894CC
:103F9000848195819A838983A085B1857D01EFEF26
:103FA000EE1AFE0A8C918987D8019C9152960D9049
:103FB000BC91A02DF8018489992309F42EC09C910D
:103FC000982B98879C91809589238F838F818E83EE
:103FD00088E08D8358856F8149853D812E81898157
:103FE0009A81F7015C9347FD252F3A952C93262F54
:103FF00039F0441F00C000006C93000000C0F2CFF5
:1040000038E041916C930000019761F7F801B38BA0
:10401000A28B49873D832E8338C09C91982B98872B
:104020009C91809589238F838F818C8388E08B83FB
:1040300058856F8149853B812C8189819A81F7015F
:104040005C9347FD252F00C000C02C9300C000C02A
:1040500000C000C000C06C930000262F3A9541F0CC
:10406000441F000000C000C000C000C000C0E8CF76
:1040700038E0419100C06C9300C0019709F7F80146
:10408000B38BA28B49873B832C839A838983789453
:104090000E94C821D8011E966D937D938D939C93A9
:1040A000519729960FB6F894DEBF0FBECDBFDF91B2
:1040B000CF911F910F91FF90EF90DF90CF900895D7
:1040C0001F93CF93DF93EC01162F8981882331F062
:1040D0008E8187FD03C060E00E944F221E8389818C
:1040E000882341F061E0812F0E944F2260E0812F00
:1040F0000E948822812F90E0FC01E451FF4FE4915F
:10410000F0E0EE0FFF1FE65FFE4F259134913B8BF1
:104110002A8BFC01E852FF4F84918C8BDF91CF9169
:104120001F910895EF92FF920F931F93CF93DF9308
:104130001F92CDB7DEB77C018B01FC011182178283
:104140001186108616861786108A118AB90149834E
:104150000E94661FB801C7010E942C1F4981642F6D
:10416000C7010F90DF91CF911F910F91FF90EF90BA
:104170000C946020CF92DF92EF92FF920F931F93E7
:10418000CF93DF93FC01828193816817790708F050
:104190004DC0CA01AA27BB27182FC32ED42EE52E47
:1041A000FF24DC2DC22F0781002361F0809FC00116
:1041B0001124192FC09E60011124DD2D209FC00104
:1041C0001124C92FF5848285A085B185F81208C015
:1041D000CB01880F991F860F971F8A0F9B1F17C04F
:1041E000CB01880F991F880F991F8A0F9B1F452F9E
:1041F000552766277727DC01AF0DB11D002329F075
:10420000409F90011124232F01C0242F2C9322853D
:10421000DC01A20FB11D1C932385DC01A20FB11D8F
:10422000DC932485FC01E20FF11DC083DF91CF9167
:104230001F910F91FF90EF90DF90CF900895962FF0
:1042400050E060E070E0592B682BCB01BA01089573
:10425000FF920F931F93CF93DF93EC01FF24F3940E
:10426000F60E2F81F21679F1088519852150B9F0E3
:104270006F3F59F430E040E050E06FEF7FEF80E0B7
:1042800090E00E94152BB9010CC08F2D90E0982F63
:1042900088270197622F70E00E94CB2A02C060E05D
:1042A00070E0F8018C819D81AF01401B510B4817D4
:1042B000590740F44081469FC001479F900D11244B
:1042C0009193F0CFFF82DF91CF911F910F91FF90DB
:1042D0000895FC014481558160E070E080859185FE
:1042E0000C94BC2E1F920F920FB60F9211242F9395
:1042F0003F938F939F93AF93BF938091620590916B
:104300006305A0916405B09165053091610523E0D6
:10431000230F2D3720F40196A11DB11D05C026E8FD
:10432000230F0296A11DB11D2093610580936205A4
:1043300090936305A0936405B0936505809166052D
:1043400090916705A0916805B09169050196A11D3E
:10435000B11D8093660590936705A0936805B0939F
:104360006905BF91AF919F918F913F912F910F90D0
:104370000FBE0F901F9018952FB7F89460916205AB
:104380007091630580916405909165052FBF089534
:104390003FB7F8948091660590916705A0916805F4
:1043A000B091690526B5A89B05C02F3F19F001966D
:1043B000A11DB11D3FBF6627782F892F9A2F620F4D
:1043C000711D811D911D42E0660F771F881F991F87
:1043D0004A95D1F70895789484B5826084BD84B5F8
:1043E000816084BD85B5826085BD85B5816085BDF0
:1043F000EEE6F0E0808181608083E1E8F0E0108209
:10440000808182608083808181608083E0E8F0E049
:10441000808181608083E1EBF0E080818460808333
:10442000E0EBF0E0808181608083EAE7F0E080816A
:1044300084608083808182608083808181608083CA
:104440008081806880831092C1000895833081F05C
:1044500028F4813099F08230A1F008958730A9F0D6
:104460008830B9F08430D1F4809180008F7D03C012
:10447000809180008F7780938000089584B58F7736
:1044800002C084B58F7D84BD08958091B0008F7780
:1044900003C08091B0008F7D8093B0000895CF93CA
:1044A000DF9390E0FC01E852FF4F2491FC01E451BE
:1044B000FF4F8491882349F190E0880F991FFC01F8
:1044C000EC5EFE4FA591B491865F9E4FFC01C591B5
:1044D000D4919FB7611108C0F8948C9120958223E4
:1044E0008C93888182230AC0623051F4F8948C91B5
:1044F000322F309583238C938881822B888304C04C
:10450000F8948C91822B8C939FBFDF91CF9108956B
:104510000F931F93CF93DF931F92CDB7DEB7282F52
:1045200030E0F901EC53FF4F8491F901E852FF4F5D
:104530001491F901E451FF4F04910023C9F088233D
:1045400021F069830E9426226981E02FF0E0EE0FBE
:10455000FF1FE65FFE4FA591B4919FB7F8948C9131
:10456000611103C01095812301C0812B8C939FBFE3
:104570000F90DF91CF911F910F910895CF93DF930B
:10458000282F30E0F901EC53FF4F8491F901E852F4
:10459000FF4FD491F901E451FF4FC491CC2391F026
:1045A00081110E942622EC2FF0E0EE0FFF1FE05059
:1045B000FF4FA591B4912C912D2381E090E021F43F
:1045C00080E002C080E090E0DF91CF910895FC018F
:1045D000818D228D90E0805C9F4F821B91098F73AB
:1045E00099270895FC01918D828D981731F0828D65
:1045F000E80FF11D858D90E008958FEF9FEF0895EE
:10460000FC01918D828D981761F0828DDF01A80FDA
:10461000B11D5D968C91928D9F5F9F73928F90E0FC
:1046200008958FEF9FEF089584E894E2892B49F075
:1046300080E090E0892B29F00E94842481110C9461
:1046400000000895FC01848DDF01A80FB11DA35A5D
:10465000BF4F2C91848D90E001968F739927848FA2
:10466000A689B7892C93A089B1898C9180648C9399
:10467000938D848D981306C00288F389E02D808184
:104680008F7D80830895CF93DF93EC01888D8823FD
:10469000C9F0EA89FB89808185FD05C0A889B989AF
:1046A0008C9186FD0FC00FB607FCF5CF808185FF8A
:1046B000F2CFA889B9898C9185FFEDCFCE010E94F8
:1046C0002223E7CFDF91CF910895CF92DF92FF921F
:1046D0000F931F93CF93DF931F92CDB7DEB76C017B
:1046E00081E0D60158968C9358975B969C915B9786
:1046F0005C968C915C97981307C05096ED91FC9155
:104700005197808185FD2EC0F601038D10E00F5F6B
:104710001F4F0F731127F02EF601848DF81211C070
:104720000FB607FCF9CFD6015096ED91FC91519749
:10473000808185FFF1CFC60169830E9422236981B0
:10474000EBCF838DE80FF11DE35AFF4F6083D60155
:104750005B960C935B975296ED91FC9153978081F9
:1047600080620CC0D6015696ED91FC9157976083FC
:104770005096ED91FC91519780818064808381E017
:1047800090E00F90DF91CF911F910F91FF90DF90FC
:10479000CF900895BF92CF92DF92EF92FF92CF9386
:1047A000DF93EC016A017B01B22EE889F98982E08E
:1047B0008083411581EE580761057105A1F060E025
:1047C00079E08DE390E0A70196010E94F32A215041
:1047D0003109410951095695479537952795211576
:1047E00080E1380798F0E889F989108260E874E878
:1047F0008EE190E0A70196010E94F32A2150310931
:10480000410951095695479537952795EC85FD85C2
:104810003083EE85FF852083188EEC89FD89B08278
:10482000EA89FB89808180618083EA89FB898081B4
:1048300088608083EA89FB89808180688083EA8937
:10484000FB8980818F7D8083DF91CF91FF90EF90F6
:10485000DF90CF90BF9008951F920F920FB60F92E6
:1048600011242F938F939F93EF93FF93E0917A05F9
:10487000F0917B058081E0918005F091810582FDBA
:1048800012C09081809183058F5F8F732091840582
:10489000821751F0E0918305F0E0E659FA4F958FC9
:1048A0008093830501C08081FF91EF919F918F914B
:1048B0002F910F900FBE0F901F9018951F920F927F
:1048C0000FB60F9211242F933F934F935F936F93E3
:1048D0007F938F939F93AF93BF93EF93FF938AE65A
:1048E00095E00E942223FF91EF91BF91AF919F919C
:1048F0008F917F916F915F914F913F912F910F9089
:104900000FBE0F901F9018958AE695E00E94E7224F
:1049100021E0892B09F420E0822F089510926D0583
:1049200010926C0588EE93E0A0E0B0E080936E05F5
:1049300090936F05A0937005B09371058AEA91E09A
:1049400090936B0580936A0585EC90E090937705D2
:104950008093760584EC90E09093790580937805B8
:1049600080EC90E090937B0580937A0581EC90E059
:1049700090937D0580937C0582EC90E090937F0579
:1049800080937E0586EC90E090938105809380056E
:104990001092830510928405109285051092860569
:1049A000089508950E94EB210E94D1240E942606BA
:1049B000C4E1D3E20E94D8072097E1F30E941423B8
:1049C000F9CFCF92DF92EF92FF920F931F93CF9385
:1049D000DF937C016A01EB0100E010E00C151D057E
:1049E00071F06991D701ED91FC910190F081E02D7A
:1049F000C7010995892B19F00F5F1F4FEFCFC80131
:104A0000DF91CF911F910F91FF90EF90DF90CF90AA
:104A100008956115710581F0DB010D900020E9F723
:104A2000AD0141505109461B570BDC01ED91FC9142
:104A30000280F381E02D099480E090E00895DC018C
:104A4000ED91FC91DB0114964D915C9115976D9160
:104A50007C910280F381E02D099466EB71E00C9467
:104A600009250F931F93CF93DF93EC010E941F251D
:104A70008C01CE010E942D25800F911FDF91CF91D7
:104A80001F910F9108950F931F93CF93DF93EC0124
:104A90000E9409258C01CE010E942D25800F911FB7
:104AA000DF91CF911F910F910895FC018081918139
:104AB0000C940D2CCF93DF93EC01888199810097A2
:104AC00011F00E940D2C198218821D821C821B82FB
:104AD0001A82DF91CF9108950F931F93CF93DF93A5
:104AE000EC018B016F5F7F4F888199810E949C2C24
:104AF000009731F0998388831B830A8381E001C08A
:104B000080E0DF91CF911F910F910895CF93DF93B4
:104B1000EC0188819981892B29F08A819B818617F4
:104B2000970760F4CE010E946C25882341F08C81A8
:104B30009D81892B19F4E881F981108281E0DF9150
:104B4000CF910895EF92FF920F931F93CF93DF932E
:104B5000EC017B018A01BA010E948625811104C003
:104B6000CE010E945A2507C01D830C83B70188819E
:104B700099810E94CE2ECE01DF91CF911F910F918E
:104B8000FF90EF900895FC0111821082138212822F
:104B9000158214826115710559F0FB010190002006
:104BA000E9F7AF0141505109461B570B0C94A22560
:104BB0000895CF93DF93EC01FB018617970761F00F
:104BC000608171816115710529F0448155810E94D0
:104BD000A22502C00E945A25CE01DF91CF910895EF
:104BE000FC011182108213821282158214820C94AD
:104BF000D925CF93DF93EC016115710561F0FB01BD
:104C000001900020E9F7AF0141505109461B570BB5
:104C10000E94A22502C00E945A25CE01DF91CF91A9
:104C200008950F931F93CF93DF93CDB7DEB76197AE
:104C30000FB6F894DEBF0FBECDBF8C01CB01F801DB
:104C400011821082138212821582148250E0BE01FA
:104C50006F5F7F4F0E94E42EBE016F5F7F4FC801E0
:104C60000E94F92561960FB6F894DEBF0FBECDBF46
:104C7000DF91CF911F910F910895EF92FF920F93C3
:104C80001F93CF93DF93CDB7DEB7A1970FB6F894FC
:104C9000DEBF0FBECDBF7C01CB01BA01F70111828F
:104CA0001082138212821582148242E0420F8E011A
:104CB0000F5F1F4F0E94542BBC01C7010E94F925B2
:104CC000A1960FB6F894DEBF0FBECDBFDF91CF9196
:104CD0001F910F91FF90EF900895EF92FF920F9325
:104CE0001F93CF93DF93EC017B010C811D81611534
:104CF000710511F480E016C04115510591F0040FC3
:104D0000151FB8010E9486258823A1F328813981C7
:104D10008C819D81B701820F931F0E94CE2E1D832F
:104D20000C8381E0DF91CF911F910F91FF90EF9065
:104D30000895CF93DF9300D0CDB7DEB769831A8291
:104D400041E050E0BE016F5F7F4F0E946D260F90E3
:104D50000F90DF91CF910895EF92FF920F931F93E1
:104D6000CF93DF93CDB7DEB764970FB6F894DEBF6D
:104D70000FBECDBF7C01CB01BA018E010F5F1F4F6B
:104D800022E044E00E94542BFC0101900020E9F74E
:104D9000AF0141505109481B590BBC01C7010E948A
:104DA0006D2664960FB6F894DEBF0FBECDBFDF91BF
:104DB000CF911F910F91FF90EF900895CF93DF93C4
:104DC000EC01FB0144815581608171810E946D2657
:104DD000811103C0CE010E945A25CE01DF91CF91EF
:104DE0000895CF93DF93EC016115710569F0FB0124
:104DF00001900020E9F7AF0141505109461B570BC4
:104E00000E946D26811103C0CE010E945A25CE0159
:104E1000DF91CF910895CF93DF93EC010E94992603
:104E2000811103C0CE010E945A25CE01DF91CF919E
:104E30000895CF93DF93EC010E94AC26811103C04B
:104E4000CE010E945A25CE01DF91CF91089550588E
:104E5000BB27AA270ED083C24CD230F051D220F00B
:104E600031F49F3F11F41EF41CC20EF4E095E7FBF1
:104E700004C2E92F96D280F3BA176207730784073A
:104E8000950718F071F49EF5AEC20EF4E0950B2E66
:104E9000BA2FA02D0B01B90190010C01CA01A0018C
:104EA0001124FF27591B99F0593F50F4503E68F1E7
:104EB0001A16F040A22F232F342F4427585FF3CF28
:104EC000469537952795A795F0405395C9F77EF4F9
:104ED0001F16BA0B620B730B840BBAF09150A1F042
:104EE000FF0FBB1F661F771F881FC2F70EC0BA0FC8
:104EF000621F731F841F48F4879577956795B79550
:104F0000F7959E3F08F0B3CF9395880F08F0992747
:104F1000EE0F979587950895ECD158F080E891E0D1
:104F200009F49EEFEDD128F040E851E059F45EEF2E
:104F300009C0B7C158C2E92FE07833D268F3092E0F
:104F4000052AC1F3261737074807590738F00E2EF0
:104F500007F8E02569F0E025E0640AC0EF6307F890
:104F6000009407FADB01B9019D01DC01CA01AD0122
:104F7000EF934AD0F4D10AD05F91552331F02BED55
:104F80003FE049E450FD49EC63CF0895DF93DD270E
:104F9000B92FBF7740E85FE31616170648075B078F
:104FA00010F4D92F2BD29F938F937F936F93D8D2E6
:104FB000E8E6F0E079D1D3D12F913F914F915F9105
:104FC00030D2DD2349F09058A2EA2AED3FE049ECC7
:104FD0005FE3D0785D274DDFDF91C1C12AD108F4AE
:104FE00081E0089595D1E395CBC10CD0B8C188D1AB
:104FF00040F07FD130F021F45F3F19F03EC15111F4
:10500000F3C14FC1CED198F39923C9F35523B1F31E
:10501000951B550BBB27AA2762177307840738F027
:105020009F5F5F4F220F331F441FAA1FA9F333D086
:105030000E2E3AF0E0E830D091505040E695001C3A
:10504000CAF729D0FE2F27D0660F771F881FBB1FF6
:10505000261737074807AB07B0E809F0BB0B802DD0
:10506000BF01FF2793585F4F2AF09E3F510568F01C
:1050700004C1BAC15F3FECF3983EDCF386957795A7
:105080006795B795F7959F5FC9F7880F911D96951E
:10509000879597F90895E1E0660F771F881FBB1F7A
:1050A000621773078407BA0720F0621B730B840B27
:1050B000BA0BEE1F88F7E095089504D06894B111FB
:1050C00093C1089576D188F09F5790F0B92F992712
:1050D000B751A0F0D1F0660F771F881F991F1AF003
:1050E000BA95C9F712C0B13081F07DD1B1E0089511
:1050F0007AC1672F782F8827B85F39F0B93FCCF392
:10510000869577956795B395D9F73EF490958095F8
:10511000709561957F4F8F4F9F4F0895E89409C018
:1051200097FB3EF490958095709561957F4F8F4FDA
:105130009F4F9923A9F0F92F96E9BB279395F695F0
:10514000879577956795B795F111F8CFFAF4BB0F6E
:1051500011F460FF1BC06F5F7F4F8F4F9F4F16C0D2
:10516000882311F096E911C0772321F09EE8872F5C
:10517000762F05C0662371F096E8862F70E060E018
:105180002AF09A95660F771F881FDAF7880F969591
:10519000879597F90895ADD018F011F0B1D038F493
:1051A00080C022C1E92FFDD0B0F35523C9F3E7FB3E
:1051B0006217730784079507A8F199F3E92FFF2772
:1051C00088232AF03197660F771F881FDAF7952F0B
:1051D0005527442332F091505040220F331F441F73
:1051E000D2F7BB27E91BF50B621B730B840BB109CC
:1051F000C1F222F4620F731F841FB11D31972AF090
:10520000660F771F881FBB1FEFCF915050405AF099
:1052100041F0882332F0660F771F881F915050406D
:10522000C1F7939530C08695779567959F5FD9F7BD
:10523000F8CF990F0008550FAA0BE0E8FEEF1616FD
:105240001706E807F907C0F012161306E407F5077A
:1052500098F0621B730B840B950B39F40A2661F0EE
:10526000232B242B252B21F408950A2609F4A14091
:10527000A6958FEF811D811D089597F99F6780E89E
:1052800070E060E008959F3F31F0915020F48795E1
:1052900077956795B795880F911D9695879597F99E
:1052A00008959FEF80EC0895DF93CF931F930F93A2
:1052B000FF92EF92DF927B018C01689405C0DA2E99
:1052C000EF01AFD0FE01E894A5912591359145916C
:1052D0005591AEF3EF01CDDDFE019701A801DA94FF
:1052E00079F7DF90EF90FF900F911F91CF91DF91B1
:1052F000089500240A94161617061806090608953C
:1053000000240A9412161306140605060895C9CF40
:1053100050D0E8F3E894E0E0BB279F57F0F02AED87
:105320003FE049EC06C0EE0FBB0F661F771F881FDA
:1053300028F0B23A62077307840728F0B25A620B6A
:10534000730B840BE3959A9572F7803830F49A9535
:10535000BB0F661F771F881FD2F7904896CF092E84
:105360000394000C11F4882352F0BB0F40F4BF2BC0
:1053700011F460FF04C06F5F7F4F8F4F9F4F089500
:10538000EF93E0FF06C0A2EA2AED3FE049EC5FEBB5
:1053900070DDE5DF0F90039401FC9058E5E9F0E043
:1053A000E9C057FD9058440F551F59F05F3F71F009
:1053B0004795880F97FB991F61F09F3F79F087957C
:1053C0000895121613061406551FF2CF4695F1DF05
:1053D00008C0161617061806991FF1CF8695710595
:1053E000610508940895E894BB2766277727CB01C9
:1053F00097F908951EDF08F48FEF08959B01AC0123
:1054000060E070E080E89FE3F0CD0BD0A8CF71DFC3
:1054100028F076DF18F0952309F02FCF42CF112422
:10542000E3CFBFDFA0F3959FD1F3950F50E0551F59
:10543000629FF001729FBB27F00DB11D639FAA27E9
:10544000F00DB11DAA1F649F6627B00DA11D661F38
:10545000829F2227B00DA11D621F739FB00DA11D59
:10546000621F839FA00D611D221F749F3327A00D13
:10547000611D231F849F600D211D822F762F6A2FAF
:1054800011249F5750408AF0E1F088234AF0EE0F34
:10549000FF1FBB1F661F771F881F91505040A9F741
:1054A0009E3F510570F0E9CE9FCF5F3FECF3983EF1
:1054B000DCF3869577956795B795F795E7959F5FA8
:1054C000C1F7FE2B880F911D9695879597F9089542
:1054D0009F931EDF0F9007FCEE5F52CF11F40EF486
:1054E000E0CED1CE66DFD0F39923D9F3CEF39F5728
:1054F000550B87FF38D00024A0E640EA9001805881
:105500005695979528F4805C660F771F881F20F0CA
:1055100026173707480730F4621B730B840B2029CA
:1055200031294A2BA69517940794202531254A271F
:1055300058F7660F771F881F20F026173707480790
:1055400030F4620B730B840B200D311D411DA095AF
:1055500081F7B901842F9158880F96958795089502
:105560009B01AC0152CF91505040660F771F881FAE
:10557000D2F708959F938F937F936F93FF93EF9349
:105580009B01AC0142DFEF91FF918EDE2F913F91A5
:105590004F915F913ACFAA1BBB1B51E107C0AA1FD5
:1055A000BB1FA617B70710F0A61BB70B881F991FC4
:1055B0005A95A9F780959095BC01CD01089597FB68
:1055C000072E16F4009407D077FD09D00E94CB2A4D
:1055D00007FC05D03EF4909581959F4F08957095F6
:1055E00061957F4F0895A1E21A2EAA1BBB1BFD01F6
:1055F0000DC0AA1FBB1FEE1FFF1FA217B307E407B2
:10560000F50720F0A21BB30BE40BF50B661F771F09
:10561000881F991F1A9469F76095709580959095E9
:105620009B01AC01BD01CF010895052E97FB1EF42F
:1056300000940E942C2B57FD07D00E94F32A07FCF0
:1056400003D04EF40C942C2B509540953095219519
:105650003F4F4F4F5F4F089590958095709561959E
:105660007F4F8F4F9F4F08950E94452BA59F900D10
:10567000B49F900DA49F800D911D11240895EE0FED
:10568000FF1F0590F491E02D0994A29FB001B39FF4
:10569000C001A39F700D811D1124911DB29F700D3B
:1056A000811D1124911D0895EF920F931F93CF93A5
:1056B000DF93E80147FF02C034E101C034E0E42F8A
:1056C000FF27E7FDF095F7FF03C0F195E195F1099C
:1056D000E32E022F2E2FAE010E94092FCE01DF9163
:1056E000CF911F910F91EF900895CF93DF93823068
:1056F000910510F482E090E0E0910906F0910A062D
:1057000020E030E0A0E0B0E0309739F140815181F5
:1057100048175907B8F04817590771F482819381E7
:10572000109729F013969C938E9312972CC0909308
:105730000A068093090627C02115310531F042176A
:10574000530718F0A901DB0101C0EF019A01BD0167
:10575000DF010280F381E02DD7CF21153105F9F06B
:10576000281B390B2430310580F48A819B81611517
:10577000710521F0FB019383828304C090930A0694
:1057800080930906FE01329644C0FE01E20FF31F2A
:105790008193919322503109398328833AC0209113
:1057A000070630910806232B41F420910201309125
:1057B00003013093080620930706209100013091E1
:1057C00001012115310541F42DB73EB74091040187
:1057D00050910501241B350BE0910706F091080656
:1057E000E217F307A0F42E1B3F0B2817390778F0B8
:1057F000AC014E5F5F4F2417350748F04E0F5F1F17
:1058000050930806409307068193919302C0E0E00D
:10581000F0E0CF01DF91CF910895CF93DF93009710
:1058200009F487C0FC01329713821282C0910906E5
:10583000D0910A06209781F420813181280F391FE9
:1058400080910706909108068217930779F5F093E7
:105850000806E09307066DC0DE0120E030E0AE17D9
:10586000BF0750F412964D915C9113979D0141151D
:10587000510509F1DA01F3CFB383A283408151814D
:10588000840F951F8A179B0771F48D919C91119736
:10589000840F951F02969183808312968D919C911F
:1058A0001397938382832115310529F4F0930A0617
:1058B000E09309063EC0D9011396FC93EE9312972C
:1058C0004D915D91A40FB51FEA17FB0779F4808114
:1058D0009181840F951F0296D90111969C938E9306
:1058E0008281938113969C938E931297E0E0F0E06F
:1058F0008A819B81009719F0FE01EC01F9CFCE015E
:10590000029628813981820F931F209107063091DA
:1059100008062817390769F4309729F410920A0607
:105920001092090602C013821282D0930806C09317
:105930000706DF91CF910895A0E0B0E0E2EAFCE233
:105940000C940133EC01CB01209719F40E94752BC4
:10595000B8C0FE01E60FF71F9E0122503109E21781
:10596000F30708F4ACC0D9010D911C9111970617EB
:105970001707B8F00530110508F49FC0A80144507E
:1059800051094617570708F498C002501109061B21
:10599000170B019311936D937C93CF010E940D2CF3
:1059A0008CC05B01A01AB10A4E01800E911EA0911D
:1059B0000906B0910A06612C712C60E070E0109726
:1059C00009F449C0A815B905C9F5ED90FC901197E7
:1059D000670142E0C40ED11CCA14DB0478F1470110
:1059E0008A189B08640142E0C40ED11C1296BC9038
:1059F00012971396AC91B5E0CB16D10440F0B28269
:105A0000A38391828082D9018D939C9309C00E5FFC
:105A10001F4F0E0D1F1DF90111830083EB2DFA2F6F
:105A20006115710531F0DB011396FC93EE9312972B
:105A300044C0F0930A06E09309063FC06D917C9143
:105A400011976616770608F43B01BD0112960D907A
:105A5000BC91A02DB4CF609107067091080668151F
:105A60007905E9F468167906D0F440910001509167
:105A700001014115510541F44DB75EB76091040134
:105A800070910501461B570BE417F507C0F4F0931E
:105A90000806E0930706F901918380830EC00E94F7
:105AA000752B7C01009759F0A801BE010E94B32E0E
:105AB000CE010E940D2CC70104C0CE0102C080E0BF
:105AC00090E0CDB7DEB7EEE00C941D332F923F92FD
:105AD0005F926F927F928F929F92AF92BF92CF927E
